:020000024000BC
:10E000006FE0B1310000000000180118002801285D
:10E0100002280328002901290229032904290529A6
:10E02000062907290829002A012A022A032A042A84
:10E03000052AA62A60D2060060010500DC03002044
:10E0400020040020980300208603002052030020B3
:10E05000D801050000020500CE020500C604050037
:10E0600070050500EAFF04007CFF040002020020A6
:10E07000A8FF0400EE0905001A050020AE01050006
:10E08000040705002C8C06000A8E0600748E06001C
:10E090000C4E0600204E06007E0E0600A002060072
:10E0A0008A86060034070500CC5406000CB0050033
:10E0B0009CB00500F6B005003E1205007C1205007C
:10E0C000FC100500AA720500D06D05004007002075
:10E0D000FA7E050060820500F46005009660050088
:10E0E000586405004061050074600500EC6005009F
:10E0F0002A600500BA61050012620500C2610500D0
:10E10000C66105005C6205001A6205004A620500EE
:10E110000C67050010670500B6610500BE610500CB
:10E120005A6205000E670500086305006A6805006D
:10E13000AC8F0500209005005A900500F67405008C
:10E140000C75050044750500D25A0500B05B05004A
:10E15000145C0500462E05008A290500D8510500EB
:10E16000082A0500204D050086B00600AAAD06006D
:10E170009EB70600A0C6060076C5060086C9060042
:10E1800042C906007EC90600C4C90600D29E060028
:10E19000C0C9060000BE060026BE060046BE060038
:10E1A00034CA060074C3060012C30600A4CA0600DF
:10E1B0008E9F060022A0060042A00600F49F0600E3
:10E1C000AA6C0600E6590600185D0600AE5A060065
:10E1D000FE6206001E87060018860600069F0600DF
:10E1E0009A0B0500304E0600AC540600A4550600FC
:10E1F0004C800600D4800600B4810600CC7805006F
:10E200005E6C06007263060036690600EE65060065
:10E2100096590600E0060020D64E0600ACC906005E
:10E2200046C906007AC9060076C906006C040500D6
:10E2300036760500B4C90600A06E0600F46F06002D
:10E2400062700600DCB70600B0C90600B8C9060057
:10E250002C020600BCC90600CE140020281900209C
:10E2600000000000000000000000000000000000AE
:10E27000000000000000000000000000000000009E
:10E280006373B60082801C419105110523AEF5FE33
:10E29000C5BFB727002037270020938707DB130768
:10E2A00007306373F700828023A007009107D5BF72
:10E2B0005DC5AA870145D5C58D07C207C183F19BFE
:10E2C000C207C18313074003636CF702372700209E
:10E2D000032587DB37270020832607DB6397A60209
:10E2E00037270020032787F8014525CF4111C207B2
:10E2F00006C60545DD8D0297B24001454101828089
:10E3000037270020032547DBF1B77A2139E75A2167
:10E310006365F704B72600203306F740214893864B
:10E3200046F96375C8028328050003D86600138682
:10E3300087001D8F2A9661175AA2232016012313E6
:10E34000060010C15EA1130788FFFAA26EA1EE229B
:10E350002105B387F540FEA28280084141B70145FF
:10E360008280828009CDB727002003A387DBB727EF
:10E37000002083A807DB81469A8763E31701828028
:10E3800003A80700636BF5086369A8081387870073
:10E39000E367E5FEF223216705076319E6003726E8
:10E3A0000020034786E70507230CE6E63726002012
:10E3B000130546F9CE237A2123930700130646F965
:10E3C0002E97420741837AA1638367023725002095
:10E3D000032545DB630DF500EA2211E9DE2223A0C7
:10E3E00006012107BE95A105CEA27AA2B687984361
:10E3F000E30717F9B726002083A646DBE301D7F829
:10E400007623B5FED6234E231843A106AE96D6A397
:10E4100098C37E22A1077EA28280BE86C287B1BF3A
:10E42000B7270020B726002083A787DB03A606DBDB
:10E430002A87B305B5406314F6003A8529A8938668
:10E4400087009C43E369D7FEE377F7FE2E85E3E47C
:10E45000D5FEE3F2F5FE828023AC05FE1C4181E788
:10E460000CC18280BA8703A787FF6DFF23ACB7FE7C
:10E470008280411126C2B724002022C44AC083A74B
:10E48000C4DB06C6014401499384C4DB81EBA1656A
:10E49000970005E0E780602A1DC419A803C7E7FFBD
:10E4A000631AA7020DCCA165970005E0E78000FA8A
:10E4B0009840832784FF6316E4029CC0FD57232CF9
:10E4C00004FE230FF4FE2285B24022449244024906
:10E4D0004101828011E03E8983A787FF45BF3E84CA
:10E4E000E5BF232CF9FED9BFB727002083A707DD9E
:10E4F00099E33E858280BA236315B7009823E30A27
:10E50000A7FEDC47F5B70111680006CE22CC9710B4
:10E5100006E0E78020ADFD576307F508324741C3A9
:10E5200037240020130444F91848630DF700B72777
:10E53000002083A787DD829732471C486373F7006A
:10E54000BA873E9537240020930784249C4F1304F8
:10E55000842499CBB727002083A647EC3707CDFF4B
:10E560007D179C46F98F9CC6B727002083A7C7F765
:10E57000829719E91C4C85C7975006E0E780803BDD
:10E58000975006E0E78020B31C4C91CBB7270020C2
:10E5900003A747ECB70633001C47D58F1CC7F240D2
:10E5A00062440561828037240020130444F91C482A
:10E5B000E387A7FEB727002083A787DD82971C4843
:10E5C00049B709CD81CD19CA81473387F500142396
:10E5D0003307F500850714A3E319F6FE828019C9F5
:10E5E00091C909CA910583A7C5FF11057D16232E80
:10E5F000F5FEC5BF828001C919C62A960505A30F7D
:10E60000B5FEE31DA6FE828081473307F5000307B0
:10E61000070019E33E8582808507C5BF01112E865C
:10E6200026CAAA84131506019305F004418122CC61
:10E6300006CE32C6B5392A8401C53246A685513781
:10E640002285F2406244D24405618280854705C13B
:10E6500099CD11CE8147B306F5003387F50094229A
:10E6600018236398E6008507E317F6FE85473E8585
:10E6700082808147EDBF9307F6FFBE952A9663130C
:10E68000C5008280FD159C310505A30FF5FEC5BFB1
:10E69000AA87014581CF09CE3E96850703C7F7FFBC
:10E6A0006317B700E39BC7FE054582808280014562
:10E6B000828079714AD03729002022D4032409DDD1
:10E6C00006D626D24ECE52CC56CA5AC85EC649C0CD
:10E6D00037CAC901B72A0020B7290020130909DD6C
:10E6E0008144372B0020130AFA37938A4AF593891D
:10E6F00049F93E2099EB5C44BDE42320F900832BCB
:10E70000C400228585315E840DA883278BDD829726
:10E710001C443307F540636AEA0423A809002E204D
:10E720000820970005E0E78060D254405C44E9D6B9
:10E730001844A284369718C43E8445FCB7270020AD
:10E74000938747F9984B894663FEE602791798CB81
:10E75000B250225492540259F249624AD24A424B70
:10E76000B24B45618280DCC459BF03A78A0201CB4A
:10E7700003A70901898F63F4E70023A8F900A284A5
:10E78000404465BF23A80700E1B701114AC83729F3
:10E7900000208327C9FB06CE22CC26CA4EC652C40F
:10E7A00056C21309C9FB81C782972320090083271A
:10E7B000490091C382978327090063920714B72405
:10E7C000002093878424DC3393848424858B99CF21
:10E7D000F830A3820400914763FAE700EF10E002EB
:10E7E000FC30F9178A07CA979C438297372A002082
:10E7F00093074A28DC27130A4A28918B99C3EF1004
:10E8000040648327890091C38297372400209307AF
:10E8100044F99033B729002003A709DC130444F915
:10E82000938909DC1C2093961700BA969622B5C6E8
:10E830001C2063EBC7068327090023000400E1E3E3
:10E840009C3489CBFC3099E7A3840400975006E000
:10E85000E78020C1B727002083A787DDCDC3FD5700
:10E860001CC8813DB727002083A7C7F7C9CBF83064
:10E87000914763E6E7088347CA00918BC9E31430E8
:10E8800003A6090063E6D7086244F240D244424935
:10E89000B249224A924A0561BDB1850793F7F70F45
:10E8A0001CA0E3E1C7F869B786073E970E23231043
:10E8B00007000820B727002083A747DD131725008E
:10E8C000B72A0020BA979C43938A8ADC23900A00D7
:10E8D000829783D70A00182093C7F7FF7D8D93177F
:10E8E000170003A709003E971E235D8D0AA31C2075
:10E8F00099C385071CA018201C30E37EF7F2F24074
:10E900006244D2444249B249224A924A0561828015
:10E910001397170032971A237DF38507A5B7AD67C4
:10E9200037470240BD072326F72001000100B72723
:10E930000020938747F9C84F83278726BD66BD0609
:10E9400093C7F7FF99836A052326D7205D8D8280C0
:10E950008280B727002003C60713B727002003A72C
:10E9600087E481476315F600814636858280BA8642
:10E9700013078702835587FDE389A5FE850793F773
:10E98000F70FCDB7B727002003C61713B72700200E
:10E9900083A747E601476365C700814636858280C5
:10E9A000BE86990783D5A7FFE38AA5FE0507E5B7CD
:10E9B000B727002003A7C7E519E3014615A81C47A0
:10E9C00003D8A700636B050183584700B38608018D
:10E9D0006355D5008146639416011843F1BF3E8606
:10E9E000C10703D3A7FF6317A30099C123900501B3
:10E9F000328582808506C206C182F1BFB72700201A
:10EA000003C60713B727002003A787E881476315CC
:10EA1000F600814636858280BA861307C703835580
:10EA200067FCE389A5FE850793F7F70FCDB70327AA
:10EA300085117DC7411122C406C65C258345C504E6
:10EA40002A8493F7C70F5CA51437522713958601C4
:10EA5000618563F6C50663500506082793F6F60739
:10EA600014B7054693E627006314C50093E6170024
:10EA700054A45C4389075CC34CB8032504112E865B
:10EA80004C4309053D3E832784115038D443DA278F
:10EA9000B296118FD4C3DAA789473CBCB7270020B0
:10EAA0000347440383C767F66371F7045C2493E765
:10EAB00007015CA41DA893E717005CA475BF9376BB
:10EAC000F60F635905020827854513E627006314EE
:10EAD000B50013E6170050A454B8A30407008547F7
:10EAE0003CBC832784119C43D5FBB24022440145A2
:10EAF0004101828093E717005CA454B8A304070087
:10EB0000032504114C4309056D3C832784115038BB
:10EB1000D443DA27B296118FD4C3DAA78D47C9B789
:10EB200005458280B727002083A787EA411122C4C8
:10EB300006C6858B2A84D5E34165130525F5971014
:10EB400006E0E780800051C93C253EA583270412DA
:10EB5000ADE32320A4122322A41285472310F4043A
:10EB6000232005007C2854415EA5583418A505478C
:10EB700018B53727002003270726138517021581AC
:10EB80001C437D151375F50F9CC25C43DCC21C470A
:10EB90009CC65C47DCC61C4B9CCA5C4BDCCA1C4F49
:10EBA0009CCE5C4FDCCE19CD93860602130707027C
:10EBB000C1BF8327441288C3835704042322A412AD
:10EBC000850769BFB7270020938787139A27050712
:10EBD0009AA7B2402244410182805C2423090400A8
:10EBE000054593C747005CA4EDB71C2D93F7E70FCD
:10EBF000CDE31C3DD9EF3029542509CA3727002021
:10EC000083454503034777F663E7E50013F70601FD
:10EC100051C3014709C6C18A0357851881C6835667
:10EC2000C518369725CBB7260020938646F5F22ED9
:10EC3000B7470F0093870724B3C7C7021307C7124C
:10EC4000411122C426C206C67D543357F702FC3A4E
:10EC5000B384E700B727002083A6071C83A7060913
:10EC600063F387003E849442F5FAB727002083A718
:10EC700087DD829781476364A400B307A440B24054
:10EC80002244B3B7970093C7170092443E854101D1
:10EC9000828081473E858280B72600209387861335
:10ECA00083A78708638E073E797126D293868613E1
:10ECB000B7240020138744F503A506090353E70191
:10ECC00037470F0006D622D44AD04ECE52CC56CA71
:10ECD0005AC85EC662C40148FD58938444F5130EB9
:10ECE000F7231306072403D7470883A5070933072B
:10ECF000670272973357C7023387E5406375170180
:10ED00003E85BA8805489C43F9FF6304080023A8A0
:10ED1000A60803A40609B7490F00938BF9233729E6
:10ED20000020930A0032130B204E054A93890924D0
:10ED3000832789DD032C0409829763748529F62CC7
:10ED400003574408FC38330CAC403307D7025E97B6
:10ED5000335737033E976364871F7E3CA30F04003D
:10ED6000228585077EBC83470414C5C7F12E228502
:10ED7000970006E0E780204E49E1EE2C0357440857
:10ED800037460F009307F6233307B702130606240E
:10ED900083260409230A04023E973357C7028327B8
:10EDA000C4083387E640BE963C342324E408232875
:10EDB000D40805476391E7060357E407323C636CC8
:10EDC000E60410286319F60483278411A9E7832732
:10EDD000440AB1E370349D47631FF6021E3CB387BB
:10EDE000E7021307204EB387E70203274409B3D78E
:10EDF000E702F828BA972312F408B250225492542A
:10EE00000259F249624AD24A424BB24B224C456106
:10EE10008280412CA9BF1E3095CB7A3C52305AB02B
:10EE20003306C74037470F00130707243347B7029D
:10EE3000B387C7023230B297C207C1833EB063E7DF
:10EE4000E700B3D7E702B6972328F408832789DDC4
:10EE50008297AA89832789DD8297E30D35FF83276F
:10EE600089DD8329840882973385A94051CD832782
:10EE7000C408637BF508FE2C37470F0013070724EF
:10EE8000B347F702372600208325C6EBB566BD06DB
:10EE9000B387A7022A30D4C5AA97010001008326B0
:10EEA000C6EB0966930500F890C6372600201306C6
:10EEB00086244CA28607FCD2BD67BD07DCC6FE2CAB
:10EEC0003630B347F70263E8F60033D7F602B307EC
:10EED000F7029D8E36B0974006E0E7804056974097
:10EEE00006E0E780405D38348547E318F7F03745A2
:10EEF0000600814513050528970005E0E780809509
:10EF0000930700FD7CA4D5BD3834854703A3440393
:10EF10006317F7009545E30203EE154529A0E30EBC
:10EF200003EC954519452254B25092540259F249C6
:10EF3000624AD24A424BB24B224C4561028363582B
:10EF40000C047E3C85077EBC8347041499E322852C
:10EF5000892A2285970006E0E780E02F83270409AD
:10EF60000327C408BA972328F4083C346397470161
:10EF70002285973006E0E780000E7C3C85458507BA
:10EF80007CBCDC58E38607DA1545829755B35E3CB6
:10EF9000130700328E07B387D70293870719B3D7B9
:10EFA000E702E3FC87E5A1452285970006E0E780BC
:10EFB00060222305A40203A344038945E31F03F44D
:10EFC0002DBD5E3CFA2C330C85418E07B387E702DA
:10EFD00093870719B3D757036374FC0A832789DD26
:10EFE00082977E3C2A8C85077EBC8347041499E374
:10EFF000228545282285970006E0E780C025E31E8C
:10F0000005DE832704090327C408BA972328F408D8
:10F010007C3C13F7070F21CF2285970006E0E7809D
:10F02000A0E0A30F040083270409E379FCFA8356C8
:10F03000E4071E3C03274409B387D702B38767035D
:10F04000B3D7E702F8280607BA972312F4083C342E
:10F05000639247033E3CE3FDD7CC2285973006E020
:10F06000E78060FFDC58E38507CC8D4531BF85071D
:10F070007CBC55BFDC58E38D07CA8D45194531B7B7
:10F08000E34D0CD6A1452285970006E0E780801469
:10F090002305A40203A34403E30103D69145B5BDB0
:10F0A0008280797126D206D622D44AD04ECE52CC56
:10F0B00056CA5AC85EC68347350303447513AA84EB
:10F0C0003E941374F40F9307400263F68700130411
:10F0D000B4FD1374F40F03AA841383AAC413A38B7F
:10F0E000841222865285D68597C006E0E78060CEDE
:10F0F000058915E503CBD41201498149337B6403AB
:10F10000930B50024A865285D68597C006E0E78069
:10F1100040CC058915C5639169031374F90F238BDE
:10F120008412B250225492540259F249624AD24A8D
:10F13000424BB24B456182808509E20993D98941EE
:10F140000509E31179FDE1BF83278509723D7971D6
:10F1500093D60701BD8EC206C182358E1357764005
:10F1600093575640898B058B5D8F93573640918B13
:10F170005D8F93571640A18B5D8F93171600C18B3F
:10F180005D8F9317360093F707025D8F9317560034
:10F190009355860093F707041E065D8F1376F60FCE
:10F1A000518F93D7554013D63540118A898BD18F13
:10F1B00013D67540D18F13D61540218AD18F13965F
:10F1C0001500418AD18F1396350013760602D18F30
:10F1D00013965500137606049E05D18F93F5F50F0F
:10F1E000CD8FA20745465D8F3307C70222D42A84FC
:10F1F00026D252CC56CA032A8413832AC4135AC86F
:10F2000006D63697420741839357774013555740A8
:10F210000989858BC98F135537401189C98F1355BB
:10F2200017402189C98F131517004189C98F1315FC
:10F23000370013750502C98F1315570093558700C2
:10F24000137505041E07C98F1377F70FD98F13D5D0
:10F25000354013D755401189098B498F13D5754017
:10F26000498F13D515402189498F13951500418980
:10F27000498F1395350013750502498F1395550075
:10F28000137505049E05498F93F5F50F4D8F2207E1
:10F29000D98FB387C7024AD04ECE5EC662C4B69736
:10F2A000C207C18313D7774013D557400989058B0F
:10F2B000498F13D537401189498F13D517402189BC
:10F2C000498F139517004189498F1395370013759E
:10F2D0000502498F1395570093D5870013750504D0
:10F2E0009E07498F93F7F70FD98F13D5354013D762
:10F2F00055401189098B498F13D57540498F13D516
:10F3000015402189498F139515004189498F13951F
:10F31000350013750502498F1395550013750504C3
:10F320009E05498F93F5F50F4D8F2207D98FB3872F
:10F33000C702130650025285D685B697BD8E9394A8
:10F340000601C18033F6C402137BF60F97C006E0B6
:10F35000E78020A805890DED8347D4120149814932
:10F36000B3849702130C5002C1804A865285D68519
:10F3700097C006E0E780E0A50589937BF90F11C5EA
:10F3800063863403850993F9F90F0509E31F89FDA5
:10F39000230B6413B250225492540259F249624A28
:10F3A000D24A424BB24B224C456182805E8BCDB734
:10F3B0000111B727002022CC03A4C71E26CA4AC8C1
:10F3C0004EC606CEAA8413092500854905C09C3087
:10F3D0003830858B6304F700405CCDBF1946930538
:10F3E00044004A85EFF08FA6E31835FF2285F240EE
:10F3F0006244D2444249B249056182804111B72733
:10F40000002022C403A4C71E26C24AC006C6930415
:10F410002500054901E82285B24022449244024970
:10F4200041018280A6851305A402972006E0E780AB
:10F43000A075E30225FF405CF1BF4111B727002012
:10F4400022C403A4C71E26C24AC006C693042500D0
:10F45000054901E82285B240224492440249410113
:10F460008280A6851305A401972006E0E780C0717D
:10F47000E30225FF405CF1BF0111B727002022CC39
:10F4800003A4471E26CA06CE2AC42EC6854419E404
:10F490000145F2406244D244056182809C84183068
:10F4A000858B6304F7000044DDB719469305A1007E
:10F4B00013052400EFF08F99E31795FE0545D1BFA2
:10F4C000B727002003A7C7EB01112AC62EC432C2FA
:10F4D00006CE3C4B93E707083CCB974006E0E7801D
:10F4E00000F6B726002083A706EB3245A24523A0ED
:10F4F0000700183103482500938606EB22074208CF
:10F500004297034805004297034835006208429736
:10F5100098D75831034865002207420842970348AC
:10F52000450042970348750062084297D8D71835BE
:10F530000348A500220742084297034885004297E6
:10F540000348B5006208429798DB58350348E50048
:10F550002207420842970348C50068354297620572
:10F560002A97D8DB9831A821220742052A978821BB
:10F570002A97A83162052A9798CFD831E821220727
:10F5800042052A97C8212A97E83162052A97D8CFE1
:10F590009835A825220742052A9788252A97A83555
:10F5A00062052A9798D3D835E825220742052A977D
:10F5B000C825EC352A97E2052E97D8D3D843759BFA
:10F5C000D8C3D84313671700D8C3984313671700ED
:10F5D00098C3124698425C43858BADE71C4F0145AA
:10F5E0001CA29C429C4FA1831CB29C429C4FC18395
:10F5F0003CA29C429C4FE1833CB29C42D84F58A213
:10F60000D84F218358B2D84F418378A2D84F618315
:10F6100078B2985318A69853218318B6985341830B
:10F6200038A69853618338B6D85358A6D853218347
:10F6300058B6D853418378A6DC53E1837CB6F240B8
:10F6400005618280010079B7B727002003A7C7EBC7
:10F650001605136505083C4B93E707083CCBB72715
:10F66000002083A707EB03A7450E88C398CB03A709
:10F67000850E0145D8CB03A7C50B98CF03A7050C72
:10F68000D8CF03A7450C98D303A7850CD8D303A7DD
:10F69000C50C98D703A7050DD8D703A7450D98DB50
:10F6A00003A7850DD8DB03A7C50D98C703A7050ED3
:10F6B000D8C798431367070498C38280B7270020F0
:10F6C00003A7C7EB1605136505083C4B93E707082E
:10F6D0003CCBB727002083A707EB03A7C50E88C341
:10F6E00098CB03A7050F0145D8CB03A7C50B98CF2F
:10F6F00003A7050CD8CF03A7450C98D303A7850C07
:10F70000D8D303A7C50C98D703A7050DD8D703A74F
:10F71000450D98DB03A7850DD8DB03A7C50D98C75A
:10F7200003A7050ED8C798431367070498C3B727E4
:10F73000002093878724130700F8F8A382803727D7
:10F740000020832647EB411126C29C5E06C622C4D8
:10F7500099834AC0858B930447EBB1CB930700068E
:10F76000372900209CDE834789241304892493F7DA
:10F77000070489CFB727002083A787DD829708C8B1
:10F780008347892493F7F70B2304F9245C2093F72C
:10F79000070491EF85475CB0B727002083A7C7EB2C
:10F7A000096798C7130700FC58A05844F8D398403D
:10F7B0001C5F9183858B89CBC1471CDFB727002055
:10F7C000938787248546D4A31C5F9D83858B91CB2B
:10F7D000930700081CDFB72700209387872405477D
:10F7E000D8A3B727002083A707EBD8430583058B51
:10F7F00019C7D843759BD8C3D843799BD8C3B240A7
:10F8000022449244024941018280B727002083A606
:10F81000C7EBB7270020938787249823058B11C750
:10F8200023820700A382070082809833058B6DFB3B
:10F83000F85265F7D833FDB737280020032748EB87
:10F840001C5F9583858BBDE701C61C5BBD831CA235
:10F850009DC6832748EB985B46079357670163561D
:10F86000070093E707C0C207C18303970600C207DA
:10F87000C18709C7BA970947B3C7E7029EA285C1E6
:10F880001C3191CF3E951C350547194593F6F70677
:10F890006393E602E207E187394563CE07008327D9
:10F8A00048EB3727002001459C5FED838D8BA30932
:10F8B000F724828005458280411122C406C6372480
:10F8C000002026C20327C4EB3DE5AE877453FDFE3E
:10F8D000B7240020938484243E85B28523810400CC
:10F8E000974006E0E780E094B727002083A747EB26
:10F8F000B70680009843558F98C3D857719BD8D7C7
:10F900008327C4EBA3820400A3800400094798C3A3
:10F910008326C4EBB727002093878724B823058B61
:10F9200011E7B833058B51C723820700B240224448
:10F930009244410182808D47631FF500B727002064
:10F9400083A747EBB70680009843558F98C3D857D5
:10F95000719BD8D775BF8547E31CF5FAB567BD071E
:10F960005CC7010001008327C4EB0967930600F818
:10F9700098C7372700201307872454A33727002070
:10F98000832647EB0946984231830D8B6319C700E4
:10F990001307E043F8D33D673D07D8C795BF9842AA
:10F9A00031830D8B01E713076019EDB71307E01BD7
:10F9B000D5B7F85225F79DBF5D7152DC372A00207C
:10F9C00003274AEB86C6A2C4A6C2CAC04EDE1C43A9
:10F9D000B72900203729002093F7F7E793E70708B6
:10F9E0001CC383A649EC3707CEFF7D179C46130640
:10F9F00080022A84F98F9CC68327C9EB2800AE8435
:10FA000023A8070493051008EFE0FFBE974006E027
:10FA1000E780E0A2974006E0E780E0A983274AEB71
:10FA20009376F41F3706330023A40700984B370F53
:10FA3000FCFF4E881367F70398CBF84FCA8813056D
:10FA400010F8137707E0558FF8CF9843F576FD1639
:10FA5000758F98C3372700208326C9EB13078724A7
:10FA6000A3020700A3000700054798C29843D28568
:10FA7000B70204001377F7E798C398439303401F36
:10FA800011491377F7E71367071098C303A749ECE9
:10FA90007D1F85491C47930F8002D18F1CC7930798
:10FAA0009005BCCA0147340013533700269383479F
:10FAB000030013767700B3D7C740858BE1C383A7D4
:10FAC00045EB832E48EC239C07042390070603AEE6
:10FAD000CE02137EDEFF23A6CE0383AE0700137E85
:10FAE000F70793FE0EF833EECE0123A0C70103AE55
:10FAF0004702336E5E0023A2C70383AEC8EB014EFC
:10FB000023A27E0603DA070663074E0303AE07034C
:10FB1000038A0600135EFE00620E135E8E41635878
:10FB2000CA0103AE0703135EFE002380C60103DE95
:10FB30000706137EFE0F03AA4E0663060A0003DAC9
:10FB40008705E37F49FB03AE4702337EEE0123A224
:10FB5000C70383870600635CF400034E03003396FB
:10FB6000C9001346F6FF3376C6012300C3003E8664
:10FB700063D3A7002A8613158601618505071377CD
:10FB8000F70F8506E312F7F3B6402644964406497C
:10FB9000F259625A61618280372600208327C6EBC2
:10FBA0001306C6EBD8479316170163D2060298478F
:10FBB0009316170163DD06007D57B8D7372700205D
:10FBC000130747F9544F850654CF116798C79847D4
:10FBD0000D83058B11CF372700201307872434238B
:10FBE00093E6160034A3930600F854A3214798C760
:10FBF0009847058B19CB3727002013078724143328
:10FC000093E6160014B3054798C798470983058BF8
:10FC100009E798470583058B31CB944737270020A8
:10FC2000372500208982858AFDCA832645EB9442C8
:10FC3000B1828D8AF5E2AC4B93068724944E93F5FE
:10FC400005029432C5C5F1E69306D005D4CF8346AC
:10FC5000872493E616002304D724114798C7032767
:10FC600045EB5C57F19B93E717005CD718421C47A4
:10FC70009396370163D40602B72700209386871333
:10FC800003C6C60693878713418A55C283C7C60633
:10FC900093E707022386F60685671CC71C479396E1
:10FCA000270163DF0600B727002093878724D4232A
:10FCB000E206E18663D406008546D4A389671CC7A3
:10FCC0001C479396070163D20602B727002093874B
:10FCD000871383C6D706858ABDCA83C6D70693E62F
:10FCE0002600A386D706A1671CC78280B1DE8545A2
:10FCF0006395B6009306100691BF89456395B600DB
:10FD000093065006A1B78D456395B60093069006FD
:10FD100035BF9306B0061DBF9306C00605BF130787
:10FD20008724343393E6160034B3094705BF83C6EE
:10FD3000C7060946BD8A6388C60083C6C7060D4646
:10FD4000BD8AE39BC6F491462386D706B1B783C626
:10FD5000D706918AC9DA83C6D70693E6860051B7DB
:10FD6000B72600203727002093874628130647260A
:10FD7000303EDC379386462813074726B29793F721
:10FD8000F70F7D46636DF6021CB31C33484B0546E6
:10FD90003316F600DCB6698E1DEA903A13080002AD
:10FDA000814633F6C7028147B355F500858993F83C
:10FDB000F70F99C96317D600A30017018280811736
:10FDC000E1B7850693F6F60F8507E39F07FD82806E
:10FDD000B727002083A787DD011122CC26CA4EC693
:10FDE00006CE4AC88297B7240020938744288047CC
:10FDF00081496300A4043727002093074726BC2FBE
:10FE0000018D13545500938444289379F501130907
:10FE10004726636DF400A9370347A901944493175B
:10FE20005700BE96198C94C4E377E4FE1604B369B8
:10FE30003401F24062444E85D2444249B2490561E0
:10FE40008280B727002083A787DD411122C44AC0E2
:10FE500006C626C282973729002093074928804783
:10FE60006307A404B724002093874426BC2F018D88
:10FE70001354550013094928938444266369F402F6
:10FE8000C535BC2C032789009396570036971D8CE7
:10FE90002324E900E376F4FE22448830B240924401
:10FEA000024981454101174306E0670063ACB24057
:10FEB00022449244024941018280B727002003A7CF
:10FEC00047ECB75702009387079F832607091396CD
:10FED000560063580600832607091396660063449C
:08FEE0000600FD17FDF382800E
:10FEE800B72700203727002083A787DB032707DBF6
:10FEF80001456313F7008280F62399E2D6233695ED
:10FF08009C43C5BFB727002083A547F537270020A6
:10FF1800938747F513860522232CC7DADA239387BC
:10FF280085FFB72600204111BA97056523A8F6DAA0
:10FF380006C61D05935637006374E5009306002036
:10FF48003307D60037250020232AE5DA23A0E52247
:10FF5800E11656A2231306001CC3998FE1175EA36E
:10FF680023130700B53FB240B7270020239DA7F809
:10FF7800410182801DC18346E5FF1307F00F9147B9
:10FF8800639EE600411106C69700FB1FE7804016F6
:10FF9800B24081473E854101828095473E858280F7
:10FFA80001E9014582800145B24022444101828035
:10FFB80095654111938505D022C4C98D2A842105F0
:10FFC800C2054205C181418106C69700FB1FE78033
:10FFD800E00671D9FD572320050042A17CA1210527
:10FFE800E1B7ADC1B727002083C757F9411122C433
:08FFF80006C62A842E856375FC
:020000025000AC
:10000000F400894763E88700953F0D45B2402244DC
:100010004101828083A785FF99E703C7E5FF930726
:10002000F00F6305F700993F1545CDB73725002040
:10003000238F85FE1305C5DB9700FB1FE780001BA0
:1000400022852244B240A165410179A215458280F2
:10005000B727002023AE07DA8280C1C1797122D48C
:1000600006D626D24AD04ECE01444147B3D785406A
:10007000858BB9CF1205314722953305E502B727A5
:10008000002003A947DC8544B3948400C204C180E6
:10009000938947DC2A990327090011C703254900E2
:1000A0002EC60297B24531473304E40283A7090004
:1000B0003E941C4489E72320090023220900B25002
:1000C0002254A58D02599254F2492E8545618280B1
:1000D0000504E31DE4F88144DDB72E8582804111DB
:1000E0001397050122C406C626C24AC041872E8442
:1000F000635107029700FB1FE780E01011C1BD3D6F
:10010000A1673D8C2285B2402244924402494101BC
:100110008280EDD9AA8701474146B356E440858ADB
:100120009DCA9207BA97B146B387D702B726002077
:1001300003A946DC8544B394E400C204C1803E991F
:1001400083270900032549008297232009002322E1
:100150000900258C45BF0507E311C7FC8144D5BFC5
:10016000B727002083A787F7411122C406C637248A
:100170000020130484D791C782971C403E9508C085
:1001800031A0B727002083A787DDFDF70840B747D8
:1001900003009387D73F3305F502B7A7260093875F
:1001A00037ECB2403E9508C0224441018280B72717
:1001B000002083A7C7DC411122C406C637240020D3
:1001C000130444F989C782975C483E9548C848485B
:1001D000B240224441018280B727002083C757F9EB
:1001E000637EF5003727002093171500032507DCF1
:1001F0003E951E21DD8D0EA1014582800D45828038
:10020000B727002083C757F96370F502372700200E
:1002100093171500032507DC93C5F5FF3E951E21B6
:10022000FD8D0EA1014582800D45828001114AC8D5
:1002300006CE22CC26CA4EC652C49307F002094904
:1002400063EEA706B146B306D502B727002003A781
:1002500047DC094936971C43B5C3135A450005448A
:100260003D893315A400131405014180AE845285E5
:10027000A2859700FB1FE7806000AA8901491DCD78
:10028000A2855285B53FB727002083A787DD8297D7
:10029000B727002083D727F72A8413060064338703
:1002A00097028146B3B7970213050732B335E500CD
:1002B000BE95EFC0910D229523A4A900F24062449F
:1002C0004A85D2444249B249224A05618280B72711
:1002D000002083C757F96364F5000145828001114E
:1002E000B727002052C403AA87DD06CE22CC26CA37
:1002F0004AC84EC6630D0A0837290020130949F57C
:10030000AE898355E9012A84B284B387C502814648
:10031000B3B5C50213850732B337F5001306006481
:10032000BE95EFC09106B74736FE9387F7C763E0E7
:10033000A706029A8355E9012A8A13060064B38747
:1003400095028146B3B5950213850732B337F500A0
:10035000BE95EFC091032A9ACE8522859700FB1F98
:10036000E780C0F109C523244501054515A0936523
:1003700004F0C205C18141459700FB1FE78080CC96
:1003800005E18327490381C7A2851145829701456D
:10039000F2406244D2444249B249224A0561828015
:1003A00037270020130707DD1C4399EF08C3854753
:1003B00023260500232445012311350100A11CB18A
:1003C000232205005DB7BA87D84775FFC8C7C5B7F0
:1003D00041CD797122D426D24AD04ECE52CC56CAC3
:1003E0005EC662C466C206D65AC8B689B28A2E8A6A
:1003F0002A899304000C4144372C0020854C930B30
:100400000003130B4CDC83270B00A6979C43A9E742
:100410009375F400B395BC00C2055686C18113558F
:100420004400753515C983270B000145BE9423A0F0
:10043000240123A244016384090023808900B2506F
:10044000225492540259F249624AD24A424BB24B68
:10045000224C924C4561828005041374F40FB10460
:10046000E31174FB2145E1BF09458280411122C49B
:1004700026C24AC006C62A842E89B284893DCA850E
:1004800022859700FB1FE78060DF05CDB72700209E
:1004900083D527F72A8413060064B3879502814623
:1004A000B3B5950213850732B337F500BE95EFC09B
:1004B000C16D48C00145B240224492440249410105
:1004C00082802145CDBF411122C426C24AC006C642
:1004D0002A892E849700FB1FE78040DAAA8419C17D
:1004E00023110500A2854A85213BB727002083C739
:1004F00047F963992701B7270020938787DC9A2360
:10050000598C82A3014591E01945B240224492449E
:100510000249410182809307F00263E8A704411178
:10052000B14722C43304F50226C2B72400209384C5
:1005300044DC9C4006C6A297984389470DC3937735
:10054000F5008545B395F500C205C1811181A53F30
:100550009C40A29723A0070023A207008147B24036
:10056000224492443E854101828089473E858280B3
:10057000411106C622C49700FB1FE78020D011E579
:100580000145B240224441018280B727002083A761
:1005900087DD00458297B74736FE3305A440938731
:1005A000E7C7E3EFA7FC93070064B335F5023727ED
:1005B0000020035627F781463305F502EFC0E15CC2
:1005C000C9B74111B727002006C623A6A7DC0295AC
:1005D000B240B727002023A6A7FA01454101828037
:1005E000994763EAB70093972500B72500209385C4
:1005F000C5FBBE9588C18280B727002023A807DCF1
:1006000037250020B7270020411123A607DC7146BB
:10061000B727002081451305C5FB06C623AC07DCC0
:1006200022C426C29700FB1FE78020D63725002072
:10063000130680028145130445F9130545F9970017
:10064000FB1FE78080D4D930B727002083C797F6F7
:100650008545B724002013D527008D8B3E958D4707
:100660003305F5029947938444DC39051375F50F7A
:1006700028A03305F502130505249700FB1FE7802A
:10068000609C88C03DC93020994781453306F602F9
:10069000130606249700FB1FE78020CF9C403820DC
:1006A000B724002093870724938444DD0A079CC065
:1006B000BA97372700202320F7DC593A7D261C30D3
:1006C0009440370605001397270036971306A605B2
:1006D00010C3138717001377F70F0A0737060500B3
:1006E00036971306E60D10C313873700890793F773
:1006F000F70F8A0718B0B69790C3B24022449244CD
:100700004101828037270020130747F91C33342327
:1007100063FFD700B726002083A646DD13861700A7
:1007200010B313972700369708C33E85828093073E
:10073000F00FE5BF1C41F5C341777D8FB706002060
:100740008947631DD70C5A2171CB411126C2194626
:10075000AA849305F00F610506C622C44AC097001B
:10076000FB1FE78020CC05478D476301E50A9C44C9
:1007700091C7985C994759CBD85C49CB3724002066
:10078000130600048145130544F59700FB1FE7801D
:10079000C0BF13060004A685130544F59700FB1F90
:1007A000E78060BB130944F50357C900930744F57C
:1007B00001E713070010DAA7F82719E30547F8A7A0
:1007C0009A2B19E36D479AABF83719E31547F8B739
:1007D000B82B19E30547B8ABB83B19E3F837B8BBFA
:1007E000D82B19E32547D8ABF83B19E35147F8BBA1
:1007F000F82801E71307C003F8ABDC5791C78297CD
:10080000B7270020239EA7F8C53B8147B24022446A
:10081000924402493E854101828089473E8582801B
:10082000B727002083A787DD011106CE22CC26CA78
:100830004EC64AC88297B727002083D927F7930767
:100840000064B335F5024E8681463305F502EFC0EC
:10085000C133B7270020138747F9004FAA84014509
:1008600063049402138947F933858440636C9400D0
:100870004E8681461305009C9305F063EFC0E1307E
:10088000018D2695232C9900F2406244D2444249BE
:10089000B24905618280011122CC2E84B7D50600B1
:1008A0000A854146938505FD06CEEFC021671808ED
:1008B00006043A94B7270020035504FF83D747F76F
:1008C000F2406244AA9737450F00130505243355BB
:1008D000F50205618280B727002083D747F751478B
:1008E0001D45637CF702794719456378F7021307C2
:1008F000200315456373F7021307B0041145637EA7
:10090000F700130740060D456379F70013076009E8
:1009100009456374F70013B5B70F8280011122CC2B
:1009200006CE2A842EC6EFF0BF83B245F240818DF9
:1009300033A5A502229562441375F50F05618280E7
:10094000011122CC06CE2A842EC6EFF07F81B2455B
:10095000F240818D33A5A502229562444205418172
:1009600005618280011122CC06CE2A842EC6EFF0CA
:100970002FFFB245F240818D33B5A5022295624426
:1009800005618280B7270020138747F5585739CF74
:10099000411122C426C24AC006C6138947F50297F0
:1009A000B7270020138747F91A272A84938447F929
:1009B00005CBBA876373A700AA87C207C183BA862B
:1009C0006373E400A286C206C182958F51476359C2
:1009D000F7008327090391C38297EF40B13C82A4BB
:1009E000B240224492440249410182808280011136
:1009F00022CC37240020930744F59C5B06CE1304D9
:100A000044F581C72AC6829732450DC57A2C8547A1
:100A100009CF1A3019CBB727002023ACA7DC371534
:100A2000050013050582713E8147F24062443E8510
:100A300005618280B7270020938747F923AE07001E
:100A4000E17793C727A17EAC930720031EB07D57A3
:100A5000B747024023A4E726B70700203727002026
:100A60009387E76A232CF7DC5DBF011122CC372482
:100A70000020930744F5884706CE26CA4AC801E9F4
:100A80000545F2406244D244424905618280130424
:100A900044F51C5CF5D7585C65D770008545829796
:100AA0001844B247E30EF7FC4A249305E004B72448
:100AB000002097F0FA1FE780E058138744F908D325
:100AC000938444F955DD52249305F00F01499700B2
:100AD000FB1FE780808B7C249050634DF9003285AA
:100AE00097F0FA1FE7804061014523A0040223A28A
:100AF000040241BF4E240844585CB3872503898112
:100B000005093E9508C20297F9B7411122C437245E
:100B10000020930744F59C4726C206C6B724002050
:100B20004AC0938444F991EB885039EDB240224495
:100B300092440249014541018280130444F55C5C02
:100B4000E5D79C5089EB4A249305E00497F0FA1FFF
:100B5000E780404F88D0885061D952249305F00F28
:100B600001499700FB1FE78040827C249050E35DA1
:100B7000F9FA4E241C4433852503898105093E95E5
:100B80005C5C08C28297D5B797F0FA1FE780C05621
:100B900023A0040223A2040251BF01114EC6B729AB
:100BA0000020938749F59C4726CA4AC852C406CEFE
:100BB00022CC56C25AC02A8AAE8432896388071E64
:100BC000938949F503A78903630207121307F01FEE
:100BD0006360A71237240020130744F9832A070211
:100BE000130444F963980A0803D5C90095659385F1
:100BF00015E097F0FA1FE780E04408D02A867DC50B
:100C000083D5C90083A7890303A5890089818297B9
:100C100083A78900832A04025CD089476314FA08F9
:100C2000C1476395F40C83D5C9009147938505FCB2
:100C3000B3C5F5028A05D695B8219307A0056313BD
:100C4000F70A9E216390470B4A852686910597F007
:100C5000FA1FE78040701C50568563915713014579
:100C6000F2406244D2444249B249224A924A024B7B
:100C7000056182805850E382E7FA03D5C900956583
:100C8000938525E097F0FA1FE780C03BAA8A39CD0B
:100C900083D5C9002A8683A7890303A58900898192
:100CA0008297A5BF8D47631BFA00C1476390F40488
:100CB00083D5C900938545FDF199B5BF9147631868
:100CC000FA006395440383D5C900A115F5B79307CE
:100CD0000010631DFA00A14763EA970083D5C9009D
:100CE000C115D9BF1C505685639D570B29458DBF33
:100CF0009D6A637A5509930A05E01947B3CAEA0267
:100D000003D7C900372B0020B38AEA02BE9A9307A3
:100D10004BF9DC53130B4BF96395570103240B027A
:100D20001DE003D5C9009305E00497F0FA1FE780A2
:100D300060312A8445DD83D5C90083A789032A86CB
:100D400089815685829791451307A00589819397DC
:100D50002500A297B4236391E6049623639C46037F
:100D600085058A052686A2954A8597F0FA1FE780B1
:100D7000805E83270B02E38487EE228597F0FA1FBB
:100D8000E7808037E9BD21677917E361A7F6B30AE9
:100D90005541BDB7AC335DBF83270B02E38887F4B1
:100DA000228597F0FA1FE780203589B7B727002002
:100DB00083A547FB85DD91479306A005898313979B
:100DC00027002E973023E313D6F21223631C46012B
:100DD00085078A072686BE954A8597F0FA1FE78021
:100DE0008057B5BD3C33D9BFB7270020938747F55F
:100DF000984721C3D85F15CF8546631CD5024111A2
:100E000022C437240020130444F9105006C611CE22
:100E1000CE27485089810297085097F0FA1FE78043
:100E2000A02D2320040223220402B24022444101C7
:100E300082808280011122CC37240020930744F560
:100E400056C283AA870026CA4AC84EC606CE52C4D6
:100E50002A89AE84B289130444F5638D0A1A5C5C56
:100E600099EB2945F2406244D2444249B249224AB0
:100E7000924A056182801C5CEDD79307F01F63E105
:100E8000A70C372A002093074AF99C53130A4AF902
:100E9000A9C7084483274A02639CA70489476313B0
:100EA000F906C147E39FF4FA4A249147130505FC6C
:100EB0003345F5029317250003250A022686CE85C1
:100EC0003E959307A0053CA123102501110597F03D
:100ED000FA1FE7804048014571B74A249305E004B2
:100EE00097F0FA1FE78000162320AA025DF195BF54
:100EF0004E241C5C03260A02898182971C4423220B
:100F0000FA0269BF8D47631BF900C147E39BF4F404
:100F10004A24130545FD9377C5FF79BF91476317B1
:100F2000F900E39024F54A242115F5B79307001042
:100F3000E319F9F2A147E3E697F24A244115E1BF2C
:100F40009D676375F506930705E01947B3C7E70288
:100F50005A24372A0020B387E702BE9A93074AF93A
:100F60009C53130A4AF9B1CB83274A02639257076D
:100F700003250A0291461308A0059305F00F93D7A5
:100F80002600139727002A973023631206078358F9
:100F90000700303363992805B306D64063C496042E
:100FA00085078A072686CE853E9515B7216779176E
:100FB000E369A7EAB307F54061BF4A249305E0045B
:100FC00097F0FA1FE78000082320AA0251FD51BDC7
:100FD0004E241C5C03260A028981568582972322AF
:100FE0005A0379B70EA393160601C18249BF522452
:100FF000B38596009105130606FCE3F4C5E6138657
:101000003400719A1106B2962301070123102701BB
:1010100034B379B7372A002093074AF99C53130A4F
:101020004AF995CF03250A0291461308A0059305B6
:10103000F00F93D72600139727002A9730236310C9
:10104000060583580700303363972801B306D6405E
:10105000E3D896F40EA393160601C182D9BF682483
:101060005E249305E0043305F5024205418197F0C3
:10107000FA1FE78020FD2320AA024DF5DDB352249C
:101080006C24B385C502338696001106E3EBC5DCFC
:10109000BDB7014582809C211CA1BE211CB1BE218F
:1010A000A1833CA1DC213CB111458280B7270020FF
:1010B00023A007DEB727002023AE07DC82800DCDFA
:1010C000411126C206C622C4AA8401458DC12E84C0
:1010D000B7D5060022854146938505FE97F0FA1F95
:1010E000E78060279C2005455CA49C305CB4B2403E
:1010F000224492444101828001458280011122CC28
:1011000026CA06CE0947AA8432846381E504414693
:101110008147639BC500638FE6006397B6000DA807
:1011200041478147638EE600F2406244D2443E85E7
:10113000056182808A852285593741468A8519A8AA
:101140008A85B53F41468A85228531A0E39AB6FC5F
:101150002E86A285268597F0FA1FE7806028AA8749
:10116000E1B7B727002023AEA7DC8280B727002095
:1011700023A0A7DE8280011122CC622106CE26CADE
:101180004AC84EC62DCC83298500AE842A8803C95F
:101190000900814713178901618763550702B14729
:1011A000054563F787045114420403552800418024
:1011B00033878900A2864E868545EFC0605CB337D1
:1011C000A00085077D141355690042040589137931
:1011D000F90341809CA088B023812401C2A001476B
:1011E00019C01387190098C409476383E7000145B4
:1011F000F2406244D2444249B249056182800545C9
:10120000C5BFC167F917630AF502D94763F7B7028B
:10121000011122CC2EC606CE2A84EF80007CB24576
:101220006368B50022856244F24005616F90306AC0
:10123000F240624405450561828005458280C167B0
:10124000F9176314F5006F804079411106C6EF90DD
:10125000905611E15D45B240410182809147639D06
:10126000F5001C211CA23C211831A207D98F3EA2F7
:101270003C3101455CA2828011458280411181454B
:1012800022C426C206C6AA84BD232A8409E9B72738
:10129000002083A7C7DD81C7F9452685829722856F
:1012A000B240224492444101828039714ED656D2D6
:1012B0005AD006DE22DC26DA4AD852D4AA8A2E8BED
:1012C000B28951EB36C6A53F9145EF80A07FAA8435
:1012D0004D493DC5B246054A238034010544630AA1
:1012E0000B00B68513851400029B05051314050138
:1012F0004180E20993D9894163D30902C1455685EA
:10130000EF90D059654915E533868400A28526857E
:10131000EFC000092A8911ED310442044180914750
:101320002C085685FC8426CEE085EF9060712A89D2
:1013300001C963070A00268597F0FA1FE780C0DB22
:10134000F25062544A85D2544259B259225A925AA2
:10135000025B21618280BA84014ABDBF011122CCA7
:1013600026CA4AC84EC606CE2A893284B689353F77
:10137000AA840DE1B727002083A707DE81CF0547A8
:101380006317E40003C4090005041374F40FA28575
:101390004A858297F240624426854249D244B24946
:1013A00005618280AE86B715050001470546938525
:1013B00065096DB79E211CA19E21A1831CB1094521
:1013C00082809E211CA19E21A1831CB1BE213CA133
:1013D000BE21A1833CB1114582809E211CA19E218A
:1013E000A1831CB1BE213CA1BE21A1833CB1DC3153
:1013F0005CA1FC215CB18A251905420541818280EE
:101400009E211CA19E21A1831CB1094582809E21A1
:101410001CA19E21A1831CB1BE213CA1BE21A183A0
:101420003CB111458280CA21060542054181828076
:101430009E211CA19E21A1831CB1AA210905420560
:10144000418182809E211CA19E21A1831CB1BE21CD
:101450003CA1BE21A1833CB1CA21110542054181B5
:1014600082809C211CA1054582809E21411122C4BD
:1014700006C61CA19E212E841105A183A30EF5FE94
:10148000BE219505230FF5FE83D7D5FFA183A30FBA
:10149000F5FE03C6F5FF97F0FA1FE780C0EB482082
:1014A000B240224411054101828089476399F500C9
:1014B0001C3118210145A207D98F1EA28280114537
:1014C00082809A21D94763FDE702011122CC06CE22
:1014D0002EC62A84EF806050B2469E22636DF500CE
:1014E00022856244F240B7150500014709469385FD
:1014F000453B05615DBBF240624409450561828060
:1015000009458280914785C51421FD15C20585478F
:10151000C1816390F60213D725008D89914781E937
:10152000914711C7050534A21AA248C281473E85DA
:10153000828009479147E39CE6FEC94733D7F5020D
:10154000B3F5F502E1BFAE86B715050001471146B8
:101550009385253C99BB93F7350089EB89819147A9
:1015600081C50EA248C281473E8582809147EDBF6A
:10157000D8218947631CF702011122CC2A84C8456F
:1015800006CEAE86014709C92EC69D4597F0FA1FC3
:10159000E78040C2B2462A8722856244F240B715EE
:1015A000050019469385A53D056101B30945828073
:1015B00099E1114582801C2105473EA2E37BF7FE9D
:1015C000FD1593F5F50F33D7F502B387E702E392E4
:1015D000F5FE050548C21AA201458280DC210947B3
:1015E000AE866385E70041476399E700B7150500BC
:1015F000014721469385A5464DB9094582800EA233
:1016000091E1014548C201458280AE86B7150500CB
:10161000014729469385054049B90EA291E101454C
:1016200048C201458280AE86B715050001473146A4
:101630009385E5409DB90EA291E1014548C201455F
:101640008280DA21854763FFE702011122CC2A84D8
:10165000884106CE1DC12EC6854597F0FA1FE7804A
:1016600060B52A8722856244B246F240B71505006C
:1016700039469385654205610DB9F24062440945DA
:101680000561828009458280914785C518218D4674
:10169000914763F0E602FD15C205C181B3C6E502BC
:1016A0003308D70263970501050516A23AA248C27E
:1016B00081473E858280DC210947AE866385E7004D
:1016C00041476399E700B7150500014741469385F7
:1016D000A546E1BE09458280B335B00013952500CB
:1016E0008280011122CC26CA06CE98258547AA847D
:1016F0002E844946631FF70099363E20491513068C
:10170000200963C8A700F2406244D244094505613C
:101710008280183485476314F70013660604484036
:1017200001C98D4532C697F0FA1FE780A0A832465E
:10173000A2866244F2402A872685D244B715050066
:1017400093850543056195B68D4763F8B7021C3153
:101750001821F115A207D98F1EA23C313821C205EC
:10176000A207C181D98F3EA24EA289C5110508C624
:101770000145828023240600E5BF114582800111C6
:1017800022CC2A84884506CEAE8601C92EC6954550
:1017900097F0FA1FE78000A2B2462A8722856244AA
:1017A000F240B71505005946938545440561F5BCDF
:1017B000B335B000139525008280AE86B7150500BD
:1017C0000147614693852546CDB48547114563F0B1
:1017D000D7021C320C22A207CD8F1EA39387E6FFEF
:1017E0003EA389476386F600090650C301458280FF
:1017F00023220700E5BF014781467946814575B43C
:101800009E211CA19E21A1831CB109458280BC217F
:1018100005471CA18A216397E7000A0505054205D3
:1018200041818280C9473305F502CDBF8A210A056F
:10183000420541818280BE211CA18A21BE2133053F
:10184000F50205054205418182808A2182808A2134
:1018500082808A218280BE211CA18A21BE2133057B
:10186000F50205054205418182809E211CA19E2131
:10187000A1831CB1BE213CA1BE21A1833CB1CA21E0
:1018800011054205418182809E211CA19E21A183D8
:101890001CB1AA2109054205418182808947114571
:1018A0006398F6001C3214220145A207D58F1EA3AF
:1018B00082809A21D947AE8663F9E700B7250500F3
:1018C00001470D469385058051BC0945828011452D
:1018D000639DA6001C3214220145A207D58F1EA3CA
:1018E0003C323422A207D58F3EA38280BC2105471B
:1018F000FD1793F7F70F6361F7049E2195CF011150
:1019000022CC2A84C84106CE1DC12EC6894597F037
:10191000FA1FE780208A2A8722856244B246F24075
:10192000B725050015469385E580056105BCF240A5
:1019300062440945056182800945828095471145C9
:1019400063F1D706411122C426C24AC006C61C3222
:10195000BA841822A2073284D98F9EA03C32382242
:1019600093054400A207D98FBEA08947DCA0094691
:1019700013855400368997F0FA1FE780C09D9307BE
:10198000A9FF9EA49947631BF90023A60400B24057
:101990002244924402490145410182801904C0C495
:1019A000FDB782809E2195CF011122CC2A84C841A7
:1019B00006CE1DC12EC6854597E0FA1FE780807FC1
:1019C0002A8722856244B246F240B72505001D46AB
:1019D0009385C582056159B2F240624409450561AB
:1019E0008280094582809947639DF60289474111AB
:1019F00006C65CA31C321422B285A207D58F1EA393
:101A00003C3234225023A207D58F130557003EA342
:101A1000910597F0FA1FE7800094B240014541011B
:101A20008280D14711456394F600C147C9B78280CF
:101A30009E219DCF011122CC2A84C84106CE05C526
:101A40002EC6894597E0FA1FE780C0762A8722854F
:101A50006244B246F240B72505002546938565836A
:101A600005616FF0BF8FF2406244094505618280D5
:101A700009458280894711456398F6001C3214227B
:101A80000145A207D58F1EA38280011122CC2A8492
:101A9000C84106CEAE86014709C92EC6854597E0E6
:101AA000FA1FE7802071B2462A8722856244F240FD
:101AB000B72505002D469385A58405616FF01F8A23
:101AC0001145639DA6001C3214220145A207D58F43
:101AD0001EA33C323422A207D58F3EA3828001117F
:101AE00022CC2A84C84106CEAE8601C92EC68545C1
:101AF00097E0FA1FE780006CB2462A87228562448D
:101B0000F240B725050035469385E58405616FF001
:101B1000FF8493F71600114581EB89476386F60031
:101B2000858256A310C301458280011122CC2A84EC
:101B3000C84106CE05C52EC6854597E0FA1FE78049
:101B400060672A8722856244B246F240B7250500C5
:101B50003D469385258505616FF05F80F2406244C4
:101B60000945056182809E219DCF011122CC2A84E6
:101B7000C84106CE05C52EC6894597E0FA1FE78005
:101B800060632A8722856244B246F240B725050089
:101B900045469385658505616FF04FFCF2406244D0
:101BA00009450561828009458280854763F6D70231
:101BB00008A70CB71C320C22A207CD8F1EA3938757
:101BC000E6FF3EA389476386F600090650C3014538
:101BD000828023220700E5BF1145828001478146AC
:101BE0004D4681456FF08FF78D47114563F4D7025D
:101BF0001C320C22A207CD8F1EA33C322C22A2073E
:101C0000CD8F3EA39387C6FF5EA36386A600110611
:101C100010C70145828023240700E5BF011122CCB3
:101C20002A84884506CEAE8601C92EC6954597E022
:101C3000FA1FE7802058B2462A8722856244F24084
:101C4000B72505005D469385A58605616FF00FF108
:101C5000854711456395F6001C2201451CA382802F
:101C600001478146654681456FF04FEF011122CC57
:101C70002A84C84106CEAE86014709C92EC68D45C5
:101C800097E0FA1FE7800053B2462A872285624414
:101C9000F240B72505006D469385858805616FF094
:101CA000CFE0011122CC2A84C84106CEAE8601477E
:101CB00009C92EC68D4597E0FA1FE780A04FB246AE
:101CC0002A8722856244F240B72505007546938530
:101CD000858805616FF06FDD011106CE2EC6EF908D
:101CE000A02919C5B245F2402A2105616FC0E05410
:101CF000F240494505618280B7270020A38607E0AE
:101D0000B7270020238607E0B727002023AA07DE95
:101D1000B727002023AC07DEB727002023AE07DE5D
:101D2000B727002023A007E0B727002023A807DE5D
:101D3000B727002023A607DEB7270020938787FD5B
:101D4000370684033707B40090D337C6070098C31B
:101D5000130606B83747A000D8C3D0D33707100002
:101D600041669306070AB70550009308060194C719
:101D700023A4170393860501930816F8D4C723A656
:101D80001703B706D007B7087F00130807051385A8
:101D90000601410723A81703B0C3930816009386D2
:101DA000060513861500D8CBF8C323A8070188CFF2
:101DB00023AE070023AA170323AC070223AE0702B2
:101DC00023A40704F0C7B4CB23AA0704ACCF23AEE7
:101DD0000705B8D33707A000F8D71307000AB8DB08
:101DE0001307C01CF8DB7D57E8D323A40706239C08
:101DF000E7068280011126CAAA84214522CC06CE9C
:101E00002E8432C636C43AC2EFE00F9A0DC5A24600
:101E100012473246930700FD1CA1994704B13CA12B
:101E200074A178B152A1AA8522856244F240D244BD
:101E300005616FE08F9BF2406244D244056182806D
:101E4000B727002023AAA7DE8280B727002023AC73
:101E5000A7DE8280B727002023AEA7DE8280B727C7
:101E6000002023A0A7E08280011122CC4AC806CE20
:101E700026CA2A890144B30489006368B400F24089
:101E80006244D2444249056182802EC6EFE04FADE4
:101E900093170501C183A183B2459CA09307140049
:101EA00093F7F70F850463F8B700CA97090488A36E
:101EB0001374F40FC9B73E84C9B7411122C4372443
:101EC0000020130444056A20C16706C6FD17630E8F
:101ED000F500B727002003C68712B7250020938599
:101EE00045E0EF80906BFD577EA0B2402244410157
:101EF000828009C925151375F50F1335850E134515
:101F0000150082800145828023900500C1C6797149
:101F100022D426D24ECE52CC5AC806D64AD056CA61
:101F20005EC63684328AAE892A8B814463F24407C6
:101F3000B30794009C23138914004209939A070164
:101F400093DA0A011359090163840A04CA976341A9
:101F5000FA04B307240183CB07005E85593F0DC9FE
:101F60009387FAFF2390F90063906B031305190020
:101F70002295B250225492540259F249624AD24AEE
:101F8000424BB24B45618280D694C204C18079BF76
:101F90000145C5B701458280011122CC37240020BC
:101FA00026CA4AC84EC69307440506CE2E89D0CB12
:101FB0008CCBC8C7AA8441469305F00F4A8597E0A9
:101FC000FA1FE78020468549130444056319350349
:101FD0000848C145513D41469305F00F268597E0DD
:101FE000FA1FE780204405496315250348446244ED
:101FF000F240D2444249B249C1450561B5B54146B6
:1020000081454A8597E0FA1FE780C041E31535FD19
:10201000C1B741468145268597E0FA1FE780804099
:10202000E30625FDF2406244D2444249B2490561CB
:102030008280011122CC3724002026CA4EC6AE84ED
:10204000AA891306000213054405814506CE4AC835
:1020500097E0FA1FE7806033B72700201309440593
:1020600023869712A3013901EFC0601F13044405B2
:10207000854719C1814749451CA0F2406244D244BA
:102080004249B24905618280814791C909C98547A2
:102090006319F500DC3193E707FCDCB185473E8529
:1020A000828089476316F500DC3193F7F703F5B7B3
:1020B0000D478547E315E5FED8311377F70313671E
:1020C0000704D8B1E9BF814785C119CDD83193063E
:1020D000000C85471377070C6308D70093060004AC
:1020E0008D476303D70089473E858280411122C412
:1020F000005D06C626C21DC8AA84085009C597E01F
:10210000FA1FE78060FF485009C597E0FA1FE78093
:10211000A0FE085409C597E0FA1FE780E0FD22857C
:1021200097E0FA1FE78040FD23AC0402B24022444E
:10213000924441018280B72700209387470511E927
:10214000B8231385870101CB37250020130545DE11
:102150008280138587018280B727002003C5670529
:102160008280B727002003A507068280B7270020BA
:1021700003A547068280B727002083A787068843E8
:102180008280B727002093874705D44B98420507E4
:1021900098C2A8339307F00F6305F50091656FE0CF
:1021A000AF838280011122CC06CE2E8432C6EF800E
:1021B000506D9147B2456310F502B727002083A701
:1021C00007E095C303A30700630F03002285624461
:1021D000F24005610283B727002083A787DF81C70C
:1021E00003A34700D5B7F2406244054505618280EC
:1021F000011122CC2A844A2106CE26CA4AC84EC6DC
:1022000097E0FA1FE780C0582DC52A890421834929
:10221000C500E93D4A85EF9090384A20EF80B061D3
:10222000372900201309C9E083470900B9C763961D
:102230009704B727002083C5D7E02685713C19E1B4
:10224000230009004A20EF80D0639147631CF5000A
:10225000B7270020938747055620FA236394E600AA
:102260007D57FAA3F2406244D2444249B249056123
:10227000828081499304F00F65B79307F00FE383E1
:10228000F4FC7420522028204E87A685A5365DBF19
:1022900079715EC6AA8B2E8552CC56CA5AC806D60C
:1022A00022D426D24AD04ECEAE8A328B368A97E0DE
:1022B000FA1FE780E04D6DC1045D2A89F1CC9C5086
:1022C000614599C3130540039C5481C751054205DC
:1022D000418163050A00710542054181DC5081C7D7
:1022E000590542054181EFD03FCC2A8455C561464E
:1022F000814597E0FA1FE7804009B727002083C98E
:1023000087006394090083490900930700FD1CA01E
:10231000A947A30074013CA0230364018C5023123D
:1023200054011305840191C908C47146930A4403FA
:1023300097E0FA1FE780200256858C5491C948C463
:102340005146930A450197E0FA1FE780C000568581
:10235000630C0A0008C87146D285930AC50197E04C
:10236000FA1FE78040FF5685CC5099C548C85946AA
:1023700097E0FA1FE78020FEA2854E85EFD0FFC6CA
:102380002254B2509254F249624AD24A424BB24B62
:102390004A850259456199BBB25022549254025960
:1023A000F249624AD24A424BB24B456182800111E6
:1023B0004EC6AA892E854AC806CE22CC26CA2E89A8
:1023C00097E0FA1FE780C03C29C5B727002083C4E7
:1023D000870091E004211945EFD01FBD2A8415C95B
:1023E0008145194697E0FA1FE78020FA930700FD20
:1023F0001CA0B947A30034013CA023122401A285EC
:102400006244F2404249B2492685D24405616FD008
:10241000DFBDF2406244D2444249B2490561828044
:1024200039715ECEAA8B2E8526DA4ED652D456D27C
:102430005AD006DE22DC4AD8AE84328BB68A3A8A7B
:10244000BE8942C697E0FA1FE780803429C92A89ED
:102450004145EFD07FB52A8439C14146814597E097
:10246000FA1FE78080F2B727002003C5870019E133
:1024700003450900930700FD1CA0BD473CA0B247DF
:10248000A300740146A023046401A304540123059E
:102490004401A30534015CC4A285EFD01FB5F250FE
:1024A0006254D2544259B259225A925A025BF24BA8
:1024B00021618280797126D2AA8439454AD04ECED4
:1024C00006D622D42EC6B2893689EFD0FFAD0DCD07
:1024D000B2459307000D1EA1B1472A844EA13CA12D
:1024E000CE851905194697E0FA1FE780C0E6230656
:1024F0002401A2852254B2500259F24913F5F40F77
:10250000925445616FD07FAEB2502254925402591A
:10251000F24945618280411126C2B724002093848C
:102520004405B83006C622C44AC09307F00F6304BE
:10253000F7042A893945EFD03FA72A840DCD9307A8
:1025400000FD1CA1A3002501230105009385840142
:102550000D05194697E0FA1FE780E0DF9E24A2856B
:10256000A8303EA49C305CA42244B240924402496C
:1025700041016FD09FA7B2402244924402494101D9
:10258000828001115AC02A8B314526CA4EC652C4D8
:1025900056C206CE22CC4AC8AE84B28A368ABA89DE
:1025A000EFD09FA02DCD2A84268597E0FA1FE780E3
:1025B000201E09C55825A1476311F704B72700203D
:1025C00003C97705930700FD1CA09D47A300640184
:1025D0003CA046A0231354012314440123153401C5
:1025E000A2856244F240D244B249224A924A024B46
:1025F0004A85424905616FD05F9FB727002003C914
:10260000D712E3110BFCB727002083A787F29C4762
:10261000D5DBCE865286D6852685829765B7F24071
:102620006244D2444249B249224A924A024B05616D
:102630008280011122CC2A84214506CE2EC6EFD0FD
:10264000BF9615C5B245930700FD1CA1C5473CA127
:10265000BC313CB1DE215EA1FC217CA1FC31AA850C
:102660007CB122856244F24005616FD01F98F24030
:10267000624405618280397162CC2A8C594526DA20
:102680004AD84ED652D456D25AD05ECE06DE22DC7E
:10269000AE8432C636C4BA8B3E8BC28A468A835910
:1026A000010403494104EFD03F902DC53246930702
:1026B00000FDA2461CA1954730B1A30085013CA1B5
:1026C0002A8419461105A9C2B68597E0FA1FE7804A
:1026D00080C823066401230A2401231574012317EB
:1026E00054012318440123193401A2856254F25085
:1026F0004259B259225A925A025BF24B624C2685D9
:10270000D25421616FD07F8E814597E0FA1FE78018
:10271000C0C7C1B7F2506254D2544259B259225A7A
:10272000925A025BF24B624C21618280411122C4B9
:1027300037240020130444053C2006C626C285CB5E
:10274000B7240020AA851946138544DE97E0FA1FB6
:10275000E78060C02820938544DEEFF0FF9222449A
:10276000B240138544DE924441016FB01030B24054
:1027700022449244014541018280411126C2B7247E
:1027800000209387440506C622C44AC0B833930785
:10279000F00F93844405630FF7022A892945EFD08F
:1027A000BF802A8405C9930700FD1CA1A147A3008F
:1027B00025013CA1BC20B7250020938545DE3CB116
:1027C0001946110597E0FA1FE780E0B8A830A28506
:1027D000EFD0BF81B8208D476311F702B7270020E3
:1027E00083A7C7DF99CB03A38700630803002244B4
:1027F000B2409244024941010283B24022449244D1
:10280000024941018280797122D406D626D24AD06B
:102810004ECE52CC56CA09444DCD2A890A21AE89E2
:10282000514497E0FA1FE780A0F6AA845DC13727DC
:10283000002093078712DC238546BA8AFD1793F799
:10284000F70F494463F7F6085825A1476314F700CA
:10285000639109089C5C4544ADEF91659385457192
:102860001305C00297D0FA1FE780C07D88DC2A8A52
:102870004D4425C11306C002814597E0FA1FE78049
:10288000C0B08357090093064A0036852311FA0029
:1028900071469305490036C697E0FA1FE780A0AB62
:1028A00089472300FA00C824B2460356090083C5AD
:1028B0008A12611513351500EFA0905F2A84638694
:1028C0000900CE852685EF90007701C42685EFF0BC
:1028D000FF812285B250225492540259F249624A31
:1028E000D24A45618280B727002083C7C7120547B7
:1028F000FD1793F7F70F6377F708894749C601116A
:1029000022CC26CA4AC84EC652C406CEAA89368AE6
:10291000B2842E8997E0FA1FE78080E72A84D147A6
:1029200031C5485509C597D0FA1FE780E07CF145CD
:10293000268597E0FA1FE780A0A748D4CD471DC59C
:10294000542421478147639DE600630B0A00382D1C
:10295000122993062501AA854E85EF80906BAA87E0
:102960005820630E09001367670058A0F2406244C4
:10297000D2444249B249224A3E85056182801367AA
:102980004700E5B7C9473E8582809307B00363EBF4
:10299000A7009317150037250020130585FD3E95E8
:1029A0000A21828041657D158280011122CC2A8412
:1029B0002E8526CA06CEAE8497E0FA1FE78040DD5A
:1029C0000DCDB7470F009387F723094563E28702D0
:1029D00081450A85414697E0FA1FE780009BA6855E
:1029E00060800A8541804081A3010100EFA0502E44
:1029F000F2406244D244056182804945D5BFB72781
:102A000000202385A71282806FA0F042797152CCFA
:102A10002A8A328522D426D24AD04ECE56CA5AC8E5
:102A20005EC606D662C4AE8BB28A368BBA843E8945
:102A3000C289468497E0FA1FE78080D50DC92A8CA9
:102A400063130A0213774B005C2115CF93E727012C
:102A50002302FC008DEC631C0902639A090205E85D
:102A6000ED9B2302FC00832B8C0363910B08B25077
:102A7000225492540259F249624AD24A424BB24B12
:102A8000224C45618280F59B93E70701D1B793E71C
:102A900047002302FC0001CC1C484146A2852324A8
:102AA000FC0213058C0197E0FA1FE780C08A63934C
:102AB0000B02D5D80325CC0209C597D0FA1FE780B1
:102AC000A063F145268597E0FA1FE780608E2326F4
:102AD000AC0251BFE30909F80325CC0209C597D020
:102AE000FA1FE7806061F1454A85F1BF9DC483A765
:102AF0000B0299EB916593853571714597D0FA1F5B
:102B0000E780405423A0AB0203A50B0219C5714610
:102B1000A68597E0FA1FE78000846388090283A7EF
:102B20004B0299EB916593852571594597D0FA1F12
:102B3000E780405123A2AB0203A54B0219C55946B9
:102B4000CE8597E0FA1FE78000811DC483A78B0222
:102B500099EB916593851571514597D0FA1FE780E0
:102B6000604E23A4AB0203A58B0219C55146A28572
:102B700097D0FA1FE780207E2254B2509254F24937
:102B8000B24B224CCA865A860259424BD685528590
:102B9000D24A624A45616FF0AFEF011126CA52C4B2
:102BA00006CE22CC4AC84EC62A8AAE8497E0FA1FC7
:102BB000E78000BE25C1AA893945EFD0EFBE2A843F
:102BC00031C9B727002003C987006314090003C96E
:102BD00009009307000D1EA0AD473CA09385690036
:102BE00013053400194697D0FA1FE780C07693F793
:102BF0001400858085885CA444B423154401A28513
:102C00006244F240D244B249224A4A8542490561AF
:102C10006FD0AFBDF2406244D2444249B249224A29
:102C200005618280411122C4372400201304C4DED0
:102C3000084006C619C597D0FA1FE780E04B23204D
:102C40000400B240224441018280011106CE22CC10
:102C500026CA4AC82EC697E0FA1FE78060B321CD86
:102C6000B245B727002003C987000CD5AA84631496
:102C70000900034905004145EFD00FB32A8405CD73
:102C80009307000D1EA1A5473CA1DC30938564008D
:102C90001105A30FF5FE194697D0FA1FE780A06B28
:102CA0009C54A285F2405CC46244D2444A854249A5
:102CB00005616FD08FB3F2406244D244424905614E
:102CC0008280797122D406D62A842EC697E0FA1F14
:102CD000E78000AC1DC954251147AA874945639276
:102CE000E6029C5FB24591C3EC2B0808EF90A03D33
:102CF000B7D6050093864697100889452285EF8050
:102D00009036B2502254456182805145DDBFB727CD
:102D1000002083C7C7120547FD1793F7F70F637AA3
:102D2000F704894721CA411122C426C24AC006C6F7
:102D3000B2842E8997E0FA1FE78080A52A84D147C4
:102D400015C1630609005C2193E727005CA1414699
:102D5000A6851305840197D0FA1FE780C05F9C48C1
:102D60001CD48147B2402244924402493E8541012D
:102D70008280C9473E858280797122D406D62A8412
:102D80002EC697E0FA1FE780A0A001CDB2452285AC
:102D9000230EB1006C08EF90A026B250225445617A
:102DA00082805145DDBF6F80A022C1671387E7FF96
:102DB0006395E502B727002083A787DF91EB49459C
:102DC00082804945B24022449244024941018280B6
:102DD00003A30700E30503FE0283411122C426C2B8
:102DE0004AC006C6FD172A892E84B284639AF5026A
:102DF000B727002083A787DF91CF9C4381CF82979D
:102E000011E9B7270020238627E1B7270020A386F2
:102E100097E04DBFA6854A85EFE01FEC45F5D5B795
:102E20002E8597E0FA1FE780A09641DD1C210D4515
:102E3000E39A27F922852244B2400249A6859244AA
:102E400041016FB0803F1307B003636FA7044111C6
:102E5000C16722C406C626C2FD172A8409456381BC
:102E6000F502C547AE846312F4022E85EFB06044CC
:102E700037250020130585FD06042A9406A0014588
:102E8000B24022449244410182809307A00363161A
:102E9000F4002E85EFB0203BE1BFE31BE4FC13F50B
:102EA000F50FEFB0803AE9B709458280011106CEEF
:102EB0002AC6EFE07FE4EF206047EF10C07FEF907D
:102EC0002163B727002093874705130700F0BAA3B3
:102ED00023820700B7270020324513878712FD564B
:102EE00034A3F2402384A712954505616F60303802
:102EF0001D7193970501CAC886CEA2CCA6CACEC6BC
:102F0000D2C4D6C2DAC05EDE62DC66DA6AD86ED6B9
:102F1000C1872E8963D4074EB72A002003C58A12C1
:102F2000B7240020372B002097D0FA1FE780A02D70
:102F30002A84372A0020372C0020372D0020938444
:102F400044051DE021653345A900F6406644D6449A
:102F50004649B649264A964A064BF25B625CD25C09
:102F6000425DB25D256182801C201307200A639BAD
:102F7000E70083C934002A20C1652286FD15EFF0E1
:102F80006FA2B1A213878A12834927001307100981
:102F9000639AE7141C3015476390E7022285EFF02F
:102FA0002FA52285EFC09FFD03C58A1297D0FA1F77
:102FB000E78060252A8471B73947639FE7144A2068
:102FC0008567A5076313F5040C4483CB0500639D57
:102FD0000B00850591C9B727002019461385C70640
:102FE00097D0FA1FE780203798208547631CF70E9B
:102FF00063880B00238004005E85EFF0CFD155B7C6
:1030000089479CA0EFB0202669BF896713872700F6
:103010006316E504832B840063860B0C83C70B00C7
:1030200099EB83C72B0003C71B00A207D98F9EA46F
:1030300083C73B009CB0982089476315F70A83C774
:103040000B0091C72380040003C50B007DB78C30B3
:103050008A248D479CA0EF605024FDB79507631725
:10306000F5001C448823EFF04FF125BFF977138753
:10307000A7FF2A9742074183914663F1E6049387AD
:10308000A7FCAA97C207C18371476371F7028967DA
:103090001387B7006310E50483274ADFE38307F053
:1030A0009C43A285E38F07EE829715A0370700188F
:1030B0001307F770B357F700858BA9CB8327CBDFB6
:1030C000E38107EE9C43E38E07EC22858297E31AA7
:1030D00005EC09A81387C700631FE5001C449C2367
:1030E000E38107EC9307F00FE38DF9EAA2854E85A3
:1030F000EFC0BFEF55BDB907631AF500B727002031
:1031000083A787DFE38F07E8DC4361BF8967938785
:103110001704E303F5F8F9B73D476399E7044A203C
:1031200089671387D700E30BE5FC13879701E30753
:10313000E5FCCD07E318F5FAFA20C167FD17631F18
:10314000F700B727002083A787DFE38C07E4DC4381
:10315000E38907E40965A2854D05B9B7B7270020C3
:1031600083A707E0E38F07E29C43DDB71307E00383
:10317000E39AE7F63C2005476398E70C7C20372765
:103180000020930DC7DECDE783A70D00D9CF83CBF9
:103190000700A1496830930C8400E685EFE0BFF298
:1031A0005C2868B0835804010358E4005A202A863A
:1031B00028303EC23E28E686DE853EC0CE87EFF050
:1031C0008FCB3C3095E3DD47835804010358E4007E
:1031D00074304E203EC23E283EC06687CE870546EC
:1031E0005E85EF80E00028B083A70D0081C7114500
:1031F000EFF05FA3930BCCE003C50B00E30305DA0C
:103200008345DDE0EFE05FADE30D05D83430930793
:1032100010036389F600522083C50B004E87368564
:10322000EFE05FBD23060CE0ADBB83CB340095B768
:103230008327CBDF83CB34009149A9DFDC43B9DBA3
:10324000814501458297B9B729476396E7087C20F5
:1032500037270020930DC7DEBDE383A70D00A9CF5C
:1032600083CB0700A1496830930C84009377250035
:103270001376150089E7E685EFE0FFE42A868347A9
:10328000040270B08358C4010358A4015A202830A6
:103290003EC27E2CE686DE853EC0CE87EFF0AFBD17
:1032A0003C30B9F3DD478358C4010358A40174309E
:1032B0004E203EC27E2C0DB783CB340065B78327EA
:1032C000CBDF83CB34009149D9DFDC43C9DF8145B3
:1032D0000145829749BF0947639CE70083274ADF7E
:1032E000E38107CCDC43E38E07CA2285829755B978
:1032F0002D476398E70083274ADFE38407CA9C478A
:10330000DDB70D476396E70022868D454A2085B9D3
:103310001947639AE7049305610113051031EF9093
:1033200081252C0813052031EF90E1247220BC8404
:103330004A2063E6C7001624B88363F7E6009305C6
:103340000002EFA01076B1B96373E6007AA063F3D0
:10335000D7001EA45A24362412246E200148814727
:10336000EFA0F0733DB91D47E38EE7D63147639573
:10337000E7002286B14559BF35476398E7008327A8
:103380004ADFE38007C2DC47B9BF39476396E700ED
:103390002285EF00207931B13D476398E70083270C
:1033A0004ADFE38007C09C4B3DBF41476396E7007F
:1033B0002285EF005000F5B645476396E7000145CA
:1033C000EF00F00EF9BE4947639DE7008327CBDF8E
:1033D000E38A07D0DC43E38707D081450545829720
:1033E00011B34D47E390E7D08327CBDFE38C07CEC3
:1033F000DC43E38907CEA2850945D5B793F71500CD
:1034000089CFB727002083A747DF89C7DC4399C34B
:1034100001458297134519000DBE93F7250091CF02
:10342000B727002083A7C7DF91C7DC4381C7814549
:10343000054582971345290009BE93F745000145CC
:10344000E38507B0B727002083A707DF37240020D4
:103450001304440589CF85475CA0B727002083A7C4
:10346000C7DF91C7DC4381C7814505458297484442
:103470002C08EF90F06D2808EFF04FABB727002035
:1034800083D7A7FF81CF130600643386C702B7270F
:10349000002003C587129145EFC07FE31345490023
:1034A0006DB4011122CC2A84554506CE26CAEFF010
:1034B000CFCDAA8413054002EFF02FCD2AC6130505
:1034C0005002EFF08FCCAA86228562443246F24049
:1034D000B3359000D24405616FA0D062797122D4D7
:1034E00006D68D472E84631AF500BA259625F2215B
:1034F0002830CE21EFF0EF8801A889671387D70025
:10350000631EE502A82119E58547B25022543E8585
:1035100045618280B727002083A6C7DEF5D6B0328A
:103520008C22814802C202C00148814701479106AE
:10353000EFF06F940545EFF0EFEEF9B71387E70072
:10354000E304E5FC138737016319E500A8214DDD8D
:10355000014781460146814571BFE507E306F5FA5B
:10356000B1476319F500B727002003C57705EFF0D1
:103570004F8C59BF41677D178147E318E5F8D83173
:10358000C947E313F7F8F625D2250A24AE25EFA0A4
:10359000B0592DC15D45EFF04FBF3335A000E88431
:1035A0004C202A203008EF70B000BC84B1FF6C08BA
:1035B00013051031EF80317C9305E10113052031B3
:1035C000EF80717BBC861A246373F7001EA4BC874E
:1035D0003A2463F3E7003EA40E243E2463F3B700CD
:1035E0002EA47A24562432242A2001488147EFA0B1
:1035F000104919BF8547FC8465B7B727002013879A
:10360000871274331307F00F638DE6063DC941112D
:1036100022C426C24AC006C6AA8428251389871256
:103620004105EFC07F982A8439C59307000D1EA17C
:10363000D9473CA1DE205EA1FC207CA1FC307CB1FE
:103640009C241CA59C341CB5B02430A515C2CC44C8
:10365000410548C497D0FA1FE780E0CFA2852244F5
:1036600003457900B2409244024941016FC0FF977F
:1036700023260500E5B7B2402244924402494101A5
:1036800082808280C1671387E7FF639DE500B727CB
:10369000002083A7C7DE95C39C230D47639DA70029
:1036A0006FA0303DFD1749476397F500B72700200D
:1036B00083A7C7DEF5F73A8582804947EDBF3971A8
:1036C00022DC06DE26DA4AD84ED652D456D25AD05A
:1036D0005ECE62CC182185472A846309F704102541
:1036E000930695009305E1000545EFE0FF818147D2
:1036F00011C11C21142011476382E60437270020E2
:103700000327C7E18D461833630AD70285CB1DC74F
:103710000DE10145F2506254D2544259B259225A35
:10372000925A025BF24B624C2161828081470145D3
:10373000D1B78546631ED7088D8BE1DF0830130AA9
:103740002400D285EFE03F983729002008B0832776
:1037500009E22A8B130909E28149C1C3B72A002073
:103760009304F00F83C78AE1138C8AE163FAF902AC
:1037700003250900939B49005E951C2163819706F0
:103780001C31639E67051946D285090597D0FA1F3B
:10379000E78000C529C5832409001820DE94B1E420
:1037A00014209147E387F6F683270900BDD303462B
:1037B0000C0001479305F00FE30DE6F4BE84C1074A
:1037C00003C507FF6301B50C05071377F70FEDB7C6
:1037D0008946E310D7F4858B8DB7054525BF85094C
:1037E00093F9F90F41B788C4C9A891476312F70646
:1037F000C8440DC11C241021630EF6041820914703
:103800006318F706C84419C597D0FA1FE780C08E21
:1038100023A60400082491659385E571050597D0DA
:10382000FA1FE78020820DC118209147631BF7041F
:10383000C8C41C24930594000505A30FF5FE1024AD
:1038400097D0FA1FE78020B108243335A000D9B5FE
:10385000884445B793059400050597D0FA1FE78083
:1038600020B88547E31CF5F85545EFF00F92ADA061
:1038700088444DD197D0FA1FE780008823A4040024
:1038800051BF88C47DB794A01C30D2851385240015
:103890009CB0194697D0FA1FE780E0AB08249165E9
:1038A0009385F571050597C0FA1FE780A0790DC1D2
:1038B00018209147E319F7F2C8C41C24930594001B
:1038C0000505A30FF5FE102497D0FA1FE780A0A8E6
:1038D0001C2481F708207D151335150025BD39718D
:1038E00022DC26DA4ED652D406DE4AD856D25AD038
:1038F0005ECE2A84930925000831CE85B7240020A6
:10390000EFE06FFC08B09384C4E19C400D472A8A25
:103910009C336390E70437290020832709E2814A1A
:10392000130909E263810714B72B002003C78BE159
:1039300093970A01C18303250900138B8BE163E090
:10394000E70C83460B000327090081471306F00F9D
:10395000BDAAF1D3144C70389305E1000545EFE0A2
:10396000AFDA15C9984085461C2118336310D70279
:103970008D8BD5F30145F2506254D2544259B2595D
:10398000225A925A025BF24B216182808946858BD2
:10399000E313D7F8F9BF1C2011476385E7002D47D3
:1039A000E39AE7FCB724002083A704E2938404E2AF
:1039B000F1D3814A0149B72B002005A88840139B09
:1039C0004A001C205A9518216310F7021C31639D90
:1039D00047011946CE85090597D0FA1FE78040A018
:1039E00001C503A904005A99850A03C78BE193977F
:1039F0000A01C183E3E4E7FCE31F09F0A5BF939448
:103A00004A00269518211C206318F70A1C3163957B
:103A1000470B1946CE85090597D0FA1FE780409CD1
:103A200041CD832709001147BE941C206385E70020
:103A30002D47639CE70203AAC4007C3803460A00B2
:103A40006308F602528597C0FA1FE780E06A68387B
:103A500091659385E571050597C0FA1FE780805E43
:103A60001DE5E38004EE054539B703AA8400F1B7EC
:103A70000C4C13051A0097D0FA1FE7806096854713
:103A8000E312F5FC5545EFE05FF061DDE5B51C2084
:103A900011476385E7002D47639EE700C8C47C3863
:103AA0000505A30FF5FE70380C4C97D0FA1FE78080
:103AB000808A45BF88C4E5B7850A8DBDBA844107B1
:103AC000834507FF638AC5008507C207C183E3E713
:103AD000D7FE51BF88C425A81C20CE85138524009D
:103AE0009CA01C3019469CB097D0FA1FE780A08696
:103AF000683891659385F571050597C0FA1FE780D1
:103B0000605435D118209147E316F7FCC8C47C38BF
:103B10000505A30FF5FE70380C4C97D0FA1FE7800F
:103B2000808391B701114AC83729002013098912EF
:103B30000347790006CE22CC26CA4EC69307F00F63
:103B40006304F70635C1AA845145EFC0EFC52A8446
:103B500021CD9307000D1EA1D5473CA1BC30938910
:103B60008400CE853CB1DE205EA1FC207CA1E83043
:103B7000EFE06FD568B0CE8513058400194697C075
:103B8000FA1FE780407DFC24A285034579007CA4D0
:103B90009E281EA8BC283CA86244F240D244424958
:103BA000B24905616FC06FC4F2406244D2444249D9
:103BB000B24905618280411122C4372400201304D8
:103BC0008412783006C626C29307F00F6307F70207
:103BD0000DC5AA841945EFC02FBDAA8519CD93073D
:103BE000000D1EA1DD473CA1DE20B24092445EA143
:103BF0006830224441016FC04FBFB240224492441A
:103C000041018280011122CC37240020832704E265
:103C100006CE26CA4AC84EC652C48DC3130404E257
:103C20002E8AAA840149084063129902630C0A048F
:103C300097C0FA1FE780404C23200400F240624402
:103C4000D2444249B249224A05618280931949000F
:103C5000B3073501884709C997C0FA1FE780C049F3
:103C60001C40CE9723A407001C40CE97C84709C923
:103C700097C0FA1FE78040481C40BE9923A6090060
:103C8000050955B745DD13964400814597C0FA1FD5
:103C9000E780A06F144081477D5613F7F70FE37F4D
:103CA00097F813974700369710A38507FDB77971EA
:103CB0004AD0372900208327C9E106D622D426D24C
:103CC0004ECE52CC56CA5AC85EC6C5C3B72A0020CB
:103CD000AA891309C9E1938A8AE1014405E1B7275A
:103CE000002083A607E299CA03C60A002A848147F6
:103CF0009305F00F13F7F70F6364C708131534002B
:103D00002105EFC06FAAAA8401E92145EFC0CFA920
:103D1000AA8421C10144CD49930700FD9CA0854799
:103D2000A3803401BCA0A0B045C49389840023A221
:103D30003401014A372B0020930BF00F83C70A0090
:103D40006373FA0029E883270900A6858823EFC05A
:103D5000CFA903C50A00814575350325090097C021
:103D6000FA1FE780603923200900B2502254925490
:103D70000259F249624AD24A424BB24B45618280B3
:103D800013974700369718236305B700050413748B
:103D9000F40F850785B783270BE293154A00BE957C
:103DA0009C21638377032380F9009C3113852900CC
:103DB0007D14A380F900194689051374F40F97C088
:103DC000FA1FE7804059A109050A137AFA0FBDB717
:103DD00023A204008DBFB727002083A7C7E1B1C786
:103DE000411122C406C62A841DE10945EFE0FFB94E
:103DF0002A8601C9B727002003C587128545EFC071
:103E00000FCD0545EFF0EFE92A84054519C8B7271E
:103E1000002003C587128545EFC0EFEA2285413DAA
:103E20000545B24022444101828001458280896774
:103E30009386B7006315D5009C45882369BF938698
:103E4000C7006317D5009C458546882319C9FDB76F
:103E500093861704E302D5FE938727048146E30483
:103E6000F5FE36858280797106D622D426D24AD0D4
:103E70004ECE52CC56CA5AC85EC662C469C53C31E1
:103E8000AA8985C7404115C05945EFE01FB0931A74
:103E9000850193DA8A410149372A0020130B000D6E
:103EA000B54B83C73900636EF900B2502254925467
:103EB0000259F249624AD24A424BB24B224C456106
:103EC00082808307840263C757078327CAE1130CE4
:103ED000CAE1ADC32285EFF08FFE29CD082451053C
:103EE000EFC08F8CAA8439C52310650123017501A9
:103EF0001C201946930524003CB183078402150554
:103F00007CA11C30A30FF5FE97C0FA1FE780A044E8
:103F10001024D0A415C61385440188C893059400C5
:103F200097C0FA1FE780204383270C00A6858823CB
:103F3000EFC0AF8B0509130494021379F90F95B7FD
:103F400023A80400D5B7B727002083A7C7E1B1DFB6
:103F5000B93B2254B25092540259F249624AD24AB1
:103F6000424BB24B224C014545616FF08FD37971C2
:103F700006D622D426D24AD04ECE52CC56CA5AC8E1
:103F80005EC662C44DCD3C31AA8985C7444195C007
:103F90005945EFE09F9F931A850193DA8A410149C1
:103FA000372B0020930B00FD414C83C73900636E13
:103FB000F900B250225492540259F249624AD24A4C
:103FC000424BB24B224C456182808387F40063C32D
:103FD0005707130ACBE183270A00A9CF5145EFB059
:103FE000BFFC2A8421C923007501A3000500230119
:103FF00085019C201946938524003CB18387F400F9
:1040000015055CB59C30A30FF5FE97C0FA1FE7803D
:1040100080349C24938594001305C4003CB4194655
:1040200097C0FA1FE780203383270A00A2858823E0
:10403000EFB0BFFB0509C1041379F90FBDB7B7276E
:10404000002083A7C7E1B5D79D312254B2509254C6
:104050000259F249624AD24A424BB24B224C0145C4
:1040600045616FF00FC45D7186C6A2C4A6C2CAC006
:104070004EDE52DC56DA5AD85ED662D466D26AD0A8
:104080006ECE630D05203C31AA8485CB832A450082
:1040900063850A025945EFE05F8F93178501E18739
:1040A0003EC60144372900209309000D354C9D4C34
:1040B000294D994DB8306361E402B64026449644D8
:1040C0000649F259625AD25A425BB25B225C925C58
:1040D000025DF24D616182800387CA00B247634C82
:1040E000F7100327C9E1130AC9E16306071083CB60
:1040F0000A0013F70B014DCB4D47639AEB06238063
:104100000A005685EFF0AFFD7DC503C70A00914751
:1041100003C57A0163E6E70E5105EFB0FFE82A8B8D
:1041200079C9231035012301850183C60A00194688
:1041300093852A0034B18386CA00150574A183C60D
:104140001A00A30FD5FE97C0FA1FE780C02003C650
:104150007A012306CB0041CA13054B012328AB008B
:1041600083A58A0197C0FA1FE780E01EBDA85547C6
:104170006398EB0005472380EA00A38B0A0051B740
:104180007547E389EBFE49476396EB0009472380B7
:10419000EA0085BF41476394EB000D47CDBF6D47F3
:1041A000E391EBF61147E5B713F78B0019C32D47E1
:1041B000F9BF13F61B0013F74B0011C619C31547BF
:1041C0005DBF2147E9B713F62B0019C619C3254770
:1041D0005DB72380BA0135B701C72380AA0115B79F
:1041E00023809A0139BF23280B0083260A00DA8531
:1041F0008822EFB09FDF0504F10A1374F40F5DBD50
:1042000013050502EFB05FDA2A8B75D5C9473CA1CB
:104210002310350103C60A0093F60B0693852A0086
:10422000D18E34B183C61A0019461505A30FD5FEE9
:1042300097C0FA1FE780201283C68A00194693852B
:104240001A01A305DB0083C69A0013053B01230670
:10425000DB0083C6AA00A306DB0083C6BA002307DF
:10426000DB008386CA00A307DB0083D6EA0023189D
:10427000DB0083C60A012309DB0097C0FA1FE78031
:10428000800D03C67A01A30CCB0011C613050B02E7
:10429000232EAB00F1B5232E0B0081BFB7270020E2
:1042A00083A7C7E1E38B07E0EFF07FA02644B64089
:1042B00096440649F259625AD25A425BB25B225C7A
:1042C000925C025DF24D014561616FF08F9DB727F1
:1042D000002083A7C7E19DC798238D476315A702D8
:1042E000B727002003C587124111854506C6EFC0D8
:1042F0008F9D13050003EFF09F9BB24001454101E4
:104300006FF02F9AC9473E85828079714AD037294C
:1043100000201309C9E18327090006D622D426D23A
:104320004ECE6393070E37240020130484125820C6
:10433000C947298B55C39165AA849385D5711145C9
:1043400097C0FA1FE78000D02320A900CD4749C5B8
:104350009C201146A6857CB097C0FA1FE780A0FF7D
:10436000930531001305F041EF603124B727002099
:1043700093874705A02398813334800011C3090433
:1043800013051002EFE06FE01379F50F9377190032
:1043900093794900B1CB1545EFE02FDFBC2068844D
:1043A00019455C82EFE06FDE6886638E0900BC20F1
:1043B00013052002DC82EFE04FDD68851305300233
:1043C000EFE0AFDC6887AC307C00380054004A86F0
:1043D0002285EF90F072AA87B2502254925402596B
:1043E000F2493E8545618280E147E38709FEBC20B2
:1043F000130520025C82EFE04FD968841305300278
:10440000EFE0AFD86886C1B7C547F9B7757126C365
:10441000B724002022C506C74AC1CEDED2DC938471
:104420008412DC204944A18B63810724B727002034
:1044300083A7C7E14144639A0722AA89EFE0BF96A8
:104440009C2455446373F522B724002083A7C4DE5F
:1044500026894544639B072091659385C57129454D
:1044600097C0FA1FE78000BE23A6A4DE4D44630E6A
:10447000051E2946CE8597C0FA1FE780C0ED1305BB
:104480006002EFE08FD0137AF50F93775A00614402
:10449000638D071C130600038145880097C0FA1F2F
:1044A000E780A0EE93771A0093692A000144B9CF00
:1044B0004145EFE08FCD2316A1043D45EFE0EFCC61
:1044C0002319A1043545EFE04FCC231CA104394545
:1044D000EFE0AFCB231FA1042145EFE00FCB231268
:1044E000A1061D45EFE06FCA83A7C4DE2315A10610
:1044F0009C33638507182D45EFE02FC92310A104D5
:104500003145EFE08FC82313A10405441305C00211
:10451000EFE0AFC7981893171400BA97239EA7FC33
:104520001305B002EFE06FC6930484009C18860464
:10453000BE942399A4FC13059002EFE00FC5239CC1
:10454000A4FC1305A002EFE04FC4239FA4FC1305B5
:104550008002EFE08FC3930404019C188604BE948C
:10456000239AA4FC13057002EFE02FC2239DA4FC44
:10457000137A4A0063040A0813056003EFE0EFC0F2
:1045800005049C1893141400BE94239EA4FC1305E8
:104590005003EFE08FBF130A84009C18060A3E9A6E
:1045A0002319AAFC13053003EFE02FBE231CAAFC3D
:1045B00013054003EFE06FBD231FAAFC1305E002C3
:1045C000EFE0AFBC41049C1806043E94231AA4FCFF
:1045D0001305D002EFE06FBB8327C9DE231DA4FCC7
:1045E0009C33C5C713051003EFE02FBA2398A4FC32
:1045F00013052003EFE06FB9239BA4FC8327C9DEDA
:10460000A83393854700EFD03FA82AD69305F1033E
:104610001305F041EF606179B727002093874705C4
:10462000AC230347F1033256B335B00011C38905FB
:104630008326C9DEFC009308A106A8223EC8930782
:1046400021053EC6BC083EC49307E1053EC2DC100E
:104650003EC0130861049C004E879106EF90D04A3B
:104660002A8401C50D45EFE0EFDB2285BA402A44DC
:104670009A440A49F659665A496182802545EFE015
:10468000CFB02310A1042945ADBD1305F002EFE022
:10469000CFAF2398A4FC13050003A9BFB7270020C0
:1046A00083C7C7120145A18B89C737250020130591
:1046B00005E16FD08FF9B72700207D57238C07E0E5
:1046C000B7270020A387E712B727002023A007E21F
:1046D000B727002023AE07E037470500B7270020A3
:1046E000938747071307E7E298C337470500130787
:1046F00067E6D8C3374705001307E7F698C737477B
:10470000050013076706D8C7373705001307A75FEB
:1047100098CBB727002037370500938707E11307A9
:10472000476898C3373705001307C74DD8C3828041
:10473000411122C437240020130484E126C2AA8434
:104740000820854506C6EFF0EFCBB727002083C7CA
:10475000C712A98BBDC73725002004A01305450744
:10476000B7240020EFD0CFED938404E29C4099C79A
:104770004D45B2402244924441018280082019E113
:104780000145C5BF91659385B571120597C0FA1FA4
:10479000E780408B88C069DD10208145120697C0F4
:1047A000FA1FE78080BE142090408147FD5513F723
:1047B000F70FE377D7FC1397470032970CA38507D1
:1047C000FDB7014523000400EFD08FE755BF41112D
:1047D00022C437240020032504DF06C619C597C06C
:1047E000FA1FE7806091232804DEB2402244410191
:1047F00082805971A2D437240020832704DF86D613
:10480000A6D2CAD0CECED2CCD6CADAC805456389E4
:10481000070C9305F1041305F041EF60015993056E
:10482000F1041305F041EF604158B727002093874A
:104830004705BC230347F104B337F00011C38907D0
:10484000032704DF3EDE283393054700EFD0DF83E4
:10485000032704DF2ADC0D452C232EDAEFE0EF924C
:104860002AD81145EFE06F92032404DF2AD665456C
:104870003824034BB4003AD4EFE02F91AA84694561
:10488000EFE0AF902A897145EFE02F90AA896D453E
:10489000EFE0AF8F2A8A7545EFE02F8FAA8A79451E
:1048A000EFE0AF8EE2046258F2572257B2564256FA
:1048B000D2551375F50F93FAFA0F137AFA0F93F98D
:1048C000F90F1379F90FE1842ACC56CA52C84EC6A3
:1048D0004AC426C25AC0930844000545EF90301ED2
:1048E000B650265496540659F649664AD64A464B5F
:1048F00065618280011122CC06CE26CA8D472E84A6
:10490000631AF504B831B7240020E947CA2193841B
:1049100044056315F700FE206389A70497C0FA1FBA
:10492000E78000E719C17E207EA53A241624722074
:104930004E202830EFD0FFC45A20FE206309F70034
:104940008547F2406244D2443E8505618280FD572E
:10495000FEA0FDB78967CD07631CF500BC21314778
:104960006385E7004547E39DE7FCEFD00FD5C9BF5E
:10497000B1476319F500B727002003C5D712EFD060
:104980005FCB7DBF41677D178147E31CE5FAD431DA
:104990004947E398E6FACC212A203000231401008D
:1049A000EF60003C71BF411122C4372400208347CF
:1049B00044E226C24AC006C61307E00FAA842E8925
:1049C0006380E7041307F00F130444E26382E702F5
:1049D0001145EFB06FDD09CD930700FD1CA189479C
:1049E000A30025013CA124B1AA850820EFB0EFDF88
:1049F000F9571CA0B24022449244024941018280EE
:104A00001145EFB06FDA7DD5930700FD1CA18947F2
:104A10003CA1A300250124B12244B7270020B240C5
:104A200092440249AA8503C557E241016FB0EFDB0A
:104A300079714AD037290020832709DF22D406D68E
:104A400026D24ECE52CC56CA4544C5EBB7240020E0
:104A500093878412DC234944958BC5C3B727002074
:104A60002E8A9165A382A7E2AA8993857571314543
:104A700097B0FA1FE780005D2328A9DE4D4435CDAD
:104A800023003501A30005002946D285090597C0FA
:104A9000FA1FE780408C832709DF9146B82363E93A
:104AA000E60835E74D47B8A3B82313670701B8A355
:104AB000930571001305F041EF60212F9C83F1E70E
:104AC000B727002003C767058D476310F70CEFD0A9
:104AD0004FE92C00EF80D0072800EFD03FC54545B7
:104AE000EFD0BFEA014411C9130600643306C502C2
:104AF00003C584129145EFB08FFD2285B250225438
:104B000092540259F249624AD24A456182808546EE
:104B10006314D700754741BF89466314D7004947DE
:104B200059B78D466314D7004147B5BF5547A5BF58
:104B30009546CA8A630DD70099466315D700094781
:104B4000B8A331A01D466312C70223810700654543
:104B5000EFD0BFE39307F007E30CF5F403A70ADFF8
:104B60003C2393E707043CA3A1B721466314C70085
:104B70000547F9B725466314C700B4A3C9BFA946C2
:104B80000544E31CD7F6114765BFEFF09FC62A84A2
:104B90002DD5EFF0DFC395B7011126CAB724002049
:104BA00083A704DF22CC06CE4AC84944B9C39C235C
:104BB0000D446390A70437290020034589128945D5
:104BC000EFB07F9003458912B727002091452393CA
:104BD00007E2EFB05F8F83A704DF0147814680B310
:104BE0001306F100854785450145DC87EF9080700D
:104BF0002A842285F2406244D2444249056182807F
:104C0000011106CE22CC26CA4AC88547631AF5068A
:104C100037240020130464E21E20B9C73727002080
:104C20000347870531E31307B003636BF702B7242B
:104C3000002003C584128945EFB0FF881220930736
:104C4000006403C584123306F6028945EFB02FE8ED
:104C500023100400F2406244D2444249056182803C
:104C6000938747FC1EA0FDB7B727002083A707DF67
:104C7000F5D36244F240D24442498823056129BFFA
:104C8000B724002083A704DFF1D7372700201309BA
:104C9000871283474900918BD5DF8947631EF5044E
:104CA0002D452EC6EFB04FB02A844DD5B24593079F
:104CB00000FD1CA1E547A30005003CA1BC31150582
:104CC0001946230FF5FEDC219505A30FF5FE97B0DD
:104CD000FA1FE7804068034559009307F00F6315FA
:104CE000F50083A704DF8823A2856244F240D24402
:104CF000424905616FB06FAF034587128945EFB038
:104D00008FFC6244F240D2444249B72700202393EB
:104D100007E205616FF0BFAB49458280494582805B
:104D2000B727002083C7C712958B638C07129307A0
:104D3000C01C63FCC70009458280F2406244D24433
:104D40004249B249094505618280B727002083A7FF
:104D500007DF63880710B7270020938747E203C85F
:104D600007001307E00F631EE80E011122CC4AC8AA
:104D700006CE26CA4EC688A313058600420536898C
:104D800032844181A5C991659385657197B0FA1FF9
:104D9000E780402BAA8955D1B724002003A5C4E29F
:104DA0009384C4E209C597B0FA1FE780E034138505
:104DB000890023A0A9002286814523A0340197B051
:104DC000FA1FE780805C9C402286CA85884397B0A2
:104DD000FA1FE78040589C40A286F240C2A362447A
:104DE000D2444249B249984305468D45054505617F
:104DF0006F90C04F91659385557197B0FA1FE7800A
:104E00006024AA891DD9B724002003A544E3938414
:104E100044E309C597B0FA1FE780002E1385890087
:104E200023A0A9002286814523A0340197B0FA1F50
:104E3000E780A0559C402286CA85884397B0FA1F18
:104E4000E78060519C40A286F240C2A36244D244F3
:104E50004249B249984305468D45054505616F9025
:104E60002049494582809307C01C63FCA70009457F
:104E700082800945F2406244D2444249B249056108
:104E8000828055C9011122CC2A8421054EC64205D3
:104E9000AE8991659385657141814AC806CE26CA5F
:104EA00097B0FA1FE780001A2A8961D5B72400203D
:104EB00003A5C4E29384C4E209C597B0FA1FE78052
:104EC000A023130589002320A9002286814523A061
:104ED000240197B0FA1FE780404B9C402286CE8584
:104EE000884397B0FA1FE78000479C40C2A3B727CA
:104EF000002083A707DF85CFB727002083C7C7120D
:104F0000958B85CBB727002083A7C7E291CF984325
:104F1000D6236244F240D2444249B24905468D4507
:104F2000054505616F90803C01478146DDB701452D
:104F300091B7494581B7B727002083A707DF8DC701
:104F4000B727002083C7C712958B8DC3B7270020D2
:104F500083A7C7E299C79843D62305468D450545E3
:104F6000D1B701478146D5BF01458280494582803E
:104F70009307C01C63FCA700094582800945F240E5
:104F80006244D2444249B2490561828055C9011147
:104F900022CC2A8421054EC64205AE8991659385AF
:104FA000557141814AC806CE26CA97B0FA1FE780DC
:104FB00060092A8961D5B724002003A544E39384BE
:104FC00044E309C597B0FA1FE78000131305890071
:104FD0002320A9002286814523A0240197B0FA1F2F
:104FE000E780A03A9C402286CE85884397B0FA1F7E
:104FF000E78060369C40C2A3B727002083A707DF65
:1050000085CFB727002083C7C712958B85CBB727DD
:10501000002083A747E391CF9843D6236244F24010
:10502000D2444249B24905468D45054505616F9018
:10503000202C01478146DDB7014591B7494581B72D
:10504000B727002083A707DF8DC7B727002083C7B6
:10505000C712958B8DC3B727002083A747E399C755
:105060009843D62305468D450545D1B7014781466E
:10507000D5BF01458280494582809307C01C63F4F7
:10508000A70009458280797122D44ECE06D626D259
:105090004AD0AE892A8425C12105916542059385B0
:1050A0007571418197B0FA1FE780C0F92A890945D7
:1050B00063040908B724002003A504E3938404E3F0
:1050C00009C597B0FA1FE780200313058900232044
:1050D000A9002286814523A0240197B0FA1FE7800A
:1050E000C02A9C402286CE85884397B0FA1FE7806D
:1050F00080269C40C2A3B727002083A707DF014575
:1051000085CFB727002083C7C7124945958B8DC728
:105110006C001305D030EF700146B247014593F79C
:10512000070F99CBB727002083A707E38D450545D7
:105130009443D223EF90401CB2502254925402590F
:10514000F24945618280B727002083A7C7E289CF53
:10515000D2238C43411106C697B0FA1FE780A01FE7
:10516000B24001454101828009458280B727002075
:1051700083A7C7E285C7B727002003A747E389476E
:1051800019CF52230C43411106C697B0FA1FE7808E
:10519000801CB24081473E854101828089473E851F
:1051A0008280B727002083A7C7E285C7B7270020E2
:1051B00003A707E3894719CF52230C43411106C6C1
:1051C00097B0FA1FE7802019B24081473E85410120
:1051D000828089473E858280797106D622D426D284
:1051E0004AD04ECE52CC8D4763FCA7008944B250C2
:1051F0002254268502599254F249624A45618280BE
:105200003729002003474905C144E312F7FE9307FD
:10521000F5FF9309490593F7F70F8546AE842A8475
:1052200003CA29001309490563EAF6068DE1994589
:105230002800EFC07FC3B729002003C5891291451C
:1052400023018900EFB02FA835E481444DB71946FA
:105250008145280097B0FA1FE780201319462C00DB
:10526000268597B0FA1FE780A01749F119469305E4
:10527000F00F280097B0FA1FE780201119462C0084
:10528000268597B0FA1FE780A0152DF11946A6854F
:10529000280097B0FA1FE780000C71BFE31DE5F806
:1052A00003A5C9002C00EF80A00AAA8449D5238158
:1052B000490135BF2800EFD06FC7AA8405ED9305DB
:1052C00071001305F041EF50512E8483BDFC8D47D2
:1052D000E31DF4F64545EFD04FEB25D9B77718001D
:1052E000938707A03306F50203C589129145EFB0F5
:1052F000EF97F5BD23014901DDBDB727002083C726
:10530000C712918B8DC3372500204111130585E20B
:1053100006C6EFC0DFB4B240B72700207D57239DFB
:10532000E7044101828001456FC07FB3B7270020A9
:105330007D57A382E7E2B727002079572382E7E26F
:10534000B7270020239307E2B727002023A607E210
:10535000B727002023AA07E2B727002023A807E2E7
:1053600037570500B7270020938787081307075290
:1053700098C337570500130707C0D8C33747050040
:105380001307277F98C7B757050037270020938753
:10539000478F2324F7E28280411126C2B7240020E0
:1053A00083A704DF06C622C48DCB2A840D45EFA057
:1053B000BFBFAA8501CD930700FD1CA18D4700B199
:1053C0003CA183A704DF8823EFA03FC219C4224475
:1053D000B240924441016FF08FBFB24022449244E8
:1053E00041018280797152CC372A002083270ADF5D
:1053F0004AD006D622D426D24ECE56CA0149B1C3CF
:1054000003C91700B72400208547AA89938444055F
:105410006303F904DC2005498DE70D45EFA0DFB8F3
:10542000AA8509CD930700FD1CA19147A300350172
:105430003CA183270ADF8823EFA03FBBEFF02FB901
:105440000549B25022544A8592540259F249624A9F
:10545000D24A45618280B727002083A7C7E2D28A5B
:1054600085E30145EFD06FD22A8601CAB727002015
:1054700003C587128945EFA09FE583A70ADFB1A086
:105480009443D2239305E1000545EFC0FFA771D9EE
:105490001C21858BF9D70545EFD02FCF9307B0039B
:1054A0002A8463FEA702B727002003C587125D6622
:1054B000130606708945EFA07FFBB7270020130471
:1054C00044FC239387E283270ADF094798B3DC2053
:1054D00081C723820400B5B74E857D3D9DB7130675
:1054E00000643306C50251B7411122C42A840D4518
:1054F00006C6EFA07FAB0DC1930700FD1CA1CD47F1
:105500003CA100B12244B7270020B240AA8503C5C0
:1055100057E241016FA07FADB24022444101828039
:1055200056210111896706CE22CC26CA1386670050
:105530002A876398C6001C4701458C23EFF0AFC64D
:105540001DA8138687006396C6001C4705458C235B
:10555000F5B7138697006392C602B727002083A78A
:1055600007DF014595C31847082349E1054798B36C
:105570000545EF80D04F054501A81386A700639A23
:10558000C6001C478823B93DF2406244D2440561FD
:10559000828013866703E380C6FA13867703E38667
:1055A000C6FA138687036395C604B724002083A731
:1055B00004DF0145F1DB1C4788230DE905447D45E7
:1055C0004085EFD08FBC688613050002EFD0EFBB9B
:1055D00083A704DFC8851307B10080B374001306E6
:1055E000A10085450545EF80F05071B7753361B76F
:1055F00013869703E387C6F81386E7036396C6000E
:105600001C4509458C231DBF9387F7030145E39D86
:10561000F6F61C4788231DE56C001305D030EF60BB
:105620009175B247414793F7070FE386E7F4930577
:10563000B10013056031EF60117488858545EF80F6
:10564000F04B15BF553505BFB727002083C7C712DC
:10565000411106C6958B99CB372500201305850887
:10566000EFC04FFF4D45B240410182800145EFC080
:105670006FFE0145CDBF9821937625009377D70F14
:1056800099C293672700131885011358884113F7AF
:10569000F7076354080013E70708937685009377AC
:1056A000770F99C2936787001377050293F6F70D7A
:1056B00019C393E6070294A1634508009377A502F6
:1056C00091C71C2293E7C7001CA282807DFD1C228B
:1056D000CD9BDDBF2D45631B071003C8050009479F
:1056E0006312E810C841183108212207498F420788
:1056F0000D654187930825A06303170B011122CC88
:1057000026CA4AC84EC606CEBE89B68432842E89C1
:1057100063CEE800930705A0630AF702130515A0FE
:10572000630CA704239004000545B9A8930745A07E
:10573000630EF7066341F706130565AAE314A7FE97
:1057400085479EA2DC459C231CA235A8C84597B07E
:10575000FA1FE780A0C4420541814E86637335017C
:105760002A8692A0420641828325C900228597B0ED
:10577000FA1FE78040BE01A8DC459E232390060166
:105780001CA2A1831CB20145F2406244D2444249AA
:10579000B2490561828099479EA21946F1B78547B3
:1057A0009EA2DC4501459C231CA28280DC4585CB62
:1057B00021479AA29A2318A29A23218318B2BA23C6
:1057C00038A2BA23218338B2DA2358A2DA232183FC
:1057D00058B2FA2378A2FE23A1837CB26DB723903E
:1057E000060055B72390060005458280828083C855
:1057F000050089476395F814DC41797122D406D6F7
:1058000026D24AD04ECE52CC03C817009C232E84F9
:1058100022083368F80042088D6713580841138343
:1058200027A0630168102A8A3A89B684B285634C3E
:105830000301138707A0630AE802938717A063098F
:10584000F808854711A8138737A06308E80A13876B
:1058500067AA8D47E317E8FEB250225492540259CA
:10586000F249624A3E8545618280484432C697B01B
:10587000FA1FE780A0B2420541819D47E36E25FDF6
:10588000B3099900D547B24563D43701B547E9B7A5
:1058900048442686C2094A9597B0FA1FE780A0AB14
:1058A000484493D9090159463306364181454E95FE
:1058B00097B0FA1FE78060ADB727002083A7C7E342
:1058C00099E3814751BF9C438145E5DF528525A07F
:1058D000AD47E31309F8E39B16FB1C32142258442E
:1058E000A207D58F1EA3B727002083A7C7E3F1DB4C
:1058F0009C438545F9D78297E9B7AD47E31E09F484
:105900009947E395F6F84844194697B0FA1FE7809F
:1059100080A4B727002083A7C7E3C5D79C43D5D36E
:105920008D456DB7AD470DFB8547E391F6F618221F
:1059300093070008E3E2E6F2DC4598A359B78547F0
:105940003E858280B72700203727002023AE07E25C
:10595000B72E00208947A30FF7D6130FF7D781473B
:10596000938E8E095947B386FE0023800600850773
:10597000E39BE7FEB7250020B707A000938545D835
:10598000938707059CC1B707E803DCC1B727002050
:10599000238D07E237D60600B7270020938787C7F5
:1059A0001306065ED0C3372E002037D606000947FF
:1059B000130ECED71306465B2300EE00D0C723AEEE
:1059C000E70123AEC70337230020B728002037287C
:1059D00000203725002037D6060037DF060037DEE7
:1059E000060085461306465C938808D8130383E3B4
:1059F0001308E8D71305D5D7130FCF5C130ECE5B72
:105A00002380E80098A398AB2380E7022388E7026D
:105A10002380E7042300E80094A723950700D0CB58
:105A200094AF239D070023A2E7032384D702239585
:105A3000070223A6D703D0DB238CD702239D0702BE
:105A400023A2C7052384D70423950704231003004A
:105A500014A123A667042388E70423AE1705238037
:105A6000E7062388E7062380E708B7D8060037D77C
:105A700006001307075C9388C85D23A2E708F0CBF4
:105A8000238CD704239D070423A217072384D7065A
:105A900023950706ECD7F0DB238CD706239D07065A
:105AA00023AE07072384D7082395070823A6A70852
:105AB00037570500B7270020938787D01307476D16
:105AC00098C3375705001307E77ED8C323A4070000
:105AD0008280A54763ECA70CB7D70600938707FF22
:105AE0000A053E951C41411122C426C206C64AC081
:105AF000B2842E848287D547614563E5B702372992
:105B00000020594681451305890997B0FA1FE7809F
:105B1000C0872286A6851305890997B0FA1FE780FA
:105B200080830145B240224492440249410182806F
:105B300089476145E398F5FE1A22B7270020239C88
:105B4000E7E2C5B7A1476145E39EF5FC3725002094
:105B50002146A685130545D8EF70413CD9B7854746
:105B60006145E391F5FCB7250020938585C7D04DAD
:105B7000938585028820EFF01FB065B785476145A2
:105B8000E392F5FAB7250020938585C7D05D93850C
:105B90008504CDB785476145E396F5F81822B72708
:105BA0000020A38EE7D6B5BF0945ADBF0945828069
:105BB0000547630CE5024111AA8706C62E8599CBDD
:105BC0001147638BE70225476380E7040945B2402C
:105BD00041018280B725002055469385850997A00D
:105BE000FA1FE78040770145DDB7B727002083D74C
:105BF00087E301459EA18280B72500202146938539
:105C000045D8EF70A131C5B7B727002083C7D7D7D4
:105C10009CA1D1BFB72700209387A7E398230DE36A
:105C2000054798A3058909CDB72600203725002010
:105C3000938686D04146A545130585C76F3000374A
:105C40000145828001111388F5FF06CE22CC26CAB9
:105C50004AC84EC652C41378F80FAD4563ED050B24
:105C6000B7D506000A08938585012E983E8A8327BA
:105C70000800BA893689B28482878545EFC06FBB38
:105C80002A8419E1EFF05F9C2285F2406244D244FD
:105C90004249B249224A056182808945EFC06FB905
:105CA0002A847DF12685EFE0BFA8F9BF9145EFC0BA
:105CB0004FB82A8471F95286CE854A85EFC0CFADA0
:105CC000EFF09F98EFF06FE3EF70901C75BFA14568
:105CD000EFC02FB62A844DF95286CE854A85EFC093
:105CE000AFAB2685EFE0DFA4EFE05F9BEF70407C79
:105CF00061BFB145EFC0EFB32A8459F55286CE8516
:105D00004A85EFC06FA92685EFE09FA2EFE01F99BB
:105D1000EF70007A75B7094485BF79714ECEAE89B0
:105D20006C0022D426D24AD006D62A89B284EF004B
:105D3000F0682A840DE1CE854A85EFB01F8D2A8454
:105D400019E93245B716050026879386E65F2D468A
:105D50008145EF10C0002285B2502254925402595E
:105D6000F2494561828079714ECEAE896C0022D4B1
:105D700026D24AD006D62A89B284EF0030642A841B
:105D80000DE1CE854A85EFB0DF952A8419E93245C9
:105D9000B716050026879386866D4D468145EF0030
:105DA000107C2285B250225492540259F249456126
:105DB0008280397126DAAE844C0022DC4AD84ED675
:105DC00052D406DEAA893289368AEF00305F2A84EF
:105DD00021E9A685630D09009E202C007C84BE204D
:105DE0007C85930720307C86930780025C874E85F4
:105DF000EFB0CFFE2A840DE55946A6851305A10014
:105E00002304210197A0FA1FE780E0541245B7163A
:105E1000050052879386065B25462C00EF00307400
:105E20002285F2506254D2544259B259225A216109
:105E30008280797126D2AE846C0022D44AD04ECEB4
:105E400006D6AA893289EF0070572A840DE1A6850B
:105E50004E85EFB04FFD2A8419E93245B71605008B
:105E60004A879386A6613546A685EF00506F228546
:105E7000B250225492540259F24945618280BD4782
:105E8000638CF50663E9B702A5476387F50663ED02
:105E9000B7009947638CF5049D47638FF5049547D8
:105EA000638CF50401458280B5476387F50463E19F
:105EB000B704AD47F5B7DD47638EF50263EAB70077
:105EC000C947638BF502D9476386F502C547C9BF49
:105ED000F5476383F50263E4B700ED47D1B7930755
:105EE0002005638BF5009307200D5DBF4845828038
:105EF0000841828008458280484182809307F00FE4
:105F0000630DF506011126CAAA841305000222CCEE
:105F10004AC84EC652C456C206CE3A89B689B28A1B
:105F20002E8AEFA06F882A844D450DC8930700FB89
:105F30001CA0A300540123114401230234011305C2
:105F40008400614663050902CA8597A0FA1FE780AD
:105F50008040A2852685EFA04F890145F24062442A
:105F6000D2444249B249224A924A0561828081451F
:105F700097A0FA1FE7806041E9BF094582800111BF
:105F800022CC06CE2A844C86D08697B0FA1FE780B2
:105F9000208005C15425B727002021479387871209
:105FA000639DE600E82378009306E0070146A2859A
:105FB000B137F24062440561828078009306E007C1
:105FC0000146A285C833EDB7930700643306F60295
:105FD0006FA00FC015C5182185469307270093F7BA
:105FE000F70F63FFF600411122C42A843A8506C6E2
:105FF000EFA06FD2FD571CA0B24022444101828025
:1060000082801A219307000B6310F7025C21494735
:10601000639AE700183985476398E7002A21854588
:106020006F30501C6D47CDBF828001116C846C00B5
:1060300022CC26CA4AC806CE2A89B6847085EF00CB
:10604000F0372A840DE12C004A85EFB0CFCF2A84A7
:1060500019E93245B716050026879386465015463E
:106060002C00EF00D04F2285F2406244D2444249D6
:10607000056182807971930720306C8470857C86FD
:106080002C0093078002014606D65C87EFF07FD292
:10609000B25045618280C177797185073EC48947D6
:1060A00026D27C86AE84930780024C0022D44AD04C
:1060B00006D62A895C87EF0070302A840DE12C0017
:1060C0004A85EFB04FDF2A8419E91245B71605005B
:1060D00026879386866845462C00EF005048228527
:1060E000B25022549254025945618280B2860546CC
:1060F0006FF03FCC797126D2AE846C0022D44AD0A6
:106100004ECE06D6AA893289EF00502B2A840DE1A3
:10611000A6854E85EFB0EFBA2A8419E93245B71645
:1061200005004A879386A64A0D46A685EF003043B0
:106130002285B250225492540259F249456182801C
:106140007971930720206C8470857C862C009307DE
:106150008002014606D65C87EFF0BFC5B2504561AC
:106160008280011122CC06CE2A842EC632C436C2C9
:1061700097A0FA1FE780C06115C94825B7270020FE
:10618000A1469387871212472246B245631BD5006A
:10619000E823B2862E86A2856244F24005616FF044
:1061A000FFD5B286C8332E86A285FDB7F240624481
:1061B0000545056182806FF05FB66FF01FB66FF026
:1061C0005FC76FF01FC779714ECEAE896C0022D4C5
:1061D00026D24AD006D62A89B284EF00301E2A84FD
:1061E0000DE1CE854A85EFB0CFC52A8419E9324545
:1061F000B71605002687938666633D468145EF0006
:1062000010362285B250225492540259F249456107
:106210008280B28601466FF0DFB9011122CC2E8454
:106220006C0026CA06CEAA84EF005019DD47630928
:10623000F500930710101EA4A2852685EFB06FCA43
:10624000F2406244D24405618280239405009E2579
:1062500099E36FF05FB109458280C5BFB727002081
:1062600003C767E7854763F8E702011122CC2E8454
:106270006C0026CA06CEAA84EF00501401E99307E9
:1062800000101EA4A2852685EFB0AFC5F24062447F
:10629000D2440561828059458280B727002023A01F
:1062A000A7E48280B727002023A2A7E482800111FF
:1062B00022CC26CA06CE2A84AE8497A0FA1FE78095
:1062C000204DA6852285EFA0DFF305E922856486AF
:1062D00097A0FA1FE780C04B0DC15425B7270020B7
:1062E000214793878712639FE600E823780093068F
:1062F000F0070146A285EFF07FC0F2406244D2442D
:1063000005618280C833DDB7011126CA06CEB68486
:1063100022CCDD4663E3B608D94663FFD50AA5461D
:106320006382D50A63EFB6049546638DD508994616
:106330006388D50A054441687D18631706093AC683
:10634000EFA0FFEF33068540324742064182420408
:1063500041803305C4004205BA85418132C6EF3021
:106360006076AA8751C199C0324692A0B305804099
:106370006244F240D2443E85056117A3FA1F6700CC
:1063800063E3C5466380D504C9460D44E394D5FA5A
:10639000C167FD17E31DF6FA5DB7F5466380D504C6
:1063A00063E4B600ED46D5B7930620056388D502B1
:1063B0009306200DE390D5F8C167FD170D446319CE
:1063C000F600B5BF094485BF9306200DE391D5F8CB
:1063D000310642064182A5BF15445DBF0D444DBF45
:1063E000C167FD171D447DB7F2406244D244056188
:1063F0008280011122CC26CA06CED0212E8413071A
:10640000000281469945AA8401372AC621C51E206B
:106410005020930554007C803E207C8189477C82FB
:10642000930780025C8397A0FA1FE780C0F25C208C
:106430008A8526857C84EFB0AF932A8411C53245C6
:1064400097A0FA1FE78040CB2285F2406244D244F5
:10645000056182804D44CDBF5D7186C6A2C4A6C2CF
:10646000CAC04EDE89476306F600C1470944631877
:10647000F6040144A9C52E894C0832C6B689AA84FF
:10648000352F2A84324605EDC1778507CA85130565
:10649000D1013ECC230EC10097A0FA1FE780A0EBEC
:1064A0002C082685B9372A8419E95245B716050004
:1064B0004E87938666551D462C08EF00500A2285AC
:1064C000B640264496440649F2596161828079714A
:1064D00022D436844AD04ECE52CCB2892E8A3A8902
:1064E0008146130710022286D94526D206D6AA84F1
:1064F000EFF09FE12AC621C12286CA85608423125B
:1065000041012313310197A0FA1FE780C0E44C003A
:106510002685EFB0CFA62A8411C5324597A0FA1F71
:10652000E78080BD2285B250225492540259F2492C
:10653000624A456182804D44F5B7011122CC26CADA
:1065400006CE4AC8DD472A84AE846389F5028147B6
:106550000A206C005C86EFB04FA605456381A40855
:106560000824B165938505B8EF905FCCE5473CA062
:10657000B71705009387077B5CC08DA05839314958
:10658000B2863306270318499C4232971043E31022
:10659000F6FCDE225223E31CF6FA8C46084797A04D
:1065A000FA1FE780E0E345D55C385828850793F764
:1065B000F70F5CB863FBE702B387270318480A208C
:1065C000BA979847D623B2238E23EFF05FF041F1BC
:1065D0000824B165938505B8EF905FC55945F24031
:1065E0006244D2444249056182807C2895B70111FA
:1065F00022CC26CA06CEDD472A84AE846394F506F3
:106600000A21EFA0DFC3522C36285A286D162A968D
:1066100042064182B307D640C20752ACC18363FA37
:10662000E7069305C5FF3308F7406359B802BA96E9
:10663000918EC206184C0E280A20C1823E97EFF0B8
:106640001FE90DE10824B165938505B8EF901FBEE1
:106650005945F2406244D244056182806D1593161B
:106660000501C9BF81470A206C005C86EFB0EF943A
:106670000545E380A4FE0824B165938505B8EF9035
:10668000FFBAE5473CA0B71705009387077B5CC0BE
:10669000C1B78547C9BF397126DAAE842C0022DC28
:1066A0004AD84ED606DE2A89B289092B2A8439E5D2
:1066B0004A85EFA0DFB8D6206D1563C5A6009316F6
:1066C0000501C1829844B2208E204A85EFF03FE058
:1066D0002A840DE53146A68508082306010097A007
:1066E000FA1FE78040C7BE202245B71605004E8737
:1066F000938686745D466C00FC8695252285F25053
:106700006254D2544259B2592161828069B761B74B
:10671000797126D206D622D44AD04ECE52CC56CA51
:106720005AC88944D9C951CA2E842A89BA8A368B53
:10673000328AEFA0DFB093054400814771159A219A
:10674000635EA708850793F7F70FB105E319FAFE13
:106750008A854A85A521AA842DE131453305AA02FF
:10676000916593851570CD4497A0FA1FE780808DC1
:10677000AA8921C531463306CA02A28597A0FA1F0D
:10678000E78060BD1844562032200E204A85EFF085
:106790001FD4AA8415ED0245B71605008547568714
:1067A000938686745D464C005C824EC4230641018C
:1067B000A3060100230761015D23B2502254268500
:1067C00002599254F249624AD24A424B4561828050
:1067D0004E8597A0FA1FE7802092C5B7ED44F1BF20
:1067E00079714ECE37D60600AE89C16526D20147F3
:1067F000AA8489461306865EFD15054522D406D671
:106800004AD0EF10007A054429C92A8913073002BB
:1068100081461146F5452685EFF01FAF2AC655443F
:106820000DCD8357A900CE8601467C8491477C8597
:1068300085471CA1B2472C002685A380070032475C
:10684000FD573CA332473CB3EF10206B2A8411C59F
:10685000324597A0FA1FE780208A2285B250225441
:1068600092540259F24945618280411106C6EFF007
:106870000FE119C5B240410117A3FA1F6700C38792
:10688000B24041018280011106CE2AC6EFA01F82CC
:106890003245B727002023A007E4B727002023A212
:1068A00007E49145B7270020A384A712EF30201CEE
:1068B000F24005616F20F00393970501C18763D40F
:1068C0000712B727002003C59712797122D44AD046
:1068D00006D626D22E8997A0FA1FE780C0922A8476
:1068E00049C918219307000A6312F70885474C0825
:1068F000DC85EFA05F88AA8405ED834761017147BD
:106900006372F708138717FE1377F70F93060002D9
:1069100063F1E608858BCDC3B727002083A707E482
:10692000994499C72A201306B1004C088297AA847B
:106930009C8599C7084409C59790FA1FE780C07BDA
:1069400095E05247B7070001938707F07D8FB7079F
:10695000120093870710630BF70003476101ED47AF
:106960006316F7002A208545EF30C0072285EF9097
:10697000EFE0B250225421653345A90092540259E8
:10698000456182803707301405073357F700058BC0
:1069900051D337270020032747E459DB0347510130
:1069A00041FB5C8699472308F1002A206C002317DD
:1069B0000100EFA03F9FADBFB727002083A747E4AA
:1069C0008DC32A201306B1004C08829735D1AA84C2
:1069D00083475101B1FF83476101230891005C8621
:1069E000E9B79944F5B701458280397122DC26DA8E
:1069F00006DE4AD84ED652D456D25AD0A5472A845B
:106A0000B2846398F50E834745021A22835A260002
:106A100085072302F5029307F7FFB387FA02544272
:106A2000C207C183B69703C917009C2354252209C6
:106A30003369F90085476390F60233075703231043
:106A400006008149014A130B3501931A070193DAB5
:106A50000A0163EA5905C167FD176303F90A1E2895
:106A60006370F90A050942095424135909012317CF
:106A7000240105470A209305E400639CE6007C8519
:106A8000930720307C8693078002231421015C87C2
:106A90002C00EFA0BFB40824B165938505B8EF9032
:106AA000EFF85945B9A8B620DC402C28ED1613861E
:106AB0005900C206C1823E965A85EFA02FE405C553
:106AC000630B3A01C840B220B3053501529597A037
:106AD000FA1FE7804088BE203E9A9E20420A135A41
:106AE0000A0185079EA0BE20BE99C20993D909015B
:106AF0008DB75822A9476310F7028347450281CF1B
:106B00000145F2506254D2544259B259225A925A13
:106B1000025B2161828034281309340137D50600D5
:106B20004A8689451305055EEFA04FDD19C105456D
:106B3000C9BF342837D506004A8689451305455E06
:106B4000EFA0CFDB6DF5342837D506004A8689459E
:106B50001305855DEFA08FDA79F9342837D5060063
:106B60004A8689451305455CEFA04FD969F1D820C5
:106B7000BD47E3EEE7FAA56793874712B3D7E7006F
:106B8000858BD5D78347440285072302F40203D9B6
:106B90002400D1B5011106CE2EC697A0FA1FE780BA
:106BA00080B411C93C25B245138717006395E500F1
:106BB00093F707F83CA5F24005618280011106CEEB
:106BC0002EC697A0FA1FE78000B21DC1B24591C141
:106BD00088C11C251307E00F5D456388E700130794
:106BE000F00F01456383E7005945F240056182805B
:106BF0000945E5BF411122C42A84210506C626C2E3
:106C00004AC0EFF02FBD3C20A51793F7D70F89EBB3
:106C100058248547631EF7041C4881443149A1E389
:106C2000FD57230104001CB4230204021305C40011
:106C30002244B24092440249614681454101179382
:106C4000FA1F67008374B38724033E95084509C57E
:106C50009790FA1FE780404A850493F4F40F5C286C
:106C60000848E3E2F4FE9790FA1FE780E0484DBF42
:106C7000084C75F975B7411122C4416406C626C295
:106C80009307E4FF6301F502AA849DE197A0FA1F30
:106C9000E78060A509E91305F4FF97A0FA1FE780D4
:106CA00080A411C106A1B2402244924441018280D5
:106CB00085476392F50497A0FA1FE780C0A22A8453
:106CC0007DD1FD571EA11C241307F00F6382E7023C
:106CD0001307E00F6389E700342008340147514669
:106CE000A685EFF0AFA12285EFF0DFF0FD571CA4E1
:106CF000230504004DBF8947E397F5FA8545EF402A
:106D0000E03955F1268597A0FA1FE780C09D2A84B7
:106D10005DF951BF21C518259307F00F6300F704F3
:106D2000011122CC06CE2A8434210E2108350147D8
:106D30005D46EFF0AF9C3820E1476318F7000A206A
:106D40006C0023060100EFA05FA7F9571CA4228561
:106D5000EFF05FEAF240624405618280828093072F
:106D6000F00F6306F706011122CC26CA2A844EC60C
:106D7000AE84B689AA8593068500377505004AC892
:106D800052C43A89328A130545D1794606CEEFF0CE
:106D9000AFA3A3042401230144012322340185C0AD
:106DA0001305C4006244F2404249B249224AA68512
:106DB000D244614605611793FA1F6700C359F24038
:106DC0006244D2444249B249224A056182808280AB
:106DD000B72700202386A7E4828095476394F506B1
:106DE00083474502854685072302F5021E22584245
:106DF0003022FD17C207C1836312D6048A07BA97EF
:106E000098339C232207D98F7A2563F5E704411133
:106E100006C622C485075EA52A849305C5000A21FB
:106E2000EFA06FF20824B165938505B8EF900FC00D
:106E3000B2402244D9473E8541018280C946B3878A
:106E4000D70275BF5422294785476396E60003475A
:106E5000450211C381473E8582809D47639BF504AF
:106E600083474502762585072302F5021E225842F4
:106E7000FD178A073E971C331823A207D98F0147B5
:106E800063F2D704411106C622C485072A845EA591
:106E90009305C5000A21EFF0CFD50824B16593858D
:106EA00005B8EF90AFB8B240224459473A85410146
:106EB00082805422A94705476396F600034745029E
:106EC000133717003A858280411122C406C626C2B4
:106ED000B5472A846395F50483474502B284850744
:106EE0002302F5020A21EFA08FB59E201307F5FFBC
:106EF000014563C1E7027A240A209305C400BA97CA
:106F00007EA4EFA04FF20824B165938505B8EF90F9
:106F1000EFB15945B2402244924441018280582247
:106F20009D470545E318F7FE034544021335150058
:106F3000D5B7C5476396F5061E223A22FD17B387DB
:106F4000E7020347450205072302E5025842C2074C
:106F5000C1833E973C333823A207D98F41677D1701
:106F60006395E70081473E858280138717005AA505
:106F70007A25E3F9E7FE411122C49305C5002A846E
:106F80000A2106C6EFA02FF30824B165938505B842
:106F9000EF90CFA9B2402244D9473E85410182807B
:106FA000542229478547E390E6FC034745025DFBF1
:106FB0005DBF011122CC26CA4AC852C406CE4EC6B5
:106FC000BC2115472A8AAE8432843689639AE70445
:106FD0003686A2852685EFF05FE0AA8955E58547CC
:106FE0006314F40A03474900A9476300F702883491
:106FF0004A8785460146D285EFE05FF019E5854571
:107000004A85EFE0DFE713341500B42088340147E8
:107010006946D285EFE09FEE2685EFF0BFBD49A01F
:107020001D476398E7003686A2852685EFF0FFE2CC
:107030006DB725476398E7003686A2852685EFF071
:10704000DF9A61BF35476398E7003686A2852685BB
:10705000EFF09FE759B745476398E7003686A2856A
:107060002685EFF01FED95BF5D47639EE700D825AD
:1070700085473686A2852685631DF702EFF0EFCBA4
:107080008547631AF5048549A5476317F4028357BA
:1070900009009DE30544E38A09F6D947E39EF9F622
:1070A0002285F2406244D2444249B249224A0561F3
:1070B0008280EFF0CFD3E9B788344A87A2860146B1
:1070C000D285EFE0BFE379F5A2854A85EFE03FDBAB
:1070D00013341500C9B70544E1B7397122DC06DE67
:1070E00026DA4AD84ED652D456D29E211944B9E750
:1070F00083C925002A89328A938759FE93F7D70FCF
:10710000AE84DDE3B727002083C6C7E41307F00F82
:10711000938AC7E419446383E602F5476395F9044B
:107120009790FA1FE780205CAA891DCD30250DCEEF
:1071300093178601E18763DD070001442285F25041
:107140006254D2544259B259225A925A21618280D1
:10715000F5454A85EFE0BFE283C7A90093E707F84A
:107160002385F900D9BF8149D62090448C308820EE
:107170003800EFA08FE52A8471F1B42003C50A001E
:1071800038000146CA85EFE07FD72A8445F9B24727
:1071900099C323000A00BC207547E390E7FAE38E09
:1071A00009F82385F90059BF9790FA1FE780A0538B
:1071B000AA8A41D58547639AF908CE2088443000D1
:1071C000EFA0CF892A843DF903C72A00C54763FA97
:1071D000E708DD476308F70AB727002003C59A00D0
:1071E00083C797126393A70A014403C72A008D47F8
:1071F0006319F7043C8403D7CA0063F4E7002396BD
:10720000FA0083D5CA004A85EFF06F8AB7270020BD
:1072100083D747F66D476376F70283D6CA005D478A
:107220006371D7021307B00FBE856374F70093052F
:10723000B00F1166C20513060629C1814A85EF7099
:1072400040005685EFF01F9BD5BD3C211144E397CC
:1072500037EF5C41E38407EECE208844300082970C
:1072600095B7B72702009387072AB3D7E700858B26
:10727000A5D7B0203400D6854A85EFF09FD32300F0
:10728000AA006DBD83A70A01E5B7B4203800014606
:10729000CA85EFE0BFC62A8429F9AC202800EFE0B8
:1072A0001FBE39D123000A0089B7011122CC37242F
:1072B000002006CE26CA4AC84EC652C4930984127C
:1072C00003C589009307800291653305F502938514
:1072D000657037290020930489E49790FA1FE780AE
:1072E00060D603C689009307800281453306F60203
:1072F00088C09790FA1FE78040099C404D459DCF7C
:1073000093048412130989E40144130A8002FD598D
:107310009C24636DF402377505001305A50DEFE09D
:10732000DFF737750500130545B9EF909FE3377513
:107330000500130565C7EF30704D0145F24062440A
:10734000D2444249B249224A05618280B3074403CC
:10735000032509006146814505041374F40F3E9529
:1073600023103501230105002314350123050500F1
:107370002302050231059790FA1FE780000149BFFB
:1073800001458280B727002083C61713814763E534
:10739000D70001473A8582802E87910503D6C5FF25
:1073A000E30AA6FE8507E5B70DC93C210547890715
:1073B00093F7F70F6373F702411122C406C62A84BC
:1073C0000E2128310147F9465D46EFE03FB3F957FA
:1073D0003EA0B2402244410182808280B727002033
:1073E00003C71713FD56814763E3E700828016A1A8
:1073F0002301050085071105C5BF01458280372699
:1074000000201306B6D9930700021CA237270020DC
:10741000FD57230DF7D837270020A306F7D83727C5
:1074200000202306F7D88545B7270020239CB7D82E
:10743000B7270020239707E4B727002023AC07E4F1
:10744000B727002023A407E6B727002023AE07E4D0
:10745000B7260020B7D70600938606D99387475DE5
:10746000DCC2B7270020238807E4B72700209387D2
:1074700047D1094798A298A398AB2380E7022388B5
:10748000E70237D70600D4C71307875CB7D60600D4
:10749000D8DB9386465C0D47D4CB238CE70237D5E7
:1074A0000600B7D6060037270020130747E5130567
:1074B000055E9386865ED8DFC8C38CA72395070038
:1074C0008CAF239D0700D0CFD4D32384070223950C
:1074D000070223A60702239D070237770500B72777
:1074E0000020938747D51307075A23A00700D8C366
:1074F00023A407008280411106C6EFF0BFE809C54A
:107500002821B240410182800145E5BF411122C4DA
:1075100026C24AC006C6AA842E893284EFF09FE6AE
:1075200009E94165CA857D15EFF0DFE5C54701C56D
:1075300006A120A18147B2402244924402493E85DF
:107540004101828039E3894835476391160501116D
:1075500006CE22CC26CA1832102293C7F7FF220784
:10756000598EF18F32C68DE7C4452A84A685EFF087
:107570009FF832460147630FA60022856244F2401D
:10758000A685D24405616FF07FF82D473A85828049
:1075900013070008F2406244D2443A8505618280B4
:1075A00083C8050009486395080303A8450083477D
:1075B000180003480800A207B3E70701C2070D68D7
:1075C000C187130828906395070189476FF09FF7DB
:1075D00005458280011122CC372400201304D4D821
:1075E000182006CE26CA4AC84EC69307F00F630D70
:1075F000F702AA892945B2842E89EF80FF9A0DC52A
:107600009307100B1EA1230205002311350123133C
:10761000250106A5AA8508206244F240D2444249C9
:10762000B24905616F807F9CF2406244D244424976
:10763000B249056182804111B727002026C2AE847D
:1076400083A547E522C406C62A84EFF0DFEA09894C
:1076500009C922852244B240A685924441016FF0B7
:107660002F98B24022449244054541018280411145
:1076700022C426C24AC006C6AA84130445001309C0
:10768000850B1E209DC3084409C59790FA1FE7800B
:10769000A0A62285314681459790FA1FE780E0CE6B
:1076A0003104231A04FEE31E24FDB2402244FD5798
:1076B0009EA00249924441018280B727002003C660
:1076C0001713B727002003A707E681476315F600C5
:1076D000814636858280BA861307870B835587F4E7
:1076E000E389A5FE850793F7F70FCDB7B7270020ED
:1076F00083A787E681CBDA236314A70088478280BB
:107700009C43CDBF01458280411106C6EFF01FFEAC
:1077100009C50845B240410182800145E5BF01111C
:1077200026CA9384450022CC4EC606CE4AC852C40F
:1077300056C25AC0268781490144814681473D454A
:10774000122345CABDEE42233E23B286A297C2074A
:10775000C18385093107E395A9FE35C42E8991655A
:107760009385457022859790FA1FE780A08D2A8B1C
:1077700039C9814A014A8C4495C1D22033054B0155
:107780009790FA1FE78020BDDE2088443E9A420A87
:10779000135A0A019790FA1FE780009663890A003E
:1077A0003146814526859790FA1FE78000BE850AFD
:1077B000B104E3E23AFD232669012314890005455B
:1077C00021A0630DD6000145F2406244D2444249F3
:1077D000B249224A924A024B056182803223E31465
:1077E000F6FE52233294B2974204C2074180C1830D
:1077F0008DB70545E37A35FD8DB7B727002083A700
:10780000C7E599E30145828098473A276315A700A9
:107810001385470082809C43EDB7411106C6EFF007
:10782000DFFD09C50A21B240410182800145E5BF63
:10783000411106C6EFF07FFC09C52821B240410185
:1078400082804145E5BF411122C42A842E8506C6A7
:10785000EFF01FFEAA8505462285EF30206495478C
:107860006305F500BD476313F5002145B24022448E
:10787000410182804111B727002022C406C603A41B
:10788000C7E581469387C7E521C0184432271840D1
:107890006317A60285CA98C22E8581C92146930521
:1078A00044009790FA1FE78000AB22859790FA1F5B
:1078B000E78080840145B240224441018280A28653
:1078C0003A84D9B798C3C9BF0545F5B73727002013
:1078D000832787E60146130787E6A9C703D8470031
:1078E0009443631CA802011106CE22CC26CA0DCAFD
:1078F00014C2AA843E852E849780FA1FE780C07F39
:107900002C002685EFF01FF701E519C0B2471CC017
:10791000F2406244D244056182803E86B68775BFDC
:1079200014C3C1BF05458280411122C42A840905C0
:1079300006C6EFE02FEAFD573CB0B24022444101B9
:107940008280411122C4416406C626C29307E4FF27
:107950006301F502AA849DE19790FA1FE780C0DBDE
:1079600009E91305F4FF9790FA1FE780E0DA11C1E7
:1079700006A1B2402244924441018280854763922D
:10798000F5049790FA1FE78020D92A847DD1FD570E
:107990001EA13C201307F00F6382E7021307E00FDC
:1079A0006389E70028300147F9465146A685EFE094
:1079B000EFD42285EFF05FF7FD573CA023020400CF
:1079C0004DBF8947E397F5FA8545EF30206D55F1B6
:1079D00026859790FA1FE78020D42A845DF951BF4D
:1079E0001D71A6CACEC686CEA2CCCAC8D2C4D6C283
:1079F000DAC05EDEAE84AC21F947AA896397F5044C
:107A00009790FA1FE78040D12A8411ED0144228526
:107A1000F6406644D6444649B649264A964A064B3D
:107A2000F25B256182803C210547890793F7F70FB8
:107A3000E37EF7FC28310147F9460146CE85EFE0A9
:107A4000EFCB2285EFF05FEED1B703AB0400B707B1
:107A50000001938707F037071200B377FB00130785
:107A60000710B28A0149638BE7022EC69790FA1F6E
:107A7000E78080CA2A89B24515C1502105C29317F3
:107A80008601E187E3C407F84E85EFE04FCF8347D7
:107A9000490093E707F82302F9008DBF372A002039
:107AA0000347AAD99307F00F130AAAD91944E30090
:107AB000F7F6E147E3EDB7F493D71500FD171397F9
:107AC0003700B7D7060093878704BA9703A8070043
:107AD000E30F08F283AB4700E38B0BF2420B135B1F
:107AE0000B0163050B00C947E393F5F2D6209044E0
:107AF0008C308820380802982A8411F92C084E8589
:107B0000829B2A8431C19C30E39307F0BC20230A76
:107B1000A10039472308F1006396E70262471C334E
:107B20001823A207D98F0C084E85FC81EF909F8700
:107B3000E30E05EC14080546D9454E85EFE06FE2EB
:107B40002A84F1B5BC84C5B7B4209147E380F6EC34
:107B500003450A0038080146CE85EFE02FBA2A8493
:107B6000E31705EAAC202808EFE06FB119C12380C4
:107B70000A009840B7070001938707F07D8FB70789
:107B8000120093870710E303F7E8E30109E8BC203C
:107B90002302F900ADBD011106CE2EC69790FA1F43
:107BA000E78080B711C95C21B24513871700639540
:107BB000E50093F707F85CA1F24005618280397116
:107BC00052D42E8A4ED69305E101AA89528522DC31
:107BD0004AD856D206DE26DA328936C63AC4BE8A7A
:107BE0009790FA1FE78000B6054435C1AA84A8879C
:107BF0003944EFF0BFAF21CD0328450063090804E5
:107C00002247B246D6874A86A6854E8502982A84A0
:107C10001DED9307E00F638CFA02982089476318E3
:107C2000F702D8401C331823A207D98FC2070D676B
:107C3000C18713072790639CE70083471900034619
:107C40000900D285A2075D8E4E85EFF0BF98228590
:107C5000F2506254D2544259B259225A925A216176
:107C60008280797122D422214ECEAA89228556CAD9
:107C700006D626D24AD052CC5AC85EC662C4AE8A54
:107C8000EFF0BFA301E92285EF909FFD594431E554
:107C90000144A1A003C789008547AA840144631752
:107CA000F702AA8513858900EFF07FA729C9FA207A
:107CB0009624D044CE2003D52900E147EFF03FF0D1
:107CC000D9472A846318F50223A604002685EFF01D
:107CD0001F9A41C0D947E30DF4FA2285B2502254CD
:107CE00092540259F249624AD24A424BB24B224C58
:107CF0004561828061DDDE202390FA00C1BF1389D7
:107D00004400014AB94B594C3D4B83550900DDDD18
:107D1000E14763067A010357C90011C3D9470357E6
:107D20002900835649000326890003D52900EFF076
:107D30001FE92A846319850123240900050A3109F2
:107D4000E3156AFD61B77DD9835709002390FA00D6
:107D5000F5B703D529000DBF011170879307E00F18
:107D60001306E1000147894606CEEFF05FE5F240D9
:107D700005618280797122D42A840A2526D2AE84B4
:107D80009305210106D64AD09790FA1FE780809B81
:107D900079C51C252AC693F707029DC7A881EFF075
:107DA000BF96AA87B24511E91E2439459EA0B2505C
:107DB000225492540259456182802A204946829772
:107DC00001C51E249EA0E5B7035924004A85EFF0A3
:107DD000DF8E01ED41657D15EFF03F8E09E51E2434
:107DE00025459EA0E9B723102501130745008147CB
:107DF000BD46122339EE3147B387E70213098400E9
:107E00003146CA8591073E959780FA1FE780A054B6
:107E10003146CA8548089780FA1FE780C05352242C
:107E20002A2041478146DD45EFE00FCE2ACE09E505
:107E30001E2445459EA0A5BF0C4852249780FA1FDA
:107E4000E78060512A204C08EF905FDD2DD1594525
:107E5000B9BF85073107E39ED7F825459DB705458E
:107E60008DB7797122D42A840A2526D2AE8493054F
:107E7000E1014AD006D632899790FA1FE780808CBC
:107E80002DC91C2593F7070295EF18389307200595
:107E900011E35C20362450440E242A200147EFF0E1
:107EA0001FD2AA8729E11C3891E72A20EF901FD31F
:107EB000D94711E18147B2502254925402593E856C
:107EC000456182802AC6A887EFF01F84AA8705C56E
:107ED000B2452A2049468297AA8745D91A249AA0F2
:107EE000183869FBC9BF5947E31AE5FE23000900AA
:107EF000D1B78547E5B7B947D5B7397122DC4AD83C
:107F00004ED652D406DE26DAAA892E8A32C63689A1
:107F10009790FA1FE780408009440DC53C21130764
:107F2000E00FAA845D44638FE7001307F00F594404
:107F3000639AE700324605E2D2854E85EF907FD600
:107F40002A841DCD2285F2506254D2544259B2592E
:107F5000225A2161828003550A009305E101231F03
:107F600001009780FA1FE780E07DA887EFF05F8C23
:107F7000AA8505464E85EF2070722A8455DDD9B753
:107F80009307F00FE300F9FC377505009386240092
:107F90007946A6851305853AEFE00F83A381240176
:107FA00055B73971B727002026DA83A4C7E552D424
:107FB0005AD05ECE62CC06DE22DC4AD84ED656D2ED
:107FC00066CA2A8BAE8B328C368A99E08149A9A089
:107FD000804483DC44000149835AA400631499015E
:107FE0008440E5B73E24A28963F867010509420988
:107FF000135909014104DDB7E3EAFBFE630B0A00F4
:108000000C204840D28662863AC6EF902F8F3247C6
:1080100071DD19C323105701F25062544E85D254BA
:108020004259B259225A925A025BF24B624CD24CDC
:10803000216182809A21B621854763E5E60439C330
:108040004111D42126C237D506009384550022C49D
:1080500026862E841305055E894506C6EF900F8A95
:10806000C14719C954202E200A2001472686EFF067
:108070005FF3814711E1A947B240224492443E8513
:10808000410182803E8582802E860A22AE2185476C
:1080900063E1A50219CD542241110147150606C618
:1080A000EFF03FF0814711E1A947B2403E85410121
:1080B00082803E8582802E860A22AE21854763E13A
:1080C000A50219CD542241110147150606C6EFF04D
:1080D0005FED814711E1A947B2403E8541018280B1
:1080E0003E85828039714ED6BE2183D9050006DED9
:1080F00022DC26DA4AD852D456D25AD05ECE62CC8E
:1081000066CA6AC863EA3715854763880912416BF6
:10811000AE8A2A8A2314010002C6014401497D1B4C
:10812000894B054CC94C054D83D52A000147814632
:1081300001464E8523130100EFF0BFE6AA84630BCE
:10814000050E09EC13072002930661005A86954537
:108150005285EFE06F9B2A846302051038849C20CF
:1081600041CB18856305A70741476385E7022C00CB
:108170005285EF90AFF709CD34001546D9455285A9
:10818000EFD03FFE11C532459780FA1FE780C0F659
:10819000814765A0BE244146130524001CA0BE24CF
:1081A000A1831CB0CC409780FA1FE780C01A490415
:1081B0003C848507C207C1837C8463FD2707BE24F6
:1081C000638A67078509C20993D90901B1BFE390A2
:1081D00077FBBE240946130524001CA0BE24A183FE
:1081E0001CB0CC409780FA1FE780E0161104C9B795
:1081F00022C603596100B82413052400638F770158
:10820000335999032305710118A0BE244146A18367
:108210001CB0CC401379F90F79B72305810118A060
:10822000BE24135929001379F90FA1831CB0094604
:10823000CC404DBF3C8485FFA947F2506254D254D4
:108240004259B259225A925A025BF24B624CD24CBA
:10825000424D3E85216182808547C5B7C547F1BF44
:10826000B727002003C767E7854763F4E7060111D6
:1082700022CC26CA4AC806CE2A843289AE84978088
:10828000FA1FE780604919C538219307E00F5D4563
:108290006308F700631C0900A6852285EF901F9DE7
:1082A000F2406244D2444249056182808A209305AB
:1082B000E100231701009780FA1FE780A048288774
:1082C000EFF00FD7AA8505462285EF20303D69D50E
:1082D000C1BF5945828013F7050201C7B2856FF00F
:1082E0008FD6411126C24AC006C622C413F98500A2
:1082F000AA8463170900139785016187635B0702EE
:1083000032853684EFF0CFD2AA8505466313090083
:1083100001462685EF20903801E90145B24022440C
:1083200092440249410182801C34EDDB1C24F5F7A4
:10833000F5B793F72500F5F30D45CDB77971AE8606
:1083400022D42A848A229305E10106D636C6978074
:10835000FA1FE780203F19C90C25B246B087228555
:10836000EFF07FF7B2502254456182800545DDBFB2
:1083700013F7050201C7B2856FF0EFCC411122C49B
:1083800026C206C693F485002A8491E413978501DA
:108390006187635007023285EFF08FC9AA850546D1
:1083A00091E0014622852244B240924441016F206F
:1083B000F02E93F72500014591E30D45B24022448C
:1083C0009244410182807971AE8622D42A848A2225
:1083D0009305E10136C606D69780FA1FE7808036FE
:1083E000B24611C90C25B0872285EFF07FF8B25054
:1083F0002254456182800545DDBF797126D2AA8469
:108400002A25C16722D44AD04ECE06D623170100B2
:10841000FD173284B6890149630CF50005059420E7
:10842000D04042051307E1004181EFF09FB72A8950
:108430009420D04037D5060089451305055EEF80AE
:10844000FFCB15C5A2242285EFF02FBD09C57D14F1
:108450002A94420441806384090023908900B25029
:1084600022544A8592540259F249456182809420EF
:10847000D04037D5060089451305455EEF801FC8FB
:1084800071F19420D04037D5060089451305455C2D
:10849000EF80DFC611C9E30809FA3C87E39587FA44
:1084A0000354A9007D1475B7A22475B7397122DC75
:1084B00026DA4AD84ED652D456D25AD062CC06DEEC
:1084C0005ECEBE899C252A8AAE84C18B328C3684CE
:1084D0003A89C28A468B9DE783CB04008947638B28
:1084E000FB046285EFF08FA01DC183280500638027
:1084F00008025A88D6874E87CA862286A685528564
:10850000829839A03285EFF02FA0AA8711ED394566
:10851000F2506254D2544259B259225A925A025BD2
:10852000F24B624C216182802946A6855285829752
:1085300045D5F9BFD8401C331823A207D98FC207ED
:108540000D67C187930607906383D71E63CCF60639
:1085500093062780638ED70A63C0F602130707804D
:10856000E3C1E7F82D45E39509FADC449023CC43B9
:108570002310C9002285B9A213073780E393E7F6D9
:108580002D45E39709F885472310F900DC44814520
:108590009C231CA0AA240505420541819780FA1F4F
:1085A000E780401A835709006310051091072310D4
:1085B000F90011468145130514009780FA1FE780E2
:1085C000C0DCF1A8930627906386D71463C1D71047
:1085D00093063790638DD71413074790E393E7F022
:1085E0002D45E39709F2DC441D472310E900982349
:1085F00018A0983318B0BA2338A0BA23218338B012
:10860000D82358A0FA2358B0FE23A1837CA041A808
:108610002D45E39F09EEDC446C0083C917009823C5
:10862000A209B3E9E90011472310E9009C234E8514
:108630001CA0DC449C331CB09780FA1FE78080109C
:10864000AA8425C13086C1659306E100FD15832902
:10865000C500EFF09FDA09ED9420D04037D5060031
:1086600089451305455EEF807FA919E1FD577C8799
:1086700003C7090089476310F70283A5490009462B
:10868000130544009780FA1FE780E0CC8357090068
:1086900089072310F9003C873CA0A1833CB0014529
:1086A00085BD23173101C5BF18218907BA9723104B
:1086B000F9003E251CB03E25A1833CA010214C4171
:1086C000130534009780FA1FE780E0C8C9BFC8448B
:1086D0009780FA1FE78080CC93170501C1832A8712
:1086E0001D45E3E737E36399F90023100900CC4403
:1086F00003560900CE95BDBD4207B3863A014183BA
:1087000063C7E600B38737412310F900CDB72310C4
:108710005901F1BF2D45E39D09DECC445285EFE0C0
:108720009FDD2310790108A0218108B08DBF2D4560
:10873000E39009DEDC44231079019C231CA0DC4477
:108740009C331CB0A9BF1D71CAC82A892A21A2CC9A
:10875000CEC6D2C4D6C2DAC05EDE62DC66DA6ED6BF
:1087600086CEA6CA6AD8AE8AEF807FAD130CF5FF1D
:1087700093170C01B72B0020C1832A8A81491384E7
:108780000B0B3EC6372B0020B72C0020C16D835742
:10879000C90063F5F9001E2063CC87010355290049
:1087A00093850B0BEF906FB82A8D15CD594D25A8E9
:1087B00083278900139719009305E101BA97843341
:1087C0009C23A204DD8C26859780FA1FE78080F722
:1087D000AA8515E923909A004840054D09C5978060
:1087E000FA1FE7806091F64066446A85D6444649A0
:1087F000B649264A964A064BF25B625CD25C425D01
:10880000B25D2561828032488348490083A68CE5A9
:10881000B0870355290081471307EBE4EFF01FC928
:108820002A8D13888CE509C523909A0048407DB7AE
:108830005C4085E703552900514781461386FDFFBB
:10884000BD45EFD07FACB727002048C0138887E52F
:1088500009E523909A00454D79B71E200357EBE4B4
:108860009304EBE43E976346470113C7F7FF529723
:108870009AA048409220832508003E95850997805C
:10888000FA1FE78040AD1E209A20C20993D9090142
:10889000BA971EA0EDBD397122DC2A842A2106DE9A
:1088A00026DA4AD84ED652D45AD05ECE62CC66CAA8
:1088B0002E8B56D26AC8EF809F982A8A54242E2481
:1088C0000A2478001306D400130CBAFF651AEFF0DF
:1088D0004FED420A37290020AA898144135A0A0120
:1088E000B72B0020B72C00201309090B6382090461
:1088F00063D08405938A8CE58348440083A60A00EC
:1089000030862A20528881471387EBE4CE85138D69
:10891000EBE4EFF0BFB91DC1814A30862E244E85AD
:108920009306E100EFF07FADAA8963990A065DFD29
:10893000F1E41E2429452310FB0035A883570D00C0
:108940001228E31BF6FC83A50A0048489780FA1F0B
:10895000E78000A971D18327490095EF2A2041665D
:10896000454781467D169D45EFD01F9A1DE11E2487
:1089700045452310FB00F2506254D2544259B2597B
:10898000225A925A025BF24B624CD24C424D216108
:1089900082802322A90083DAA90041B783274900F6
:1089A000A697238057019387140013970701832705
:1089B0004900418393DA8A00BA97238057011387CD
:1089C00024008326490093873400420791044183A1
:1089D000C207C204C183C180369711C9348714A36A
:1089E00003274900BA973887218398A301B7FD561A
:1089F00014A303274900BA9794A31DBF2A20B725C3
:108A0000002089802398950A9385050BEF809FF9B4
:108A10003DD159458DB7411122C406C693F70501D2
:108A20002A84328585C3EFE0BFE0AA85054622850A
:108A3000EF20C04695476305F500BD47631DF5026D
:108A4000214515A893F7450099CBEFE07FDE054659
:108A5000AA8522852244B24041016F20204493F729
:108A6000050489C7EFE0DFDC0146DDB713F515002B
:108A7000133515000605B240224441018280797108
:108A80004AD04ECE52CC06D622D426D22A8AAE89DD
:108A9000014983D749006364F900014581A083A798
:108AA0000900131419009304140033879700182346
:108AB000A297882322079305E100598D9780FA1F1A
:108AC000E78040C805E583A7090005453E941820C6
:108AD00098A383A70900BE94982098B3B25022545B
:108AE00092540259F249624A456182800C253087CE
:108AF0005285EFF05FF201CD83A709003E94182064
:108B000098A383A70900BE94982098B3C1BF050914
:108B1000420913590901B5BF011122CC2A848A21C7
:108B20009305E10006CE9780FA1FE780A0C111C926
:108B30000C2530872285EFF01FEEF240624405617C
:108B400082800545DDBF1D71CAC82A892A2186CECB
:108B5000A2CCA6CAD2C4D6C2DAC05EDE62DC66DAB5
:108B60002E8ACEC66AD86ED6EF806FED2AC68346AF
:108B7000C9008355A9000355890078081306D90058
:108B8000EFF02FC2B247B7240020416B938AA7FFB2
:108B9000C20AAA8B014493DA0A01372C0020B72CB1
:108BA00000209384040B7D1B63820B18B08683C561
:108BB0008B0003552900EFF01FE6AA8D63130516FD
:108BC0008348490083A68CE5B08603552900568862
:108BD00081471307ECE4DE85EFF05F8DAA8D9309E2
:108BE000ECE4138D8CE5631E051215CC03D7090048
:108BF000BE2011076397E7003247A2976D1763C73E
:108C0000E706B72500209387050BBA2303552900F3
:108C10009385050B3354E40282A3EF80DFF4AA8D21
:108C200015C1D94D05A003552900494781465A86EB
:108C3000C545EFD06FEDC8C015E583D7AB00C54D76
:108C40002310FA00F64066446E85D6444649B6497C
:108C5000264A964A064BF25B625CD25C425DB25D8C
:108C60002561828083D709009107BEA0DC4003D72D
:108C7000AB009306E101A29798A393071400139702
:108C80000701DC4041835E85BA9703D7AB0021839F
:108C900098A3B0868355A900EFF02FF613072400A0
:108CA000D44093073400420711044183C2074204B1
:108CB000AA8BC1834180369715EDFD5614A3D84089
:108CC00083250D00BA9794A3C84003D609002295C6
:108CD0009770FA1FE780206883D709003E9442040A
:108CE000418005F0835789002310FA00E39C0DF4BE
:108CF000A94D89BFB48783250D0014A3D840BA9726
:108D0000B887218398A3C84003D60900229597709D
:108D1000FA1FE780406483D709003E9442044180F3
:108D200061B583D7AB002310FA0065BF814D55BFF5
:108D30005D71A6C2CAC0AA84035985002A21A2C4B3
:108D40004EDE52DC5AD85ED662D466D286C656DA79
:108D50006AD06ECE2E8BEF808FCE930BD5FF711520
:108D6000131A0501B72900200144135A0A01372CB0
:108D70000020B72C00209389090B635B7413D42463
:108D8000AE241307E1001386D4004A85EFF06FA1EB
:108D90002A8D630F05100359A5000C253087AA20E2
:108DA000EFF07FC7631B051083C8440083A68CE5E2
:108DB0003087AA20528881471307ECE4EA85EFF058
:108DC000EFEE930DECE413888CE565E905C883D7D5
:108DD0000D0003D7290089076308F706B72500208F
:108DE0001387050B3E23AA209385050B3354F40209
:108DF00002A3EF80FFC30DC559451DA0AA204166FF
:108E00004D4781467D16A545EFD00FD0B7270020EE
:108E100023A2A900138887E51DE123102B014545F6
:108E2000B640264496440649F259625AD25A425BE9
:108E3000B25B225C925C025DF24D6161828083D7FD
:108E40000D0089072391F90083D70D00A29763D104
:108E5000770783A749000357AD00930A2400A29720
:108E600098A305049317040103A44900C183C20A0F
:108E70003E948357AD008325080093DA0A01A1834D
:108E80001CA003A5490003D60D0056959770FA1F44
:108E9000E780604C03D40D00C167FD17569442046F
:108EA0004180E30CF9EC0509420913590901F1B5B8
:108EB00029450DF423102B01A5B76DDC05B71E2144
:108EC00099E309458280411126C2444122C406C665
:108ED0004AC09420D0402A8437D50600894513051E
:108EE000055EEF80AFA141C53C2025476145E517F0
:108EF00093F7F70F6368F70837290020035789D9DC
:108F00000545130989D93DCF1E20BA974167634BA8
:108F1000F70691659385257031459770FA1FE780B4
:108F20006012AA844D45B9CC1E2083550900014624
:108F30000147B386E500C206C182636BF704AE97B2
:108F4000C207C18319C22310F90023A004002146DF
:108F5000A285138544009770FA1FE780C03FB727AA
:108F600000209387C7E598430DEF84C335A894206C
:108F7000D04037D5060089451305455EEF800F9830
:108F800025F50945B24022449244024941018280BC
:108F900050401315470005072A9636A6054651BFCF
:108FA0003E871C43F5FF04C30145E9BF011106CE0E
:108FB00022CC26CA4AC809E98944F240624426857F
:108FC0004249D244056182802AC62A842800368913
:108FD0006C845085EFF0BFEEAA8465F1E30F09FCC5
:108FE0003E24F9DB91659385557031459770FA1FE2
:108FF000E780400505C53E242320050023242501E4
:109000005EA1B7270020938787E6984301E788C3CE
:109010006DB73E871C43F5FF08C345B7CD4471BF0C
:10902000B7270020938707E598230DE3054798A30A
:10903000058909CDB726002037250020938646D51F
:1090400041469145130545D16FF05FF60145828099
:10905000B7270020A386A7D88280C167FD176315B4
:10906000F5002E856FE08FB7411106C6EFE08FB196
:1090700009C5FD571EA123010500B24041018280B0
:1090800001114AC806CE22CC26CA85472A89639296
:10909000F5044A85EFE06FE231E9C16437D6060096
:1090A0009385F4FF1307E10089461306865C0545A6
:1090B000EFE03FEF2A84FD1405C44C444A85EFF0ED
:1090C000DFF9308722858146A685EFF00FB32A8429
:1090D000E5B789476396F5008545EF10307C55D993
:1090E000F2406244D244424905618280EFE02FD8C9
:1090F0006DB7011126CAB72400209384841222CCB4
:10910000983437240020130404E6B7270020B7263C
:10911000002006CE4AC84EC62320040023A207E63C
:1091200023AA06E43DC71305200C3305A702916569
:1091300093851570938946E5138947E69770FA1F62
:10914000E78040F090349307200C81453306F60207
:1091500008C09770FA1FE78040231C40983481456F
:109160009386870B7D5563E0E5069306800BB30677
:10917000D7020146FD55B6972320F900BE866363EA
:10918000E606F95696A399463307D702BA9723A065
:10919000F900378505001305059EEFD0AF903785A0
:1091A0000500130565B9EF707FFC378505001305D1
:1091B0002594EF10B065F2406244D2444249B2496E
:1091C0000145056182802394A6F41386C6F423101A
:1091D0000600232406003106E31BD6FE8505938690
:1091E000860B51B78EA2ACB2ACA223820600050654
:1091F000990671B7411106C622C42A84EFC08FF4C4
:10920000EFE0EF9FB7270020238687D8B7270020FD
:1092100003A547E5EFE08F9CB7270020238D87D873
:109220002244B240379505001305050841016F102F
:10923000F05D93970501C18763D10730B727002000
:1092400003C5C7D8797122D45AC806D626D24AD0C7
:109250004ECE52CC56CA2E8B9770FA1FE780A0FADA
:109260002A8429C518219307000B631EF702B7242F
:1092700000208547938484E5DC849C40231501000D
:10928000B9E3EF0080759165938535709770FA1F8B
:10929000E78040DB88C005E99C8491C74C2013051A
:1092A0008400EFD08FDC2285EF605FCDB250225476
:1092B00021653345AB0092540259F249624AD24AC1
:1092C000424B45618280372A002061468145130563
:1092D0000A0B9770FA1FE780400B03494400894747
:1092E00093040A0BD289930A0A0B631AF904F52531
:1092F0008AA02A2093050A0BEF80AFDB3A209E203C
:10930000162401ED63E3F6001EA40E243A85EFC097
:109310001FFA2285EFC0FFCE41B763E3F6001EA41B
:109320001E24D9459386090B0D463A852390FA00F1
:10933000EFC03FE38D4571DD1385090B65A89947A3
:109340006319F9029305A1002285EFF0CFD4AA8416
:1093500069D1D947639EF40C05092A201379F90FC6
:10936000D9459386090B4A86EFC0BFDFCA8555D120
:10937000E1B7A1476318F9009305A1002285EFF03A
:109380003F9BF1B7A947631AF9060A246C0097704E
:10939000FA1FE780203B2A89630905122A204166CB
:1093A0009306E10055477D16AD45EFC0FFF5C8C0F7
:1093B000AA8625CD834844000358E10030862A2040
:1093C000814713070A0BCA85EFF04F8EAA84631FEB
:1093D000050C2A2093050A0BEF802FEB1DD92A20BC
:1093E00093060A0B2D46D945EFC0BFD71DD1AD4519
:1093F00013050A0BEFD06FC729BFB147631BF90CE8
:109400000A246C009770FA1FE780C033AA8455CDF8
:109410002A2041669306E10059477D16B545EFC005
:10942000BFEE23A2AA00AA8631E11E24C5447C8592
:109430001830D147E30FF7EC5C202A209385090B05
:109440002380FA003C8523829A002391FA00EF7072
:109450007FF5E30005EC2A209386090B0546D945E4
:10946000EFC03FD0E30705EA8545F9B583484400DE
:109470000358E1003E2430862A20A68513070A0BF4
:10948000EFF0CF82AA841DE12A2093050A0BEF801A
:109490000FE5E30005E82A20D94593060A0B354677
:1094A000EFC03FCCB545E30605E679B5D9476393F0
:1094B000F400814403A54A009770FA1FE780C0C3F7
:1094C000E38904E41E247C85A5B71E2485447C859D
:1094D00085B7B9476318F9009305A1002285EFF01D
:1094E0008FA6B5B5C1476318F9009305A100228581
:1094F000EFF06FE5A9BDC947631AF90013069100A3
:109500009305A1002285EFE0DF9591B5D947631D52
:10951000F9009305A1002285EFE0DF85AA84E31A14
:1095200005E2A3040100F5B3E147E314F9DE930576
:10953000A1002285EFE0EFF219BD01458280F9CE4E
:10954000011152C42E8A854522CC4EC656C206CE83
:1095500026CA4AC8AA8AB6893284EF103034D14765
:109560001DC5B72700203727002083C747E783465C
:1095700057E7814419E0B684BE86372700200327C9
:10958000C7E693974400BA9763EDD400D547F240FD
:109590006244D2444249B249224A924A3E85056118
:1095A00082803E89C10703D727FF09C7850493F44A
:1095B000F40FD9BF31CC9565938525C01305000202
:1095C0009770FA1FE78000A82326A90061D113062F
:1095D00000028145938404049770FA1FE780E0DA63
:1095E0002311990023000900231359010DC43727C3
:1095F00000201C340326C7E72304F900118C8327BD
:10960000C90011841180C0AF23A02901814741B74F
:1096100023260900C1BF23044901FDB785473E85C4
:109620008280B727002083C547E7B727002003A71C
:10963000C7E681476395F5008146368582803223EF
:10964000BA8619C2E30BA6FE850793F7F70F410709
:10965000D5B7B727002003C647E7B727002003A7E1
:10966000C7E681476315F6008146368582802E2342
:10967000BA8681C54C23E38AA5FE850793F7F70FC9
:109680004107CDB7B727002083C577E7B72700206C
:1096900003A7C7E781476395F50081463685828039
:1096A0001223BA8619C2E30BA6FE850793F7F70FBC
:1096B0004107D5B7B727002003C857E7B7270020D1
:1096C00083A7C7E601476315E80081463685828097
:1096D000B223BE8609CAF2236317A600D04701C68B
:1096E0003222E305B6FE05071377F70FC107E1BF86
:1096F000411122C4404526C206C6AA8415C048446A
:1097000009C59770FA1FE780209F484809C59770E0
:10971000FA1FE780609E22859770FA1FE780C09D40
:109720002685414681459770FA1FE78000C6B24002
:109730002244FD579CB4924441018280011122CC05
:109740002A842A2106CE2EC6EF10A0623246228538
:109750008145EF00905222856244F24005616FF02E
:109760003FF905C53A21411122C406C62A8411CB0E
:10977000DD45EF00905322852244B24041016FF055
:109780003FF7B2402244410182808280411126C2CB
:10979000B1469304C5FFB386D402B72700201387D0
:1097A000870C06C622C4369736276397B60248430D
:1097B00005C51384870C9307F00F6305F6001C2181
:1097C000639CC7009770FA1FE7800093B147B38787
:1097D000F402A29723A20700B2402244924441011E
:1097E0008280411122C42E8426C24946AA84814522
:1097F000228506C69770FA1FE78020B995CCDC2C2D
:1098000013974700B727002083A7C7E7BA979A2383
:109810001AA0BA23FE233AA037270020035727E7D0
:109820005AA09A207AA0BA201AA4DA203AA4FA20E0
:109830005AA49A241EA87AA4B24022449244410118
:109840008280B727002083C547E7B727002003A8F9
:10985000C7E7B727002003A6C7E6014781476394FF
:10986000E5003E858280142299CA544689CAD42EC6
:109870009206C2966315D500850793F7F70F050783
:109880001377F70F4106E1BF130600643386C50264
:1098900093069500AA8537950500130525766F6018
:1098A0003FB3411122C406C62A840835EF60BFC603
:1098B000FD571CB4B240224441018280011122CCE8
:1098C0004AC84EC652C456C25AC006CE26CA2A89B3
:1098D000AE890144372A0020B72A00201D4B834758
:1098E0005AE76365F40463990902B7290020372A0F
:1098F0000020930AF00F83C749E76364F40611441C
:10990000A1442285050442041306F00FCA85418054
:10991000EFF0DFE7E31794FEF2406244D24442499D
:10992000B249224A924A024B0561828083A7CAE665
:1099300093144400BE949C208DC3FE20639F270196
:1099400063956901AA20EF10C04226854E868145A5
:10995000EF00B0322685EFF0BFD905041374F40F81
:10996000BDBF8327CAE693144400BE949C208DC3D8
:109970009C34638F5701FE20639C27012685EFF0FE
:109980005FF22685D145EF0050322685EFF05FD695
:1099900005041374F40F85B741677917630BE5026B
:1099A000411122C406C685472A846399F5002285A1
:1099B0002244B240814541016FF05FF089476396D0
:1099C000F5008545EF10806D7DD1B2402244410104
:1099D000828082809D456FF07FEEB727002003D5FF
:1099E00027E78280B727002003C707E7011106CECB
:1099F00068876C8685476318F70070009305E1005F
:109A00000545EF40D004F24005618280A947631DFF
:109A1000F6029C319821A207D98F1EA1BC31B82132
:109A2000A207D98F3EA1DC31D821A207D98F5EA130
:109A3000FC31F821A207D98F7EA19C359825A20779
:109A4000D98F1EA501458280054582809147631EFE
:109A5000F6009C319821A207D98F1EA1BC31B821F4
:109A6000A207D98F3EA10145828005458280938758
:109A7000C5FF93960701C1820D47636ED70031473A
:109A80003387E702B72700209387870CBA97A8A3EC
:109A90008EA30145828009458280930640203727A6
:109AA0000020AA8763F4A60093074020F11723192A
:109AB000F7E6B7270020238BB7E6B7270020238CD3
:109AC000B7E682801905956542054111938535C039
:109AD000418106C69760FA1FE780C05601C9B240AF
:109AE000E95541011763FA1F6700C36CB240410199
:109AF0008280B7270020238B07E6B7270020238822
:109B000007E6B7270020A38807E6B72700202383AE
:109B100007E8B72700200111239907E6B72700209F
:109B20002380A7E852C437250020372A00201305D8
:109B3000850C22CC26CA4AC84EC637240020B7243A
:109B4000002037290020130600038145130A7AE715
:109B5000B729002006CE230A04E6A38A04E62326BA
:109B600009E623000A00938949E89770FA1FE78005
:109B7000C081EF10A02803C50900130444E79384B3
:109B800054E71309C9E61DC99565938545C01205BB
:109B90009760FA1FE780004B37270020232EA7E6A7
:109BA00011CD03C6090083C7190081452300CA00EF
:109BB00012069CA09760FA1FE780207DB72700203F
:109BC00003C507139C209565938555C03E95137575
:109BD000F50F08A012059760FA1FE780A046232022
:109BE000A90039C11020814512069760FA1FE7804D
:109BF000C079032709001420814725077D56639FFC
:109C0000F6006244F240D2444249B249224A37A5A2
:109C100005001305859905616F10403F850710A366
:109C200093F7F70F4107E1BF2300040023800400EE
:109C3000C9BF41119397050126C206C622C44AC076
:109C4000C187AE8463D0070A37290020034509E89D
:109C5000130909E89760FA1FE780E05A2A8429C9A6
:109C60001821930700096312F7041831CD476319CF
:109C7000F706B72600200348250003C536F6372728
:109C80000020834767E71306640081458146130778
:109C900067E7AA886316D80291C11CA31C2391C749
:109CA000034509008545EF602FD32285EF600FAD96
:109CB0002165258DB24022449244024941018280AF
:109CC0000C22AE9793F5F70F93F7F80F63F4A50006
:109CD00093F7F50F850693F6F60F090685455DBFE8
:109CE000092BE1B793F715000145E9D7EF00705153
:109CF00009CDB727002083C767E781CBB7270020AE
:109D000003C507E88545EF602FCD13C514005DB787
:109D100085462A8763FFC6029C319021A207D18F16
:109D20001EA16399D700BC31B421A207D58F3EA1F3
:109D30000145828089460145639ED700BC31B4212C
:109D4000A207D58F3EA3DC31D421A207D58F5EA315
:109D50008280054582809147631EF6009C319821E0
:109D6000A207D98F1EA1BC31B821A207D98F3EA16D
:109D700001458280054582809147631EF6009C3133
:109D80009821A207D98F1EA1BC31B821A207D98F73
:109D90003EA10145828005458280A1476318F602F5
:109DA0009C319821A207D98F1EA1BC31B821A207EE
:109DB000D98F3EA1DC31D821A207D98F5EA1FC3119
:109DC000F821A207D98F7EA10145828005458280B6
:109DD00089476319F6009C319821A207D98F1EA1EB
:109DE00001458280054582803E2279714ECE06D69D
:109DF00022D426D24AD01307F007AE896371F70246
:109E000009473AC47C86300093F5F50FEF00507592
:109E1000B250225492540259F249456182805A222A
:109E2000D9462A89328463F7E6007E2263F4F6007D
:109E30006379F70023140100300093F5F90F4A8588
:109E4000F1B70A2202C4EFF0FF83AA8435C5EFF010
:109E50005F9F9C246369F5001146A246CE854A8522
:109E6000EF00D06675B7340026869305F00F4A855B
:109E7000EFF0EFEC75F1A2471A24DC479AA33A20E1
:109E8000BAA35A20DAA37A20FAA3DA209AA7DC44EC
:109E900095C793F4F90F2286A6854A858297C167F4
:109EA000FD172A86E31BF5FA22459947F9451CA1BF
:109EB00044A1EFF07F9DA9BF094645B7014671BF98
:109EC000A947631DF6029C319821A207D98F1EA1D4
:109ED000BC31B821A207D98F3EA1DC31D821A2071D
:109EE000D98F5EA1FC31F821A207D98F7EA19C35C4
:109EF0009825A207D98F1EA501458280054582803D
:109F00009C211CA19C311CB1BC31B821A207D98F66
:109F10003EA1828023220500D82189476304F700EF
:109F200005458280F6210D47E37CD7FE9C45011153
:109F300006CE22CC26CA4AC84EC684339023A20439
:109F4000D18C138644006311D604A033BC23AE89A0
:109F500022045D8C9307C4FFC207C1832A89636111
:109F6000F70203A589002311990023108900F155F8
:109F70009760FA1FE78000242322A900014531A041
:109F80002285EFF00FEA71FD0545F2406244D244AC
:109F90004249B24905618280397122DC2E841C203D
:109FA0004AD806DE26DA4ED619472A89B285639248
:109FB000E70630202800EFF01FDAAA8405E928849C
:109FC000EFF02FE6AA890C3015C937B705002E86A9
:109FD000130747CB34009D454A85EF00B02E4E85D0
:109FE0000946814559294E85EFF08FF0F2506254B1
:109FF00026854259D254B2592161828089477C809A
:10A000003C840A867C813C857C824A85EF005055E1
:10A01000F1BF49476398E70232202800EFF0FFD7ED
:10A02000AA8469F5372500201305850C5E2599E380
:10A0300081446DBF1830142068253C000146CA8554
:10A04000FD246DB75147639EE70032202800EFF0F2
:10A05000FF9BAA8441FD0C3030004A85EFF0DFD829
:10A0600071B75947639BE70432202800EFF01F9E29
:10A07000AA842DFD2C844A85EFF0CFE305C958450D
:10A0800034851E23B697C207C1831EA3D5D35C4770
:10A09000C5D3B727002083C767E7D9DBB7270020E0
:10A0A00003C507E88545EF602F9389B789473EC010
:10A0B0003C840A860C307C8289BF0C300A862310CF
:10A0C0000100EF00F049ADB75D71A6C256DA86C651
:10A0D000A2C4CAC04EDE52DCAA8A8831AE8432C61F
:10A0E000EFF02FD7B24501ED8144B64026442685D6
:10A0F00006499644F259625AD25A6161828023021B
:10A1000005002311050083C9040085472A8463994B
:10A11000F900B0202808EFF0BFBFAA8405491DA0B0
:10A120009D476391F90418218D47E31FF7FAB0208A
:10A1300028080549EFF05FC4AA8409E50546814572
:10A140002285252E2285EFF0CFF508243C08014713
:10A15000CE862686D685E12AE30909F82285EFF026
:10A160002FD961B7CD47639BF90018219147E31DB3
:10A17000F7F6B0202808EFF0BFC545B7D547E395FF
:10A18000F9F6034A05008947E310FAF6B0202808DB
:10A190000549EFF0FFD2AA8455F583570102A1EBE0
:10A1A000B8841306F0035C44930607FCC206C18220
:10A1B000636AD600B085D94663F6C600B486D94531
:10A1C00063EDD5002A20BAA30549EF00903A035663
:10A1D0000102D2852285892CB5B7AC87BAA3D2A358
:10A1E0008EA3F6A385471CA0014A0149CDB7014AB9
:10A1F000F9BF7971AA8522D426D22221AA842808FF
:10A2000006D6EFF03FD1F24599E53DE1854522853F
:10A21000EFF04FFD75A0BC8415476395E706B88540
:10A220008D4763F7E7046800EFF09FCD3887DD477F
:10A2300063FBE7008C86B7071700850710082285A7
:10A240003EC8EF00F0313C87B88591076305F70001
:10A250002285EFF02FF81C8672466C00858B110664
:10A26000228591CFEFF05FE601C52285EFF08FF6F2
:10A27000884449DD9760FA1FE78000E841BFEFF0AE
:10A28000BFD1DDB711476389E7001387A7FF4207F6
:10A290004183854663EBE6023147F117B387E70256
:10A2A000372700201307870CBA979A2371D3A82366
:10A2B0003008A28505204DFDB8849147E318F7F4D6
:10A2C000B25022549254456182802C082285DD24AC
:10A2D00045F1FDB701114AC82A89314526CA06CE83
:10A2E00022CC2EC6B284EF503FCC21C1B245930799
:10A2F000000A1EA12EA12A84214611058DC0A68523
:10A300009760FA1FE7802005A2854A85EF50FFCDB0
:10A310000145F2406244D244424905618280814550
:10A320009760FA1FE7806006C5B70545DDB779710C
:10A3300026D2AA841305000206D622D42ECE32CC11
:10A3400036CA3AC83EC6EF503FC629C56246F245F6
:10A350004247D246B2472A84130520FA08A010B01B
:10A360002EA058A054B013058400614691CFBE853D
:10A370009760FA1FE78020FEA2852254B2502685FE
:10A38000925445616F507FC681459760FA1FE78000
:10A39000C0FFDDB7B25022549254456182805845C7
:10A3A000797122D406D62A84AE862DC73E23FC8539
:10A3B000930720066397F504B727002003D627E705
:10A3C0007E236373F600B28713F6F70F2E2B1C2B38
:10A3D0008D8F93F7F70F81E5890793F7F70FB29702
:10A3E000FD17B3C7C702FC863E206E200824FC84FC
:10A3F00001473C080146EFF09FF3B25022544561FB
:10A400008280582FB727002083A7C7E71207BA9783
:10A41000FE23D1BF2EC61946814528089760FA1F32
:10A42000E780A0F6B246C9B7797122D406D626D203
:10A430002A8499CD81470147930600062E866E2017
:10A440000824EFF0DFEEB25022549254456182802E
:10A45000B284280059469760FA1FE78000F36484AD
:10A4600099E43E2048446C007C85EFF08FB73C00B7
:10A470000147930600060146D9B7797106D6814790
:10A4800091E93E21584570867C843C0001C73E23FB
:10A490007C853C002E866E21082501479306000628
:10A4A000EFF0FFE8B25045618280411122C406C638
:10A4B0001C2111472A846392E7022E866E2108250B
:10A4C00081470147CD46EFF09FE649466E20224482
:10A4D000B240154541016FF06FAB13F7B70F8946D6
:10A4E0006317D7000146EFF03FF45146C5B70D475B
:10A4F0006398E7002244B240014641016FF0FFF744
:10A50000B2402244410182809A21B146B7270020FF
:10A5100071173307D7029387870CBA97D84301EB9B
:10A52000D841AAA70145D8C3BA219AA78280594524
:10A530008280797122D4404526D24AD006D6AA8498
:10A540002E8931C4484419C59760FA1FE780C0BA04
:10A55000232604001E20EE2088247C853E2001470F
:10A56000930640067C861E244A867C871C483EC88B
:10A57000BE207C843C00EFF09FDBA30E2401232847
:10A580000400B2502254925402594561828028003E
:10A59000314681459760FA1FE78020DFBE20EE201C
:10A5A00088247C8401473C00930640064A86EFF0ED
:10A5B0001FD8C1BF797152CC2A8A8A2126D206D6E9
:10A5C00022D44AD04ECE56CAAE84EFF08F8519E120
:10A5D000854795A84045AA8965DC7E21E39A47FF17
:10A5E0001E2463890710542CB72A002003A7CAE74A
:10A5F0009206FD173697C2077A23C1831EA46316FD
:10A60000F70093053006EFF09FD95C48A5EFC840EE
:10A61000034915001C2122093369F900BE201307E4
:10A620002900631CF702F9559760FA1FE78080B88C
:10A63000C8C02391240103C589002686D285EFF086
:10A640007FC9814721E1B250225492540259F24904
:10A65000624AD24A3E85456182809565938515C0E0
:10A660004A859760FA1FE780E09D48C8C840231CD0
:10A670002401F9559760FA1FE780C0B3BE20C8C017
:10A68000F917BEA0484825CDB220362C1E2C330821
:10A69000D60063C80707582C83A7CAE79545120759
:10A6A000BA97BE2363C90705CC4036959760FA1F59
:10A6B000E78060CA3A2CBE20BA97C2071A2CC18321
:10A6C0003EACE397E7F003D7290003C589003000CB
:10A6D00078845848D2857C853AC6EFF0BFBF11C553
:10A6E00048489760FA1FE78020A1232A0400232C02
:10A6F0000400F9BD99454E85EFF04F84D1BDA545C5
:10A70000DDBF9145CDBFBA2161CBB727002083D6ED
:10A7100027E7ED4763E3E60C011122CC2E8426CA1D
:10A72000AA844840914506CE9760FA1FE78080A82A
:10A730003E20AA861CA13E20A1831CB11E203CA164
:10A740001E20A1833CB13220C167F91711064206D1
:10A7500041826392F4042AC4314532C6EF50DF844B
:10A76000AA85CD471DC1930700F91CA13246F957B0
:10A77000A2463EA189475CA1B727002072A114C55B
:10A7800003C507E8EF507F868147F2406244D24418
:10A790003E850561828081452685EF30B038AA87E5
:10A7A00011E9B726002003C766E765D37D17238B21
:10A7B000E6E6E1BF09476304E5021D476303E502DE
:10A7C00049476302E5027D47E311E5FCB726002017
:10A7D00003C766E78147D1BFED473E858280D147F9
:10A7E0006DB791475DB789474DB701114AC83147E9
:10A7F0001309C5FF3307E902B727002026CA93844F
:10A80000870C06CE22CCBA94D84029C71384870C73
:10A81000B727002083C667E7854795C668849E24CE
:10A82000AA242C003AC67C85EFF0FFED11C5C84084
:10A830009760FA1FE780408CB147B307F902A297EF
:10A8400023A207008547F2406244D24442493E8534
:10A85000056182808147C5BF797126D2444537277B
:10A8600000204AD0FE20035927E752CC06D622D436
:10A870004ECE56CA2A8A63F327013E89BA28420976
:10A88000135909019E2835CF998F4A8463D5270132
:10A8900013940701418089452285EFF0AFA2AA8970
:10A8A000CD4A31C5BE202AC660857C84BE2899EB7E
:10A8B0009E28930925001CA19E28A1831CB16374C6
:10A8C00024058228BE28CC4422864E85BE959760FA
:10A8D000FA1FE78040A803556A002C00EFF0BFE2A2
:10A8E000AA8A15C54E859760FA1FE780E080B250AE
:10A8F0002254568592540259F249624AD24A45611D
:10A900008280890759B779144204418065BFBA280B
:10A910009E203A94FD17C20742049A28C1834180C1
:10A920009EA0A2A86376E400F9F3FD57DCBCC1B792
:10A9300081455285EFF0FFBF5DBF79714AD037295D
:10A94000002052CC034A69E822D456CA5AC85EC6CF
:10A9500062C406D626D24ECE5284B72A0020054BBA
:10A96000930BF00F372C002083A7CAE69314440002
:10A97000BE9483C90400639B6907DC44A5CBD84718
:10A9800035C79A2329CBB727002083C767E799CF1C
:10A990002685EFF07FECAA8515E9B727002083C74D
:10A9A00057E705046351F402230389E8B2502254A7
:10A9B0004E8592540259F249624AD24A424BB24BF6
:10A9C000224C45618280230309E8CDB72685EFF04C
:10A9D0005FB68149E1BFDC3F639A770193052006AA
:10A9E0002685EFF0DF9BDC44A38E070083475CE7FE
:10A9F00005041374F40F6363F4000144E31644F791
:10AA0000C9BF4111154506C6EFF03FDE09C5054532
:10AA1000B240410182801945EFF03FDD6DF91145EB
:10AA2000EFF0BFDC6DF51D45EFF03FDC6DF1B727B2
:10AA3000002003C557E769DDB24041016FF0FFEF29
:10AA40009E210D47F117C207C1836363F706DC41FE
:10AA5000A5C3411122C42E84854526C206C6AA84F8
:10AA6000352D29C92685812BC167F917638FF4001D
:10AA700009ED3E2099CB162019476393E60437274A
:10AA80000020035727E763FDE702B727002083C7AD
:10AA900067E7A285268599C72244B24092444101C6
:10AAA0006FF07FC62244B240924441016FF0DFA5AF
:10AAB000094582805145B24022449244410182803E
:10AAC0006D45D5BF397126DA4ED6AA84AE895D456B
:10AAD00089454AD806DE22DC328936C63AC4EFE020
:10AAE0007FFE35C122472A84014511C7B2461305AE
:10AAF0004400B68502979357850023003401A300D4
:10AB000024013CB09547FC84B727002083C767E742
:10AB100028A01105E88522CE2C08268595C3EFF0E4
:10AB20009FBEAA8411C522859750FA1FE780C05C9A
:10AB3000F250625426854259D254B2592161828022
:10AB4000EFF09F9CF9BFCD44E5B7797126D24AD08A
:10AB500052CC56CA06D6BA8A22D44ECE19472E896E
:10AB6000B284368A639EE5042A220944EFE07FAB73
:10AB70002AC639CD5C4583596500BE239EA0B247E5
:10AB8000B726002015472380570103C616E7BAA34E
:10AB900093051600A388B6E6D0A3D1466316D90064
:10ABA000BAA0DC479A249AA75287A686CA854E8502
:10ABB000EFF05FF12A84324515C4EFE07FB309A8B6
:10ABC00042867400BE85AA89EFE07F972A8445D922
:10ABD0002285B250225492540259F249624AD24A12
:10ABE00045618280F945EFE03FCADDB79E211CA197
:10ABF0009E21A1831CB1BE213CA1BE21A1833CB1F9
:10AC0000114582809E211CA19E21A1831CB1BE21E1
:10AC10003CA1BE21A1833CB1DE215CA1DE21A18348
:10AC20005CB1FE217CA1FE21A1837CB12145828003
:10AC30009E211CA19E21A1831CB1094582809E21D9
:10AC40001CA19E21A1831CB1BE213CA1BE21A183D8
:10AC50003CB1DE215CA1DE21A1835CB1FE217CA19F
:10AC6000FE21A1837CB19E251CA59E25A1831CB538
:10AC7000294582809A218546AA8718A19A21218395
:10AC800018B19A216319D700BA2138A1BA212183BA
:10AC900038B1114582800945631DA700BA211945C5
:10ACA000B8A3BA212183B8B3DA21D8A3DA2121834A
:10ACB000D8B382809E211CA19E21A1831CB1BE21FC
:10ACC0003CA1BE21A1833CB111458280797126D27D
:10ACD0004AD04ECEB2842A89AE89294681454800A1
:10ACE00022D406D636849750FA1FE780006A64861D
:10ACF0008DE43E207C82B727002083D727E77C8421
:10AD00005C4481CFD42F372700200327C7E7920662
:10AD10009E2736973A237C85788337B705004A8586
:10AD20001307E7C3540013F6F90FD545EFF09FD989
:10AD30002A8911C195E085471CA023020400014621
:10AD400081452285EFF04FEEB25022544A8592544D
:10AD50000259F249456182802285EFE07F99EDB783
:10AD600037B70500B286130747C72E8685456FF0B3
:10AD70007FD501116887B7B60500416570000148AD
:10AD80009307F00F0D479386C6BE99457D1506CEF5
:10AD9000EFF0BFDBF24005618280B7B60500B287F5
:10ADA00001482E861147938646C0C9456FF0FFD9EA
:10ADB00037B70500B286130707C32E86CD456FF05F
:10ADC0007FD0011122CC372400201304840F26CA1F
:10ADD0004AC84EC606CE2A89AE89930404031C4095
:10ADE00081C7CE854A8582971104E31A94FEF2400A
:10ADF0006244D2444249B24905618280B7270020AB
:10AE000003C597F6411122C43724002093773500FB
:10AE10001304841209811CB4AA9706C626C21CA476
:10AE2000ADCB1305C0033385A702A5658505B724FF
:10AE30000020938484E89750FA1FE780A020102414
:10AE40009307C00381453306F60288C09750FA1F66
:10AE5000E780A0539C401424014789077D56634135
:10AE6000D7022244B2409244372500201306000343
:10AE700081451305850F41011753FA1F6700E35001
:10AE800092A32381070023A5070205079387C70321
:10AE9000F9B7B2402244924441018280011122CC90
:10AEA0002EC632C406CE2A849760FA1FE780408EF1
:10AEB0002246B24511E9C167F9176303F400514511
:10AEC000F24062440561828054555C218DC213F7C3
:10AED000270141456314A70015457DF2C18B3D450F
:10AEE000E5D3BC2E0145E3FDB7FC3145D1BFC18B95
:10AEF0000145F9F71545E9B7797126D24AD0B7244B
:10AF00000020416922D44ECE52CC56CA5AC806D629
:10AF1000AA89014493848412372A0020930AC0032B
:10AF20007D19054B9C246364F400014525A8B307F3
:10AF3000540303278AE8BA97BA2363162701050446
:10AF40001374F40FC5B7C833300093856700EF0062
:10AF5000E1041946CE8528009750FA1FE780404843
:10AF6000E31F65FDB250225492540259F249624ADD
:10AF7000D24A424B45618280B727002083C5071320
:10AF8000C166B727002003A787E8FD1681476395B0
:10AF9000F500014632858280035827003A86630611
:10AFA000D80003480700E307A8FE850793F7F70FCB
:10AFB0001307C703E9BF411106C69750FA1FE78080
:10AFC000207D09C54A29B240410182800145E5BF83
:10AFD000B727002083C60713B727002003A787E8F9
:10AFE0000145814711076393F6008280102301C653
:10AFF00005051375F50F850793F7F70F1307C703BB
:10B00000DDB7B727002003C507138280372700204C
:10B010009306870F81471307870F31468C4291E5CE
:10B020008A07BA9788C30145828085079106E3970E
:10B03000C7FE4D458280411106C622C49750FA1FB3
:10B04000E78000750DCD2A842A218545EFF07FD752
:10B05000485409C59750FA1FE780000A2285130655
:10B06000C00381459750FA1FE7802032FD573EA06C
:10B07000230204000145B240224441018280094577
:10B08000DDBF411106C69750FA1FE780607009C501
:10B090004825B240410182800145E5BFC167F917EB
:10B0A0006305F502411122C406C62E849750FA1F8B
:10B0B000E780006EAA87014589C7C823698C3335AC
:10B0C0008000B24022444101828005458280011106
:10B0D00006CE2EC69750FA1FE780806B854701C9C0
:10B0E0005A29B24585476304B7004EA98147F2400B
:10B0F0003E850561828029CD01114AC84EC6372997
:10B100000020C16922CC26CA52C456C206CE0144D0
:10B11000AA8413098912372A0020930AC003FD1953
:10B1200083478900634BF400F2406244D2444249B1
:10B13000B249224A924A056182803305540383272B
:10B140008AE83E953E216383370182940504C9BF96
:10B150008280B727002003C60713B727002083A7E4
:10B1600087E8C166014589070147FD1691456313CC
:10B17000E600828003D807006309D80003C8A7004F
:10B180006315B80005051375F50F05071377F70F5D
:10B190009387C703E9BFB727002003C60713B72764
:10B1A000002083A687E80147814791066310E602E5
:10B1B000858393C7F7FFC207C18305456362E50234
:10B1C00085473395A7004205418182808C2299C131
:10B1D000CE36CD8F05071377F70F9386C603F9B7E1
:10B1E00093F61700F1FE050585831375F50FF9B782
:10B1F000797156CAAA8A2E8526D24AD04ECE52CC12
:10B200005AC85EC662C406D622D4AE84328B368C4F
:10B21000BA8B3E8AC28946899750FA1FE780405709
:10B220003DED41657D159750FA1FE78060562A84F1
:10B23000554531C81946DE8513056400A302840113
:10B240009750FA1FE78020118357010326A023029D
:10B2500064013EA8835741032300540123260402BE
:10B260005EA8230644012317340123182401EFF0BC
:10B270009FF20AB8232A04022685232C0402814562
:10B28000EFF03FB40145B250225492540259F249B2
:10B29000624AD24A424BB24B224C456182804545BC
:10B2A000DDB7B727002083C60713B727002003A701
:10B2B00087E881476395F60041657D1582803A866F
:10B2C0001307C703835547FF6394A5002A22828092
:10B2D000850793F7F70FF9BFB727002003C80713B7
:10B2E0004166B727002003A787E87D168147854878
:10B2F0002D43314E6314F8000145828036233A8590
:10B30000638FC600545B81CE8C2263961501943204
:10B310006377DE00828081E59432E370D3FE850797
:10B3200093F7F70F1307C703F1B7B727002083C5BB
:10B3300007134166B727002003A787E87D168147DA
:10B3400025486394F5000145828036233A85638A57
:10B35000C600545B99C69432E51693F6F60FE37572
:10B36000D8FE850793F7F70F1307C703D9BF89479F
:10B3700099C511C595479CA11C219CB181473E856B
:10B38000828039714ED652D4AE892A8A930530050F
:10B39000414526DA4AD856D206DE22DC32C6368944
:10B3A000BA8A9750FA1FE780E0C9CD4429C92A8498
:10B3B00089446381090432468145F08241469750B1
:10B3C000FA1FE78080FC5686CE8522859750FA1FAB
:10B3D000E78060F82146630E0902CA852808975065
:10B3E000FA1FE78040F7A28650082C085285EF200C
:10B3F000D069AA8422859750FA1FE780E0CFF250E7
:10B40000625426854259D254B259225A925A216125
:10B410008280814528089750FA1FE78000F7E1B73E
:10B42000894785C51DC1411106C6AE871947AA8542
:10B4300098A31385170041469750FA1FE780A0F1A3
:10B44000B24081473E85410182803E8582808947A6
:10B450009DC515C5411106C6254798A11821AE877F
:10B46000194698B193051500138527009750FA1FC8
:10B47000E78060EEB24081473E85410182803E8593
:10B480008280894785C51DC1411106C6AE87214707
:10B49000AA8598A31385170041469750FA1FE780A5
:10B4A00080EBB24081473E85410182803E858280AB
:10B4B000894795C90DC9411106C61D4798A11A2192
:10B4C000AE87214698B11A212183B8A193052500A2
:10B4D000138537009750FA1FE780E0E7B2408147B5
:10B4E0003E85410182803E858280894785C51DC198
:10B4F000411106C6AE870D47AA8598A3138517008C
:10B5000041469750FA1FE78000E5B24081473E85EB
:10B51000410182803E858280894785C51DC14111D8
:10B5200006C6AE871147AA8598A313851700414622
:10B530009750FA1FE78020E2B24081473E854101E3
:10B5400082803E858280894785C51DC1411106C61E
:10B55000AE872947AA8598A31385170041469750BF
:10B56000FA1FE78040DFB24081473E85410182807B
:10B570003E858280B727002023A607E8B727002052
:10B5800023A807E8B727002023AA07E837D7050034
:10B59000B7270020938707D6130747A898C337C754
:10B5A00005001307E79BD8C337B7050013072738F3
:10B5B00098C7B727002037D705009387C7D613074A
:10B5C000071398C337C70500130707B6D8C337C793
:10B5D00005001307273598C78280C14719C9144D44
:10B5E000C14781CA784D11C7BC32BD4663F3F6002E
:10B5F0001C2F3E858280411122C43724002026C2A0
:10B600009304C4E84AC02A89884006C651C113047D
:10B61000C4E8631D09001C212146A1CB29059750D0
:10B62000FA1FE78040D31C400545A9CF4945EF40AC
:10B63000BF97AA841DC1930710FC1CA1A30025017C
:10B640000C400905414689059750FA1FE780A0D0B4
:10B650001C40A6858833EF405F9908409750FA1F39
:10B66000E78080A92320040029A809059750FA1F24
:10B67000E78060CEEF203041054955F59C4023809E
:10B6800027010545B240224492440249410182808B
:10B690000145CDBF1C4D63950714411122C426C23C
:10B6A0002A84AE8441459305300506C69750FA1F9B
:10B6B000E780409908CCCD4779CDA6854146975083
:10B6C000FA1FE78040C90C20DDED7C4C184CD04BB4
:10B6D0005443058A858A6305D600D62BF99AD6ABE2
:10B6E000D04B544305828582058A858A6305D6003E
:10B6F000D62BF59AD6ABD04B544309828982058A62
:10B70000858A6305D600D62BED9AD6ABD04B544331
:10B710000D828D82058A858A6305D600D62BDD9A37
:10B72000D6ABD04B54432182A182058A858A630619
:10B73000D600D62B93F6F6EFD6ABD04B54432582EA
:10B74000A582058A858A6306D600D62B93F6F6DF96
:10B75000D6ABD04B54432982A982058A858A6306D9
:10B76000D600D62B93F6F6BFD6ABD44B5843AD825A
:10B770002D83858A058B6388E600DA2BFD76938618
:10B78000F67F758FDAAB98307C4C01CF983311CBB4
:10B7900095473CB08147B240224492443E854101E6
:10B7A0008280B820118B11E7B82B118B19E38547E4
:10B7B000CDB79823942081C5B687BA863E871146B7
:10B7C000E147E36AE6FCE368D6FC95473307F702F6
:10B7D000B7D7060093874712BA97B6979C2355BFF1
:10B7E000C5473E858280AE8711CD784D01CF1423A9
:10B7F00094A1143394B1342BB4A1142F584BB4B189
:10B80000D8C18280414681453E851753FA1F6700A3
:10B81000C3B7B727002083A707E991C703A3870011
:10B8200063030300028309458280011122CC2A842C
:10B83000494506CEEF706F951DC12AC622859750E7
:10B84000FA1FE780E0F401CD6244B72700203246BA
:10B850000E39F24003C5B71205616F405FA7F24091
:10B86000624405618280797126D29947EC85AA8469
:10B870002E858D4522D406D632C636C4FC84EFE030
:10B880006FA42ACE4D441DC13246A246AA853285F8
:10B8900082962A8419E52C082685EFF06F9A2A846F
:10B8A00011C572459750FA1FE78000852685EFF095
:10B8B000DFF72285B25022549254456182800111F3
:10B8C00022CC9305C5012A8441460A8506CE9750AD
:10B8D000FA1FE78040A84A20B7B605000A8693867B
:10B8E000A64EC545EFF03FF8F24062440561828004
:10B8F000011122CC9305C5022A8441460A8506CE51
:10B900009750FA1FE78020A54A20B7B605000A869F
:10B9100093868651C545EFF01FF5F24062440561FC
:10B920008280B7B605002E8693860642C5456FF025
:10B930009FF30111B28722CC4C802A84BE85130567
:10B940001100194606CE9750FA1FE780C0A0B7B67F
:10B9500005000A8622859386E644A145EFF0BFF0F4
:10B96000F240624405618280B7B605002E86938658
:10B970002648C5456FF03FEF0111B28722CC6C809D
:10B980002A84BE8513052100214606CE9750FA1F52
:10B99000E780609CB7B605000A8622859386064B31
:10B9A000AD45EFF05FECF240624405618280B7B6CE
:10B9B00005002E8693866654C5456FF0DFEA0111B7
:10B9C00006CE22CC26CA042185476395F4041C3197
:10B9D00019472A846395E7041C4DDE2313F70710EB
:10B9E00011C7784D5A2B137707100DEF13F7072067
:10B9F00019C7784C5A2B13770720631F070E93F74C
:10BA0000074099C77C4CDE2B93F7074063930714DC
:10BA1000C9471CB0F2406244D2440561828031477C
:10BA20006392E70A3C5085E39305300571459740E2
:10BA3000FA1FE780206128D019C5714681459750CB
:10BA4000FA1FE78080942450B1C4BC2C89E722857A
:10BA5000EFF0BFB8A8AC8145268541469750FA1F44
:10BA6000E780A09228503D472C2D9387F5FF93F750
:10BA7000F70F6364F700EF602FBFEF406FEE3C50AD
:10BA8000A1458AAB13852701EF600FBE2C504A20D9
:10BA9000EFF03FE9B5474A201CB09750FA1FE78006
:10BAA00020CF414609C57E2513D617003E96624435
:10BAB000B7270020F240D24403C5B712854505617F
:10BAC0006F40FF8035476396E7023C5199C78E2B44
:10BAD0004A2113862701EFF03FEA1C4CDE2313F7BF
:10BAE000072039C7784C5A2B1377072031C3B94741
:10BAF0005DB73947639AE700EF60AFE6AA854A2051
:10BB0000EFF09FE6BD4741BF3D476391E704EF601B
:10BB1000AFE4AA85630A9502814526852EC6EF60AB
:10BB20008FE12A86B2454A20EFF0BFE01C4CDE23AD
:10BB300093F70740E38E07EC7C4CDE2B93F707402E
:10BB4000E38807ECC14781BF8144C1BF4147E3910E
:10BB5000E7ECEF60AFE1AA854A20EFF05FE54DBD6D
:10BB6000797106D622D426D20421A1EC1C311947C2
:10BB70002A84639DE7047C4DDE2B13F7170009C769
:10BB8000184D5A23058B31E713F7270011C7184CBE
:10BB90005A23098B63180712918B91C71C4CDE2323
:10BBA000918B639C07167C4CDE2B13F70710630DFB
:10BBB0000716184C5A231377071063070716B14767
:10BBC0001CB0B25022549254456182801D4763924A
:10BBD000E70C3C5089EB9305300571459740FA1FFF
:10BBE000E780404628D02450ADCC2285EFF0FF9E60
:10BBF000A8AC8145268541469740FA1FE780E0784A
:10BC000028503D472C2D9387F5FF93F7F70F636D71
:10BC1000F702B727002083C7C7EFADCB4146814568
:10BC200008089740FA1FE7804076B725002019469C
:10BC30009385C50608089740FA1FE780C071305009
:10BC40000C082E85EF90801CEF408FD13C50A14511
:10BC50008AAB13852701EF602FA12C504A20EFF00B
:10BC60005FCCA1474A201CB09750FA1FE78040B232
:10BC7000414609C57E2513D617003E96B7270020FA
:10BC800003C5B7128545EF408FE425BFEF60CF9D18
:10BC900065BF21476395E7023C5199C78E2B4A2126
:10BCA00013862701EFF05FCD7C4CDE2B13F72700C6
:10BCB00021CB184C5A23098B21C7A54765B72547C7
:10BCC000639AE700EF60EFC9AA854A20EFF0DFC969
:10BCD000A94749BF2947639FE702EF60EFC7854740
:10BCE000AA856304F5008145854426852EC6EF604C
:10BCF0008FC42A86B2454A20EFF0BFC37C4CDE2BAE
:10BD0000918BE38207EA1C4CDE23918BE38D07E8DD
:10BD1000AD4789BF2D47E398E7E8EF602FC5AA85B7
:10BD20004A20EFF0DFC841B513F7072001CB184CCC
:10BD30005A231377072019C3B94759B593F707401A
:10BD400081CB1C4CDE2393F7074099C3C1478DBDBF
:10BD5000C947BDB505CD01118A8522CC06CE2A84FE
:10BD6000EFF07FA81C204A2089CFB7D60500938624
:10BD7000C68A0A869D45EFF01FAFF2406244056116
:10BD80008280B7D605009386668BE5B7054582802D
:10BD9000B7270020AA8503C5B7126F40CFF2411123
:10BDA00022C4405926C206C6AA8431C4084C09C51B
:10BDB0009740FA1FE7804034285009C59740FA1F82
:10BDC000E7808033685009C59740FA1FE780C0328A
:10BDD000285409C59740FA1FE7800032685409C506
:10BDE0009740FA1FE780403122859740FA1FE7808D
:10BDF000A03023AA040222448A38B240924441016E
:10BE00006FF01FF9411126C206C622C4AE849750B6
:10BE1000FA1FE780E09729C14C592A8495CD83A861
:10BE2000C50603A88506FC51B851F421D2218C2106
:10BE30002685EF60BFBD2285EFF07FF6EFF0EFCEF5
:10BE400001CD2244B7270020B240924403C5B71267
:10BE5000854541016F404FB8B240224492444101B0
:10BE60008280411122C4405926C206C67C4CAA8455
:10BE7000DE2B13F7071011C7184C5A23137707103E
:10BE80000DE313F7072011C7184C5A231377072027
:10BE900009EB93F707409DC71C4CDE2393F707403F
:10BEA00095C399471CB02285EFF07FB11830C94780
:10BEB000631DF7002244AA20B2409244814541010B
:10BEC0006FF05FF4C9471CB0F5B7B240224492440A
:10BED00041018280411106C622C426C2EFF0CFBFC5
:10BEE00021C14059AA840DCC1C2095C7B72700203A
:10BEF00083A707E989C7DC4399C322858297183055
:10BF0000C947631FF7002244AA20B24092448145EA
:10BF100041016FF03FEFB727002083A747E9D9BF62
:10BF2000B2402244924441018280411126C24AC05B
:10BF300006C622C4AA842E899750FA1FE78040853E
:10BF40001DC5405949CC5E20639B97081C3019479A
:10BF5000639EE7061C20B5C77C4CDE2B13F7170049
:10BF600011CF184C5A23058B11CB9D471CB0B24002
:10BF700022449244024905454101828013F727007B
:10BF800019C7184C5A23098B19C3A547C5B7918BFC
:10BF900099C71C4CDE23918B99C3AD47C1BFB7270E
:10BFA000002083A707E9E1D7DC43F1D322858297FC
:10BFB0001830C9478145E31CF7FA2685EFF09FE466
:10BFC0007DB7B727002083A747E9F1BF45476398AE
:10BFD000E7006304090013092003CA85F9BF631C45
:10BFE000090026859740FA1FE780807A09C55C2101
:10BFF00093E707015CA1A6854A85EF604FBB85BF2B
:10C000004111B7B6050022C42E862E849386E636EB
:10C01000894506C626C24AC02A89EFF0DF840C2073
:10C02000AA844A85EFF01FDEB240224426850249E9
:10C03000924441018280B727002083A747E985CB3E
:10C040009C4395C7797122D406D6984110082A845A
:10C050003AC8D84185453ACA829711C548862A20F0
:10C060006C00EFF0FFF9B25022544561828082806B
:10C07000011122CC06CE2A842EC69740FA1FE780F3
:10C0800020715C5989CFDE23B245639A87008547CA
:10C090006397F5006244F24005616FF05FD0F240B3
:10C0A000624405618280411106C6EFF08F9FC1672F
:10C0B000FD176307F500B240DD4541016FF09FD4E5
:10C0C000B240410182800CA18280011126CA4EC675
:10C0D000AE84AA8993053005130500034AC806CE2D
:10C0E00022CC32899740FA1FE780C0F52DC5130690
:10C0F000000381452A849740FA1FE78000294146C2
:10C10000CE8522859740FA1FE7802030A6850D4610
:10C110001305D4019740FA1FE780202F130604026D
:10C12000930504012285EF80704EAA840D46930585
:10C13000D4024A859740FA1FE780202D2285974038
:10C14000FA1FE78060FBF240624426854249D244F0
:10C15000B24905618280CD44FDB781474146B306AF
:10C16000F5003387F500182303C806008507334719
:10C17000070198A2E395C7FE82805D714EDE62D40E
:10C18000AE892A8C9305300513050003A6C2CAC0E8
:10C1900052DC56DA5AD85ED686C6A2C4B28B368B2B
:10C1A000BA84BE8A4289468A9740FA1FE78080E9AE
:10C1B000630405101306000381452A849740FA1F83
:10C1C000E780A01C4146E28522859740FA1FE78060
:10C1D000C023414681450A859740FA1FE780E01A4F
:10C1E0001D46DE850A859740FA1FE78000221D461E
:10C1F000DA85130571009740FA1FE7800021333973
:10C200002001B334900041468145080823072101ED
:10C21000C4879740FA1FE78040171946D68548081B
:10C220009740FA1FE780601E1946D2851305A101C9
:10C230009740FA1FE780601D930404014146CE85B4
:10C2400026859740FA1FE780401C8A852685EFF0F7
:10C25000DFF0930904024E86A6852285EF80103B0D
:10C260002A890DE94146CE8526859740FA1FE78049
:10C27000800E0C082685EFF05FEE4E86A68522859F
:10C28000EF80D0382A8946454146CE859740FA1F2F
:10C29000E780A01722859740FA1FE780E0E5B640C7
:10C2A00026444A8596440649F259625AD25A425B5C
:10C2B000B25B225C616182804D49D5B7011126CA0B
:10C2C00052C4AA842E8A13050003930530054AC878
:10C2D0004EC606CE22CC3289B6899740FA1FE78037
:10C2E00060D635C52A84A68541469740FA1FE78067
:10C2F000C011930404012146D28526859740FA1F78
:10C30000E780A010CA852146130584019740FA1FD3
:10C31000E780A00F13090402A6854A862285EF80D4
:10C32000F02EAA844146CA854E859740FA1FE780C1
:10C33000C00D22859740FA1FE78000DCF24062447E
:10C3400026854249D244B249224A05618280CD44C1
:10C35000F5B75D71A2C4A6C24EDE52DC86C6CAC065
:10C36000AE89328AAA849740FA1FE780604240591A
:10C37000414681450A859740FA1FE780000149C878
:10C3800003594400631699081C20D9E318309947D3
:10C390006313F70414081306C4049305C4021305B9
:10C3A0007400EFF0BFF12DE52285EFF00FA32A8690
:10C3B0000C080A859740FA1FE780E0F98A854A85CC
:10C3C000EF10706D0545B640264496440649F25973
:10C3D000625A616182802C5085CDC5469E29631FBB
:10C3E000D7086312FA022146C9054E859740FA1F05
:10C3F000E78000FF85476318F5002285EFF0EF9D89
:10C400002A862C507DB7930520032685EFF09F9F49
:10C4100026859740FA1FE780A0372A843DCD4C55EA
:10C42000ADCD9E29639B47072146C9054E859740A0
:10C43000FA1FE780E0FA85472A896310F5064C5415
:10C440000A85B02D9740FA1FE780E0F0B72700205B
:10C4500083C7D7DA89C75C54BC3F6398270FBD45B3
:10C460002685EF10D05DB727002083A787F8014508
:10C47000B9DB1D45894582970145B1B7E31AFAF842
:10C480002146C9054E859740FA1FE78060F585472C
:10C49000E310F5F82C50B02D29BFB727002003C7B3
:10C4A000F7EEB7290020938949F5058B3E8929C30A
:10C4B000B7270020583083C787EE631BF702B725E4
:10C4C00000201946938595EE130564009740FA1FE6
:10C4D000E78000F18547631DF50083A7490381C705
:10C4E00091451D458297BD452685EF105055D9BD14
:10C4F000372700200347C7EF83A7490331CB034702
:10C50000F9EE098B09CB81C795451D458297268594
:10C51000EF10B05845BD81C78D451D4582974146F6
:10C52000814508109740FA1FE78020E6B7250020D4
:10C5300019469385C50608109740FA1FE780A0E1C9
:10C540000C100A862E85EF80700C8A8526858DBD9D
:10C550008545C5FF6DBF8147C1463307F500B388E8
:10C56000F500182383C808003308F6008507334711
:10C5700017012300E800E392D7FE82800147BD4700
:10C580001308F00F3306F5001422B388F500FD17E9
:10C590008606558F2380E800182293F7F70F1D8336
:10C5A000E39207FF82808147930800F8414893F6A1
:10C5B000F70F3387F50063FAC600B306F50094223F
:10C5C00014A38507E39507FF82806395C6002300C7
:10C5D0001701C5BF23000700EDB701114AC856C2B5
:10C5E0002E89AA8A93053005414506CE22CC26CA5B
:10C5F0004EC652C4328A9740FA1FE780A0A4AA848C
:10C600009305300541459740FA1FE780A0A32A848F
:10C61000CD49A5C431CD414681459740FA1FE780F9
:10C62000C0D62686A2855685EF80407EAA8929E15C
:10C630008387040063D30706A2852685EFF01FF4E5
:10C64000B7D506004A86938505142285EFF0BFF022
:10C650008307090063D80704A2854A85EFF01FF21B
:10C66000B7D506005286938505142285EFF0BFEEFC
:10C6700026859740FA1FE78020A811C4228597409D
:10C68000FA1FE78060A7F24062444E85D2444249D7
:10C69000B249224A924A05618280CA852685EFF016
:10C6A000FFED7DB7D2854A85EFF05FEDD1B73971E7
:10C6B0005AD05ECE2A8BAE8B41459305300506DEFF
:10C6C00026DA52D456D262CC66CA6AC8368C328D0B
:10C6D000BA8C22DC4AD84ED69740FA1FE780809663
:10C6E000AA8A9305300541459740FA1FE780809557
:10C6F0002A8ACD44638E0A0859C52A86D6855A856A
:10C70000EFF0BFEDAA8441E1930530054145974024
:10C71000FA1FE78020932A89930530054145974009
:10C72000FA1FE7802092AA89630A090E6306050EA4
:10C730001304FD0011841376FD0049C07D144204EA
:10C74000418035EE131544004E86D6855E95EFF098
:10C750009FE0414681454A859740FA1FE780E0C245
:10C76000014D93170D01C18363F48708BDC04A854D
:10C770009740FA1FE7804098638709004E859740ED
:10C78000FA1FE780609756859740FA1FE780C096AA
:10C7900063070A0052859740FA1FE780E095F25040
:10C7A000625426854259D254B259225A925A025B97
:10C7B000F24B624CD24C424D2161828001441315F0
:10C7C00044008A855E95EFF01FDE4E86D2850A858D
:10C7D000BDBF93154D000A86DE954A85EFF0BFD7A1
:10C7E0004A868A855A85EF806062AA84050D95BFC6
:10C7F000BDFC0A86CE854A85EFF0FFD54A868A853C
:10C800005A85EF80A060AA846686CA8562859740B3
:10C81000FA1FE78040B4A1BFCD4491BFCD44A9BF6A
:10C82000894759C2D1C108A29C211CB29C313CA2AB
:10C83000BC213CB2BC31A30206005CA2DE21A18374
:10C84000858B5CB2DA211377072001C793E72700B5
:10C850005CB2DE2193F7074089C75C3293E747005B
:10C860005CB2DE2113974701635607005C3293E701
:10C8700087005CB223030600DC21858B7CA2DA21D1
:10C88000098B01C793E727007CA2DE21918B89C722
:10C890007C2293E747007CA2DA218147218B09C7DC
:10C8A00078221367870078A23E8582802E86AA852B
:10C8B00005456FF0FFF62E86AA8509456FF05FF6F5
:10C8C0004DC95971A2D42A844A21A6D2CAD0CECE4B
:10C8D000D6CA86D6D2CCDAC8DEC6B68AB2892E8946
:10C8E0009740FA1FE780C0EAAA8431C50C18228558
:10C8F000EFE07FEF1C20138A6400A9CBEF50DF85A7
:10C900002A8B014583CB5400EF50FF82AA840C1080
:10C910000818EFF0BFF9084C2C10EFF0DFF9D288BF
:10C92000268A56C05E88D2875A8714103010CE856A
:10C930004A85EFF09F84B650265496540659F6491E
:10C94000664AD64A464BB64B65618280EF50DF801F
:10C95000AA8B014503CB5400EF50EFFD2ACE084CC3
:10C960000C10EFF0BFF42C100818EFF0DFF4F248D1
:10C970004DBF8280894799C511C5AD479CA11C2137
:10C980009CB181473E858280011122CC4AC806CEE7
:10C9900026CA2A84EFE01FD02A8901CDE14763012E
:10C9A000F50E2149F24062444A85D244424905616C
:10C9B00082807C4CBC2B858B99CB1C4C0547BC23BF
:10C9C0008D8B6396E7007C2093E717007CA02430D2
:10C9D0008947639DF4004A208545EF600F9C7C20C9
:10C9E00093E747007CA08D471CB06DBF0D47639C4B
:10C9F000E4004A208945EF604F9A7C2004B093E719
:10CA000047007CA045B71147E387E4FC0547639FD7
:10CA1000E402930474001CB041468145268597408A
:10CA2000FA1FE78080961306C4023285C14532C6DC
:10CA3000EF508FC3324622859306C401A685EFF0DE
:10CA40003FE82285EFE0BFE731DDA1BF1547E39B5B
:10CA5000E4F4930474001CB0414681452685974058
:10CA6000FA1FE78080926C4C4146268589059740E5
:10CA7000FA1FE780408E7C2093E747007CA065B7D3
:10CA80000D490DB7397122DC405926DA4AD84ED605
:10CA900006DEAA89AE8432896306041E2A215E203E
:10CAA000638BA700A144F250625426854259D254A8
:10CAB000B259216182801C2099E39D44EDB7AD47B6
:10CAC000E3EDB7FE9387E5FF93F7F70F2547E3669E
:10CAD000F7FE37D706008A071307870ABA979C43E1
:10CAE0008287B2852285EFF03FEAAA846DBF414676
:10CAF000CA851305C4039740FA1FE780C0852285C5
:10CB0000EFE01FDFAA8411C1A14495471CB061BFAB
:10CB10009309C404CA8541464E859740FA1FE780B1
:10CB200080831309740014084E86CA852285EFF0AD
:10CB30003FD941469305C40308089740FA1FE78090
:10CB4000208A8547E311F5F68A861306C402CE854E
:10CB50004A85EFF0AFF609ED2285EFE01FA82A879E
:10CB60004A20814601468A85EFE0BF81AA8411C12F
:10CB7000A144994761BF18309D47E310F7F47C50FA
:10CB800089EB9305300571459730FA1FE780804B9C
:10CB900068D068501DD14146CA859730FA1FE7809A
:10CBA000807B2285EFE07FA37C50A8AFA1471CB01B
:10CBB0008144D5BD6850E30205F01830A147E31E5B
:10CBC000F7EE1E229305290021461EA9490597303C
:10CBD000FA1FE78040787C4CDE2B13F7270029CF23
:10CBE000184C5A23098B29CBA547D1B71830A54734
:10CBF000E315F7EC3C5481EB854559459730FA1F16
:10CC0000E780404428D4285419C54146CA85973046
:10CC1000FA1FE7804074A94759BF1830A947E31E9F
:10CC2000F7E8285419469305190041059730FA1F73
:10CC3000E78060727C4CDE2B918B8DCF1C4CDE2309
:10CC4000918B8DCBAD47A5B77C5489EB930530050F
:10CC500051459730FA1FE780E03E68D46854E303FB
:10CC600005E44146CA859730FA1FE780C06E7C54C0
:10CC70007D5798CB4E85EFF0CF9E1DBF0C22EFF075
:10CC80006F983DB7AD47E395F5F214222E211306B8
:10CC900065000821EF501F8221BF15C1AA870945F1
:10CCA0008DC141112E8541469385170006C69730E8
:10CCB000FA1FE780406AB240014541018280094580
:10CCC0008280828089470DC585C5411106C618310D
:10CCD000AE87194698A19305250013851700973054
:10CCE000FA1FE7804067B24081473E85410182805C
:10CCF0003E85828015C1AA8709458DC141112E85C7
:10CD000041469385170006C69730FA1FE780A06456
:10CD1000B240014541018280094582808280894775
:10CD200005C99DC5411106C638211431AE872207B9
:10CD3000558F9AA12146930535001385270097301A
:10CD4000FA1FE7804061B24081473E854101828001
:10CD50003E85828015C1AA8709458DC141112E8566
:10CD600041469385170006C69730FA1FE780A05EFC
:10CD7000B240014541018280094582808280094795
:10CD800001CD99C91C31A14601479CA1FD1793F71C
:10CD9000F70F63F3F60061473A85828015C1AA87D1
:10CDA00009458DC141112E8541469385170006C660
:10CDB0009730FA1FE780205AB24001454101828036
:10CDC000094582808280894779C9F1C9411106C627
:10CDD00022C426C21C312E849CA13C219CB13C3132
:10CDE000BCA15C21BCB15C31858B93968700DE21B0
:10CDF00093F7F7EFD58FDEA1543193F7F7DFA20653
:10CE000093F60620DD8ED6A1583193F6F6BF2207A1
:10CE100013770740558FDAA15C31FD769386F67F54
:10CE20008D83858B758FAE07D98FDEA17421F99B19
:10CE3000858ADD8ED6A178219377270013F7D6FF58
:10CE40005D8FDAA17C2193F647009377B7FFD58FEA
:10CE5000DEA17821DD9B4D45218BD98FDEA1EF50DE
:10CE6000DFB2AA845145EF505FB2383093F4F40F2B
:10CE70001375F50FC947636E9700636CE5001420C6
:10CE80001147E1476367D700143005476363D70054
:10CE90008147B240224492443E85410182803E85D2
:10CEA000828015C1AA8709458DC141112E85414651
:10CEB0009385170006C69730FA1FE780C049B24035
:10CEC000014541018280094582808280797122D4A6
:10CED0002A84084506D626D22306010004212947C4
:10CEE0009387F4FF93F7F70F636CF70A37D70600C1
:10CEF0008A071307070DBA979C4382870C08EFF047
:10CF00009FECC9476310F50299475C862A206C00A4
:10CF1000EFF00F8FB25022549254456182800C087A
:10CF2000EFF05FE331C51C86F5F32A20EFE0FF8FB9
:10CF3000D5B70C08EFF09FE6F5B70C08EFF03FE42B
:10CF4000D5B70C08EFF07FD5F1BF0C08EFF03FDD4F
:10CF5000D1BF0C08EFF01FDAF1B70C08EFF09FD645
:10CF6000D1B70C08EFF0FFF375BF1C312308F100B7
:10CF70002A209740FA1FE780A081A14705C15825C4
:10CF80006312F702B727002003A707E99D4719C7D7
:10CF9000184309C71008A6850297AA875C8661B75F
:10CFA0009D47A5B7B727002003A747E9C5B741119B
:10CFB00022C406C61821930720092A84631AF70899
:10CFC0001C3139476391E7025621096761078147A0
:10CFD000639BE6061C452244B240882393851700D4
:10CFE00041016FE04FE11307E0036391E708382147
:10CFF0009547631BF7024A21EFE0AF88914763042E
:10D00000F500854789A0B727002083A747E9F5DB0E
:10D0100003A38700E30703FE72244A2093056400FC
:10D020002244B24041010283A1476319F7006C20FA
:10D030004A202244B24041016FE03FEF93060003D3
:10D040008147E306D7FEB24022443E8541018280FB
:10D050009306000A8147E318D7FEEFF03FE7084444
:10D060004DD19730FA1FE780200961BF8147E1BFAA
:10D07000411122C426C206C62A84EFE0AFE1AA8489
:10D0800019C9E1476304F50AA144B2402244268548
:10D090009244410182802285EFE0DFCB6C4CBC29B9
:10D0A000858B99CB1C4C0547BC238D8B6396E70081
:10D0B0007C2093E717007CA03C300947639DE70084
:10D0C00089454A20EF507FAD7C2093E747007CA044
:10D0D00091471CB05DBF9386D7FF93F6F60F0546C8
:10D0E0006364D6008545F1BF6391C70218B041461D
:10D0F0008145130574009730FA1FE7800029C14568
:10D100001305C402EF405FD649B79546E39FD7F6B3
:10D1100018B041468905130574009730FA1FE7805F
:10D1200080237C2093E747007CA0D1BF8D44B1BF12
:10D13000797122D4405926D24AD04ECE06D6AA8939
:10D14000AE8432896308041E2A215E20638BA70007
:10D15000A144B2502254268502599254F2494561A5
:10D160008280182085476314F7009D44DDB79387BC
:10D17000F5FF93F7F70F2547E369F7FE37D706006A
:10D180008A071307C70FBA979C438287B285228507
:10D19000EFF01FEEAA8475BF4146CA851305C4038C
:10D1A0009730FA1FE780201B183091476304F7027D
:10D1B0009306C4011306C402930574002285EFF0A0
:10D1C0002FF02285EFE0AFEFAA8411C1A14495476B
:10D1D0001CB041B78D471CB08144A5BF9307C40460
:10D1E0003E85CA8541463E899730FA1FE780A016E2
:10D1F0008A864A86930574002285EFF06FEC4146DB
:10D200009305C4030A859730FA1FE780601D8547A0
:10D21000E311F5F42285EFE0AFEDAA8415F9994703
:10D2200045BF1830B147E312F7F47C5089EB930502
:10D23000300571459730FA1FE780C0E068D068502C
:10D240000DD54146CA859730FA1FE780C010228568
:10D25000EFE0AFB87C50A8AFB547B5BF6850E30664
:10D2600005F01830B547E312F7F01E2293052900A8
:10D2700021461EA949059730FA1FE780C00D7C4C56
:10D28000DE2B13F7072039CF184C5A2313770720CA
:10D2900031CBB94789B71830B947E318F7EC3C549C
:10D2A00089EB9305300559459730FA1FE78080D9FF
:10D2B00028D4285419C54146CA859730FA1FE780FB
:10D2C0008009BD4709BF1830BD47E310F7EA28546D
:10D2D00019469305190041059730FA1FE780A0070A
:10D2E0007C4CDE2B93F7074095CF1C4CDE2393F745
:10D2F00007408DCBC147C5B57C5489EB93053005FC
:10D3000051459730FA1FE780E0D368D46854E301B1
:10D3100005E44146CA859730FA1FE780C0037C5474
:10D320007D5798CB03D529008145EFE0BFAD6DB5A2
:10D330000C22E5BF8547E391F5EA032846003C321D
:10D34000382214322E2110220145EF506F8D69B51D
:10D35000011126CA06CE22CC89440DCD85CDAA84E2
:10D360002E8468008D45EF403FB01C8726852286BD
:10D3700093F7F70393E707046C005C87EFE0FFD4B3
:10D38000AA8409E90D466C00130534009730FA1F92
:10D39000E78060FCF24062442685D24405618280C9
:10D3A0005D714EDE86C6A2C4A6C2CAC052DC56DA81
:10D3B0005AD85ED6894945CD5DCA138B4500420BCC
:10D3C000135B0B01AE8A2A8A930530055A85B28415
:10D3D0009730FA1FE78000C72A84CD4949C9EF403A
:10D3E0009FD92A895686D285935A8900135A0901F2
:10D3F000937BF90F1305440093FAFA0F137AFA0F8F
:10D40000135989019730FA1FE7802000A3017401A6
:10D4100023015401A300440123002401EF401FD540
:10D42000AA85414608089730FA1FE78000FE214789
:10D4300034005A86A2850808EFF06FA7AA891DE17B
:10D4400021462C0023807401A380540123814401D0
:10D45000A3812401138544009730FA1FE780E0FA86
:10D46000EF403FD222859730FA1FE780E0C8B640F0
:10D4700026444E8596440649F259625AD25A425B76
:10D48000B25B61618280011106CE2AC6EFE08F8E09
:10D490003245B72700209945A385A712EFC02FDD9D
:10D4A000F24037C505001305050705616FD01FB6AB
:10D4B000B727002083C7C712A18B89C7B7270020D1
:10D4C000938707D6372700202328F7E80145828075
:10D4D000797152CC2A8A2E8506D622D426D24AD0F9
:10D4E0004ECE2EC69730FA1FE780802A51CD405984
:10D4F00051CC3C308949F91793F7F70F63E8F908E5
:10D500005E20B24589446391B70613097400414611
:10D51000D2854A859730FA1FE780E0E31306C402FC
:10D520003285C14532C6EF403F9432469306C4016E
:10D53000CA852285EFF0CFB818201C300DC30D47E7
:10D5400081446393E702A300340122852254B25040
:10D5500092540259F249624A45616FE04FB6114751
:10D56000639DE70004B08144B250225426850259DD
:10D570009254F249624A456182800D478144E395A5
:10D58000E7FE95471CB0D1B78944F9BFC944E9BF4C
:10D5900079719397050122D406D626D24AD04ECE71
:10D5A000C1872E8463D50704B72400209384841296
:10D5B000A8309730FA1FE78000C52AC609CDEFF0E2
:10D5C0001F9FB24511E5A8209307F00F631EF500D9
:10D5D0002E85EF20BF9A2165218DB250225492549E
:10D5E0000259F24945618280EF203FA0EDB793F7E1
:10D5F000150091C7EFE01F8E13451400F9BF8DE9A8
:10D600000145E1BF850493F4F40FEFD09F9FE3F948
:10D61000A4FE339599001319050113590901B37735
:10D620002401EDD34A85EFE01FA83345240175B7E7
:10D6300085448549D9BF39C9011126CA06CE22CCF5
:10D64000AA8409459DCD0D4628002E848D0597306E
:10D65000FA1FE78040D01C8570002C0093F7F70379
:10D6600093E7070426855C85EFE03FA619E90D46A0
:10D67000A28568009730FA1FE78080D67D15333584
:10D68000A000F2406244D244056182800945828054
:10D69000B727002083C7C712918B89C7B7270020FF
:10D6A0009387C7D637270020232AF7E801458280D1
:10D6B000011152C42A8A32854EC656C25AC006CEBD
:10D6C00022CC26CA4AC82E8BB28AB6899730FA1F56
:10D6D000E780000C09ED8944F24062442685424906
:10D6E000D244B249224A924A024B056182805C5977
:10D6F0002A89C544F5F34D45EF502FA91374F50F52
:10D700005145EF508FA8E38809FC83C78901E3E402
:10D7100087FC1375F50FE360F5FC930530051305E1
:10D7200000079730FA1FE780E091232AA9022A8494
:10D73000CD445DD11306000781459730FA1FE7807D
:10D74000C0C4A30004002300440123016401231288
:10D750005401232E3405232C0400A3010400631676
:10D760000A0085471CB0814485BF2285EFE08FDE2B
:10D7700085471CB0AA842DD14A85EFE04FE2A9BFAE
:10D78000397122DC06DE26DA4AD84ED652D456D279
:10D790005AD05ECE62CC66CA0944630D0610630B94
:10D7A0000710AA8B3A89368BB28A2E8C9730FA1FD3
:10D7B000E78000FE2A8A5144630E050E930530056A
:10D7C00041459730FA1FE780E087AA894D447DC123
:10D7D0008344190083472900A204C207BE948347EB
:10D7E0000900BE9483473900E207BE9483278A026A
:10D7F00063E697007D5709446399E70A63070C00C5
:10D8000083474A000544898BCDC3930C4B002146C6
:10D8100081450A85C20C9730FA1FE78000B793DC78
:10D820000C019305300566859730FA1FE7808081EB
:10D830002A8C4D443DC95A86D68511059730FA1F6A
:10D84000E780A0BC1146CA8562859730FA1FE78041
:10D85000C0BB414693058A014E859730FA1FE78089
:10D86000C0BA21478A866686E2854E85EFE03FE4AE
:10D870002A841DE521468A8528009730FA1FE78013
:10D88000C0B821469305490028009730FA1FE78069
:10D8900020B58547631EF502A6855E85EF50EFBA79
:10D8A00062859730FA1FE78020854E859730FA1FF2
:10D8B000E78080842285F2506254D2544259B25992
:10D8C000225A925A025BF24B624CD24C2161828006
:10D8D0000544F9B7397162CC2A8C594526DA4AD801
:10D8E0004ED652D456D25AD05ECE06DE22DCAE8B55
:10D8F000328BB68A3AC63E8AC2894689834401047D
:10D90000EF208FEA2DCD9167938717E91EA18547F8
:10D910003CA12A8432472105630A0C0493071003B3
:10D920003CB0194681459730FA1FE78000A62303D3
:10D930006401A303540144A8231274012317440172
:10D940002318340123192401A285B727002062542B
:10D95000F250D2544259B259225A925A025BF24BB7
:10D96000624C03C5871221616F202FE8A3010400D8
:10D970001946BA859730FA1FE780E09D4DBFF250F7
:10D980006254D2544259B259225A925A025BF24B13
:10D99000624C21618280011122CC2A84314506CE5D
:10D9A0002EC632C436C23AC0EF200FE015C99167C7
:10D9B000938717E91EA1B2452246924602478D473A
:10D9C0003CA120B16244B72700204EA172A116A548
:10D9D0003AA5F240AA8503C5871205616F20EFE0E2
:10D9E000F24062440561828001114AC82A893945A2
:10D9F00026CA06CE22CC2EC6B284EF20EFDA1DCD89
:10DA0000B2459167938727E91EA191473CA1A301E5
:10DA100025014EA12A84A685190521469730FA1FB3
:10DA2000E7806093A285B72700206244F240D24489
:10DA3000424903C5871205616F202FDBF240624423
:10DA4000D24442490561828001114AC82A89414570
:10DA500026CA06CE22CC2EC6B284EF20EFD415CD36
:10DA60009167B245938727E91EA195472A843CA177
:10DA700023122501214619059730FA1FE780A08D52
:10DA8000A28566A4B72700206244F240D2444249EE
:10DA900003C5B71205616F204FD5F2406244D244EE
:10DAA000424905618280011122CC2A84394506CE83
:10DAB0002EC632C436C23AC0EF200FCF15C99167C7
:10DAC000938717E91EA1B24522469246024799471D
:10DAD0003CA142A1B727002062446EA112A536A541
:10DAE0005AA5F240AA8503C5871205616F20EFCFC2
:10DAF000F240624405618280797122D406D62A847C
:10DB00002EC632C436C23AC09730FA1FE78040C8EA
:10DB100019CDB245224692460247EC84F0852C0886
:10DB20001306F00F2285F486F887EFD00FA7B250C6
:10DB3000225445618280011122CC2A84394506CEC7
:10DB40002EC632C436C23AC0EF200FC615C991673F
:10DB5000938717E91EA1B2452246924602479D4788
:10DB60003CA142A1B727002062446EA112A536A5B0
:10DB70005AA5F240AA8503C5871205616F20EFC63A
:10DB8000F2406244056182805D712AC6130520025D
:10DB9000CAC04EDE52DC56DA5AD85ED662D466D29D
:10DBA0006AD086C6A2C4A6C26ECE2E8CB28B368B2D
:10DBB0003AC43E8DC28CC68A035A01058359410579
:10DBC00003498105EF204FBE71C1916632439386B0
:10DBD00016E9A9472A8416A13CA1930DE40021056A
:10DBE000930444012247630C0306930710033CB0DF
:10DBF000194681459720FA1FE7802079194681450B
:10DC00006E859720FA1FE780407819468145268562
:10DC10009720FA1FE780607723037401A303640150
:10DC20002300240323128401231D5401231E4401D5
:10DC3000231F3401A285B72700202644B64096440E
:10DC40000649F259625AD25A425BB25B225C925C3C
:10DC5000025DF24D03C5871261616F200FB9BA856D
:10DC6000A301040019469720FA1FE780C06EEA85D9
:10DC70006E8519469720FA1FE780E06D1946E68504
:10DC800026859720FA1FE780006D79B7B6402644B5
:10DC900096440649F259625AD25A425BB25B225C00
:10DCA000925C025DF24D61618280011122CC2A8476
:10DCB000214506CE2EC632C436C2EF20EFAE05C9CE
:10DCC000224692469167938717E91EA1B245B14754
:10DCD0003CA120B170A174B16244B72700204EA1CD
:10DCE000F240AA8503C5871205616F200FB0F2408C
:10DCF00062440561828041110D4506C6EF20CFAA1E
:10DD000015C1930710F91CA19307E0031CB1C54787
:10DD10003CA1B7270020B240AA8503C58712410164
:10DD20006F20AFACB24041018280011122CC2A8425
:10DD3000294506CE2EC632C436C2EF20EFA605C94D
:10DD4000B24592469167938717E91EA12246C947BB
:10DD50003CA14CA120B114A56244B727002072A1B8
:10DD6000F240AA8503C5871205616F200FA8F24013
:10DD700062440561828001114AC82A892D4526CA5C
:10DD800006CE22CC2EC6B284EF200FA229C1B24506
:10DD9000930710F91CA19307E0031CB1CD473CA1E8
:10DDA000A30125014CA12A84A685150519469720B3
:10DDB000FA1FE780405AA285B72700206244F2404C
:10DDC000D244424903C5871205616F200FA2F24079
:10DDD0006244D244424905618280011122CC2A84E6
:10DDE000214506CE2EC6EF202F9C05C5B245916772
:10DDF000938717E91EA1D1473CA16CA142A1B72787
:10DE000000206244F240AA8503C5871205616F2095
:10DE1000CF9DF240624405618280011122CC2A84A8
:10DE2000214506CE2EC632C4EF200F981DC12246D2
:10DE3000B245930710591EA120A170A16244B727D3
:10DE400000204EA1F240AA8503C5871205616F200C
:10DE5000CF99F240624405618280011122CC2A846C
:10DE6000214506CE2EC632C4EF200F9415C522469A
:10DE70009167938727E91EA1B245A1473CA160A104
:10DE800070B16244B72700204EA1F240AA8503C5B5
:10DE9000B71205616F206F95F24062440561828080
:10DEA000011122CC2A84314506CE2EC632C436C298
:10DEB0003AC0EF206F8F05C922468567B24592466A
:10DEC0000247938717C91EA120A170A16244B727FA
:10DED00000204EA116A53AA5F240AA8503C58712D7
:10DEE00005616F208F90F2406244056182800111CC
:10DEF00026CAAE844AC82A891385C40006CE22CC1D
:10DF000032C6EF206F8A0DCD8567938717E9B2453A
:10DF10001EA124A1231225012A84310508C42686C6
:10DF20009720FA1FE7802043A285B727002062448C
:10DF3000F240D244424903C5871205616F20EF8A3F
:10DF4000F2406244D244424905618280011122CCF0
:10DF50002A84194506CE2EC6EF200F8505C5856794
:10DF6000938717F91EA1B24585473CB120A16244B1
:10DF7000B72700204EA1F240AA8503C5871205618C
:10DF80006F20AF86F240624405618280411122C455
:10DF90002A840D4506C6EF202F810DC1930710F985
:10DFA0001CA1E9471CB120A12244B7270020B240A0
:10DFB000AA8503C5871241016F202F83B2402244F6
:10DFC00041018280011122CC2A84214506CE2EC631
:10DFD000EF109FFD0DC59167938727E91EA1B245FC
:10DFE000930700033CA160A16244B72700204EA123
:10DFF000F240AA8503C5B71205616F101FFFF240FA
:10E000006244056182800111214506CE2EC632C4CC
:10E01000EF109FF905C58567B245224693870739FA
:10E020001EA185473CA1B72700204EA172A1F24056
:10E03000AA8503C507E805616F103FFBF240056143
:10E040008280397122DC4ED656D25ECE06DE26DACA
:10E050004AD852D45AD0894BAA893284B68A639658
:10E06000751337290020834789E74A8A8944C9C341
:10E070009C3298229306C6FFA207D98F372700202B
:10E08000231EF7E8130BC7E9639BD70831452EC65B
:10E09000EF109FF1AA8435CDB245420441804CA1D6
:10E0A00062A1930700F91504A1651EA12311350192
:10E0B000850522859720FA1FE780C0F888C429C506
:10E0C000834789E79385EAFF13562400FD17230C45
:10E0D000F9E69720FA1FE780C0299C44A6858907A6
:10E0E0009CC4B727002003C507E8EF101FF0814448
:10E0F000F250625426854259D254B259225A925A49
:10E10000025BF24B2161828026859720FA1FE7800F
:10E11000A0FEB7270020239D07E88544D1BF130741
:10E12000D6FFE3C8E7FEB724002083C784E9372978
:10E130000020938484E9130909EA81CB03250900AF
:10E1400009C59720FA1FE78020FB03550B00A16546
:10E1500085051105420541819720FA1FE78080EE71
:10E160002320A9005DD983478AE72286D685FD173B
:10E17000230CFAE69720FA1FE780E01DB72700205E
:10E18000239D87E885479CA09DB7372B0020130A65
:10E19000ABE983570A00130BABE9C1D3B7240020C6
:10E1A0009384C4E99A2037290020130909EAB38629
:10E1B000C7001107032509006345D7063E95D6859C
:10E1C0009720FA1FE780201903560A009E208144F9
:10E1D00032944204418023108A009107E31AF4F03C
:10E1E0003145EF107FDCAA851DC9930700F91EA1F8
:10E1F00083570A0023113501230275017EA183276D
:10E2000009001CC5B727002003C507E8EF10FFDD94
:10E21000B727002023100A00238C07E8D1BD03256F
:10E22000090009C59720FA1FE78000EDB7270020F5
:10E2300023100B00238C07E8CDB56F90903E6F90B4
:10E24000D03F6FA080010545828005458280411145
:10E2500006C6EF90D03EB2400145410182806F90EA
:10E26000F0406F90D0426F9090456F9070476F90E4
:10E2700030496F90F04A6F90B04C6F90704E6F9035
:10E2800030506F90D0516F9090531C321022A207E3
:10E290005D8E6F90F0546F9030566F9090586F90E5
:10E2A00050766F90D0786F90107E6F90F07F6FA057
:10E2B000C0016FA0A0036FA080056FA0600703439B
:10E2C0000100030E4100834E8100034FC100834FC4
:10E2D000010183424101834381017EC816CA1ECCDD
:10E2E0007AC676C472C21AC06FA080066FA0800B77
:10E2F0006FA0600D6FA0400F0545828005458280AC
:10E3000005458280054582800545828005458280DD
:10E3100005458280054582806FB0607D054582801D
:10E32000054582806FB0D0021307A5FF42078567BD
:10E330002A8841831385A7C7636CE502138707C842
:10E3400001456368B70263E605031307301F636284
:10E35000C702138766FF42074183938767C763EA53
:10E36000E70005063306B6028E063325D600828006
:10E3700001458280B7D606008147938606151308AB
:10E38000F00F3387F60010231317060141836364EF
:10E39000E50063130601828092216364C7009AA19D
:10E3A0008280850793F7F70FE9BF41119397050125
:10E3B00022C406C626C2C1872E8463D607029720D0
:10E3C000FA1FE78040E4AA8401CD1C21054793C7CA
:10E3D00007086364F700EF50A0302685EF101FBADE
:10E3E0002165218D21A893F7150091CFB727002033
:10E3F00083A7C71991C3829713451400B2402244E2
:10E4000092444101828093F7250091CBB7270020E9
:10E4100083A7071A91C3829713452400C5B793F7C2
:10E42000850099CBB727002083A7871AFC5791C393
:10E43000829713458400D9B793F7450099CBB72746
:10E44000002083A7871ABC5791C3829713454400C5
:10E4500075B793F7050281CFB727002083A7871BE5
:10E4600083A7070991C382971345040241BF93F71D
:10E47000050181CFB727002083A7871B83A7C70883
:10E4800091C382971345040195BF939725010145D8
:10E49000E3D607F6B727002093878713F433F023DA
:10E4A000CC33C823EFA0E004096525BF411126C283
:10E4B000B7240020B72700201306001181454AC069
:10E4C0002A891385841306C623A407EA22C4972049
:10E4D000FA1FE78080EB0145EF1050550145EF1022
:10E4E000305CB7270020A38B27F9B707D707138421
:10E4F0008413B1075CC8B7B70C0C938707111CCC09
:10E50000B7B7D707938707115CCCED7793870711CF
:10E510001EB081477D472326F40C8327840B2324D8
:10E52000E40C61671307F79F37290020D98F13097F
:10E5300049F5232CF40A2320F40C8347E900032730
:10E54000C40BA30C0402A304F40AA308F40AF97789
:10E55000FD172317F40E2318F40EFD472309F40EBC
:10E5600085679387F7F02322E40C3EBC5EBCEF2066
:10E570008FB69307C01C2317F4068547A30FF40238
:10E580008357490028B023220404A983A30CF4066E
:10E590008D472311F404835709019306B00F1387A5
:10E5A000841363F4F6009307B00F139607013EB788
:10E5B0007EB78347C7034182918BD1C7931766000B
:10E5C0009387073D8346D703C207C1835EB7918A0D
:10E5D000BDCE931666009386063DC206C18216BB69
:10E5E0006D4593858413B2866373A600ED46B6B17C
:10E5F00013068014BE8663F4C70093068014139636
:10E6000006018567418256B3938787849384841378
:10E6100063F3C700BE869307C01C2310F704B70737
:10E62000160093870790F6B012B75CDBEF7080039B
:10E63000EF30804DEF6000642244B24092440249C2
:10E6400041016F5060579307E6008E07A5BF930600
:10E65000E6008E0659B7397122DC3704400026DA0D
:10E660004ED6AE84AA899305E4FF054506DE4AD856
:10E67000EF204FAF498C1317040141832183931777
:10E68000840013590401D98F231601001379F90F5F
:10E6900010088A854E857C87A306210102C002C22C
:10E6A00002C402C802CA02CC02CEEF6020768347C1
:10E6B000E1010347D101A0B0A2074207BA9703477F
:10E6C000F1012180C0A0BA97F25062549CA013D7E8
:10E6D0008700C183A382240198B0BCA04259D254C0
:10E6E000B25921618280B725002037250020011111
:10E6F00019469385C5F61305852006CE22CC26CA79
:10E700004AC891644EC69720FA1FE780C0C493851B
:10E71000F4FF0145EF20CFA22A84FD550145EF20EB
:10E720006FA4A287FD147D5933F79700B366E50007
:10E73000D5CA631425016307970A372400201307FD
:10E7400084132300F70EA18393E707FC9169C1644A
:10E75000232EA70CA300F70E13048413FD19FD1438
:10E76000CE850145EF20CF9D2A89FD550145EF203B
:10E770006F9FB3672501EDD7FD576314F500E301E3
:10E7800039FF935705012302F40E93578501A30225
:10E79000F40E8317040D2311A40E2303240F420546
:10E7A000135989001379F9034185A303240F658D5B
:10E7B000E58F6312F5020317440E8317240D658F4E
:10E7C000E58F631AF7000317640E8317440D658FF6
:10E7D000E58FE307F7F8F2406244D2444249B24978
:10E7E00005618280A6850145EF208F952A84FD551D
:10E7F0000145EF202F97A28705BF411126C2B724FC
:10E80000002006C622C44AC09387841303C7E703C7
:10E8100083C7F703636AF70001442285B2402244AC
:10E8200092440249410182802A89930510201305F0
:10E8300080079720FA1FE780E0802A8471DD1306A5
:10E8400080078145938484139720FA1FE780E0B303
:10E8500063140900C1575CA0BC48B1E3E0C4A0C880
:10E86000E0C8232004008547238FF40285475CB06D
:10E87000930700F97CB0B727002093878724D84BF3
:10E880009C4F78C03CC4FD573CA8B727002003C567
:10E8900087F62300A406EF60206608B8BDBFFC48D9
:10E8A00080C3E0C82320040083C7E40385076DBF4D
:10E8B0007C29411122C406C699075CB57C411147E9
:10E8C00058A598A37C4158352A8498B38347D5022C
:10E8D000858B91E70347C50289476317F7007840A6
:10E8E0001C2393E707041CA368409305E402194620
:10E8F00009059720FA1FE78000A6684072284C504F
:10E9000021059720FA1FE78000A5930730F97CB016
:10E91000B24022444101828041114AC0372900207F
:10E920009307891383A7070A06C622C426C299E360
:10E93000054531AAAA8413098913EF609010832733
:10E94000090A8297EF20B0772A847DD1DC4CAC4451
:10E950002324F508F8309307A0096310F7108547C2
:10E960002300F51483C7B4052303F514A303F5149A
:10E97000FC3598290148A2074207BA97F8251546A1
:10E98000F905BA9703C735FF130584136207BA97D1
:10E99000232CF40883C755FF03C765FFA20742076E
:10E9A000BA9703C745FFBA97232EF40883C775FFAC
:10E9B000A30AF40283C795FF03C785FFA207D98F77
:10E9C0007EB883C7B5FF03C7A5FFA207D98F1EBCBA
:10E9D00083C7D5FF03C7C5FFA207D98F3EBC83C736
:10E9E000F5FF03C7E5FF232E0413A207D98F5EBCF2
:10E9F0008147232CF4129720FA1FE780C095B84472
:10EA000083473702FD8BA309F40203473702ED1752
:10EA100093F7F70F1583A307E4022D476365F70209
:10EA20001E3C05679306A7C7E917C207C18363ECBD
:10EA3000F600363C9307301F63E7D7005E3C1307B0
:10EA400007C8637BF7020A24EF3060040145B24037
:10EA5000224492440249410182808327090C139782
:10EA60001701E35707F0FC4098239C21F98F958309
:10EA7000858B2300F514EDBD8327490A22858297F3
:10EA80008327890C0A24294693F7072091E305463A
:10EA900093050008EF40705C8327090C139717015A
:10EAA000635807000A24514693050008EF40F05AC6
:10EAB0008327C904FC4713974700E35B07E6C82098
:10EAC000A3890400494693050008EF4010598DB50D
:10EAD000B727002083C79713411122C406C626C258
:10EAE0004AC02A8485EB582485476316F71083476C
:10EAF00054030347D403858B631DF70E1946930512
:10EB0000E403130564039720FA1FE780608DB33494
:10EB1000A00089A88347D503E1C7834735041307BD
:10EB2000000493F7070C639DE70A085539C11309E0
:10EB3000E403CA851305A502EF40D05D8547AA848A
:10EB40006319F50208548947230EF4023C31194633
:10EB5000CA8593E72700A30EF40251059710FA1F08
:10EB6000E780607FB24022442685024992444101F9
:10EB70008280582485476305F70683478405918B77
:10EB8000A5E383474403A9EF1305C4039720FA1FA5
:10EB9000E780006008D429C58944230E94023C31E3
:10EBA00019469305E40393E72700A30EF4025105E9
:10EBB0009710FA1FE780207A8347D402898B99E364
:10EBC00085444DB70C54BC25E5DF23069402194655
:10EBD000B1051305E4029710FA1FE780C077CDB79F
:10EBE00083474403898BE38007F01C549C33E39CE8
:10EBF00007EE814485BF83478405918BE39907EE37
:10EC00001C3413F7170005C374340D47639DE600E9
:10EC1000485C2C402244B2409244024941011723EF
:10EC2000FA1F6700A35E898BC1DF78349547E3192B
:10EC3000F7F8F9BF4111B727002022C406C6938711
:10EC4000871323860706930710F97CB1B7270020A6
:10EC500003A447EA0DC0B727002003C577F985450F
:10EC6000EF101F91930710273305F50222832244EA
:10EC7000B24041010283B240224441018280834775
:10EC8000350691C778216314F7006FF0BFFA034788
:10EC9000250601CF7421638FE60078A1B7270020F5
:10ECA00003C577F989456F102FD3E5D3782171FF1C
:10ECB0007CA1EDB7F9DBEDBF2C4531479C3193F7D3
:10ECC000F7037CA56386E700930700083E858280F2
:10ECD0009C210D47BD8B7CB5E398E7FE41114AC0EE
:10ECE0001309E50222C419462A84A1054A8506C6ED
:10ECF00026C29710FA1FE780A06E9147630705129E
:10ED00002C4419461305E4039C2189059987858BBA
:10ED1000A30EF4029710FA1FE780E0632285EFF05C
:10ED20003FDBA1476303051064409D475CA49CA0A2
:10ED30008547BCA0BCB01946CA851385440097100E
:10ED4000FA1FE7804061BC20B830990793F7F70FAE
:10ED500013678700BCA0B8B07840BA970357640621
:10ED6000B8B3BC207840834694053E978357640629
:10ED70009206A183BD8BD58F5CA3B820814709077C
:10ED80001377F70FB8A072288346840501CA93F75A
:10ED90000604DDE3F957998F93F7F70F93F606040E
:10EDA00081CEB030744013660604B0B03697143884
:10EDB00034B3B8200507B8A07228014709CE63EC28
:10EDC000C700BC2068404C508D073E959710FA1F35
:10EDD000E78060587828B42093F7F60385073E97BC
:10EDE00058B4B4A08347D402858B91E70347C4028B
:10EDF00089476317F70078401C2393E707041CA397
:10EE00007C404C348CB30345B405930790F97CB037
:10EE1000EF60E01A50348345B4050D459730FA1F72
:10EE2000E780C082EF60E0418147B24022449244D3
:10EE300002493E8541018280F557B1BF2C45130739
:10EE400020029C3193F7F7037CA5639AE7104111E8
:10EE500022C406C626C29C2115472A84BD8B7CB5D8
:10EE6000639AE7021946A1051305E5029710FA1FF8
:10EE7000E7800057914771CD2C4419461305E403F0
:10EE80009C2189059987858BA30EF4029710FA1FA0
:10EE9000E780604C2285EFF0BFC3A1475DC9B7276B
:10EEA000002083A787DD82976440A14748CC5CA4FB
:10EEB0009CA08547BCA0BCB019469305E40213850D
:10EEC00044009710FA1FE7800049BC209907BCA0B6
:10EED000BC3093E72700BCB08347D40391C7784088
:10EEE0001C2393E707F81CA319469305E403138535
:10EEF000A4009710FA1FE7800046BC20990793F7FB
:10EF0000F70F13F7F703050758B4BCA08347D402E3
:10EF1000858B91E70347C40289476317F700784060
:10EF20001C2393E707041CA37C404C348CB303459B
:10EF3000B4059307A0F97CB0EF60600850348345B6
:10EF4000B4050D459720FA1FE7804070EF60602FF1
:10EF50008147B240224492443E854101828093071A
:10EF600000083E85828041114AC0372900200326CF
:10EF7000C9EB22C426C206C69307000A7CD2B72773
:10EF8000002083A747EBB70533002A84D857719B2D
:10EF900013671700D8D798431377F7E798C39843B8
:10EFA0001377F7E71367071098C337270020032765
:10EFB00047EC1447CD8E14C79306A00534CA5457A6
:10EFC000F59A54D70347A5059376F7079843137727
:10EFD00007F8558F98C364419D475CA585469CA062
:10EFE000A3810400B4A0834775050D476385E7003E
:10EFF0001947639EE7188547BCB019469305E4029C
:10F00000138544009710FA1FE780E034BC2099076D
:10F01000BCA0034774059947631FF702BC301385F2
:10F02000A40093E72700BCB08347D402898B638197
:10F0300007120C54BC29638D07101946D10597108F
:10F04000FA1FE780403178401C2393E707F81CA3A0
:10F05000BC209907BCA0BC30B82093E78700BCB0A7
:10F060007C40BA9703576406B8B3BC207840834607
:10F0700094053E97835764069206A183BD8BD58F76
:10F080005CA3B820814709071377F70FB8A052286F
:10F090008346840501CA93F70604F9EBF957998F63
:10F0A00093F7F70F93F6060481CEB03074401366E1
:10F0B0000604B0B03697143834B3B8200507B8A0AA
:10F0C00052284DEA0147B020834764059376F60342
:10F0D000850636979A07D18F58B4BCA08347D402CF
:10F0E000858B91E70347C40289476317F70078408F
:10F0F0001C2393E707041CA37C4058343705060003
:10F10000814598B3930760F97CB078408327C9EBB9
:10F11000130585C3B8DBEF10AFCCB727002003275A
:10F12000C9EB93878724A3810700238207005C43F0
:10F13000014593E717005CC350348345B40522446E
:10F14000B2409244024941011723FA1F670003505D
:10F150008347540391C778401C2393E707F81CA307
:10F160001946930564039710FA1FE780C01ECDB5BA
:10F17000F55735B7E3E8C7F4BC2068400C508D075D
:10F180003E959710FA1FE780001D58282DBF138762
:10F19000E7FF1377D70F79EF9305E502B4B019466F
:10F1A000138544009710FA1FE780E01ABC20B8309E
:10F1B0001146990793F7F70F13678700BCA0B8B003
:10F1C0007840BA9703576406B8B3BC2078408346AA
:10F1D00094053E97835764069206A183BD8BD58F15
:10F1E0005CA3B820814709071377F70FB8A08345C0
:10F1F0007405834684056399C50093F70604ADEB57
:10F20000F957998F93F7F70F93F6060481CEB43030
:10F2100093E60604B4B074403697143834B3B8207B
:10F220000507B8A003467405914601476310D6024E
:10F23000522809CE63ECC700BC2068400C508D07F3
:10F240003E959710FA1FE780001158280346740571
:10F250009146B7270020938787136315D61483C67A
:10F26000C70693F6060F93E656002386D706A1BD80
:10F27000F55741BF93F7B70F0547E395E7E4BCB0F7
:10F280009305E5021946138544009710FA1FE7809D
:10F29000800CBC209907BCA0BC3093E72700BCB011
:10F2A0008347540391C778401C2393E707F81CA3B6
:10F2B0008347D4021385A400898BF9C30C54BC295D
:10F2C000E1C31946D1059710FA1FE780C0087840BE
:10F2D0001C2393E707F81CA3BC20B8300546990708
:10F2E00093F7F70F13678700BCA0B8B07840BA97C0
:10F2F00003576406B8B3BC207840834694053E9714
:10F30000835764069206A183BD8BD58F5CA3B8207A
:10F31000814709071377F70FB8A083457405834623
:10F3200084056399C50093F70604BDEBF957998FDF
:10F3300093F7F70F93F6060481CEB43093E60604F4
:10F34000B4B074403697143834B3B8200507B8A069
:10F3500003467405854601476310D602522809CE3C
:10F3600063ECC700BC2068400C508D073E95971099
:10F37000FA1FE78040FE5828034674058546D1BD34
:10F380008347540391C778401C2393E707F81CA3D5
:10F390001946930564039710FA1FE780C0FB2DBF41
:10F3A000F55771B783C6C70693F6060F93E6660056
:10F3B0006DBD011152C4372A002093078A1383A719
:10F3C000470906CE22CC26CA4AC84EC6639E074AC3
:10F3D000372900208327C9EB130A8A1398430D8B22
:10F3E00005C3B84B619BB8CB98431367870098C39C
:10F3F0009C438D83858B89C70100010001000100BA
:10F400000326C9EB9307000AB72900207CD283A703
:10F4100049EBB70533002A84D857719B136717004F
:10F42000D8D798431377F7E798C398431377F7E74C
:10F430001367071098C337270020032747EC1447AA
:10F44000CD8E14C79306A00534CA5457F59A54D7E5
:10F4500078219376F7079843137707F8558F98C369
:10F460003C257841BD8B5CA51CA31D476441639B73
:10F47000E7368547A3810400BCA0834575058D460A
:10F480006391D5225A29631C0712BCB09305E5028B
:10F490001946138544009710FA1FE780C0EBBC2083
:10F4A000990793F7F70FBCA0034784051377070468
:10F4B00001CFB83013670704B8B07840BA9718384E
:10F4C000B8B3BC208507BCA023060A06B420834736
:10F4D000640513F7F60305079A07D58F58B4BCA047
:10F4E000930740F97CB08347D402858B91E70347AB
:10F4F000C40289476317F70078401C2393E7070489
:10F500001CA37C405834B7060082FD1698B303272D
:10F51000C9EB5C4393E717005CC38347040603A66B
:10F5200049EB93F7F703139797015C56F58FD98F43
:10F530005CD637170040930770052300F704930744
:10F5400080FA2300F70483060406A54763D7D73261
:10F550003E3393E707013EB303A749EBB7C7898E54
:10F56000938767ED1CC7B7575500938757555CC302
:10F570008327C9EB7840370506008344C4058145DD
:10F58000B8DB130585C3EF10AF85EF501044B727E4
:10F59000002093878724A38107000947F8B32382BB
:10F5A000070050346244F2404249B249224AA685DB
:10F5B000D244014505611723FA1F67002309A147BB
:10F5C000BCB083576506DCA08357650603479505E5
:10F5D0007441A1831207BD8BD98FDCB2B0200547DF
:10F5E00009061376F60FB0A08347CA068326C9EB37
:10F5F0006319F7080347C50589476310F708931790
:10F6000066009387073D034714062317F406938784
:10F610002708B387E702F94509452306AA060565C9
:10F6200088C69387E7FCC207C18393877716B3C761
:10F63000B70213970701B387B70241838607BCD28D
:10F64000BC3093E70701BCB07C403E968347A405DD
:10F6500093E707043CB2B4207C40B697D8A3B4200B
:10F660007C4021837D8BB6978346B4059606558FE3
:10F67000D8B3BC208D07BCA091BD9307E6008E07D0
:10F6800059B7B852F94705833357F702BC52E852CD
:10F690008583FD8BAA97FCD22306BA0642074183D5
:10F6A00045B71947639AE5085A2959E7BCB093054D
:10F6B000E5021946138544009710FA1FE780A0C998
:10F6C000BC201385A4009907BCA0BC3093E7270099
:10F6D000BCB08347D402898BA1C30C54BC298DCF05
:10F6E0001946D1059710FA1FE780E0C678401C2321
:10F6F00093E707F81CA3BC20990793F7F70FBCA06A
:10F700000347840513770704E30007DCB43078402F
:10F7100093E60604B4B05DB38347540391C77840C1
:10F720001C2393E707F81CA319469305640397105D
:10F73000FA1FE78040C2C1B7A147BCB08357640637
:10F74000DCA083576406034794057040A183120729
:10F75000BD8BD98F5CB2B020054709061376F60F32
:10F76000B0A08347CA068325C9EB631DF70403478E
:10F77000C40589476314F704931766009387073D10
:10F78000034714062317F4069387C708B387E702D5
:10F79000F94609452306AA06056588C5938747FCEF
:10F7A000C207C18393877716B3C7D70213970701A0
:10F7B000B387D70241838607BCD159B59307F600BA
:10F7C0008E077DBFB851F94705833357F702BC5107
:10F7D000E8518583FD8BAA97FCD12306DA06420700
:10F7E0004183B9BD05476390E708B1475CB58347DE
:10F7F000D502898BA1CB0C55BC29A9C71946D105C7
:10F80000138584009710FA1FE780E0B478401C232A
:10F8100093E707F81CA3684019469305E40209051D
:10F820009710FA1FE78020B383270A0C139717015C
:10F830006357070078401C2393E707021CA3930734
:10F8400020F94DB18347540389C79C2093E707F8FB
:10F850009CA0684019469305640321059710FA1F80
:10F86000E78060AF4DBF52290C519307660093F7B4
:10F87000F7035CB513858400D5B73E33C207C18357
:10F88000BD9BC207C183C1B9F2406244D244424920
:10F89000B249224A05618280B7270020411193872F
:10F8A000871322C4A04F06C6054714246390E602BE
:10F8B00083C7C70611476315F7002285EFF08FB79E
:10F8C00022852244B24041016FF0BFAEB2402244D3
:10F8D00041018280B727002083A7871899E33E85DE
:10F8E0008280D823E30DA7FE9C43CDBF411106C6FD
:10F8F00022C426C24AC0EFF0FFFD6305051A834704
:10F90000D502372900202A849304891389EFB7256B
:10F9100000201946938585201305E4029710FA1FED
:10F92000E78060A39DA80547639CE700BC2049458C
:10F93000638B0716B725002019469385E520E9BF9C
:10F940001C55B9E7834745032306050291EB03479E
:10F95000D40285472306F4028947E319F7FC45BF23
:10F96000130545039710FA1FE780C07D08D40DC129
:10F97000EF30F07F0C54BC2581CF89472306F40279
:10F980001946B1051305E4029710FA1FE780A09C01
:10F990000347C4028947E31CF7FA9C3095CB8347A1
:10F9A00044039DC78347B4031307000413054403AE
:10F9B00093F7070C639FE70E9710FA1FE780407DCF
:10F9C00008D41C5491C7BC2B81C78947230AF40271
:10F9D00085471CA45CB0B7270020138747F5783B08
:10F9E0000348A400230C0912931607012318E40608
:10F9F0009375F8001946C182138747F56373B606FD
:10FA00008345C4058947138646006394F500138631
:10FA1000C60356289305A00F7A2F13953600834806
:10FA2000B405B3D6B602B7450F0093850524B727B2
:10FA300000202318C40683C727251305B502B3C5C4
:10FA4000E5020947639CE80613876723931735008F
:10FA50003E979397A600BA97B3D7B702B2972318E9
:10FA6000F4068357840623150406B9CF2828930784
:10FA7000F00F6306F500EF001FAAFD573CA80356E0
:10FA8000840693062401120637050600A285130595
:10FA9000051AEF00FF93B727002003C577F98545C6
:10FAA000EF008FF30145B2402244924402494101E4
:10FAB00082809710FA1FE780E06819B79387E70BF9
:10FAC000AA97A606B69749BF8547E316F8FC2828EB
:10FAD0009307F00F6306F500EF00FFA3FD573CA866
:10FAE0000566930624011306068079BF411106C6F8
:10FAF00022C426C22A84EF50C07422852304040045
:10FB0000A3030400A3020400B7240020EFF08F92A7
:10FB1000938444F9A8308545EF00FF9AA8308945C1
:10FB2000EF007F9A28289307F00F6306F500EF0097
:10FB30009F9EFD573CA8B2402244924441018280DE
:10FB40002C45411106C622C426C24AC09C317D47BD
:10FB500093F7F7037CA5E91793F7F70F637BF7009B
:10FB600093040008B2402244268502499244410190
:10FB700082809C21BD8B7CB5F51793F7D70FEDF3F1
:10FB80002A841946A1051305E5029710FA1FE7809C
:10FB90002085914461D92C448547230EF4029C2191
:10FBA000194689059987858BA30EF4021305E40392
:10FBB0009700FA1FE780207A2285EFE07FF18547E2
:10FBC0002A89E31FF5F878349547631EF702EF00A2
:10FBD000B040B727002083C797F68D8B6375F50279
:10FBE0005C24E36FF9F6B727002083A787DD814403
:10FBF000829748CC2285EFE03FD2E31525F7228596
