:020000024000BC
:100000006F70E27900000000001801180028012834
:100010000228032800290129022903290429052986
:10002000062907290829002A012A022A032A042A64
:10003000052AA62A8C7F060062270400DC03002024
:100040002004002098030020860300205203002093
:10005000C8280400F0280400BE290400AE2B0400C8
:10006000582C0400EE250400802504000202002024
:10007000AC250400CC300400160500209E280400A6
:10008000EC2D04001C270600FA280600642906004F
:100090009AE50500AEE50500C04A05000C3D0500E7
:1000A0005C2106001C2E04006EED050004D804003F
:1000B00094D80400EED804001C3904005A39040016
:1000C000DA370400A89A0400CE95040054070020F3
:1000D000F8A604005EAA0400F088040092880400D8
:1000E000568C04003C89040070880400E8880400F1
:1000F00026880400B68904000E8A0400BE89040024
:10010000C2890400588A0400168A0400468A040042
:100110000A8F04000E8F0400B2890400BA8904001B
:10012000568A04000C8F0400048B040068900400BD
:10013000AAB704001EB8040058B80400F49C0400D8
:100140000A9D0400429D0400CE820400AC8304009A
:100150001084040068550400AE5004007C7904004B
:100160002A510400C47404004C5B06007058060059
:1001700064620600347206000A7106001C750600EF
:10018000D874060014750600C67506004A470600B6
:10019000567506004269060068690600886906000F
:1001A00036760600086F0600A66E0600A6760600E4
:1001B00094490600284A0600484A0600FA49060003
:1001C000E0050600A4F20500ECF505006CF305005F
:1001D0000CFC0500F0210600EA2006007E47060020
:1001E00078320400BEE505004EED050046EE050040
:1001F000B8190600401A0600A21B0600CAA0040097
:100200009405060080FC05005A02060004FF050064
:1002100054F20500F406002062E60500427506006F
:10022000DC740600107506000C750600542B0400E3
:10023000349E04004A750600D80706002A09060005
:1002400096090600A2620600467506004E75060075
:10025000983C050052750600AA1A0020061F0020CF
:10026000000000000000000000000000000000008E
:10027000000000000000000000000000000000007E
:100280006373B60082801C419105110523AEF5FE13
:10029000C5BFB727002037370020938707391307DA
:1002A000478F6373F700828023A007009107D5BFB3
:1002B0005DC5AA870145D5C58D07C207C183F19BDE
:1002C000C207C18313074003636CF702372700207E
:1002D0000325075237270020832687516397A602FC
:1002E000372700200327075B014525CF4111C207AF
:1002F00006C60545DD8D0297B24001454101828069
:10030000372700200325C751F1B77A2139E75A2151
:100310006365F704B72600203306F740214893862B
:1003200086526375C8028328050003D866001386C9
:1003300087001D8F2A9661175AA2232016012313C6
:10034000060010C15EA1130788FFFAA26EA1EE227B
:100350002105B387F540FEA28280084141B70145DF
:100360008280828009CDB727002003A30752B727D8
:10037000002083A8875181469A8763E31701828012
:1003800003A80700636BF5086369A8081387870053
:10039000E367E5FEF223216705076319E6003726C8
:1003A00000200347464205072302E6423726002085
:1003B00013058652CE237A21239307001306865213
:1003C0002E97420741837AA1638367023725002075
:1003D0000325C551630DF500EA2211E9DE2223A0B1
:1003E00006012107BE95A105CEA27AA2B687984341
:1003F000E30717F9B726002083A6C651E301D7F813
:100400007623B5FED6234E231843A106AE96D6A377
:1004100098C37E22A1077EA28280BE86C287B1BF1A
:10042000B7270020B726002083A7075203A68651CE
:100430002A87B305B5406314F6003A8529A8938648
:1004400087009C43E369D7FEE377F7FE2E85E3E45C
:10045000D5FEE3F2F5FE828023AC05FE1C4181E768
:100460000CC18280BA8703A787FF6DFF23ACB7FE5C
:100470008280411126C2B724002083A7445222C49F
:100480004AC006C60144014981EBA165973004E0EA
:10049000E78020990DC819A803C7E7FF631CA702CE
:1004A0001DCCA165972004E0E780406903A7445272
:1004B000832784FF6317E40223A2F452FD57232C01
:1004C00004FE230FF4FE2285B240224492440249E6
:1004D0004101828011E03E8983A787FF75B73E8482
:1004E000E5BF232CF9FED9BFB727002083A7875784
:1004F00099E33E858280BA236315B7009823E30A07
:10050000A7FEDC47F5B70111680006CE22CC974064
:1005100005E0E780E06BFD576307F508324741C30C
:1005200037240020130484521848630DF700B727BE
:10053000002083A7475C829732471C486373F7000B
:10054000BA873E9537340020930784839C4F130469
:10055000848399CBB737002083A6078A3707CDFF5E
:100560007D179C46F98F9CC6B727002083A7475A62
:10057000829719E91C4C85C797F005E0E780A0C574
:1005800097E005E0E780002C1C4C91CBB7370020AA
:1005900003A7078AB70633001C47D58F1CC7F24054
:1005A00062440561828037240020130484521C4871
:1005B000E387A7FEB727002083A7475C82971C48E4
:1005C00049B709CD81CD19CA81473387F500142376
:1005D0003307F500850714A3E319F6FE828019C9D5
:1005E00091C909CA910583A7C5FF11057D16232E60
:1005F000F5FEC5BF828001C919C62A960505A30F5D
:10060000B5FEE31DA6FE828081473307F500030790
:10061000070019E33E8582808507C5BF01112E863C
:1006200026CAAA84131506019305F004418122CC41
:1006300006CE32C6B5392A8401C53246A685513761
:100640002285F2406244D24405618280854705C11B
:1006500099CD11CE8147B306F5003387F50094227A
:1006600018236398E6008507E317F6FE85473E8565
:1006700082808147EDBF9307F6FFBE952A966313EC
:10068000C5008280FD159C310505A30FF5FEC5BF91
:10069000AA87014581CF09CE3E96850703C7F7FF9C
:1006A0006317B700E39BC7FE054582808280014542
:1006B000828079714AD03729002022D403248957B7
:1006C00006D626D24ECE52CC56CA5AC85EC63DCCAD
:1006D00037CAC901B72A0020B72900208144372B27
:1006E0000020130AFA37938ACA57938989523E2009
:1006F00099EB5C44BDE4232CF956832BC40022857E
:1007000095315E840DA883274B5C82971C44330788
:10071000F540636AEA0423A809002E2008209720E8
:1007200004E0E780A04154405C44E9D61844A28428
:10073000369718C43E8445FCB7270020938787521C
:10074000984B894663FEE602791798CBB250225443
:1007500092540259F249624AD24A424BB24B456125
:100760008280DCC459BF03A78A0201CB03A7090119
:10077000898F63F4E70023A8F900A284404465BF91
:1007800023A80700E1B701114AC8372900208327B1
:10079000495506CE22CC26CA4EC652C456C25AC0AD
:1007A00081C78297232A095493074955DC4337248C
:1007B00000201304445591C38297832749556399B8
:1007C0000714B734002093878483DC3393848483B5
:1007D000858B99CFF830A3820400914763FAE70034
:1007E000EF106060FC30F9178A07A2979C4382974C
:1007F000373A002093078A87DC27130A8A87918B70
:1008000099C3EF10D0411C4491C382973724002034
:10081000B72900209307845203A749579033930ABE
:1008200084528347845293961700BA969622B5CA8B
:100830008347845263EFC706832749552304045234
:10084000E1EB9C3489CBFC3099E7A384040097E06A
:1008500005E0E780E047B727002083A7475CCDCBC2
:10086000FD5723A8FA00B135B727002083A7475AC0
:10087000C5C3F830914763EDE7088347CA00918B01
:10088000C1EB83C61A0003A6495763EDD70862443B
:10089000F240D2444249B249224A924A024B05618F
:1008A0009DB1850793F7F70F2304F452E3EBC7F6E6
:1008B00041B786073E970E23231007000345845255
:1008C000B727002083A7075513172500372B0020D3
:1008D000BA979C4323180B56829783570B570347AD
:1008E000845293C7F7FF7D8D9317170003A74957CD
:1008F0003E971E235D8D0AA38347845281C78507D7
:100900002304F4520347845283C71A00E376F7F2B4
:10091000F2406244D2444249B249224A924A024BCE
:10092000056182801397170032971A2375F38507A4
:10093000A9BFAD6737470240BD072326F720010056
:100940000100B727002093878752C84F8327872647
:10095000BD66BD0693C7F7FF99836A052326D72096
:100960005D8D82808280B727002003C6876FB727FE
:10097000002003A7473F81476315F600814636856F
:100980008280BA8613078702835587FDE389A5FE17
:10099000850793F7F70FCDB7B727002003C6976FEA
:1009A000B727002083A7074101476365C700814639
:1009B00036858280BE86990783D5A7FFE38AA5FE88
:1009C0000507E5B7B727002003A7874019E30146CD
:1009D00015A81C4703D8A700636B0501835847007F
:1009E000B38608016355D500814663941601184308
:1009F000F1BF3E86C10703D3A7FF6317A30099C1C8
:100A000023900501328582808506C206C182F1BF2E
:100A1000B727002003C6876FB727002003A7C76B3F
:100A200081476315F600814636858280BA861307B2
:100A3000C703835567FCE389A5FE850793F7F70F86
:100A4000CDB7032785117DC7411122C406C65C2599
:100A50008345C5042A8493F7C70F5CA51437522732
:100A600013958601618563F6C50663500506082760
:100A700093F6F60714B7054693E627006314C500FE
:100A800093E6170054A45C4389075CC34CB8032564
:100A900004112E864C4309052D36832784115038C6
:100AA000D443DA27B296118FD4C3DAA789473CBC66
:100AB000B72700200347440383C7E7586371F7044F
:100AC0005C2493E707015CA41DA893E717005CA4CE
:100AD00075BF9376F60F635905020827854513E61F
:100AE00027006314B50013E6170050A454B8A304FC
:100AF000070085473CBC832784119C43D5FBB2404B
:100B0000224401454101828093E717005CA454B858
:100B1000A3040700032504114C4309055D34832712
:100B200084115038D443DA27B296118FD4C3DAA790
:100B30008D47C9B705458280B737002083A7478214
:100B4000411122C406C6858B2A84D5E3416513056D
:100B500025F5975005E0E78000F151C93C253EA5F9
:100B600083270412ADE32320A4122322A412854775
:100B70002310F404232005007C2854415EA558343A
:100B800018A5054718B537370020032707851385B3
:100B9000170215811C437D151375F50F9CC25C432C
:100BA000DCC21C479CC65C47DCC61C4B9CCA5C4B29
:100BB000DCCA1C4F9CCE5C4FDCCE19CD938606025E
:100BC00013070702C1BF8327441288C38357040455
:100BD0002322A412850769BFB72700209387877057
:100BE0009A2705079AA7B2402244410182805C24DB
:100BF00023090400054593C747005CA4EDB71C2DED
:100C000093F7E70FD5E71C3DC5E73029542509CAFE
:100C100037270020834545030347F75863E7E5007E
:100C200013F7060159C7014709C6C18A0357851B37
:100C300081C68356C51B36972DCF411122C4372458
:100C400000201304C4576A2C1307C71237460F003D
:100C5000B335A70213060624814626C206C633050D
:100C6000A702977006E0E78080E47C387D54B38467
:100C7000A700B727002003A747798327070963F355
:100C800087003E84184375FBB727002083A7475C85
:100C9000829781476364A400B307A440B240224412
:100CA000B3B7970093C7170092443E8541018280F5
:100CB00081473E858280B72600209387867083A770
:100CC000C70863850744797126D293868670B72456
:100CD00000201387C45703A546090353E70137478C
:100CE0000F0006D622D44AD04ECE52CC56CA5AC88D
:100CF0005EC662C40148FD589384C457130EF7239F
:100D00001306072403D7470883A50709330767029B
:100D100072973357C7023387E540637517013E85E5
:100D2000BA8805489C43F9FF6304080023AAA60873
:100D300003A44609B7490F00938BF92337290020F4
:100D4000930A0032130B204E054A93890924832706
:100D5000495C032C04098297637B852DF62C03578D
:100D60004408FC38330CAC403307D7025E97335746
:100D700037033E97636B87237E3CA30F04002285D5
:100D800085077EBC83470414C5C72D212285974063
:100D900005E0E780A01049E1EA2C83574408374773
:100DA0000F009306F723B387A702130707248329AD
:100DB0000409230A0402B697B3D7E7020547B387AD
:100DC000F9402324F4088327C408BE993C3423281F
:100DD00034096391E7060357E407363C63ECE60405
:100DE00014286399F60483278411A9E78327440A0A
:100DF000B1E374349D47639FF6021E3CB387E7025C
:100E00001307204EB387E70203274409B3D7E7024D
:100E1000F828BA972312F408B25022549254025977
:100E2000F249624AD24A424BB24B224C456182801F
:100E3000F92CA9BF1E308DCF763C5A3037460F00B3
:100E400056B03387E640B387E7023A3013060624EC
:100E500081468145BA97C207C1833385A7023EB058
:100E6000977006E0E780A0C401C5AA992328340939
:100E70008327495C8297AA898327495C8297E30D7F
:100E800035FF8327495C8329840882973385A940ED
:100E900075C18327C408637FF50C37490F00130918
:100EA0000924B3352503F22C8146330525039770B9
:100EB00006E0E780C0BF3E303737002083264785F5
:100EC0003E95B567BD07DCC6010001008327478555
:100ED00009678359240298C7E62C37370020130787
:100EE0008783930600F854A30605E8D33385990257
:100EF0003D673D0737460F00D8C7130606248146D5
:100F00008145977006E0E78080BA0DC1B3372503AD
:100F100026868146B305B9023305A902BE959770AE
:100F200006E0E780C0B83385A9402AB097E005E025
:100F3000E780C0D797E005E0E78000E238348547D6
:100F40008145631EF70037E505001305E5919720FD
:100F500004E0E780A0FE930700FD7CA475BD377513
:100F600005001305253F972004E0E78020FD930747
:100F700010FCE5B73834854703A344036317F70033
:100F80009545E30B03E8154529A0E30703E89545DC
:100F900019452254B25092540259F249624AD24A37
:100FA000424BB24B224C4561028363580C047E3C99
:100FB00085077EBC8347041499E32285892A22850C
:100FC000974005E0E78080ED832704090327C408E4
:100FD000BA972328F4083C3463974701228597C0C9
:100FE00005E0E78080617C3C854585077CBCDC585A
:100FF000E38F07D41545829799BB5E3C13070032F7
:101000008E07B387D70293870719B3D7E702E3F5B3
:1010100087E1A1452285974005E0E78000E02305B0
:10102000A40203A344038945E31F03F4F5B35E3C24
:10103000FA2C330C85418E07B387E7029387071993
:10104000B3D757036374FC0A8327495C82977E3CBD
:101050002A8C85077EBC8347041499E322854528A2
:101060002285974005E0E78060E3E31705DA8327F0
:1010700004090327C408BA972328F4087C3C13F713
:10108000070F21CF2285974005E0E780A097A30FA7
:10109000040083270409E379FCFA8356E4071E3C25
:1010A00003274409B387D702B3876703B3D7E7029F
:1010B000F8280607BA972312F4083C3463924703D2
:1010C0003E3CE3F6D7C8228597C005E0E780E052B2
:1010D000DC58E38E07C68D4531BF85077CBC55BF04
:1010E000DC58E38607C68D45194531B7E3460CD277
:1010F000A1452285974005E0E78020D22305A40280
:1011000003A34403E30A03D09145B5BD82807971FE
:1011100026D206D622D44AD04ECE52CC56CA5AC86F
:101120005EC68347350303447513AA843E94137443
:10113000F40F9307400263F687001304B4FD1374A1
:10114000F40F03AA841383AAC413A38B84122286E8
:101150005285D685977006E0E780E08F058915E512
:1011600003CBD41201498149337B6403930B5002B2
:101170004A865285D685977006E0E780C08D05893E
:1011800015C5639169031374F90F238B8412B25050
:10119000225492540259F249624AD24A424BB24B0B
:1011A000456182808509E20993D989410509E311E6
:1011B00079FDE1BF83278509723D797193D60701D7
:1011C000BD8EC206C182358E135776409357564066
:1011D000898B058B5D8F93573640918B5D8F93572D
:1011E0001640A18B5D8F93171600C18B5D8F9317EF
:1011F000360093F707025D8F9317560093558600CC
:1012000093F707041E065D8F1376F60F518F93D761
:10121000554013D63540118A898BD18F13D675402E
:10122000D18F13D61540218AD18F13961500418A8C
:10123000D18F1396350013760602D18F1396550081
:10124000137606049E05D18F93F5F50FCD8FA20777
:1012500045465D8F3307C70222D42A8426D252CC5A
:1012600056CA032A8413832AC4135AC806D636974B
:101270004207418393577740135557400989858B1F
:10128000C98F135537401189C98F135517402189CC
:10129000C98F131517004189C98F131537001375AE
:1012A0000502C98F13155700935587001375050460
:1012B0001E07C98F1377F70FD98F13D5354013D772
:1012C00055401189098B498F13D57540498F13D526
:1012D00015402189498F139515004189498F139530
:1012E000350013750502498F1395550013750504D4
:1012F0009E05498F93F5F50F4D8F2207D98FB38740
:10130000C7024AD04ECE5EC662C4B697C207C1833A
:1013100013D7774013D557400989058B498F13D5CB
:1013200037401189498F13D517402189498F13956B
:1013300017004189498F1395370013750502498FAE
:101340001395570093D58700137505049E07498FA1
:1013500093F7F70FD98F13D5354013D7554011891F
:10136000098B498F13D57540498F13D515402189B5
:10137000498F139515004189498F139535001375D1
:101380000502498F13955500137505049E05498F75
:1013900093F5F50F4D8F2207D98FB387C702130638
:1013A00050025285D685B697BD8E93940601C180B2
:1013B00033F6C402137BF60F976006E0E780A0695E
:1013C00005890DED8347D41201498149B384970201
:1013D000130C5002C1804A865285D685976006E07C
:1013E000E78060670589937BF90F11C56386340335
:1013F000850993F9F90F0509E31F89FD230B641390
:10140000B250225492540259F249624AD24A424B93
:10141000B24B224C456182805E8BCDB78327C508D5
:1014200003568508797193D60701BD8EC206C18225
:10143000358E1357764093575640898B058B5D8FB9
:1014400093573640918B5D8F93571640A18B5D8FDC
:1014500093171600C18B5D8F9317360093F7070221
:101460005D8F931756009355860093F707041E0669
:101470005D8F1376F60F518F93D7554013D63540B5
:10148000118A898BD18F13D67540D18F13D6154011
:10149000218AD18F13961500418AD18F139635007A
:1014A00013760602D18F13965500137606049E0517
:1014B000D18F93F5F50FCD8FA20745465D8F33078A
:1014C000C70222D42A8426D252CC56CA032A8409BF
:1014D000832AC4095AC806D63697420741839357D0
:1014E0007740135557400989858BC98F135537406D
:1014F0001189C98F135517402189C98F13151700FA
:101500004189C98F1315370013750502C98F13154B
:10151000570093558700137505041E07C98F13776D
:10152000F70FD98F13D5354013D755401189098B43
:10153000498F13D57540498F13D515402189498F9F
:10154000139515004189498F1395350013750502D0
:10155000498F13955500137505049E05498F93F522
:10156000F50F4D8F2207D98FB387C7024AD04ECED1
:101570005EC662C4B697C207C18313D7774013D53E
:1015800057400989058B498F13D537401189498FF9
:1015900013D517402189498F139517004189498F29
:1015A0001395370013750502498F1395570093D58E
:1015B0008700137505049E07498F93F7F70FD98F9E
:1015C00013D5354013D755401189098B498F13D551
:1015D0007540498F13D515402189498F1395150002
:1015E0004189498F1395350013750502498F13956D
:1015F0005500137505049E05498F93F5F50F4D8F22
:101600002207D98FB387C702130650025285D685A9
:10161000B697BD8E93940601C18033F6C402137B46
:10162000F60F976006E0E780004305890DED8347DC
:10163000140801498149B3849702130C5002C180F8
:101640004A865285D685976006E0E780C0400589C6
:10165000937BF90F11C563863403850993F9F90F5C
:101660000509E31F89FD230F6407B25022549254E9
:101670000259F249624AD24A424BB24B224C45616E
:1016800082805E8BCDB78327450903568508797123
:1016900093D60701BD8EC206C182358E13577640A0
:1016A00093575640898B058B5D8F93573640918BAE
:1016B0005D8F93571640A18B5D8F93171600C18BDA
:1016C0005D8F9317360093F707025D8F93175600CF
:1016D0009355860093F707041E065D8F1376F60F69
:1016E000518F93D7554013D63540118A898BD18FAE
:1016F00013D67540D18F13D61540218AD18F1396FA
:101700001500418AD18F1396350013760602D18FCA
:1017100013965500137606049E05D18F93F5F50FA9
:10172000CD8FA20745465D8F3307C70222D42A8496
:1017300026D252CC56CA032A840A832AC40A5AC81B
:1017400006D6369742074183935777401355574043
:101750000989858BC98F135537401189C98F135556
:1017600017402189C98F131517004189C98F131597
:10177000370013750502C98F13155700935587005D
:10178000137505041E07C98F1377F70FD98F13D56B
:10179000354013D755401189098B498F13D57540B2
:1017A000498F13D515402189498F1395150041891B
:1017B000498F1395350013750502498F1395550010
:1017C000137505049E05498F93F5F50F4D8F22077C
:1017D000D98FB387C7024AD04ECE5EC662C4B697D1
:1017E000C207C18313D7774013D557400989058BAA
:1017F000498F13D537401189498F13D51740218957
:10180000498F139517004189498F13953700137538
:101810000502498F1395570093D58700137505046A
:101820009E07498F93F7F70FD98F13D5354013D7FC
:1018300055401189098B498F13D57540498F13D5B0
:1018400015402189498F139515004189498F1395BA
:10185000350013750502498F13955500137505045E
:101860009E05498F93F5F50F4D8F2207D98FB387CA
:10187000C702130650025285D685B697BD8E939443
:101880000601C18033F6C402137BF60F976006E0B1
:10189000E780601C05890DED8347F4080149814903
:1018A000B3849702130C5002C1804A865285D685B4
:1018B000976006E0E780201A0589937BF90F11C530
:1018C00063863403850993F9F90F0509E31F89FD40
:1018D000230F6407B250225492540259F249624ACB
:1018E000D24A424BB24B224C456182805E8BCDB7CF
:1018F0000111B727002022CC03A4077C26CA4AC8BE
:101900004EC606CEAA8413092500854905C09C3021
:101910003830858B6304F700405CCDBF19469305D2
:1019200044004A85EFE09FD2E31835FF2285F2405C
:101930006244D2444249B249056182804111B727CD
:10194000002022C403A4077C26C24AC006C6930412
:101950002500054901E82285B2402244924402490B
:1019600041018280A6851305A402979005E0E780D7
:10197000C0EAE30225FF405CF1BF4111B727002018
:1019800022C403A4077C26C24AC006C693042500CD
:10199000054901E82285B2402244924402494101AE
:1019A0008280A6851305A401979005E0E780E0E614
:1019B000E30225FF405CF1BF011122CC604126CA41
:1019C0004AC84EC652C406CEAA841D4A13096505EC
:1019D0008549BC446364F400054591A0D8345C207B
:1019E0006317470503C784026304F7000040D5B7B7
:1019F000583083C75405E31BF7FE1946CA85130503
:101A00006400EFE0BFC4E31335FF582483C794029A
:101A1000E31EF7FC7A24BE34E31AF7FC0145F240DA
:101A20006244D2444249B249224A05618280E31F9E
:101A3000F7FA583083C75405E31AF7FA1946CA85EE
:101A400013056400EFE09FC0E31235FBC1BF011135
:101A5000B727002022CC03A4877B26CA06CE2AC43F
:101A60002EC6854419E40145F2406244D244056122
:101A700082809C841830858B6304F7000044DDB7B6
:101A800019469305A10013052400EFE03FBCE317BE
:101A900095FE0545D1BFB737002003A74785011143
:101AA0002AC62EC432C206CE3C4B93E707083CCB75
:101AB00097D005E0E780801FB736002083A7C68255
:101AC0003245A24523A0070018310348250022070C
:101AD00042084297034805004297034835006208D0
:101AE000429798D758310348650022074208429729
:101AF0000348450042970348750062084297D8D7CB
:101B000018350348A500220742084297034885007C
:101B100042970348B5006208429798DB583503485E
:101B2000E5002207420842970348C50068354297FE
:101B300062052A97D8DB9831A821220742052A9707
:101B400088212A97A83162052A9798CFD831E821B1
:101B5000220742052A97C8212A97E83162052A9769
:101B6000D8CF9835A825220742052A9788252A9795
:101B7000A83562052A9798D3D835E825220742056B
:101B80002A97C825EC352A97E2052E97D8D3D84353
:101B9000759BD8C3D84313671700D8C398431367FE
:101BA000170098C3124603A7C6825C43858BADEB32
:101BB0001C4F01451CA283A7C6829C4FA1831CB267
:101BC00083A7C6829C4FC1833CA283A7C6829C4F39
:101BD000E1833CB283A7C682D84F58A2D84F218355
:101BE00058B2D84F418378A2D84F618378B29853C6
:101BF00018A69853218318B69853418338A6985352
:101C0000618338B6D85358A6D853218358B6D853D1
:101C1000418378A6DC53E1837CB6F2400561828083
:101C2000010051B7B737002003A747851605136594
:101C300005083C4B93E707083CCBB737002083A748
:101C4000C78203A7450E88C398CB03A7850E01451D
:101C5000D8CB03A7C50B98CF03A7050CD8CF03A7F4
:101C6000450C98D303A7850CD8D303A7C50C98D7E8
:101C700003A7050DD8D703A7450D98DB03A7850D4E
:101C8000D8DB03A7C50D98C703A7050ED8C798438F
:101C90001367070498C38280B737002003A74785DE
:101CA0001605136505083C4B93E707083CCBB7378F
:101CB000002083A7C78203A7C50E88C398CB03A7BC
:101CC000050F0145D8CB03A7C50B98CF03A7050C7B
:101CD000D8CF03A7450C98D303A7850CD8D303A767
:101CE000C50C98D703A7050DD8D703A7450D98DBDA
:101CF00003A7850DD8DB03A7C50D98C703A7050E5D
:101D0000D8C798431367070498C3B7370020938751
:101D10008783130700F8F8A38280373700208326D3
:101D20000783411126C29C5E06C622C499834AC01D
:101D3000858BBA84B1CB93070006373900209CDE2F
:101D4000834789831304898393F7070489CFB727CF
:101D5000002083A7475C829708C88347898393F74D
:101D6000F70B230CF9825C2093F7070491EF85476A
:101D70005CB0B737002083A74785096798C713076A
:101D800000FC58A05844F8D303A704831C5F918338
:101D9000858B89CBC1471CDFB737002093878783AA
:101DA0008546D4A31C5F9D83858B91CB9307000848
:101DB0001CDFB7370020938787830547D8A3B73741
:101DC000002083A7C782D8430583058B19C7D84352
:101DD000759BD8C3D843799BD8C3B2402244924460
:101DE000024941018280B7370020B736002003A6A0
:101DF00047859387868303C78683058B11C7238214
:101E00000700A382070082809833058B6DFB785210
:101E10007DF3D833FDB737380020032708831C5FD4
:101E20009583858BBDE701C61C5BBD831CA29DC647
:101E300083270883985B460793576701635607001B
:101E400093E707C0C207C18303970600C207C18793
:101E500009C7BA970947B3C7E7029EA285C11C31DB
:101E600091CF3E951C350547194593F6F7066393C8
:101E7000E602E207E187394563CE0700832708833E
:101E80003737002001459C5FED838D8BA301F784DC
:101E9000828005458280411122C406C63734002065
:101EA00026C2032744853DE5AE877453FDFEB73453
:101EB0000020938484833E85B2852381040097D0DB
:101EC00005E0E780E0BDB737002083A70783B706AA
:101ED00080009843558F98C3D857719BD8D78327D4
:101EE0004485A3820400A3800400094798C3832685
:101EF0004485B737002093878783B823058B11E784
:101F0000B833058B51C723820700B2402244924464
:101F1000410182808D47631FF500B737002083A7FA
:101F20000783B70680009843558F98C3D857719B95
:101F3000D8D775BF8547E31CF5FAB567BD075CC701
:101F400001000100832744850967930600F898C7BC
:101F5000373700201307878354A3373700208326A1
:101F600007830946984231830D8B6319C700130715
:101F7000E043F8D33D673D07D8C795BF984231830A
:101F80000D8B01E713076019EDB71307E01BD5B7F9
:101F9000F85225F79DBF5D7152DC373A00200327C8
:101FA0000A8386C6A2C4A6C2CAC04EDE1C43B73985
:101FB00000203739002093F7F7E793E707081CC3A1
:101FC00083A6098A3707CEFF7D179C461306800239
:101FD0002A84F98F9CC6832749852800AE8423A8CC
:101FE000070493051008EFE00FE197D005E0E780C4
:101FF000E0CB97D005E0E78020D683270A8393764D
:10200000F41F3706330023A40700984B370FFCFF5B
:102010004E881367F70398CBF84FCA88130510F85A
:10202000137707E0558FF8CF9843F576FD16758F37
:1020300098C3373700208326498513078783A30277
:102040000700A3000700054798C29843D285B7024E
:1020500004001377F7E798C398439303401F11498F
:102060001377F7E71367071098C303A7098A7D1F43
:1020700085491C47930F8002D18F1CC79307900599
:10208000BCCA01473400135337002693834703002B
:1020900013767700B3D7C740858BE1C383A7058349
:1020A000832E088A239C07042390070603AECE02E2
:1020B000137EDEFF23A6CE0383AE0700137EF70751
:1020C00093FE0EF833EECE0123A0C70103AE470204
:1020D000336E5E0023A2C70383AE4885014E23A260
:1020E0007E0603DA070663074E0303AE0703038A7F
:1020F0000600135EFE00620E135E8E416358CA0135
:1021000003AE0703135EFE002380C60103DE07064D
:10211000137EFE0F03AA4E0663060A0003DA870544
:10212000E37F49FB03AE4702337EEE0123A2C703E0
:1021300083870600635CF400034E03003396C900F6
:102140001346F6FF3376C6012300C3003E8663D3F1
:10215000A7002A8613158601618505071377F70FF7
:102160008506E312F7F3B640264496440649F25931
:10217000625A616182803736002083274685D847BE
:102180009316170163D2060298479316170163DD71
:1021900006007D57B8D73727002013078752544FC2
:1021A000850654CF116798C798470D83058B11CFCB
:1021B0003737002013078783342393E6160034A3B0
:1021C000930600F854A3214798C79847058B19CB6D
:1021D0003737002013078783143393E6160014B3B0
:1021E000054798C798470983058B09E798470583F2
:1021F000058B31CB94473737002037350020898253
:10220000858AE5CE832605839442B1828D8AFDE2DC
:10221000AC4B93068783944E93F505029432CDC55B
:10222000F9E69306D005D4CF8346878393E616005C
:10223000230CD782114798C7032705835C57F19B6E
:1022400093E717005CD7032746851C479396370111
:1022500063D40602B72700209386877003C606075B
:1022600093878770418A55C283C7060793E70702A1
:102270002388F60685671CC71C479396270163DFF2
:102280000600B737002093878783D423E206E186D0
:1022900063D406008546D4A389671CC71C47939660
:1022A000070163D20602B72700209387877083C691
:1022B0001707858ABDCA83C6170793E62600A38839
:1022C000D706A1671CC78280A9DE85456395B60045
:1022D0009306100689BF89456395B600930650069C
:1022E00099B78D456395B600930690062DBF93066A
:1022F000B00615BF9306C0063DB713078783343376
:1023000093E6160034B309473DB783C6070709466D
:10231000BD8A6388C60083C607070D46BD8AE39B56
:10232000C6F491462388D706B1B783C61707918AAA
:10233000C9DA83C6170793E6860051B7B73600207F
:10234000373700209387868713068785303EDC3732
:102350009386868713078785B29793F7F70F7D4695
:10236000636DF6021CB31C33484B05463316F6006A
:10237000DCB6698E1DEA903A13080002814633F6F6
:10238000C7028147B355F500858993F8F70F99C9BE
:102390006317D600A300170182808117E1B7850675
:1023A00093F6F60F8507E39F07FD8280B72700208D
:1023B00083A7475C011122CC26CA4EC606CE4AC866
:1023C0008297B734002093878487804781496300D0
:1023D000A4043737002093078785BC2F018D135441
:1023E0005500938484879379F50113098785636D7C
:1023F000F400A9370347A901944493175700BE96E8
:10240000198C94C4E377E4FE1604B3693401F240F6
:1024100062444E85D2444249B24905618280B72761
:10242000002083A7475C411122C44AC006C626C2C9
:102430008297373900209307898780476307A40470
:10244000B734002093878485BC2F018D1354550029
:1024500013098987938484856369F402C535BC2C8C
:10246000032789009396570036971D8C2324E90093
:10247000E376F4FE22448830B2409244024981451A
:10248000410117D305E06700C3D8B240224492440B
:10249000024941018280B737002003A7078AB75756
:1024A00002009387079F83260709139656006358F7
:1024B0000600832607091396660063440600FD178D
:0424C000FDF3828026
:1024C400B72700203727002083A707520327875107
:1024D40001456313F7008280F62399E2D6233695EB
:1024E4009C43C5BFB727002083A5C75737270020C3
:1024F4009387C757138605222320C752DA2393876D
:1025040085FFB72600204111BA97056523ACF65024
:1025140006C61D05935637006374E5009306002034
:102524003307D60037250020232EE55023A0E522CB
:10253400E11656A2231306001CC3998FE1175EA36C
:1025440023130700B53FB240B72700202397A752B3
:1025540041018280B72700203727002083A7075234
:102564008326875101456393F6008280FA2309E7A5
:10257400DA236373E5003A859C43F5B71DC18346AE
:10258400E5FF1307F00F9147639EE600411106C66D
:1025940097E0FB1FE78000B6B24081473E854101CA
:1025A400828095473E85828001E90145828001450C
:1025B400B24022444101828095654111938505D042
:1025C40022C4C98D2A842105C2054205C1814181E5
:1025D40006C697E0FB1FE780A0A671D9FD5723200C
:1025E400050042A17CA12105E1B7ADC1B7270020B8
:1025F40083C79752411122C406C62A842E85637567
:10260400F400894763E88700953F0D45B2402244B2
:102614004101828083A785FF99E703C7E5FF9307FC
:10262400F00F6305F700993F1545CDB73725002016
:10263400238F85FE1305455297E0FB1FE780C0BA40
:1026440022852244B240A1654101ADAC154582808A
:10265400B727002023A207528280BDCD797122D4EE
:1026640006D626D24AD04ECE01444147B3D7854040
:10267400858BB1CF1205314722953305E502B72783
:10268400002003A9C75B8544B3948400C204C180BD
:10269400BE892A990327090011C7032549002EC6BC
:1026A4000297B24531473304E40283A7C95B3E94E1
:1026B4001C4489E72320090023220900B250225434
:1026C400A58D02599254F2492E85456182800504F4
:1026D400E31EE4F88144DDB72E858280411113970F
:1026E400050122C406C626C24AC041872E8463510E
:1026F400070297E0FB1FE780C0B011C14135A16715
:102704003D8C2285B2402244924402494101828098
:10271400EDD9AA8701474146B356E440858A9DCA4C
:102724009207BA97B146B387D702B726002003A908
:10273400C65B8544B394E400C204C1803E998327F8
:102744000900032549008297232009002322090058
:10275400258C45BF0507E311C7FC8144D5BFB727C6
:10276400002083A7075A411122C406C6372400203B
:102774001304843591C782971C403E9508C031A04C
:10278400B727002083A7475CFDF70840B74703003D
:102794009387D73F3305F502B7A72600938737EC15
:1027A400B2403E9508C022444101828065C5374845
:1027B40036FE1308F8C78947636FC80C7971B727C9
:1027C400002022D45AC803A8C75B3E8B06D626D263
:1027D4004AD04ECE52CC56CA5EC662C40144B148F9
:1027E400C147B30B1403137CF40F330378010323A1
:1027F4000300631C0308AE8AC165AA84938505F0AF
:1028040041453A8AB689328997E0FB1FE7804083C5
:1028140005E9B727002083A7075B99EF8147B250EA
:10282400225492540259F249624AD24A424BB24B60
:10283400224C3E8545618280814511458297F9BFCE
:10284400B726002003A786570DEF23ACA656230016
:1028540005008327CB5B0547331487002326050037
:102864002324250122A123224501DE9784C323A228
:10287400570123A44701E38309FA2380890179BF1F
:1028840036875447F5FE48C7D9B70504E31BF4F46B
:10289400A14771B789473E858280B727002083A767
:1028A400075C411122C406C6372400201304845255
:1028B40089C782975C483E9548C84848B24022443C
:1028C40041018280B727002083C79752637EF500B9
:1028D4003727002093171500032547573E951E21DF
:1028E400DD8D0EA1014582800D458280B727002031
:1028F40083C797526370F50237270020931715009A
:102904000325475793C5F5FF3E951E21FD8D0EA166
:10291400014582800D45828001114AC806CE22CC31
:1029240026CA4EC652C49307F002094963EEA706AD
:10293400B146B306D502B727002003A7C75B0949F0
:1029440036971C43B5C3135A450005443D893315D6
:10295400A400131405014180AE845285A28597E03A
:10296400FB1FE7806091AA8901491DCDA28552858C
:10297400B53FB727002083A7475C8297B72700207D
:1029840083D7A7592A8413060064338797028146A4
:10299400B3B7970213050732B335E500BE95EF4090
:1029A4009269229523A4A900F24062444A85D24444
:1029B4004249B249224A05618280B727002083C771
:1029C40097526364F500014582800111B727002006
:1029D40052C403AA475C06CE22CC26CA4AC84EC6B5
:1029E400630D0A08372900201309C957AE89835596
:1029F400E9012A84B284B387C5028146B3B5C5020E
:102A040013850732B337F50013060064BE95EF4013
:102A14009262B74736FE9387F7C763E0A706029A28
:102A24008355E9012A8A13060064B3879502814617
:102A3400B3B5950213850732B337F500BE95EF4061
:102A4400925F2A9ACE85228597E0FB1FE780C08299
:102A540009C523244501054515A0936504F0C20565
:102A6400C181414597D0FB1FE780805D05E1832745
:102A7400490381C7A285114582970145F24062440A
:102A8400D2444249B249224A056182803727002054
:102A94008327875785E3232CA756854723260500DC
:102AA400232445012311350100A11CB12322050073
:102AB4005DB7BA87D84775FFC8C7C5B741C979712B
:102AC40022D426D24AD04ECE52CC56CA5AC85EC65A
:102AD40062C406D6B689B28A2E8A2A899304000C67
:102AE4004144372B0020054C930B00038327CB5B19
:102AF400A6979C43A1E79375F400B315BC00C205E7
:102B04005686C181135544004D3D0DC98327CB5BC7
:102B14000145BE9423A0240123A244016384090037
:102B240023808900B250225492540259F249624AD5
:102B3400D24A424BB24B224C456182800504137445
:102B4400F40FB104E31474FB2145E9BF0945828005
:102B5400411122C426C24AC006C62A842E89B284E0
:102B6400A93DCA85228597D0FB1FE780E07005CD7B
:102B7400B727002083D5A7592A8413060064B38796
:102B840095028146B3B5950213850732B337F50034
:102B9400BE95EF40524A48C00145B2402244924497
:102BA4000249410182802145CDBF411122C426C280
:102BB4004AC006C62A892E8497D0FB1FE780C06BC3
:102BC400AA8419C123110500A2854A850533B727B4
:102BD400002083C7875263992701B727002003D7B2
:102BE4000757598C23988756014591E01945B240FF
:102BF400224492440249410182809307F00263E82F
:102C0400A7044111B14722C43304F50226C2B724F4
:102C1400002083A7C45B06C6A2979843894715C3BF
:102C24009377F5008545B395F500C205C1811181FF
:102C3400AD3F83A7C45BA29723A0070023A207008C
:102C44008147B240224492443E85410182808947B3
:102C54003E858280411106C622C497D0FB1FE780BF
:102C6400A06111E50145B240224441018280B727A9
:102C7400002083A7475C00458297B74736FE33059B
:102C8400A4409387E7C7E3EFA7FC93070064B33539
:102C9400F502372700200356A75981463305F5026C
:102CA400EF407239C9B74111B727002006C623A0E7
:102CB400A75C0295B240B727002023A0A754014582
:102CC40041018280994763E9B700B72700208A054C
:102CD40093874755BE9588C18280B727002023ACCF
:102CE400075637250020B7270020411123A0075C91
:102CF4007146B727002081451305455506C623A212
:102D0400075C22C426C23724002097D0FB1FE7802B
:102D140080671305845213068002814597D0FB1FF8
:102D2400E7806066EFF00FFCB727002083C71759D0
:102D340013048452854513D527008D8B3E958D470A
:102D44003305F5029947B724002039051375F50FAB
:102D540028A03305F5021305052497D0FB1FE7804F
:102D6400202E23AEA45A25CD302099478145330621
:102D7400F6021306062497D0FB1FE780C06083A7E2
:102D8400C45B3820B7240020938707240A0723A8AC
:102D9400F454BA9737270020232AF75655385D266E
:102DA4001C3083A604553726040013972700369752
:102DB4001306E66510C3138717001377F70F0A0786
:102DC4003726040036971306066E10C313873700A0
:102DD400890793F7F70F8A0718B0B69790C3B240E4
:102DE40022449244410182803727002013078752EE
:102DF4001C33342363FFD700B726002083A606556F
:102E04001386170010B313972700369708C33E851F
:102E140082809307F00FE5BF1C41E9CF41777D8F96
:102E2400B706002089476318D70C5A2169C7411196
:102E340026C21946AA849305F00F610506C622C46A
:102E440097D0FB1FE780C05D05478D47630EE508FB
:102E54009C4491C7985C994741CBD85C51C73724AF
:102E640000201306000481451305C45797D0FB1FA7
:102E7400E780605113060004A6851305C45797D054
:102E8400FB1FE780004D9307C457DA2701E71307B8
:102E94000010DAA7F82719E30547F8A79A2B19E3D6
:102EA4006D479AABF83719E31547F8B7B82B19E310
:102EB4000547B8ABB83B19E3F837B8BBD82B19E3CF
:102EC4002547D8ABF83B19E35147F8BBF82801E78D
:102ED4001307C003F8ABDC5791C78297B7270020CC
:102EE4002398A752DD3B8147B240224492443E8559
:102EF4004101828089473E858280B727002083A7CD
:102F0400475C011106CE22CC26CA4EC64AC8829717
:102F1400B727002083D9A75993070064B335F50276
:102F24004E8681463305F502EF40F210B7270020A4
:102F340013878752004FAA840145630494021389BE
:102F4400875233858440636C94004E868146130512
:102F5400009C9305F063EF40120E018D2695232CFF
:102F64009900F2406244D2444249B24905618280E8
:102F7400011122CC2E84B78506000A85414693852B
:102F840005C806CEEF405244180806043A94B72701
:102F94000020035504FF83D7C759F2406244AA971F
:102FA40037450F00130505243355F502056182806A
:102FB400B727002083D7C75951471D45637CF702C3
:102FC400794719456378F70213072003154563739E
:102FD400F7021307B0041145637EF7001307400698
:102FE4000D456379F7001307600909456374F70019
:102FF40013B5B70F8280011122CC06CE2A842EC6C7
:10300400EFF0EFF5B245F240818D33A5A50222958C
:1030140062441375F50F05618280011122CC06CE3E
:103024002A842EC6EFF0AFF3B245F240818D33A56A
:10303400A502229562444205418105618280011105
:1030440022CC06CE2A842EC6EFF06FF1B245F240B0
:10305400818D33B5A5022295624405618280B7272C
:1030640000201387C757585739CF411122C426C2AD
:103074004AC006C61389C7570297B727002013878B
:1030840087521A272A849384875205CBBA8763739D
:10309400A700AA87C207C183BA866373E400A28625
:1030A400C206C182958F51476359F70083270903EC
:1030B40091C38297EFB0F15882A4B2402244924463
:1030C4000249410182808280011122CC37240020F0
:1030D4009307C4579C5B06CE1304C45781C72AC602
:1030E400829732450DC57A2C854709CF1A3019CB02
:1030F400B727002023A2A75C373504001305E5EFAA
:103104005D368147F24062443E8505618280B7277F
:1031140000209387875223AE0700E17793C727A146
:103124007EAC930720031EB07D57B747024023A40B
:10313400E726B7070020372700209387276C232230
:10314400F75C5DBF011122CC372400209307C457DC
:10315400884706CE26CA4AC801E90545F2406244BA
:10316400D2444249056182801304C4571C5CF5D7DC
:10317400585C65D77000854582971844B247E30EC2
:10318400F7FC4A249305E004B724002097D0FB1FE2
:10319400E78000EB1387845208D39384845255DD6F
:1031A40052249305F00F014997D0FB1FE780A01D1F
:1031B4007C249050634DF900328597D0FB1FE78043
:1031C40060F3014523A0040223A2040241BF4E245C
:1031D4000844585CB3872503898105093E9508C2D4
:1031E4000297F9B7411122C4372400209307C4572A
:1031F4009C4726C206C6B72400204AC09384845242
:1032040091EB885039EDB240224492440249014581
:10321400410182801304C4575C5CE5D79C5089EB60
:103224004A249305E00497D0FB1FE78060E188D02F
:10323400885061D952249305F00F014997D0FB1FA0
:10324400E78060147C249050E35DF9FA4E241C441A
:1032540033852503898105093E955C5C08C2829704
:10326400D5B797D0FB1FE780E0E823A0040223A290
:10327400040251BF01114EC6B72900209387C957D4
:103284009C4726CA4AC852C406CE22CC56C25AC04B
:103294002A8AAE8432896388071E9389C95703A793
:1032A4008903630207121307F01F6360A712372410
:1032B400002013078452832A07021304845263985C
:1032C4000A0803D5C9009565938515E097D0FB1FBF
:1032D400E78000D708D02A867DC583D5C90083A797
:1032E400890303A589008981829783A78900832A9A
:1032F40004025CD089476314FA08C1476395F40C4F
:1033040083D5C9009147938505FCB3C5F5028A05A9
:10331400D695B8219307A0056313F70A9E216390FD
:10332400470B4A852686910597D0FB1FE7806002EC
:103334001C505685639157130145F2406244D244B0
:103344004249B249224A924A024B0561828058504E
:10335400E382E7FA03D5C9009565938525E097D004
:10336400FB1FE780E0CDAA8A39CD83D5C9002A8620
:1033740083A7890303A5890089818297A5BF8D4707
:10338400631BFA00C1476390F40483D5C900938595
:1033940045FDF199B5BF91476318FA00639544035D
:1033A40083D5C900A115F5B793070010631DFA0072
:1033B400A14763EA970083D5C900C115D9BF1C5042
:1033C4005685639D570B29458DBF9D6A637A5509C0
:1033D400930A05E01947B3CAEA0203D7C900372B99
:1033E4000020B38AEA02BE9A93078B52DC53130B74
:1033F4008B526395570103240B021DE003D5C900CA
:103404009305E00497D0FB1FE78080C32A8445DD41
:1034140083D5C90083A789032A8689815685829723
:1034240091451307A005898193972500A297B4239A
:103434006391E6049623639C460385058A052686E4
:10344400A2954A8597D0FB1FE780A0F083270B0243
:10345400E38487EE228597D0FB1FE780A0C9E9BDEE
:1034640021677917E361A7F6B30A5541BDB7AC33B9
:103474005DBF83270B02E38887F4228597D0FB1F67
:10348400E78040C789B7B727002083A5875485DD27
:1034940091479306A0058983139727002E9730231D
:1034A400E313D6F21223631C460185078A07268696
:1034B400BE954A8597D0FB1FE780A0E9B5BD3C3394
:1034C400D9BFB72700209387C757984721C3D85F30
:1034D40015CF8546631CD502411122C43724002030
:1034E40013048452105006C611CECE274850898149
:1034F4000297085097D0FB1FE780C0BF2320040227
:1035040023220402B24022444101828082800111BC
:1035140022CC372400209307C45756C283AA8700BD
:1035240026CA4AC84EC606CE52C42A89AE84B28977
:103534001304C457638D0A1A5C5C99EB2945F24065
:103544006244D2444249B249224A924A0561828085
:103554001C5CEDD79307F01F63E1A70C372A00200A
:1035640093078A529C53130A8A52A9C70844832793
:103574004A02639CA70489476313F906C147E39F82
:10358400F4FA4A249147130505FC3345F5029317D1
:10359400250003250A022686CE853E959307A005BD
:1035A4003CA123102501110597D0FB1FE78060DAA9
:1035B400014571B74A249305E00497D0FB1FE780C7
:1035C40020A82320AA025DF195BF4E241C5C03268B
:1035D4000A02898182971C442322FA0269BF8D471B
:1035E400631BF900C147E39BF4F44A24130545FD2A
:1035F4009377C5FF79BF91476317F900E39024F5EA
:103604004A242115F5B793070010E319F9F2A147ED
:10361400E3E697F24A244115E1BF9D676375F50619
:10362400930705E01947B3C7E7025A24372A002055
:10363400B387E702BE9A93078A529C53130A8A52AD
:10364400B1CB83274A026392570703250A029146A6
:103654001308A0059305F00F93D7260013972700AE
:103664002A9730236312060783580700303363997F
:103674002805B306D64063C4960485078A072686C0
:10368400CE853E9515B721677917E369A7EAB30795
:10369400F54061BF4A249305E00497D0FB1FE780FF
:1036A400209A2320AA0251FD51BD4E241C5C0326FE
:1036B4000A0289815685829723225A0379B70EA379
:1036C40093160601C18249BF5224B3859600910521
:1036D400130606FCE3F4C5E613863400719A11065A
:1036E400B296230107012310270134B379B7372A8F
:1036F400002093078A529C53130A8A5295CF0325BC
:103704000A0291461308A0059305F00F93D72600EB
:10371400139727002A973023631006058358070060
:10372400303363972801B306D640E3D896F40EA34A
:1037340093160601C182D9BF68245E249305E00470
:103744003305F5024205418197D0FB1FE780408F86
:103754002320AA024DF5DDB352246C24B385C5029F
:10376400338696001106E3EBC5DCBDB701458280C4
:103774009C211CA1BE211CB1BE21A1833CA1DC2142
:103784003CB111458280B727002023AA0738B72708
:10379400002023A8073882800DCD411126C206C619
:1037A40022C4AA8401458DC12E84B78506002285D2
:1037B4004146938505C997D0FB1FE78080B99C20BB
:1037C40005455CA49C305CB4B2402244924441015F
:1037D400828001458280011122CC26CA06CE094787
:1037E400AA8432846381E50441468147639BC50012
:1037F400638FE6006397B6000DA841478147638E47
:10380400E600F2406244D2443E85056182808A85A6
:103814002285593741468A8519A88A85B53F41468C
:103824008A85228531A0E39AB6FC2E86A285268558
:1038340097D0FB1FE78080BAAA87E1B7B72700209B
:1038440023A8A7388280B727002023AAA73882801C
:10385400011122CC622106CE26CA4AC84EC62DCCFE
:1038640083298500AE842A8803C909008147131778
:103874008901618763550702B147054563F78704EA
:103884005114420403552800418033878900A286DD
:103894004E868545EFC0006EB337A00085077D14C2
:1038A40013556900420405891379F90341809CA0EA
:1038B40088B023812401C2A0014719C013871900CD
:1038C40098C409476383E7000145F2406244D24447
:1038D4004249B249056182800545C5BFC167F917F0
:1038E400630AF502D94763F7B702011122CC2EC649
:1038F40006CE2A84EF80100EB2456368B500228597
:103904006244F24005616F90D07BF2406244054509
:103914000561828005458280C167F9176314F5004B
:103924006F80500B411106C6EF90306811E15D4580
:10393400B240410182809147639DF5001C211CA285
:103944003C211831A207D98F3EA23C3101455CA22B
:103954008280114582804111814522C426C206C657
:10396400AA84BD232A8409E9B727002083A707393D
:1039740081C7F945268582972285B2402244924424
:103984004101828039714ED656D25AD006DE22DCED
:1039940026DA4AD852D4AA8A2E8BB28951EB36C67B
:1039A400A53F9145EF80B011AA844D493DC5B2466B
:1039B400054A238034010544630A0B00B685138548
:1039C4001400029B0505131405014180E20993D9F3
:1039D400894163D30902C1455685EF90706B6549EF
:1039E40015E533868400A2852685EFC0A01A2A89AE
:1039F40011ED31044204418091472C085685FC8422
:103A040026CEE085EF9010032A8901C963070A00D6
:103A1400268597C0FB1FE780E06DF25062544A850B
:103A2400D2544259B259225A925A025B216182807D
:103A3400BA84014ABDBF011122CC26CA4AC84EC667
:103A440006CE2A893284B689353FAA840DE1B72788
:103A5400002083A7473981CF05476317E40003C4D7
:103A6400090005041374F40FA2854A858297F24075
:103A7400624426854249D244B24905618280AE86B9
:103A8400B735040001470546938545776DB79E21F8
:103A94001CA19E21A1831CB1094582809E211CA1E9
:103AA4009E21A1831CB1BE213CA1BE21A1833CB1B6
:103AB400114582809E211CA19E21A1831CB1BE219F
:103AC4003CA1BE21A1833CB1DC315CA1FC215CB1F1
:103AD4008A2519054205418182809E211CA19E21CF
:103AE400A1831CB1094582809E211CA19E21A18332
:103AF4001CB1BE213CA1BE21A1833CB111458280F1
:103B0400CA2106054205418182809E211CA19E2175
:103B1400A1831CB1AA2109054205418182809E210D
:103B24001CA19E21A1831CB1BE213CA1BE21A18365
:103B34003CB1CA2111054205418182809C211CA10E
:103B4400054582809E21411122C406C61CA19E21E6
:103B54002E841105A183A30EF5FEBE219505230F26
:103B6400F5FE83D7D5FFA183A30FF5FE03C6F5FFAA
:103B740097C0FB1FE780E07D4820B2402244110536
:103B84004101828089476399F5001C311821014560
:103B9400A207D98F1EA28280114582809A21D9471B
:103BA40063FDE702011122CC06CE2EC62A84EF80E3
:103BB4006062B2469E22636DF50022856244F24043
:103BC400B745040001470946938525A905615DBBF6
:103BD400F24062440945056182800945828091472B
:103BE40085C51421FD15C2058547C1816390F60280
:103BF40013D725008D89914781E9914711C70505A0
:103C040034A21AA248C281473E858280094791475F
:103C1400E39CE6FEC94733D7F502B3F5F502E1BFED
:103C2400AE86B745040001471146938505AA99BBA2
:103C340093F7350089EB8981914781C50EA248C26B
:103C440081473E8582809147EDBFD8218947631C17
:103C5400F702011122CC2A84C84506CEAE8601475C
:103C640009C92EC69D4597C0FB1FE7806054B24624
:103C74002A8722856244F240B74504001946938599
:103C840085AB056101B30945828099E111458280C4
:103C94001C2105473EA2E37BF7FEFD1593F5F50FC6
:103CA40033D7F502B387E702E392F5FE050548C270
:103CB4001AA201458280DC210947AE866385E700AC
:103CC40041476399E700B7450400014721469385BE
:103CD40085B44DB9094582800EA291E1014548C2DF
:103CE40001458280AE86B745040001472946938585
:103CF400E5AD49B90EA291E1014548C20145828072
:103D0400AE86B7450400014731469385C5AE9DB9DB
:103D14000EA291E1014548C201458280DA2185471E
:103D240063FFE702011122CC2A84884106CE1DC11B
:103D34002EC6854597C0FB1FE78080472A872285CA
:103D44006244B246F240B74504003946938545B013
:103D540005610DB9F2406244094505618280094557
:103D64008280914785C518218D46914763F0E6020C
:103D7400FD15C205C181B3C6E5023308D7026397B6
:103D84000501050516A23AA248C281473E858280F4
:103D9400DC210947AE866385E70041476399E70064
:103DA400B745040001474146938585B4E1BE094502
:103DB4008280B335B000139525008280011122CC96
:103DC40026CA06CE98258547AA842E844946631FB1
:103DD400F70099363E2049151306200963C8A70049
:103DE400F2406244D2440945056182801834854713
:103DF4006314F70013660604484001C98D4532C6B2
:103E040097C0FB1FE780C03A3246A2866244F24064
:103E14002A872685D244B74504009385E5B0056119
:103E240095B68D4763F8B7021C311821F115A20726
:103E3400D98F1EA23C313821C205A207C181D98F76
:103E44003EA24EA289C5110508C6014582802324DD
:103E54000600E5BF11458280011122CC2A848845E1
:103E640006CEAE8601C92EC6954597C0FB1FE780D6
:103E74002034B2462A8722856244F240B7450400C2
:103E84005946938525B20561F5BCB335B000139549
:103E940025008280AE86B7450400014761469385BC
:103EA40005B4CDB48547114563F0D7021C320C220A
:103EB400A207CD8F1EA39387E6FF3EA3894763869F
:103EC400F600090650C30145828023220700E5BF9E
:103ED400014781467946814575B49E211CA19E21E6
:103EE400A1831CB109458280BC2105471CA18A21FC
:103EF4006397E7000A050505420541818280C947A9
:103F04003305F502CDBF8A210A054205418182802D
:103F1400BE211CA18A21BE213305F50205054205F7
:103F2400418182808A2182808A2182808A218280C2
:103F3400BE211CA18A21BE213305F50205054205D7
:103F4400418182809E211CA19E21A1831CB1BE219E
:103F54003CA1BE21A1833CB1CA2111054205418186
:103F640082809E211CA19E21A1831CB1AA21090546
:103F7400420541818280894711456398F6001C32CD
:103F840014220145A207D58F1EA382809A21D94706
:103F9400AE8663F9E700B745040001470D469385F3
:103FA400E5ED51BC094582801145639DA6001C3294
:103FB40014220145A207D58F1EA33C323422A20746
:103FC400D58F3EA38280BC210547FD1793F7F70FD9
:103FD4006361F7049E2195CF011122CC2A84C84144
:103FE40006CE1DC12EC6894597C0FB1FE780401C25
:103FF4002A8722856244B246F240B745040015463A
:104004009385C5EE056105BCF2406244094505612E
:104014008280094582809547114563F1D706411195
:1040240022C426C24AC006C61C32BA841822A20779
:104034003284D98F9EA03C32382293054400A207D3
:10404400D98FBEA08947DCA0094613855400368960
:1040540097C0FB1FE780E02F9307A9FF9EA4994711
:10406400631BF90023A60400B2402244924402498F
:104074000145410182801904C0C4FDB782809E219C
:1040840095CF011122CC2A84C84106CE1DC12EC66B
:10409400854597C0FB1FE780A0112A8722856244CB
:1040A400B246F240B74504001D469385A5F005616C
:1040B40059B2F24062440945056182800945828013
:1040C4009947639DF6028947411106C65CA31C32D9
:1040D4001422B285A207D58F1EA33C32342250236A
:1040E400A207D58F130557003EA3910597C0FB1F68
:1040F400E7802026B240014541018280D147114525
:104104006394F600C147C9B782809E219DCF0111F7
:1041140022CC2A84C84106CE05C52EC6894597C03F
:10412400FB1FE780E0082A8722856244B246F240FA
:10413400B74504002546938545F105616FF0BF8FAF
:10414400F2406244094505618280094582808947BD
:1041540011456398F6001C3214220145A207D58F3D
:104164001EA38280011122CC2A84C84106CEAE86C9
:10417400014709C92EC6854597C0FB1FE780400348
:10418400B2462A8722856244F240B74504002D4690
:10419400938585F205616FF01F8A1145639DA60022
:1041A4001C3214220145A207D58F1EA33C323422AF
:1041B400A207D58F3EA38280011122CC2A84C84154
:1041C40006CEAE8601C92EC6854597C0FB1FE78083
:1041D40020FEB2462A8722856244F240B745040095
:1041E40035469385C5F205616FF0FF8493F7160099
:1041F400114581EB89476386F600858256A310C377
:1042040001458280011122CC2A84C84106CE05C50D
:104214002EC6854597C0FB1FE78080F92A87228533
:104224006244B246F240B74504003D46938505F327
:1042340005616FF05F80F240624409450561828048
:104244009E219DCF011122CC2A84C84106CE05C5EA
:104254002EC6894597C0FB1FE78080F52A872285F3
:104264006244B246F240B74504004546938545F39F
:1042740005616FF04FFCF24062440945056182809C
:1042840009458280854763F6D70208A70CB71C321C
:104294000C22A207CD8F1EA39387E6FF3EA3894776
:1042A4006386F600090650C3014582802322070075
:1042B400E5BF11458280014781464D4681456FF037
:1042C4008FF78D47114563F4D7021C320C22A207E5
:1042D400CD8F1EA33C322C22A207CD8F3EA3938701
:1042E400C6FF5EA36386A600110610C7014582803F
:1042F40023240700E5BF011122CC2A84884506CE79
:10430400AE8601C92EC6954597C0FB1FE78040EADB
:10431400B2462A8722856244F240B74504005D46CE
:10432400938585F405616FF00FF185471145639519
:10433400F6001C2201451CA3828001478146654684
:1043440081456FF04FEF011122CC2A84C84106CE7B
:10435400AE86014709C92EC68D4597C0FB1FE7806D
:1043640020E5B2462A8722856244F240B74504001C
:104374006D46938565F605616FF0CFE0011122CC9F
:104384002A84C84106CEAE86014709C92EC68D458A
:1043940097C0FB1FE780C0E1B2462A8722856244AA
:1043A400F240B74504007546938565F605616FF0E4
:1043B4006FDD011106CE2EC6EF90403B19C5B24504
:1043C400F2402A2105616FC0F020F24049450561A1
:1043D4008280B7270020A380073CB72700202380D2
:1043E400073CB727002023A4073AB727002023A6B9
:1043F400073AB727002023A8073AB727002023AAA3
:10440400073AB727002023A2073AB727002023A0A2
:10441400073AB72700202394075E13064038938792
:10442400875EB2B371761307400B130606B8BAA3BE
:10443400D2B311671D46930600059305000A1305C0
:10444400007DDAA3F2B341470546130810F8BAA772
:10445400DAA7BAABDAABFAAB9AAF9AB723960703EB
:10446400EEA38EA7F6A796ABAAAF239E0700239FC1
:10447400070023900702B2B7239707021308F00737
:10448400239807022392E7042393E704239FE70476
:104494002390E7062391E7062392E706239907036F
:1044A4001307C01CD2BBF2BB239C0702239D070247
:1044B400239E0702239F0702239007042391C70426
:1044C40023940704239507042396C7042397D7044A
:1044D4002398D7042399A704239A0704239B07044A
:1044E400239C0704239DD704239ED7042393A70664
:1044F4002394070623950706239607062397B706F2
:104504002398B70623990706239AE7067D57239B2A
:104514000706239CE7068280011126CAAA84214546
:1045240022CC06CE2E8432C636C43AC2EFE0CF8700
:104534000DC5A24612473246930700FD1CA19947B8
:1045440004B13CA174A178B152A1AA852285624428
:10455400F240D24405616FE04F89F2406244D24494
:1045640005618280B727002023A4A73A8280B72759
:10457400002023A6A73A8280B727002023A8A73AC1
:104584008280B727002023AAA73A8280011122CC77
:104594004AC806CE26CA2A890144B304890063683E
:1045A400B400F2406244D2444249056182802EC67E
:1045B400EFE0EF9A93170501C183A183B2459CA054
:1045C4009307140093F7F70F850463F8B700CA97AD
:1045D400090488A31374F40FC9B73E84C9B7411101
:1045E40022C4372400201304845C6A20C16706C6F1
:1045F400FD17630EF500B727002003C6076FB72524
:1046040000209385853BEF809078FD577EA0B240D3
:1046140022444101828009C925151375F50F13350C
:10462400850E134515008280014582802390050084
:10463400C1C6797122D426D24ECE52CC5AC806D6DF
:104644004AD056CA5EC63684328AAE892A8B8144E1
:1046540063F24407B30794009C23138914004209AE
:10466400939A070193DA0A011359090163840A042E
:10467400CA976341FA04B307240183CB07005E851C
:10468400593F0DC99387FAFF2390F90063906B0398
:10469400130519002295B250225492540259F2493A
:1046A400624AD24A424BB24B45618280D694C204DC
:1046B400C18079BF0145C5B701458280011122CC73
:1046C4003724002026CA4AC84EC69307845C06CE07
:1046D4002E89D0CB8CCBC8C7AA8441469305F00F52
:1046E4004A8597C0FB1FE780A0D385491304845CE7
:1046F400631935030848C145513D41469305F00F00
:10470400268597C0FB1FE780A0D1054963152503C3
:1047140048446244F240D2444249B249C145056129
:10472400B5B5414681454A8597C0FB1FE78040CF18
:10473400E31535FDC1B741468145268597C0FB1F6A
:10474400E78000CEE30625FDF2406244D2444249AC
:10475400B24905618280411122C43724002026C257
:104764004AC0AE842A891306000281451305845C7D
:1047740006C697C0FB1FE78000C19307845CA38132
:104784002701B7270020238A976EEFC0E06685478C
:1047940019C1814749452304F45CB2402244924440
:1047A400024941018280814791C909C9854763193A
:1047B400F500DC3193E707FCDCB185473E85828058
:1047C40089476316F500DC3193F7F703F5B70D4716
:1047D4008547E315E5FED8311377F703136707041C
:1047E400D8B1E9BF814785C119CDD8319306000CF2
:1047F40085471377070C6308D700930600048D4799
:104804006303D70089473E858280411122C4005D3D
:1048140006C626C21DC8AA84085009C597C0FB1F36
:10482400E780408D485009C597C0FB1FE780808C06
:10483400085409C597C0FB1FE780C08B228597C029
:10484400FB1FE780208B23AC0402B2402244924435
:104854004101828019E9B727002083C7A75C91C76B
:10486400372500201305853982803725002013055C
:10487400055E8280B727002003C5A75C8280B72726
:10488400002003A5475D8280B727002003A5875D2C
:104894008280B727002083A7C75D88438280B7271B
:1048A40000209387875CD44B9842050798C2A833AD
:1048B4009307F00F6305F50091656FE0AF80828088
:1048C400011122CC06CE2E8432C6EF80D07A9147D5
:1048D400B2456310F502B727002083A7473B95C371
:1048E40003A30700630F030022856244F2400561BD
:1048F4000283B727002083A7C73A81C703A34700D1
:10490400D5B7F2406244054505618280011122CC8D
:104914002A844A2106CE26CA4AC84EC697C0FB1F1F
:10492400E78000E82DC52A8904218349C500F13DAB
:104934004A85EF9010464A20EF80306F37290020D7
:104944001309093C83470900B9C763969704B7273D
:10495400002083C5173C2685A93C19E123000900E2
:104964004A20EF8050719147631CF500B72700205F
:104974009387875C5620FA236394E6007D57FAA355
:10498400F2406244D2444249B2490561828081497D
:104994009304F00F65B79307F00FE383F4FC7420DE
:1049A400522028204E87A685853E5DBF79715EC65C
:1049B400AA8B2E8552CC56CA5AC806D622D426D2E1
:1049C4004AD04ECEAE8A328B368A97C0FB1FE78020
:1049D40020DD6DC1045D2A89F1CC9C50614599C3E9
:1049E400130540039C5481C7510542054181630569
:1049F4000A00710542054181DC5081C75905420511
:104A04004181EFD07FBA2A8455C56146814597C05C
:104A1400FB1FE7804097B727002083C98761639411
:104A2400090083490900930700FD1CA0A947A300BE
:104A340074013CA0230364018C5023125401130518
:104A4400840191C908C47146930A440397C0FB1FAB
:104A5400E780209056858C5491C948C45146930AE6
:104A6400450197C0FB1FE780C08E5685630C0A0082
:104A740008C87146D285930AC50197C0FB1FE78019
:104A8400408D5685CC5099C548C8594697C0FB1FE0
:104A9400E780208CA2854E85EFD03FB52254B250DA
:104AA4009254F249624AD24A424BB24B4A85025965
:104AB4004561A1BBB250225492540259F249624A50
:104AC400D24A424BB24B4561828001114EC6AA893B
:104AD4002E854AC806CE22CC26CA2E8997C0FB1F33
:104AE400E78000CC29C5B727002083C4876191E003
:104AF40004211945EFD05FAB2A8415C981451946B5
:104B040097C0FB1FE7802088930700FD1CA0B947CE
:104B1400A30034013CA023122401A2856244F24084
:104B24004249B2492685D24405616FD01FACF24098
:104B34006244D2444249B2490561828039715ECEF1
:104B4400AA8B2E8526DA4ED652D456D25AD006DEF9
:104B540022DC4AD8AE84328BB68A3A8ABE8942C6EF
:104B640097C0FB1FE780C0C329C92A894145EFD0FC
:104B7400BFA32A8439C14146814597C0FB1FE78002
:104B84008080B727002003C5876119E10345090028
:104B9400930700FD1CA0BD473CA0B247A3007401CD
:104BA40046A023046401A304540123054401A3057E
:104BB40034015CC4A285EFD05FA3F2506254D25496
:104BC4004259B259225A925A025BF24B21618280B5
:104BD400797126D2AA8439454AD04ECE06D622D43B
:104BE4002EC6B2893689EFD03F9C0DCDB2459307CE
:104BF400000D1EA1B1472A844EA13CA1CE85190502
:104C0400194697B0FB1FE780C07423062401A285D0
:104C14002254B2500259F24913F5F40F92544561EB
:104C24006FD0BF9CB250225492540259F24945614C
:104C34008280411126C2B72400209384845CB8305A
:104C440006C622C44AC09307F00F6306F7042A89F4
:104C54003945EFD07F952A841DCD930700FDB725F4
:104C640000201CA1A3002501230105009385055EF6
:104C74000D05194697B0FB1FE780A06D9E24A28501
:104C8400A8303EA49C305CA42244B2409244024921
:104C940041016FD09F95B2402244924402494101A0
:104CA400828001115AC02A8B314526CA4EC652C48D
:104CB40056C206CE22CC4AC8AE84B28A368ABA8993
:104CC400EFD09F8E2DCD2A84268597C0FB1FE780C9
:104CD40020AD09C55825A1476311F704B727002063
:104CE40003C9B75C930700FD1CA09D47A3006401A2
:104CF4003CA046A02313540123144401231534017A
:104D0400A2856244F240D244B249224A924A024BFA
:104D14004A85424905616FD05F8DB727002003C9DA
:104D2400576FE3110BFCB727002083A707489C4764
:104D3400D5DBCE865286D6852685829765B7F24026
:104D44006244D2444249B249224A924A024B056122
:104D54008280011122CC2A84214506CE2EC6EFD0B2
:104D6400BF8415C5B245930700FD1CA1C5473CA1EE
:104D7400BC313CB1DE215EA1FC217CA1FC31AA85C1
:104D84007CB122856244F24005616FD01F86F240F7
:104D9400624405618280397162CC2A8C594526DAD5
:104DA4004AD84ED652D456D25AD05ECE06DE22DC33
:104DB400AE8432C636C4BA8B3E8BC28A468A8359C5
:104DC400010403494104EFD02FFE2DC53246930759
:104DD40000FDA2461CA1954730B1A30085013CA16A
:104DE4002A8419461105A9C2B68597B0FB1FE7802E
:104DF400405623066401230A240123157401231752
:104E040054012318440123193401A2856254F25039
:104E14004259B259225A925A025BF24B624C26858D
:104E2400D25421616FD06FFC814597B0FB1FE7809E
:104E34008055C1B7F2506254D2544259B259225AE1
:104E4400925A025BF24B624C21618280411122C46E
:104E5400372400201304845C3C2006C626C285CB7C
:104E6400B7240020AA8519461385843997B0FB1FFF
:104E7400E780204E282093858439EFF0DF92224486
:104E8400B24013858439924441016FB0B077B24087
:104E940022449244014541018280411126C2B72433
:104EA40000209387845C06C622C44AC0B8339307A3
:104EB400F00F9384845C630FF7022A892945EFD0AD
:104EC400AFEE2A8405C9930700FD1CA1A147A300E6
:104ED40025013CA1BC20B7250020938585393CB130
:104EE4001946110597B0FB1FE780A046A830A2859C
:104EF400EFD0AFEFB8208D476311F702B72700203A
:104F040083A7073B99CB03A38700630803002244CC
:104F1400B2409244024941010283B2402244924485
:104F2400024941018280797122D406D626D24AD020
:104F34004ECE52CC56CA09444DCD2A890A21AE8997
:104F4400514497C0FB1FE780A085AA845DC1372721
:104F540000209307076FDC238546BA8AFD1793F771
:104F6400F70F494463F7F6085825A1476314F7007F
:104F7400639109089C5C4544ADEF91659385457147
:104F84001305C00297B0FB1FE780800B88DC2A8AD8
:104F94004D4425C11306C002814597B0FB1FE7802D
:104FA400803E8357090093064A0036852311FA0090
:104FB40071469305490036C697B0FB1FE7806039F8
:104FC40089472300FA00C824B2460356090083C562
:104FD4000A6F611513351500EFA0D06C2A8463861F
:104FE4000900CE852685EF90500401C42685EFF094
:104FF400DF812285B250225492540259F249624A06
:10500400D24A45618280B727002083C7476F05478E
:10501400FD1793F7F70F6377F708894749C601111E
:1050240022CC26CA4AC84EC652C406CEAA89368A9B
:10503400B2842E8997B0FB1FE78080762A84D147FB
:1050440031C5485509C597B0FB1FE780A00AF14553
:10505400268597B0FB1FE780603548D4CD471DC532
:10506400542421478147639DE600630B0A00382DD1
:10507400122993062501AA854E85EF80D078AA8748
:105084005820630E09001367670058A0F240624479
:10509400D2444249B249224A3E850561828013675F
:1050A4004700E5B7C9473E8582809307B00363EAAA
:1050B400A700B72700209387875E06053E950A213F
:1050C400828041657D158280011122CC2A842E853F
:1050D40026CA06CEAE8497B0FB1FE780606C0DCD68
:1050E400B7470F009387F723094563E28702814599
:1050F4000A85414697B0FB1FE780E028A6856080BB
:105104000A8541804081A3010100EFA0B03BF24039
:105114006244D244056182804945D5BFB727002047
:105124002389A76E82806FA05050797152CC2A8A4D
:10513400328522D426D24AD04ECE56CA5AC85EC62A
:1051440006D662C4AE8BB28A368BBA843E89C289D3
:10515400468497B0FB1FE780A0640DC92A8C6313B3
:105164000A0213774B005C2115CF93E72701230232
:10517400FC008DEC631C0902639A090205E8ED9BAF
:105184002302FC00832B8C0363910B08B25022543E
:1051940092540259F249624AD24A424BB24B224CCF
:1051A40045618280F59B93E70701D1B793E74700F8
:1051B4002302FC0001CC1C484146A2852324FC02A6
:1051C40013058C0197B0FB1FE780A01863930B02B3
:1051D400D5D80325CC0209C597B0FB1FE78080F121
:1051E400F145268597B0FB1FE780401C2326AC02BF
:1051F40051BFE30909F80325CC0209C597B0FB1F89
:10520400E78040EFF1454A85F1BF9DC483A70B02B7
:1052140099EB916593853571714597B0FB1FE780D4
:1052240020E223A0AB0203A50B0219C57146A68593
:1052340097B0FB1FE780E0116388090283A74B0244
:1052440099EB916593852571594597B0FB1FE780CC
:1052540020DF23A2AB0203A54B0219C55946CE8514
:1052640097B0FB1FE780E00E1DC483A78B0299EB68
:10527400916593851571514597B0FB1FE78040DC1C
:1052840023A4AB0203A58B0219C55146A28597B08E
:10529400FB1FE780000C2254B2509254F249B24BE7
:1052A400224CCA865A860259424BD6855285D24A26
:1052B400624A45616FF08FEF011126CA52C406CECF
:1052C40022CC4AC84EC62A8AAE8497B0FB1FE78018
:1052D400204D25C1AA893945EFD00FAD2A8431C9A3
:1052E400B727002003C987616314090003C90900B3
:1052F4009307000D1EA0AD473CA0938569001305DC
:105304003400194697B0FB1FE780A00493F71400FC
:10531400858085885CA444B423154401A285624435
:10532400F240D244B249224A4A85424905616FD0CB
:10533400CFABF2406244D2444249B249224A0561A9
:105344008280411122C4372400201304043A084007
:1053540006C619C597B0FB1FE780C0D923200400F7
:10536400B240224441018280011106CE22CC26CAD9
:105374004AC82EC697B0FB1FE780804221CDB245B4
:10538400B727002003C987610CD5AA8463140900D8
:10539400034905004145EFD02FA12A8405CD930789
:1053A400000D1EA1A5473CA1DC30938564001105C6
:1053B400A30FF5FE194697B0FB1FE78080F99C54B4
:1053C400A285F2405CC46244D2444A8542490561E4
:1053D4006FD0AFA1F2406244D24442490561828059
:1053E400797122D406D62A842EC697B0FB1FE78093
:1053F400203B1DC954251147AA8749456392E602FB
:105404009C5FB24591C3EC2B0808EF90004BB7F6B4
:1054140004009386C616100889452285EF80F04360
:10542400B2502254456182805145DDBFB727002028
:1054340083C7476F0547FD1793F7F70F637AF704A0
:10544400894721CA411122C426C24AC006C6B28471
:105454002E8997B0FB1FE780A0342A84D14715C159
:10546400630609005C2193E727005CA14146A685F9
:105474001305840197B0FB1FE780A0ED9C481CD462
:105484008147B2402244924402493E8541018280D0
:10549400C9473E858280797122D406D62A842EC6D5
:1054A40097B0FB1FE780C02F01CDB2452285230EA4
:1054B400B1006C08EF900034B250225445618280F0
:1054C4005145DDBF6F800030C1671387E7FF6395E7
:1054D400E502B727002083A7C73A91EB49458280AC
:1054E4004945B2402244924402494101828003A3C7
:1054F4000700E30503FE0283411122C426C24AC009
:1055040006C6FD172A892E84B284639AF502B7274A
:10551400002083A7C73A91CF9C4381CF829711E99A
:10552400B72700202380273DB7270020A380973C7E
:105534004DBFA6854A85EFE0DFE745F5D5B72E8553
:1055440097B0FB1FE780C02541DD1C210D45E39A80
:1055540027F922852244B2400249A685924441019A
:105564006FB050071307B003636FA7044111C167FD
:1055740022C406C626C2FD172A8409456381F502A2
:10558400C547AE846312F4022E85EFB0300C372584
:1055940000201305855E06042A9406A00145B24046
:1055A40022449244410182809307A0036316F400CD
:1055B4002E85EFB0F002E1BFE31BE4FC13F5F50F19
:1055C400EFB05002E9B709458280011106CE2AC620
:1055D400EFE03FE0EF20804FEF107001EF10522A10
:1055E400B72700209387875C130700F0BAA32382B0
:1055F4000700B727002032451387076FFD5634A3F1
:10560400F2402388A76E954505616F60F045597196
:1056140093970501CAD086D6A2D4A6D2CECED2CC38
:10562400D6CADAC8DEC6E2C4E6C2EAC06EDEC18704
:105634002E8963D10750B724002003C5046FB7290E
:105644000020372B002097B0FB1FE78080BB2A8403
:1056540026CEB72A0020372C00209384895CB72CEF
:1056640000201DE021653345A900B6502654965408
:105674000659F649664AD64A464BB64B264C964CD2
:10568400064DF25D656182801C201307200A639B2E
:10569400E70003CA34002A20C1652286FD15EFF015
:1056A4002FA2A1AA72471307076F034A2700130703
:1056B4001009639FE7141C3015476391E7022285A4
:1056C400EFF0CFA42285EFC07FEBF24703C5076F4D
:1056D40097B0FB1FE780E0B22A8461B73947639132
:1056E400E7164A208567A5076315F5040C4483CBA8
:1056F4000500639D0B00850591C9372500201946D7
:105704001305055E97B0FB1FE780A0C403C7895C3F
:105714008547631FF70E63880B002384095C5E854D
:10572400EFF02FD145B789472384F95CEFB0406D82
:1057340051BF8967138727006318E504832B84000E
:1057440063880B0C83C70B0099EB83C72B0003C73B
:105754001B00A207D98F9EA483C73B009CB003C73C
:10576400895C89476316F70A83C70B0091C72384B2
:10577400095C03C50B006DB78C308A248D472384E4
:10578400F95CEF603031F5B795076317F5001C44F9
:105794008823EFF08FF03DB7F9771387A7FF2A9797
:1057A40042074183914663F1E6049387A7FCAA97D5
:1057B400C207C18371476371F70289671387B70012
:1057C4006310E50483A78A3AE38E07EE9C43A2851F
:1057D400E38A07EE829715A0370700181307F770BE
:1057E400B357F700858BB9C783270B3BE38C07ECD2
:1057F4009C43E38907EC22858297E31505EC09A80D
:105804001387C700631FE5001C449C23E38C07EA4D
:105814009307F00FE308FAEAA2855285EFC0FFDC94
:105824006DB5B9076318F50083A7CC3AE38C07E894
:10583400DC4371BF896793871704E305F5F8C9BF93
:105844003D476397E7044A2089671387D700E30D30
:10585400E5FC13879701E309E5FCCD07E31AF5FAA4
:10586400FA20C167FD17631DF70083A7CC3AE38BC9
:1058740007E4DC43E38807E40965A2854D0599BF85
:10588400B727002083A7473BE38E07E29C43DDB79D
:105894001307E003E39EE7F63C200547639AE70C11
:1058A4007C2037270020930D073ADDE783A70D00FE
:1058B400CDC383CB0700214A6830130D8400EA85E9
:1058C400EFE05FF25C2868B0835804010358E400F9
:1058D4005A202A8628303EC23E28EA86DE853EC00B
:1058E400D287EFF04FCB3C3095E3DD47835804017A
:1058F4000358E40074304E203EC23E283EC06A87FE
:10590400D28705465E85EF80E00D28B083A70D00A1
:1059140081C71145EFF0FFA2930B0C3C03C50B00AC
:10592400E30205DAB727002083C5173CEFE07FA820
:10593400E30A05D83430930710036389F600522034
:1059440083C50B0052873685EFE01FBD23000C3C56
:1059540095BB83CB340085B783270B3B83CB3400C3
:10596400114AB9DBDC43A9DB814501458297A9B71C
:1059740029476396E7087C2037270020930D073AD0
:10598400BDE383A70D00A9CF83CB0700214A68306C
:10599400130D8400937725001376150089E7EA85B3
:1059A400EFE05FE42A868347040270B08358C401A1
:1059B4000358A4015A2028303EC27E2CEA86DE8594
:1059C4003EC0D287EFF02FBD3C30A9F3DD478358AA
:1059D400C4010358A40174304E203EC27E2C39BF4A
:1059E40083CB340065B783270B3B83CB3400114A48
:1059F400D9DFDC43C9DF81450145829749BF0947A7
:105A0400639CE70083A78A3AE38E07CADC43E38BEF
:105A140007CA228582977DB12D476398E70083A743
:105A24008A3AE38107CA9C47DDB70D476396E700CE
:105A340022868D454A20A5B11947639CE704930546
:105A4400610213051031EF10026C2C101305203184
:105A5400EF10626B7220835781024A2063E7C7000C
:105A640016240357610263F7E60093050002EFB0C2
:105A7400E03C89B96373E6007AA063F3D7001EA4FF
:105A84005A24362412246E2001488147EFB0C03ACC
:105A940015B91D47E38EE7D631476395E7002286A3
:105AA400B14549BF35476398E70083A78A3AE38B3A
:105AB40007C0DC47A9BF39476396E7002285EF009A
:105AC400E07909B13D476398E70083A78A3AE38BFD
:105AD40007BE9C4B2DBF41476396E7002285EF002C
:105AE4001001CDB645476396E7000145EF00B00FBE
:105AF400D1BE4947639DE70083270B3BE38A07D068
:105B0400DC43E38707D081450545829711B34D47B0
:105B1400639CE70083270B3BE38C07CEDC43E389DC
:105B240007CEA2850945D5B76147E393E7CE228620
:105B3400E14509B793F7150089CFB727002083A75C
:105B4400873A89C7DC4399C30145829713451900F5
:105B540029BE93F7250091CFB727002083A7073BE1
:105B640091C7DC4381C781450545829713452900C8
:105B7400EDBC93F745000145E38907AEB727002044
:105B840083A7473A372400201304845C89CF8547D0
:105B94005CA0B727002083A7073B91C7DC4381C7DC
:105BA40081450545829748442C10EF90B079281020
:105BB400EFF0CFA9B727002083D7A76081CF1306C2
:105BC40000643386C702B727002003C5076F9145D9
:105BD400EFC0BFDE1345490049BC011122CC2A8421
:105BE400554506CE26CAEFF04FCCAA8413054002D1
:105BF400EFF0AFCB2AC613055002EFF00FCBAA8605
:105C0400228562443246F240B3359000D2440561A5
:105C14006FB02029797122D406D68D472E84631A59
:105C2400F500BA259625F2212830CE21EFF06F87B2
:105C340001A889671387D700631EE502A82119E527
:105C44008547B25022543E8545618280B7270020A3
:105C540083A6073AF5D6B0328C22814802C202C02C
:105C64000148814701479106EFF0EF920545EFF0B7
:105C74004FEDF9B71387E700E304E5FC1387370119
:105C84006319E500A8214DDD0147814601468145A0
:105C940071BFE507E306F5FAB1476319F500B727C5
:105CA400002003C5B75CEFF0CF8A59BF41677D1769
:105CB4008147E318E5F8D831C947E313F7F8F62527
:105CC400D2250A24AE25EFB0C0222DC15D45EFF0E8
:105CD400CFBD3335A000E8844C202A203008EF7073
:105CE400700CBC84B1FF6C0813051031EF10A24195
:105CF4009305E10113052031EF10E240BC861A241C
:105D04006373F7001EA4BC873A2463F3E7003EA440
:105D14000E243E2463F3B7002EA47A24562432249E
:105D24002A2001488147EFB0200F19BF8547FC8422
:105D340065B7B72700201387076F74331307F00F75
:105D4400638DE6063DC9411122C426C24AC006C677
:105D5400AA8428251389076F4105EFC0FF842A848C
:105D640039C59307000D1EA1D9473CA1DE205EA1D1
:105D7400FC207CA1FC307CB19C241CA59C341CB56B
:105D8400B02430A515C2CC44410548C497A0FB1FDC
:105D9400E780205CA285224403457900B240924406
:105DA400024941016FC07F8423260500E5B7B24054
:105DB400224492440249410182808280C167138750
:105DC400E7FF639DE500B727002083A7073A95C343
:105DD4009C230D47639DA7006FB04003FD174947FF
:105DE4006397F500B727002083A7073AF5F73A85AC
:105DF40082804947EDBF397122DC06DE26DA4AD8B3
:105E04004ED652D456D25AD05ECE62CC1821854793
:105E14002A846309F7041025930695009305E1008D
:105E24000545EFE0BF80814711C11C2114201147B3
:105E34006382E604372700200327473C8D46183346
:105E4400630AD70285CB1DC70DE10145F2506254A8
:105E5400D2544259B259225A925A025BF24B624CC2
:105E64002161828081470145D1B78546631ED708E9
:105E74008D8BE1DF0830130A2400D285EFE09F9672
:105E84003729002008B08327893C2A8B1309893CD1
:105E94008149C1C3B72A00209304F00F83C72A3C69
:105EA400138C2A3C63FAF90203250900939B4900E9
:105EB4005E951C21638197061C31639E6705194614
:105EC400D285090597A0FB1FE780405129C583248B
:105ED40009001820DE94B1E414209147E387F6F614
:105EE40083270900BDD303460C0001479305F00F37
:105EF400E30DE6F4BE84C10703C507FF6301B50CD7
:105F040005071377F70FEDB78946E310D7F4858BB0
:105F14008DB7054525BF850993F9F90F41B788C4A5
:105F2400C9A891476312F706C8440DC11C24102167
:105F3400630EF604182091476318F706C84419C580
:105F440097A0FB1FE780001B23A60400082491658B
:105F54009385E571050597A0FB1FE780600E0DC1D1
:105F640018209147631BF704C8C41C2493059400AC
:105F74000505A30FF5FE102497A0FB1FE780603DE5
:105F840008243335A000D9B5884445B79305940057
:105F9400050597A0FB1FE78060448547E31CF5F8DF
:105FA4005545EFF08F90ADA088444DD197A0FB1FCD
:105FB400E780401423A4040051BF88C47DB794A093
:105FC4001C30D285138524009CB0194697A0FB1F72
:105FD400E7802038082491659385F571050597A01D
:105FE400FB1FE780E0050DC118209147E319F7F284
:105FF400C8C41C24930594000505A30FF5FE1024C2
:1060040097A0FB1FE780E0341C2481F708207D154E
:106014001335150025BD397122DC26DA4ED652D44B
:1060240006DE4AD856D25AD05ECE2A849309250079
:106034000831CE85B7240020EFE0CFFA08B093846E
:10604400443C9C400D472A8A9C336390E7043729DB
:1060540000208327893C814A1309893C6381071402
:10606400B72B002003C72B3C93970A01C183032558
:106074000900138B2B3C63E0E70C83460B000327DA
:10608400090081471306F00FBDAAF1D3144C7038F0
:106094009305E1000545EFE06FD915C998408546A1
:1060A4001C2118336310D7028D8BD5F30145F250B0
:1060B4006254D2544259B259225A925A025BF24B58
:1060C400216182808946858BE313D7F8F9BF1C20B0
:1060D40011476385E7002D47E39AE7FCB7240020C6
:1060E40083A7843C9384843CF1D3814A0149B72B30
:1060F400002005A88840139B4A001C205A951821AB
:106104006310F7021C31639D47011946CE850905CA
:1061140097A0FB1FE780802C01C503A904005A99AE
:10612400850A03C72B3C93970A01C183E3E4E7FC88
:10613400E31F09F0A5BF93944A00269518211C205B
:106144006318F70A1C316395470B1946CE85090578
:1061540097A0FB1FE780802841CD832709001147C2
:10616400BE941C206385E7002D47639CE70203AAC5
:10617400C4007C3803460A006308F602528597A0DF
:10618400FB1FE78020F7683891659385E571050565
:1061940097A0FB1FE780C0EA1DE5E38004EE0545F8
:1061A40039B703AA8400F1B70C4C13051A0097A061
:1061B400FB1FE780A0228547E312F5FC5545EFE07D
:1061C400DFEE61DDE5B51C2011476385E7002D474F
:1061D400639EE700C8C47C380505A30FF5FE70383C
:1061E4000C4C97A0FB1FE780C01645BF88C4E5B7D9
:1061F400850A8DBDBA844107834507FF638AC500BC
:106204008507C207C183E3E7D7FE51BF88C425A829
:106214001C20CE85138524009CA01C3019469CB0FC
:1062240097A0FB1FE780E012683891659385F571AC
:10623400050597A0FB1FE780A0E035D11820914702
:10624400E316F7FCC8C47C380505A30FF5FE7038C7
:106254000C4C97A0FB1FE780C00F91B701114AC8EF
:10626400372900201309096F0347790006CE22CC91
:1062740026CA4EC69307F00F6304F70635C1AA84F5
:106284005145EFC06FB22A8421CD9307000D1EA1A2
:10629400D5473CA1BC3093898400CE853CB1DE2037
:1062A4005EA1FC207CA1E830EFE0CFD368B0CE85BE
:1062B40013058400194697A0FB1FE7808009FC247E
:1062C400A285034579007CA49E281EA8BC283CA86E
:1062D4006244F240D2444249B24905616FC0EFB012
:1062E400F2406244D2444249B2490561828041117C
:1062F40022C4372400201304046F783006C626C253
:106304009307F00F6307F7020DC5AA841945EFC080
:10631400AFA9AA8519CD9307000D1EA1DD473CA1A5
:10632400DE20B24092445EA16830224441016FC035
:10633400CFABB2402244924441018280011122CC6D
:10634400372400208327843C06CE26CA4AC84EC67A
:1063540052C48DC31304843C2E8AAA840149084084
:1063640063129902630C0A0497A0FB1FE78080D88C
:1063740023200400F2406244D2444249B249224AF2
:106384000561828093194900B3073501884709C91B
:1063940097A0FB1FE78000D61C40CE9723A40700DC
:1063A4001C40CE97C84709C997A0FB1FE78080D43B
:1063B4001C40BE9923A60900050955B745DD13966F
:1063C4004400814597A0FB1FE780E0FB1440814710
:1063D4007D5613F7F70FE37F97F813974700369727
:1063E40010A38507FDB779714AD037290020832788
:1063F400493C06D622D426D24ECE52CC56CA5AC8CE
:106404005EC6C5C3B72A0020AA891309493C938AEA
:106414002A3C014405E1B727002083A6873C99CA9A
:1064240003C60A002A8481479305F00F13F7F70F78
:106434006364C708131534002105EFC0EF96AA84DE
:1064440001E92145EFC04F96AA8421C10144CD49F9
:10645400930700FD9CA08547A3803401BCA0A0B095
:1064640045C49389840023A23401014A372B0020B8
:10647400930BF00F83C70A006373FA0029E883279C
:106484000900A6858823EFC04F9603C50A008145FD
:1064940075350325090097A0FB1FE780A0C52320BD
:1064A4000900B250225492540259F249624AD24A23
:1064B400424BB24B456182801397470036971823AD
:1064C4006305B70005041374F40F850785B78327A4
:1064D4008B3C93154A00BE959C21638377032380EC
:1064E400F9009C31138529007D14A380F900194615
:1064F40089051374F40F97A0FB1FE78080E5A109B9
:10650400050A137AFA0FBDB723A204008DBFB7277B
:10651400002083A7473CB1C7411122C406C62A8480
:106524001DE10945EFE07FB82A8601C9B72700209D
:1065340003C5076F8545EFC04FC80545EFF0EFE988
:106544002A84054519C8B727002003C5076F854568
:10655400EFC0AFE52285413D0545B24022444101EB
:1065640082800145828089679386B7006315D500D0
:106574009C45882369BF9386C7006317D5009C4553
:106584008546882319C9FDB793861704E302D5FE0F
:10659400938727048146E304F5FE3685828079716A
:1065A40006D622D426D24AD04ECE52CC56CA5AC887
:1065B4005EC662C469C53C31AA8985C7404115C01D
:1065C4005945EFE09FAE931A850193DA8A41014958
:1065D400372A0020130B000DB54B83C73900636EB7
:1065E400F900B250225492540259F249624AD24AF2
:1065F400424BB24B224C456182808307840263C7BD
:10660400570783274A3C130C4A3CADC32285EFF05D
:106614008FFE29CD08245105EFB01FF9AA8439C58E
:1066240023106501230175011C20194693052400DC
:106634003CB18307840215057CA11C30A30FF5FE31
:1066440097A0FB1FE780E0D01024D0A415C61385C3
:10665400440188C89305940097A0FB1FE78060CF8E
:1066640083270C00A6858823EFB03FF8050913049F
:1066740094021379F90F95B723A80400D5B7B72767
:10668400002083A7473CB1DFB93B2254B250925457
:106694000259F249624AD24A424BB24B224C01455A
:1066A40045616FF08FD3797106D622D426D24AD0B1
:1066B4004ECE52CC56CA5AC85EC662C44DCD3C3189
:1066C400AA8985C7444195C05945EFE01F9E931A96
:1066D400850193DA8A410149372B0020930B00FD91
:1066E400414C83C73900636EF900B250225492546E
:1066F4000259F249624AD24A424BB24B224C45619A
:1067040082808387F40063C35707130A4B3C8327B3
:106714000A00A9CF5145EFB03FE92A8421C92300DB
:106724007501A3000500230185019C20194693856A
:1067340024003CB18387F40015055CB59C30A30F9D
:10674400F5FE97A0FB1FE780C0C09C2493859400AE
:106754001305C4003CB4194697A0FB1FE78060BF33
:1067640083270A00A2858823EFB03FE80509C10406
:106774001379F90FBDB7B727002083A7473CB5D7D6
:106784009D312254B25092540259F249624AD24A7B
:10679400424BB24B224C014545616FF00FC45D7111
:1067A40086C6A2C4A6C2CAC04EDE52DC56DA5AD885
:1067B4005ED662D466D26AD06ECE630D05203C31BB
:1067C400AA8485CB832A450063850A025945EFE0F4
:1067D400DF8D93178501E1873EC6014437290020E8
:1067E4009309000D354C9D4C294D994DB83063618A
:1067F400E402B640264496440649F259625AD25AF3
:10680400425BB25B225C925C025DF24D616182800C
:106814000387CA00B247634CF7100327493C130AA5
:10682400493C6306071083CB0A0013F70B014DCBD9
:106834004D47639AEB0623800A005685EFF0AFFDBF
:106844007DC503C70A00914703C57A0163E6E70ED5
:106854005105EFB07FD52A8B79C923103501230167
:10686400850183C60A00194693852A0034B18386BC
:10687400CA00150574A183C61A00A30FD5FE97A0FC
:10688400FB1FE78000AD03C67A012306CB0041CA93
:1068940013054B012328AB0083A58A0197A0FB1F96
:1068A400E78020ABBDA855476398EB0005472380DC
:1068B400EA00A38B0A0051B77547E389EBFE494709
:1068C4006396EB0009472380EA0085BF4147639440
:1068D400EB000D47CDBF6D47E391EBF61147E5B7EC
:1068E40013F78B0019C32D47F9BF13F61B0013F7D9
:1068F4004B0011C619C315475DBF2147E9B713F60D
:106904002B0019C619C325475DB72380BA0135B7D3
:1069140001C72380AA0115B723809A0139BF232810
:106924000B0083260A00DA858822EFB01FCC050409
:10693400F10A1374F40F5DBD13050502EFB0DFC651
:106944002A8B75D5C9473CA12310350103C60A001B
:1069540093F60B0693852A00D18E34B183C61A00B0
:1069640019461505A30FD5FE97A0FB1FE780609E6F
:1069740083C68A00194693851A01A305DB0083C6E2
:106984009A0013053B012306DB0083C6AA00A30675
:10699400DB0083C6BA002307DB008386CA00A30793
:1069A400DB0083D6EA002318DB0083C60A0123092F
:1069B400DB0097A0FB1FE780C09903C67A01A30CF4
:1069C400CB0011C613050B02232EAB00F1B5232E09
:1069D4000B0081BFB727002083A7473CE38B07E068
:1069E400EFF07FA02644B64096440649F259625A15
:1069F400D25A425BB25B225C925C025DF24D01456D
:106A040061616FF08F9DB727002083A7473C9DC726
:106A140098238D476315A702B727002003C5076F86
:106A24004111854506C6EFC04F9813050003EFF0EA
:106A34009F9BB240014541016FF02F9AC9473E85A3
:106A4400828079714AD0372900201309493C832771
:106A5400090006D622D426D24ECE6393070E3724DD
:106A640000201304046F5820C947298B55C391652E
:106A7400AA849385D57111459790FB1FE780405CEC
:106A84002320A900CD4749C59C201146A6857CB08A
:106A940097A0FB1FE780E08B930531001305F041BD
:106AA400EFE0D15CB72700209387875CA02398810F
:106AB4003334800011C3090413051002EFE0EFDE44
:106AC4001379F50F9377190093794900B1CB1545E4
:106AD400EFE0AFDDBC20688419455C82EFE0EFDCB9
:106AE4006886638E0900BC2013052002DC82EFE077
:106AF400CFDB688513053002EFE02FDB6887AC300D
:106B04007C00380054004A862285EFA04039AA87C9
:106B1400B250225492540259F2493E854561828012
:106B2400E147E38709FEBC20130520025C82EFE005
:106B3400CFD7688413053002EFE02FD76886C1B73A
:106B4400C547F9B7757126C3B724002022C506C707
:106B54004AC1CEDED2DC9384046FDC204944A18B8D
:106B640063810724B727002083A7473C4144639AE5
:106B74000722AA89EFE01F959C2455446373F522EC
:106B8400B724002083A7043A26894544639B072041
:106B940091659385C57129459790FB1FE780404A0D
:106BA40023A0A43A4D44630E051E2946CE85979032
:106BB400FB1FE780007A13056002EFE00FCF137A22
:106BC400F50F93775A006144638D071C1306000385
:106BD400814588009790FB1FE780E07A93771A003D
:106BE40093692A000144B9CF4145EFE00FCC231645
:106BF400A1043D45EFE06FCB2319A1043545EFE037
:106C0400CFCA231CA1043945EFE02FCA231FA104D6
:106C14002145EFE08FC92312A1061D45EFE0EFC81F
:106C240083A7043A2315A1069C33638507182D45D1
:106C3400EFE0AFC72310A1043145EFE00FC72313E2
:106C4400A10405441305C002EFE02FC6981893175A
:106C54001400BA97239EA7FC1305B002EFE0EFC41B
:106C6400930484009C188604BE942399A4FC130501
:106C74009002EFE08FC3239CA4FC1305A002EFE075
:106C8400CFC2239FA4FC13058002EFE00FC293043C
:106C940004019C188604BE94239AA4FC1305700274
:106CA400EFE0AFC0239DA4FC137A4A0063040A08F2
:106CB40013056003EFE06FBF05049C1893141400E0
:106CC400BE94239EA4FC13055003EFE00FBE130AE9
:106CD40084009C18060A3E9A2319AAFC1305300363
:106CE400EFE0AFBC231CAAFC13054003EFE0EFBBAD
:106CF400231FAAFC1305E002EFE02FBB41049C18FC
:106D040006043E94231AA4FC1305D002EFE0EFB965
:106D14008327093A231DA4FC9C33C5C7130510031C
:106D2400EFE0AFB82398A4FC13052003EFE0EFB71E
:106D3400239BA4FC8327093AA83393854700EFD00B
:106D44009FA62AD69305F1031305F041EFE0113213
:106D5400B72700209387875CAC230347F10332569F
:106D6400B335B00011C389058326093AFC009308A2
:106D7400A106A8223EC8930721053EC6BC083EC40E
:106D84009307E1053EC2DC103EC0130861049C0079
:106D94004E879106EFA020112A8401C50D45EFE02E
:106DA4004FDA2285BA402A449A440A49F659665A67
:106DB400496182802545EFE04FAF2310A1042945A6
:106DC400ADBD1305F002EFE04FAE2398A4FC13050C
:106DD4000003A9BFB727002083C7476F0145A18BD4
:106DE40089C737250020130585676FD04FF8B7276B
:106DF40000207D572381073CB7270020A38BE76E33
:106E0400B727002023A4073C37670400B7270020D6
:106E14001307A75623A2073CB727002023A2E7663F
:106E240037670400938747661307275AD8C3376721
:106E340004001307A76A98C7376704001307277A63
:106E4400D8C737670400130767D398CB37670400A4
:106E5400B7270020130707DC23ACE7663767040075
:106E640093878767130787C1D8C38280411122C4DF
:106E7400372400201304243C26C2AA840820854514
:106E840006C6EFF0AFCBB727002083C7476FA98BA7
:106E9400BDC73725002004A013054566B72400208C
:106EA400EFD04FEC9384843C9C4099C74D45B2404D
:106EB4002244924441018280082019E10145C5BF62
:106EC40091659385B57112059790FB1FE780401774
:106ED40088C069DD1020814512069790FB1FE7806A
:106EE400804A142090408147FD5513F7F70FE3774C
:106EF400D7FC1397470032970CA38507FDB70145CC
:106F040023000400EFD00FE655BF411122C43724FB
:106F140000200325443A06C619C59790FB1FE78055
:106F2400601D2322043AB2402244410182800111AF
:106F34001305700306CEEFE04F972AC613058003AE
:106F4400EFE0AF962AC413059003EFE00F962246B4
:106F5400B245F240AA86054505616F909073597158
:106F6400A2D4372400208327443A86D6A6D2CAD096
:106F7400CECED2CCD6CADAC805456389070C9305B0
:106F8400F1041305F041EFE0710E9305F1041305CC
:106F9400F041EFE0B10DB72700209387875CBC2355
:106FA4000347F104B337F00011C389070327443AB8
:106FB4003EDE283393054700EFD0EFFE0327443A23
:106FC4002ADC0D452C232EDAEFE02F8E2AD811452A
:106FD400EFE0AF8D0324443A2AD665453824034BA9
:106FE400B4003AD4EFE06F8CAA846945EFE0EF8BEC
:106FF4002A897145EFE06F8BAA896D45EFE0EF8A2E
:107004002A8A7545EFE06F8AAA8A7945EFE0EF890D
:10701400E2046258F2572257B2564256D2551375BB
:10702400F50F93FAFA0F137AFA0F93F9F90F13790C
:10703400F90FE1842ACC56CA52C84EC64AC426C2A5
:107044005AC0930844000545EF901061B650265489
:1070540096540659F649664AD64A464B656182807B
:10706400011122CC06CE26CA8D472E84631AF5045C
:10707400B831B7240020E947CA219384845C63159E
:10708400F700FE206389A7049790FB1FE7804071F7
:1070940019C17E207EA53A24162472204E20283061
:1070A400EFD03FC05A20FE206309F7008547F24025
:1070B4006244D2443E8505618280FD57FEA0FDB73F
:1070C4008967CD07631CF500BC2131476385E70060
:1070D4004547E39DE7FCEFD08FD0C9BFB1476319A3
:1070E400F500B727002003C5576FEFD09FC67DBFBB
:1070F40041677D178147E31CE5FAD4314947E3989A
:10710400E6FACC212A20300023140100EF608044E9
:1071140071BF411122C4372400208347C43C26C2D6
:107124004AC006C61307E00FAA842E896380E704C9
:107134001307F00F1304C43C6382E7021145EFB058
:10714400AFC609CD930700FD1CA18947A300250103
:107154003CA124B1AA850820EFB02FC9F9571CA07F
:10716400B240224492440249410182801145EFB069
:10717400AFC37DD5930700FD1CA189473CA1A300A3
:10718400250124B12244B7270020B2409244024989
:10719400AA8503C5D73C41016FB02FC579714AD088
:1071A400372900208327493A22D406D626D24ECE48
:1071B40052CC56CA4544C5EBB72400209387046FCC
:1071C400DC234944958BC5C3B72700202E8A9165DB
:1071D400A386A73CAA899385757131459790FB1FB7
:1071E400E78000E62322A93A4D4435CD230035013A
:1071F400A30005002946D28509059790FB1FE78067
:1072040040158327493A9146B82363E9E60835E7F0
:107214004D47B8A3B82313670701B8A393057100BA
:107224001305F041EFE081649C83F1E7B727002068
:1072340003C7A75C8D476310F70CEFD04FE42C0015
:10724400EF8050102800EFD07FC04545EFD0FFE518
:10725400014411C9130600643306C50203C5046F53
:107264009145EFB08FF52285B250225492540259C1
:10727400F249624AD24A4561828085466314D70046
:10728400754741BF89466314D700494759B78D46AE
:107294006314D7004147B5BF5547A5BF9546CA8A71
:1072A400630DD70099466315D7000947B8A331A0E9
:1072B4001D466312C702238107006545EFD0FFDE38
:1072C4009307F007E30CF5F403A74A3A3C2393E74A
:1072D40007043CA3A1B721466314C7000547F9B7C7
:1072E40025466314C700B4A3C9BFA9460544E31CDB
:1072F400D7F6114765BFEFF09FC62A842DD5EFF06E
:10730400DFC095B7011126CAB724002083A7443AE9
:1073140022CC06CE4AC84944B9C39C230D44639089
:10732400A704372900200345096F8945EFB0FF877B
:107334000345096FB727002091452397073CEFB019
:10734400DF8683A7443A0147814680B31306F100E0
:10735400854785450145DC87EF9070332A84228573
:10736400F2406244D244424905618280011106CE52
:1073740022CC26CA4AC88547631AF506372400205A
:107384001304E43C1E20B9C7372700200347C75C19
:1073940031E31307B003636BF702B724002003C57E
:1073A400046F8945EFB07F8012209307006403C502
:1073B400046F3306F6028945EFB02FE02310040072
:1073C400F2406244D244424905618280938747FC7B
:1073D4001EA0FDB7B727002083A7473AF5D3624420
:1073E400F240D24442498823056129BFB7240020D2
:1073F40083A7443AF1D7372700201309076F83473F
:107404004900918BD5DF8947631EF5042D452EC6AF
:10741400EFB08F992A844DD5B245930700FD1CA186
:10742400E547A30005003CA1BC3115051946230F0F
:10743400F5FEDC219505A30FF5FE9790FB1FE78071
:1074440040F1034559009307F00F6315F50083A736
:10745400443A8823A2856244F240D24442490561F9
:107464006FB0AF980345076F8945EFB00FF46244DE
:10747400F240D2444249B72700202397073C0561D4
:107484006FF0BFA8B727002083C7476F958B89CFBC
:10749400B727002083A7C73D91CBB7270020054716
:1074A4002388E73C6FF0BFA849458280414582802C
:1074B400B7270020854501452388073C6F90F01DC0
:1074C400B727002083C7476F958B638C07129307F8
:1074D400C01C63FCC70009458280F2406244D24468
:1074E4004249B249094505618280B727002083A734
:1074F400473A63880710B72700209387C73C03C81F
:1075040007001307E00F631EE80E011122CC4AC8DE
:1075140006CE26CA4EC688A31305860042053689C0
:1075240032844181A5C99165938565719790FB1F4C
:10753400E78000B1AA8955D1B724002003A5843D72
:107544009384843D09C59790FB1FE780A0BA1385F7
:10755400890023A0A9002286814523A034019790A5
:10756400FB1FE78040E29C402286CA8588439790AF
:10757400FB1FE78000DE9C40A286F240C2A3624467
:10758400D2444249B249984305468D4505450561B3
:107594006F90700F9165938555719790FB1FE780ED
:1075A40020AAAA891DD9B724002003A5043E9384E8
:1075B400043E09C59790FB1FE780C0B3138589007B
:1075C40023A0A9002286814523A034019790FB1FA4
:1075D400E78060DB9C402286CA8588439790FB1F26
:1075E400E78020D79C40A286F240C2A36244D244E2
:1075F4004249B249984305468D45054505616F905A
:10760400D008494582809307C01C63FCA700094544
:1076140082800945F2406244D2444249B24905613C
:10762400828055C9011122CC2A8421054EC6420507
:10763400AE8991659385657141814AC806CE26CA93
:107644009790FB1FE780C09F2A8961D5B72400204B
:1076540003A5843D9384843D09C59790FB1FE7806F
:1076640060A9130589002320A9002286814523A04F
:1076740024019790FB1FE78000D19C402286CE8591
:1076840088439790FB1FE780C0CC9C40C2A3B727D8
:10769400002083A7473A85CFB727002083C7476FC9
:1076A400958B85CBB727002083A7873D91CF98433F
:1076B400D6236244F240D2444249B24905468D453C
:1076C400054505616F90207C01478146DDB7014582
:1076D40091B7494581B7B727002083A7473A8DC79B
:1076E400B727002083C7476F958B8DC3B72700202A
:1076F40083A7873D99C79843D62305468D450545FD
:10770400D1B701478146D5BF014582804945828072
:107714009307C01C63FCA700094582800945F24019
:107724006244D2444249B2490561828055C901117B
:1077340022CC2A8421054EC64205AE8991659385E3
:10774400557141814AC806CE26CA9790FB1FE7802F
:10775400208F2A8961D5B724002003A5043E938491
:10776400043E09C59790FB1FE780C0981305890064
:107774002320A9002286814523A024019790FB1F82
:10778400E78060C09C402286CE8588439790FB1F8B
:10779400E78020BC9C40C2A3B727002083A7473AB8
:1077A40085CFB727002083C7476F958B85CBB72735
:1077B400002083A7073E91CF9843D6236244F2402A
:1077C400D2444249B24905468D45054505616F904D
:1077D400C06B01478146DDB7014591B7494581B783
:1077E400B727002083A7473A8DC7B727002083C750
:1077F400476F958B8DC3B727002083A7073E99C792
:107804009843D62305468D450545D1B701478146A2
:10781400D5BF01458280494582809307C01C63F42B
:10782400A70009458280797122D44ECE06D626D28D
:107834004AD0AE892A8425C12105916542059385E4
:10784400757141819780FB1FE780807F2A890945F4
:1078540063040908B724002003A5C43D9384C43DF0
:1078640009C59790FB1FE780E08813058900232052
:10787400A9002286814523A024019790FB1FE7805D
:1078840080B09C402286CE8588439790FB1FE7807A
:1078940040AC9C40C2A3B727002083A7473A0145C8
:1078A40085CFB727002083C7476F4945958B8DC780
:1078B4006C001305D030EFF01105B247014593F782
:1078C400070F99CBB727002083A7C73D8D450545F2
:1078D4009443D223EF90205CB25022549254025924
:1078E400F24945618280B727002083A7873D89CF6D
:1078F400D2238C43411106C69790FB1FE78060A5F5
:10790400B24001454101828009458280B7270020A9
:1079140083A7873D85C7B727002003A7073E89476C
:1079240019CF52230C43411106C69790FB1FE780E1
:1079340040A2B24081473E854101828089473E850D
:107944008280B727002083A7873D85C7B7270020FB
:1079540003A7C73D894719CF52230C43411106C6DB
:107964009790FB1FE780E09EB24081473E8541012E
:10797400828089473E858280797106D622D426D2B8
:107984004AD04ECE52CC8D4763FCA7008944B250F6
:107994002254268502599254F249624A45618280F2
:1079A400372900200347895CC144E312F7FE93079B
:1079B400F5FF9309895C93F7F70F8546AE842A8413
:1079C40003CA29001309895C63EAF6068DE1994527
:1079D4002800EFC0BFBBB729002003C5096F91453C
:1079E40023018900EFB06F9C35E481444DB71946FB
:1079F400814528009790FB1FE780E09819462C00EA
:107A040026859790FB1FE780609D49F119469305F1
:107A1400F00F28009790FB1FE780E09619462C0092
:107A240026859790FB1FE780609B2DF11946A6855C
:107A340028009790FB1FE780C09171BFE31DE5F814
:107A440003A5C9002C00EF80E00FAA8449D5238147
:107A5400490135BF2800EFD06FBFAA8405ED930517
:107A640071001305F041EFD071608483BDFC8D4734
:107A7400E31DF4F64545EFD04FE325D9B777180059
:107A8400938707A03306F50203C5096F9145EFB04C
:107A94002F8CF5BD23014901DDBDB727002083C725
:107AA400476F918B8DC33725002041111305453D48
:107AB40006C6EFC01FADB240B72700207D572397FD
:107AC400E75C4101828001456FC0BFABB72700204E
:107AD4007D57A386E73CB727002079572386E73CE8
:107AE400B72700202388073CB72700202397073CAB
:107AF400B727002023AC073CB727002023A0073E6C
:107B0400B727002023AE073C37870400B72700209F
:107B140093874749130767CD98C337770400130742
:107B24000737D8C337770400130727F698C7377782
:107B34000400130727F3D8C7B777040037270020BA
:107B440093874706232AF73C8280411126C2B72433
:107B5400002083A7443A06C622C48DCB2A840D454F
:107B6400EFA09FA4AA8501CD930700FD1CA18D471A
:107B740000B13CA183A7443A8823EFA01FA719C4EE
:107B84002244B240924441016FF02FB8B2402244E3
:107B9400924441018280797152CC372A0020832794
:107BA4004A3A4AD006D622D426D24ECE56CA0149E3
:107BB400B1C303C91700B72400208547AA89938459
:107BC400845C6303F904DC2005498DE70D45EFA0CF
:107BD400BF9DAA8509CD930700FD1CA19147A30071
:107BE40035013CA183274A3A8823EFA01FA0EFF078
:107BF400CFB10549B25022544A8592540259F249F0
:107C0400624AD24A45618280B727002083A7873D14
:107C1400D28A85E30145EFD04FC92A8601CAB72726
:107C2400002003C5076F8945EFA03FD983A74A3ACF
:107C3400B1A09443D2239305E1000545EFC01F9FF3
:107C440071D91C21858BF9D70545EFD00FC6930751
:107C5400B0032A8463FEA702B727002003C5076F79
:107C64005D66130606708945EFA09FEEB7270020D6
:107C7400130444FC2397873C83274A3A094798B363
:107C8400DC2081C723820400B5B74E857D3D9DB7B6
:107C9400130600643306C50251B7411122C42A8475
:107CA4000D4506C6EFA05F900DC1930700FD1CA112
:107CB400CD473CA100B12244B7270020B240AA8599
:107CC40003C5D73C41016FA05F92B24022444101F9
:107CD40082805A210111896706CE22CC26CA938656
:107CE40067006318D7001C4501458C23EFF06FC271
:107CF4001DA8938687006316D7001C4505458C2371
:107D0400F5B7938697006312D702B727002083A79D
:107D1400473A01449DC31845082359E1054798B3E0
:107D24000545EF90600E054409A89386A700631CDF
:107D3400D7001C45882385352A842285F240624475
:107D4400D2440561828093866703E30ED7F8938655
:107D54007703E304D7FA938687036315D704B7241C
:107D6400002083A7443A0144E9DB1C4588230DE93C
:107D740005447D454085EFD04FB368861305000266
:107D8400EFD0AFB283A7443AC8851307B10080B3DC
:107D940074001306A10085450545EF90400F61B7B7
:107DA4006D3351B793869703E305D7F89386E703BA
:107DB4006316D7001C4509458C230DBF9387F70331
:107DC400631BF7021C45882335E96C001305D0308A
:107DD400EFF06133B247414793F7070FE385E7F4C8
:107DE4009305B10013056031EFF0E13188858545D5
:107DF400EF90A00A0DBF8967938707040144E31E2F
:107E0400F7F21C458423B727002083C7073D268546
:107E140095E70D45EFA04FF9AA850544E30F05F05A
:107E2400930700FD1CA1D14704B13CA1B727002052
:107E340083A7473A8823EFA04FFB01B7B93DE5B5C7
:107E4400B727002083C7476F411106C6958B99CB8E
:107E54003725002013054549EFC00FF24D45B240C8
:107E6400410182800145EFC02FF10145CDBF98212A
:107E7400937625009377D70F99C293672700131839
:107E840085011358884113F7F7076354080013E773
:107E94000708937685009377770F99C293678700D5
:107EA4001377050293F6F70D19C393E6070294A11D
:107EB400634508009377A50291C71C2293E7C70086
:107EC4001CA282807DFD1C22CD9BDDBF2D45631B42
:107ED400071003C8050009476312E810C8411831A8
:107EE40008212207498F42070D654187930825A081
:107EF4006303170B011122CC26CA4AC84EC606CE0C
:107F0400BE89B68432842E8963CEE800930705A027
:107F1400630AF702130515A0630CA7042390040059
:107F24000545B9A8930745A0630EF7066341F70614
:107F3400130565AAE314A7FE85479EA2DC459C238E
:107F44001CA235A8C8459780FB1FE780E044420582
:107F540041814E86637335012A8692A0420641828E
:107F64008325C90022859780FB1FE780803E01A8F6
:107F7400DC459E23239006011CA2A1831CB201456B
:107F8400F2406244D2444249B24905618280994731
:107F94009EA21946F1B785479EA2DC4501459C2364
:107FA4001CA28280DC4585CB21479AA29A2318A281
:107FB4009A23218318B2BA2338A2BA23218338B270
:107FC400DA2358A2DA23218358B2FA2378A2FE23B3
:107FD400A1837CB26DB72390060055B723900600A9
:107FE40005458280828083C8050089476395F8141B
:107FF400DC41797122D406D626D24AD04ECE52CC58
:1080040003C817009C232E8422083368F800420812
:108014008D6713580841138327A0630168102A8AC7
:108024003A89B684B285634C0301138707A0630AB7
:10803400E802938717A06309F808854711A81387F6
:1080440037A06308E80A138767AA8D47E317E8FE99
:10805400B250225492540259F249624A3E85456113
:108064008280484432C69780FB1FE780E032420595
:1080740041819D47E36E25FDB3099900D547B2457B
:1080840063D43701B547E9B748442686C2094A95FF
:108094009780FB1FE780E02B484493D90901594698
:1080A4003306364181454E959780FB1FE780A02D0E
:1080B400B727002083A7873E99E3814751BF9C439C
:1080C4008145E5DF528525A0AD47E31309F8E39B1D
:1080D40016FB1C3214225844A207D58F1EA3B727BF
:1080E400002083A7873EF1DB9C438545F9D782971F
:1080F400E9B7AD47E31E09F49947E395F6F8484418
:1081040019469780FB1FE780C024B727002083A768
:10811400873EC5D79C43D5D38D456DB7AD470DFB81
:108124008547E391F6F6182293070008E3E2E6F2A6
:10813400DC4598A359B785473E858280B727002040
:108144003727002023A4073EB72E00208947A30F1A
:10815400F734130FF7358147938E8E4A5947B38608
:10816400FE00238006008507E39BE7FEB725002079
:10817400B707A00093854536938707059CC1B707C9
:10818400E803DCC1B72700202383073E37860600B7
:10819400B7270020938747251306C630D0C3372E50
:1081A4000020378606000947130ECE351306062E27
:1081B4002300EE00D0C723AEE70123AEC703372365
:1081C4000020B728002037280020372500203786D4
:1081D4000600378F0600378E060085461306062FE5
:1081E400938808361303433E1308E8351305D53541
:1081F400130F8F2F130E8E2E2380E80098A398ABB5
:108204002380E7022388E7022380E7042300E800B1
:1082140094A723950700D0CB94AF239D070023A2F6
:10822400E7032384D7022395070223A6D703D0DBD1
:10823400238CD702239D070223A2C7052384D704D6
:10824400239507042310030014A123A6670423889D
:10825400E70423AE17052380E7062388E706238077
:10826400E708B7880600378706001307C72E9388E8
:10827400883023A2E708F0CB238CD704239D07047E
:1082840023A217072384D70623950706ECD7F0DB30
:10829400238CD706239D070623AE07072384D7081C
:1082A4002395070823A6A70837870400B7270020CB
:1082B4009387472E130707ED98C3378704001307E6
:1082C400A7FED8C323A407008280A54763ECA70CAC
:1082D400B7870600938707CA0A053E951C414111DA
:1082E40022C426C206C64AC0B2842E848287D547D9
:1082F400614563E5B70237290020594681451305D6
:10830400894A9780FB1FE78000082286A68513050B
:10831400894A9780FB1FE780C0030145B24022448D
:10832400924402494101828089476145E398F5FE00
:108334001A22B72700202392E73EC5B7A14761451B
:10834400E39EF5FC372500202146A6851305453616
:10835400EFF09107D9B785476145E391F5FCB7255F
:10836400002093854525D04D938585028820EFF024
:108374001FB065B785476145E392F5FAB72500203C
:1083840093854525D05D93858504CDB785476145A3
:10839400E396F5F81822B7270020A38EE734B5BF7B
:1083A4000945ADBF094582800547630CE5024111CB
:1083B400AA8706C62E8599CB1147638BE70225470A
:1083C4006380E7040945B24041018280B72500205B
:1083D40055469385854A9780FB1FE78080F70145C2
:1083E400DDB7B727002083D7473E01459EA1828091
:1083F400B7250020214693854536EFF0E17CC5B7CB
:10840400B727002083C7D7359CA1D1BFB727002049
:108414009387673E98230DE3054798A3058909CD03
:10842400B7260020372500209386462E4146A545D1
:10843400130545256F3020370145828001111388CB
:10844400F5FF06CE22CC26CA4AC84EC652C41378BB
:10845400F80FAD4563ED050BB78506000A08938553
:1084640085CC2E983E8A83270800BA893689B2843F
:1084740082878545EFC02FAE2A8419E1EFF05F9C17
:108484002285F2406244D2444249B249224A0561FB
:1084940082808945EFC02FAC2A847DF12685EFE0E8
:1084A400FF9CF9BF9145EFC00FAB2A8471F9528646
:1084B400CE854A85EFC08FA0EFF09F98EFF0EFDDF7
:1084C400EF70501C75BFA145EFC0EFA82A844DF989
:1084D4005286CE854A85EFC06F9E2685EFE01F99B0
:1084E400EFE05F8FEF70007C61BFB145EFC0AFA6D6
:1084F4002A8459F55286CE854A85EFC02F9C26855D
:10850400EFE0DF96EFE01F8DEF70C07975B7094497
:1085140085BF79714ECEAE896C0022D426D24AD062
:1085240006D62A89B284EF0010692A840DE1CE852B
:108534004A85EFB02FFB2A8419E93245B746040077
:1085440026879386C6CD2D468145EF10E00022850F
:10855400B250225492540259F24945618280797191
:108564004ECEAE896C0022D426D24AD006D62A89B1
:10857400B284EF0050642A840DE1CE854A85EFB0C1
:10858400FF832A8419E93245B74604002687938677
:1085940066DB4D468145EF00307C2285B250225483
:1085A40092540259F24945618280397126DAAE84C7
:1085B4004C0022DC4AD84ED652D406DEAA8932892F
:1085C400368AEF00505F2A8421E9A685630D0900ED
:1085D4009E202C007C84BE207C85930720307C86E2
:1085E400930780025C874E85EFB0EFEC2A840DE59B
:1085F4005946A6851305A100230421019780FB1F7A
:10860400E78020D51245B746040052879386E6C812
:1086140025462C00EF0050742285F2506254D25447
:108624004259B259225A21618280797126D2AE848C
:108634006C0022D44AD04ECE06D6AA893289EF00E5
:1086440090572A840DE1A6854E85EFB06FEB2A84FE
:1086540019E93245B74604004A87938686CF3546E2
:10866400A685EF00706F2285B250225492540259AD
:10867400F24945618280BD47638CF50663E9B70220
:10868400A5476387F50663EDB7009947638CF50446
:108694009D47638FF5049547638CF50401458280FB
:1086A400B5476387F50463E1B704AD47F5B7DD4724
:1086B400638EF50263EAB700C947638BF502D947B5
:1086C4006386F502C547C9BFF5476383F50263E4D2
:1086D400B700ED47D1B793072005638BF5009307E7
:1086E400200D5DBF48458280084182800845828014
:1086F400484182809307F00F630DF506011126CAE5
:10870400AA841305000222CC4AC84EC652C456C2DB
:1087140006CE3A89B689B28A2E8AEF90FFE82A8477
:108724004D450DC8930700FB1CA0A3005401231161
:1087340044012302340113058400614663050902E0
:10874400CA859780FB1FE780C0C0A2852685EF906D
:10875400DFE90145F2406244D2444249B249224A27
:10876400924A0561828081459780FB1FE780A0C102
:10877400E9BF09458280011122CC06CE2A844C86A9
:10878400D0869780FB1FE780A00105C15425B72739
:10879400002021479387076F639DE600E823780054
:1087A4009306E0070146A285B137F24062440561B1
:1087B400828078009306E0070146A285C833EDB7AE
:1087C400930700643306F6026FA04FAF15C5182156
:1087D40085469307270093F7F70F63FFF6004111CF
:1087E40022C42A843A8506C6EFA02FC1FD571CA0D7
:1087F400B24022444101828082801A219307000BF7
:108804006310F7025C214947639AE70018398547EA
:108814006398E7002A2185456F30701C6D47CDBFF2
:10882400828001116C846C0022CC26CA4AC806CE10
:108834002A89B6847085EF0010382A840DE12C0053
:108844004A85EFB0EFBD2A8419E93245B7460400E2
:108854002687938626BE15462C00EF00F04F22850E
:10886400F2406244D244424905618280797193079F
:1088740020306C8470857C862C009307800201462E
:1088840006D65C87EFF07FD2B25045618280C17713
:10889400797185073EC4894726D27C86AE849307C6
:1088A40080024C0022D44AD006D62A895C87EF0085
:1088B40090302A840DE12C004A85EFB06FCD2A84D4
:1088C40019E91245B74604002687938666D64546BD
:1088D4002C00EF0070482285B25022549254025961
:1088E40045618280B28605466FF03FCC797126D20D
:1088F400AE846C0022D44AD04ECE06D6AA893289E0
:10890400EF00702B2A840DE1A6854E85EFB00FA9E8
:108914002A8419E93245B74604004A87938686B803
:108924000D46A685EF0050432285B250225492543E
:108934000259F249456182807971930720206C8441
:1089440070857C862C0093078002014606D65C87DE
:10895400EFF0BFC5B25045618280011122CC06CE32
:108964002A842EC632C436C29780FB1FE78040E3B8
:1089740015C94825B7270020A1469387076F1247DA
:108984002246B245631BD500E823B2862E86A28513
:108994006244F24005616FF0FFD5B286C8332E867B
:1089A400A285FDB7F24062440545056182806FF0FF
:1089B4005FB66FF01FB66FF05FC76FF01FC77971B6
:1089C4004ECEAE896C0022D426D24AD006D62A894D
:1089D400B284EF00501E2A840DE1CE854A85EFB0A3
:1089E400EFB32A8419E93245B746040026879386F3
:1089F40046D13D468145EF0030362285B25022549F
:108A040092540259F24945618280B28601466FF060
:108A1400DFB9011122CC2E846C0026CA06CEAA84AA
:108A2400EF007019DD476309F500930710101EA4C9
:108A3400A2852685EFB08FB8F2406244D244056126
:108A44008280239405009E2599E36FF05FB1094568
:108A54008280C5BFB727002003C72742854763F834
:108A6400E702011122CC2E846C0026CA06CEAA8409
:108A7400EF00701401E9930700101EA4A285268557
:108A8400EFB0CFB3F2406244D244056182805945CD
:108A94008280B727002023A6A73E8280B727002024
:108AA40023A8A73E8280011122CC26CA06CE2A849E
:108AB400AE849780FB1FE780A0CEA6852285EFA019
:108AC400FFE105E9228564869780FB1FE78040CD9E
:108AD4000DC15425B727002021479387076F639F53
:108AE400E600E82378009306F0070146A285EFF03C
:108AF4007FC0F2406244D24405618280C833DDB74E
:108B0400011126CA06CEB68422CCDD4663E3B6083C
:108B1400D94663FFD50AA5466382D50A63EFB60436
:108B24009546638DD50899466388D50A05444168FE
:108B34007D18631706093AC6EFA01FDE3306854089
:108B4400324742064182420441803305C400420553
:108B5400BA85418132C6EF308076AA8751C199C067
:108B6400324692A0B30580406244F240D2443E852E
:108B740005611773FB1F6700A363C5466380D504B3
:108B8400C9460D44E394D5FAC167FD17E31DF6FA0F
:108B94005DB7F5466380D50463E4B600ED46D5B70A
:108BA400930620056388D5029306200DE390D5F83B
:108BB400C167FD170D446319F600B5BF094485BFAD
:108BC4009306200DE391D5F8310642064182A5BFF4
:108BD40015445DBF0D444DBFC167FD171D447DB7EE
:108BE400F2406244D24405618280011122CC26CA3B
:108BF40006CED0212E841307000281469945AA840B
:108C0400EFF01FF02AC621C51E2050209305540002
:108C14007C803E207C8189477C82930780025C8330
:108C24009770FB1FE780E0725C208A8526857C8430
:108C3400EFB0AF812A8411C532459770FB1FE780DE
:108C4400604B2285F2406244D244056182804D44E7
:108C5400CDBF5D7186C6A2C4A6C2CAC04EDE894716
:108C64006306F600C14709446318F6040144A9C524
:108C74002E894C0832C6B689AA84352F2A843246F6
:108C840005EDC1778507CA851305D1013ECC230EB6
:108C9400C1009770FB1FE780C06B2C082685B13795
:108CA4002A8419E95245B74604004E87938646C381
:108CB4001D462C08EF00500A2285B64026449644EF
:108CC4000649F25961618280797122D436844AD08E
:108CD4004ECE52CCB2892E8A3A89814613071002AD
:108CE4002286D94526D206D6AA84EFF07FE12AC689
:108CF40021C12286CA8560842312410123133101D4
:108D04009770FB1FE780E0644C002685EFB0CF949A
:108D14002A8411C532459770FB1FE780A03D228548
:108D2400B250225492540259F249624A45618280F7
:108D34004D44F5B7011122CC26CA06CE4AC8DD47F8
:108D44002A84AE846389F50281470A206C005C861C
:108D5400EFB04F9405456381A4080824B165938559
:108D640005B8EF907FBBE5473CA0B7470400938765
:108D7400E7E85CC08DA058393149B2863306270331
:108D840018499C4232971043E310F6FCDE2252232A
:108D9400E31CF6FA8C4608479770FB1FE7800064D3
:108DA40045D55C385828850793F7F70F5CB863FB03
:108DB400E702B387270318480A20BA979847D623AF
:108DC400B2238E23EFF05FF041F10824B16593855F
:108DD40005B8EF907FB45945F2406244D244424909
:108DE400056182807C2895B7011122CC26CA06CE63
:108DF400DD472A84AE846394F5060A21EFA0DFB12F
:108E0400522C36285A286D162A9642064182B307F8
:108E1400D640C20752ACC18363FAE7069305C5FF87
:108E24003308F7406359B802BA96918EC206184CBB
:108E34000E280A20C1823E97EFF01FE90DE10824B5
:108E4400B165938505B8EF903FAD5945F240624452
:108E5400D244056182806D1593160501C9BF81470F
:108E64000A206C005C86EFB0EF820545E380A4FE27
:108E74000824B165938505B8EF901FAAE5473CA087
:108E8400B74704009387E7E85CC0C1B78547C9BF0B
:108E9400397126DAAE842C0022DC4AD84ED606DE9E
:108EA4002A89B289092B2A8439E54A85EFA0DFA6ED
:108EB400D6206D1563C5A60093160501C18298449A
:108EC400B2208E204A85EFF03FE02A840DE531463A
:108ED400A6850808230601009770FB1FE7806047FA
:108EE400BE202245B74604004E87938666E25D465F
:108EF4006C00FC8695252285F2506254D254425966
:108F0400B2592161828069B761B7797126D206D6D8
:108F140022D44AD04ECE52CC56CA5AC88944D9C952
:108F240051CA2E842A89BA8A368B328AEFA0DF9EF0
:108F340093054400814771159A21635EA70885074C
:108F440093F7F70FB105E319FAFE8A854A85A5213F
:108F5400AA842DE131453305AA02916593851570E4
:108F6400CD449770FB1FE780A00DAA8921C5314627
:108F74003306CA02A2859770FB1FE780803D184420
:108F8400562032200E204A85EFF01FD4AA8415ED16
:108F94000245B746040085475687938666E25D46D8
:108FA4004C005C824EC423064101A3060100230742
:108FB40061015D23B2502254268502599254F2492C
:108FC400624AD24A424B456182804E859770FB1FAC
:108FD400E7804012C5B7ED44F1BF79714ECE3786B4
:108FE4000600AE89C16526D20147AA8489461306C4
:108FF4004631FD15054522D406D64AD0EF10007A35
:10900400054429C92A891307300281461146F545CA
:109014002685EFF0FFAE2AC655440DCD8357A9002F
:10902400CE8601467C8491477C8585471CA1B24746
:109034002C002685A38007003247FD573CA3324706
:109044003CB3EF10206B2A8411C532459770FB1F87
:10905400E780400A2285B250225492540259F249C0
:1090640045618280411106C6EFF0EFE019C5B240B8
:1090740041011773FB1F6700E307B240410182807F
:10908400011106CE2AC6EFA00FF03245B727002003
:1090940023A6073EB727002023A8073E9145B727FC
:1090A4000020A388A76EEF30201CF24005616F20DA
:1090B400F00393970501C18763D40712B7270020F3
:1090C40003C5176F797122D44AD006D626D22E89C9
:1090D4009770FB1FE780E0122A8449C9182193077F
:1090E400000A6312F70885474C08DC85EFA04FF6A9
:1090F400AA8405ED8347610171476372F7081387FA
:1091040017FE1377F70F9306000263F1E608858BC9
:10911400CDC3B727002083A7C73E994499C72A2007
:109124001306B1004C088297AA849C8599C7084409
:1091340009C59770FB1FE780E0FB95E05247B7072E
:109144000001938707F07D8FB707120093870710FC
:10915400630BF70003476101ED476316F7002A200C
:109164008545EF30C0072285EF904FC1B25022549D
:1091740021653345A900925402594561828037071D
:10918400301405073357F700058B51D337270020D8
:109194000327073F59DB0347510141FB5C8699478D
:1091A4002308F1002A206C0023170100EFA03F8D53
:1091B400ADBFB727002083A7073F8DC32A2013061E
:1091C400B1004C08829735D1AA8483475101B1FF7D
:1091D40083476101230891005C86E9B79944F5B798
:1091E40001458280397122DC26DA06DE4AD84ED661
:1091F40052D456D25AD0A5472A84B2846398F50E25
:10920400834745021A22835A260085072302F50262
:109214009307F7FFB387FA025442C207C183B69794
:1092240003C917009C23542522093369F900854793
:109234006390F60233075703231006008149014A5D
:10924400130B3501931A070193DA0A0163EA5905EE
:10925400C167FD176303F90A1E286370F90A05093B
:1092640042095424135909012317240105470A20EC
:109274009305E400639CE6007C85930720307C869C
:1092840093078002231421015C872C00EFA0BFA266
:109294000824B165938505B8EF900FE85945B9A83E
:1092A400B620DC402C28ED1613865900C206C18274
:1092B4003E965A85EFA02FD205C5630B3A01C840EC
:1092C400B220B305350152959770FB1FE780600803
:1092D400BE203E9A9E20420A135A0A0185079EA088
:1092E400BE20BE99C20993D909018DB75822A94756
:1092F4006310F7028347450281CF0145F25062545F
:10930400D2544259B259225A925A025B2161828044
:10931400342813093401378506004A868945130524
:10932400C530EFA04FCB19C10545C9BF34283785D7
:1093340006004A86894513050531EFA0CFC96DF5AE
:109344003428378506004A86894513054530EFA041
:109354008FC879F93428378506004A86894513056C
:10936400052FEFA04FC769F1D820BD47E3EEE7FA18
:10937400A56793874712B3D7E700858BD5D7834773
:10938400440285072302F40203D92400D1B5011154
:1093940006CE2EC69770FB1FE780E03511C93C2529
:1093A400B245138717006395E50093F707F83CA5CA
:1093B400F24005618280011106CE2EC69770FB1F14
:1093C400E78060331DC1B24591C188C11C251307D4
:1093D400E00F5D456388E7001307F00F01456383E1
:1093E400E7005945F240056182800945E5BF411116
:1093F40022C42A84210506C626C24AC0EFF00FBD46
:109404003C20A51793F7D70F89EB58248547631E93
:10941400F7041C4881443149A1E3FD5723010400AA
:109424001CB4230204021305C4002244B240924433
:1094340002496146814541011773FB1F6700A3F48C
:10944400B38724033E95084509C59770FB1FE78041
:1094540060CA850493F4F40F5C280848E3E2F4FE40
:109464009770FB1FE78000C94DBF084C75F975B7AD
:10947400411122C4416406C626C29307E4FF630176
:10948400F502AA849DE19770FB1FE780C02609E9D5
:109494001305F4FF9770FB1FE780E02511C106A1B7
:1094A400B240224492444101828085476392F5048C
:1094B4009770FB1FE78020242A847DD1FD571EA1CD
:1094C4001C241307F00F6382E7021307E00F63897C
:1094D400E7003420083401475146A685EFF08FA1F8
:1094E4002285EFF0DFF0FD571CA4230504004DBFD7
:1094F4008947E397F5FA8545EF40803955F126858C
:109504009770FB1FE780201F2A845DF951BF21C596
:1095140018259307F00F6300F704011122CC06CE3F
:109524002A8434210E21083501475D46EFF08F9CD3
:109534003820E1476318F7000A206C002306010075
:10954400EFA05F95F9571CA42285EFF05FEAF24083
:1095540062440561828082809307F00F6306F706F8
:10956400011122CC26CA2A844EC6AE84B689AA85A5
:1095740093068500379504004AC852C43A89328A52
:1095840013052551794606CEEFF08FA3A3042401D9
:10959400230144012322340185C01305C40062441D
:1095A400F2404249B249224AA685D2446146056145
:1095B4001773FB1F6700E3D9F2406244D244424967
:1095C400B249224A056182808280B7270020238C19
:1095D400A73E828095476394F506834745028546F6
:1095E40085072302F5021E2258423022FD17C207C6
:1095F400C1836312D6048A07BA9798339C2322073F
:10960400D98F7A2563F5E704411106C622C485077C
:109614005EA52A849305C5000A21EFA06FE0082403
:10962400B165938505B8EF902FAFB2402244D94776
:109634003E8541018280C946B387D70275BF542253
:10964400294785476396E6000347450211C38147CE
:109654003E8582809D47639BF504834745027625BA
:1096640085072302F5021E225842FD178A073E97FA
:109674001C331823A207D98F014763F2D704411181
:1096840006C622C485072A845EA59305C5000A215F
:10969400EFF0AFD50824B165938505B8EF90CFA757
:1096A400B240224459473A85410182805422A94755
:1096B40005476396F60003474502133717003A85BA
:1096C4008280411122C406C626C2B5472A84639506
:1096D400F50483474502B28485072302F5020A2173
:1096E400EFA08FA39E201307F5FF014563C1E70296
:1096F4007A240A209305C400BA977EA4EFA04FE011
:109704000824B165938505B8EF900FA15945B2407F
:10971400224492444101828058229D470545E31822
:10972400F7FE0345440213351500D5B7C5476396C4
:10973400F5061E223A22FD17B387E70203474502C6
:1097440005072302E5025842C207C1833E973C3312
:109754003823A207D98F41677D176395E7008147B6
:109764003E858280138717005AA57A25E3F9E7FE20
:10977400411122C49305C5002A840A2106C6EFA01C
:109784002FE10824B165938505B8EF90EF98B240B6
:109794002244D9473E854101828054222947854786
:1097A400E390E6FC034745025DFB5DBF011122CC5B
:1097B40026CA4AC852C406CE4EC6BC2115472A8AB8
:1097C400AE8432843689639AE7043686A285268578
:1097D400EFF05FE0AA8955E585476314F40A03476F
:1097E4004900A9476300F70288344A878546014641
:1097F400D285EFE03FF019E585454A85EFE0BFE704
:1098040013341500B420883401476946D285EFE04B
:109814007FEE2685EFF0BFBD49A01D476398E700A2
:109824003686A2852685EFF0FFE26DB7254763985B
:10983400E7003686A2852685EFF0DF9A61BF3547BB
:109844006398E7003686A2852685EFF09FE759B72F
:1098540045476398E7003686A2852685EFF01FED1D
:1098640095BF5D47639EE700D82585473686A28568
:109874002685631DF702EFF0EFCB8547631AF504E5
:109884008549A5476317F402835709009DE30544FE
:10989400E38A09F6D947E39EF9F62285F240624449
:1098A400D2444249B249224A05618280EFF0CFD3C3
:1098B400E9B788344A87A2860146D285EFE09FE360
:1098C40079F5A2854A85EFE01FDB13341500C9B78B
:1098D4000544E1B7397122DC06DE26DA4AD84ED6D1
:1098E40052D456D29E211944B9E783C925002A8946
:1098F400328A938759FE93F7D70FAE84DDE3B727F7
:10990400002083C6873F1307F00F938A873F1944CB
:109914006383E602F5476395F9049770FB1FE780BC
:1099240080DDAA891DCD30250DCE93178601E187F0
:1099340063DD070001442285F2506254D254425937
:10994400B259225A925A21618280F5454A85EFE044
:109954009FE283C7A90093E707F82385F900D9BFDD
:109964008149D62090448C3088203800EFA08FD3D2
:109974002A8471F1B42003C50A0038000146CA855F
:10998400EFE05FD72A8445F9B24799C323000A0060
:10999400BC207547E390E7FAE38E09F82385F900C4
:1099A40059BF9770FB1FE78000D5AA8A41D5854728
:1099B400639AF908CE2088443000EF90DFF72A84B8
:1099C4003DF903C72A00C54763FAE708DD47630882
:1099D400F70AB727002003C59A0083C7176F63935C
:1099E400A70A014403C72A008D476319F7043C847E
:1099F40003D7CA0063F4E7002396FA0083D5CA00AC
:109A04004A85EFF04F8AB727002083D7C7586D47A0
:109A14006376F70283D6CA005D476371D7021307E2
:109A2400B00FBE856374F7009305B00F1166C205CD
:109A340013060629C1814A85EF70403A5685EFF036
:109A44001F9BD5BD3C211144E39737EF5C41E38470
:109A540007EECE2088443000829795B7B7270200DE
:109A64009387072AB3D7E700858BA5D7B0203400A6
:109A7400D6854A85EFF09FD32300AA006DBD83A746
:109A84000A01E5B7B42038000146CA85EFE09FC655
:109A94002A8429F9AC202800EFE0FFBD39D1230046
:109AA4000A0089B7011122CC3724002006CE26CA29
:109AB4004AC84EC652C49309046F03C5890093076C
:109AC400800291653305F50293856570372900207E
:109AD4009304493F9760FB1FE780805603C68900C3
:109AE4009307800281453306F60288C09770FB1FF6
:109AF400E78060899C404D459DCF9304046F130912
:109B0400493F0144130A8002FD599C24636DF40209
:109B140037A504001305858DEFE0BFF737950400E2
:109B240013052539EF909FD1379504001305454758
:109B3400EF30104D0145F2406244D2444249B249EB
:109B4400224A05618280B307440303250900614664
:109B5400814505041374F40F3E9523103501230148
:109B640005002314350123050500230205023105F0
:109B74009770FB1FE780208149BF01458280B7278A
:109B8400002083C6976F814763E5D70001473A8574
:109B940082802E87910503D6C5FFE30AA6FE8507BA
:109BA400E5B70DC93C210547890793F7F70F6373A0
:109BB400F702411122C406C62A840E212831014726
:109BC400F9465D46EFE01FB3F9573EA0B240224488
:109BD400410182808280B727002003C7976FFD561A
:109BE400814763E3E700828016A12301050085070E
:109BF4001105C5BF01458280372600201306B637FC
:109C0400930700021CA237270020FD57230DF736C7
:109C140037270020A306F736372700202306F73618
:109C24008545B7270020239CB736B7270020239DFE
:109C3400073EB727002023A20740B727002023AA06
:109C44000740B727002023A40740B7260020B78782
:109C540006009386063793870730DCC2B7270020B7
:109C6400238E073EB72700209387072F094798A222
:109C740098A398AB2380E7022388E702378706007E
:109C8400D4C71307472FB7860600D8DB9386062F61
:109C94000D47D4CB238CE70237850600B786060030
:109CA40037270020130707401305C5309386463134
:109CB400D8DFC8C38CA7239507008CAF239D07006A
:109CC400D0CFD4D3238407022395070223A6070207
:109CD400239D070237A70400B72700209387073383
:109CE4001307E7D923A00700D8C323A40700828061
:109CF400411106C6EFF0BFE809C52821B240410171
:109D040082800145E5BF411122C426C24AC006C66D
:109D1400AA842E893284EFF09FE609E94165CA8559
:109D24007D15EFF0DFE5C54701C506A120A18147F8
:109D3400B2402244924402493E854101828039E383
:109D44008948354763911605011106CE22CC26CAEF
:109D54001832102293C7F7FF2207598EF18F32C6AB
:109D64008DE7C4452A84A685EFF09FF83246014763
:109D7400630FA60022856244F240A685D2440561A1
:109D84006FF07FF82D473A85828013070008F24070
:109D94006244D2443A850561828083C8050009483B
:109DA4006395080303A84500834718000348080087
:109DB400A207B3E70701C2070D68C18713082890FB
:109DC4006395070189476FF09FF70545828001116C
:109DD40022CC372400201304D436182006CE26CAF9
:109DE4004AC84EC69307F00F630DF702AA892945A6
:109DF400B2842E89EF804FFB0DC59307100B1EA173
:109E040023020500231135012313250106A5AA8584
:109E140008206244F240D2444249B24905616F804D
:109E2400CFFCF2406244D2444249B2490561828087
:109E34004111B727002026C2AE8483A5074022C45F
:109E440006C62A84EFF0DFEA098909C9228522447B
:109E5400B240A685924441016FF02F98B24022444B
:109E64009244054541018280411122C426C24AC060
:109E740006C6AA84130445001309850B1E209DC33E
:109E8400084409C59760FB1FE780C0262285314638
:109E940081459760FB1FE780004F3104231A04FEBD
:109EA400E31E24FDB2402244FD579EA00249924481
:109EB40041018280B727002003C6976FB72700208F
:109EC40003A7C74081476315F60081463685828023
:109ED400BA861307870B835587F4E389A5FE8507A4
:109EE40093F7F70FCDB7B727002083A7474181CB5E
:109EF400DA236314A700884782809C43CDBF0145C1
:109F04008280411106C6EFF01FFE09C50845B24024
:109F1400410182800145E5BF011126CA93844500B1
:109F240022CC4EC606CE4AC852C456C25AC0268750
:109F340081490144814681473D45122345CABDEE0E
:109F440042233E23B286A297C207C1838509310703
:109F5400E395A9FE35C42E899165938545702285C4
:109F64009760FB1FE780C00D2A8B39C9814A014ADB
:109F74008C4495C1D22033054B019760FB1FE780C9
:109F8400403DDE2088443E9A420A135A0A019760F3
:109F9400FB1FE780201663890A0031468145268528
:109FA4009760FB1FE780203E850AB104E3E23AFD97
:109FB4002326690123148900054521A0630DD600D9
:109FC4000145F2406244D2444249B249224A924A8B
:109FD400024B056182803223E314F6FE522332944D
:109FE400B2974204C2074180C1838DB70545E37A25
:109FF40035FD8DB7B727002083A7874099E3014536
:10A00400828098473A276315A7001385470082800A
:10A014009C43EDB7411106C6EFF0DFFD09C50A21E7
:10A02400B240410182800145E5BF411106C6EFF00F
:10A034007FFC09C52821B240410182804145E5BF2A
:10A04400411122C42A842E8506C6EFF01FFEAA857C
:10A0540005462285EF30C06395476305F500BD478B
:10A064006313F5002145B24022444101828041112D
:10A07400B727002022C406C603A4874081469387DD
:10A08400874021C01844322718406317A60285CAA6
:10A0940098C22E8581C92146930544009760FB1F11
:10A0A400E780202B22859760FB1FE780A0040145F1
:10A0B400B240224441018280A2863A84D9B798C32F
:10A0C400C9BF0545F5B73727002083274741014617
:10A0D40013074741A9C703D847009443631CA80248
:10A0E400011106CE22CC26CA0DCA14C2AA843E850A
:10A0F4002E849760FB1FE780E0FF2C002685EFF09D
:10A104001FF701E519C0B2471CC0F2406244D244B3
:10A11400056182803E86B68775BF14C3C1BF0545FD
:10A124008280411122C42A84090506C6EFE00FEAA1
:10A13400FD573CB0B240224441018280411122C407
:10A14400416406C626C29307E4FF6301F502AA84AC
:10A154009DE19760FB1FE780205D09E91305F4FF8B
:10A164009760FB1FE780405C11C106A1B240224406
:10A1740092444101828085476392F5049760FB1FF6
:10A18400E780805A2A847DD1FD571EA13C20130705
:10A19400F00F6382E7021307E00F6389E7002830BA
:10A1A4000147F9465146A685EFE0CFD42285EFF06A
:10A1B4005FF7FD573CA0230204004DBF8947E39796
:10A1C400F5FA8545EF30C06C55F126859760FB1F85
:10A1D400E78080552A845DF951BF1D71A6CACEC699
:10A1E40086CEA2CCCAC8D2C4D6C2DAC05EDEAE84E1
:10A1F400AC21F947AA896397F5049760FB1FE780B0
:10A20400A0522A8411ED01442285F6406644D644C6
:10A214004649B649264A964A064BF25B2561828036
:10A224003C210547890793F7F70FE37EF7FC2831B4
:10A234000147F9460146CE85EFE0CFCB2285EFF00A
:10A244005FEED1B703AB0400B7070001938707F0B3
:10A2540037071200B377FB0013070710B28A0149CE
:10A26400638BE7022EC69760FB1FE780E04B2A89C9
:10A27400B24515C1502105C293178601E187E3C495
:10A2840007F84E85EFE02FCF8347490093E707F89F
:10A294002302F9008DBF372A00200347AA3793070A
:10A2A400F00F130AAA371944E300F7F6E147E3ED88
:10A2B400B7F493D71500FD1713973700B787060037
:10A2C400938787CFBA9703A80700E30F08F283ABFD
:10A2D4004700E38B0BF2420B135B0B0163050B008E
:10A2E400C947E393F5F2D62090448C30882038088F
:10A2F40002982A8411F92C084E85829B2A8431C144
:10A304009C30E39307F0BC20230AA10039472308BB
:10A31400F1006396E70262471C331823A207D98F22
:10A324000C084E85FC81EF908FF5E30E05EC1408C4
:10A334000546D9454E85EFE04FE22A84F1B5BC8449
:10A34400C5B7B4209147E380F6EC03450A0038080A
:10A354000146CE85EFE00FBA2A84E31705EAAC2064
:10A364002808EFE04FB119C123800A009840B707CD
:10A374000001938707F07D8FB707120093870710BA
:10A38400E303F7E8E30109E8BC202302F900ADBDCB
:10A39400011106CE2EC69760FB1FE780E03811C975
:10A3A4005C21B245138717006395E50093F707F81E
:10A3B4005CA1F24005618280397152D42E8A4ED656
:10A3C4009305E101AA89528522DC4AD856D206DED9
:10A3D40026DA328936C63AC4BE8A9760FB1FE78004
:10A3E4006037054435C1AA84A8873944EFF0BFAF6C
:10A3F40021CD03284500630908042247B246D687C5
:10A404004A86A6854E8502982A841DED9307E00F9F
:10A41400638CFA02982089476318F702D8401C33EA
:10A424001823A207D98FC2070D67C1871307279086
:10A43400639CE7008347190003460900D285A207FD
:10A444005D8E4E85EFF0BF982285F2506254D2544F
:10A454004259B259225A925A21618280797122D486
:10A4640022214ECEAA89228556CA06D626D24AD0A1
:10A4740052CC5AC85EC662C4AE8AEFF0BFA301E9EB
:10A484002285EF909FEB594431E50144A1A003C715
:10A4940089008547AA8401446317F702AA851385B6
:10A4A4008900EFF07FA729C9FA209624D044CE2052
:10A4B40003D52900E147EFF03FF0D9472A84631818
:10A4C400F50223A604002685EFF01F9A41C0D94760
:10A4D400E30DF4FA2285B250225492540259F249FF
:10A4E400624AD24A424BB24B224C4561828061DDC2
:10A4F400DE202390FA00C1BF13894400014AB94BFE
:10A50400594C3D4B83550900DDDDE14763067A0173
:10A514000357C90011C3D94703572900835649007B
:10A524000326890003D52900EFF01FE92A84631963
:10A53400850123240900050A3109E3156AFD61B781
:10A544007DD9835709002390FA00F5B703D5290074
:10A554000DBF011170879307E00F1306E100014757
:10A56400894606CEEFF05FE5F2400561828079719D
:10A5740022D42A840A2526D2AE849305210106D644
:10A584004AD09760FB1FE780E01C79C51C252AC6CA
:10A5940093F707029DC7A881EFF0BF96AA87B2453B
:10A5A40011E91E2439459EA0B250225492540259F6
:10A5B400456182802A204946829701C51E249EA0B7
:10A5C400E5B7035924004A85EFF0DF8E01ED4165BC
:10A5D4007D15EFF03F8E09E51E2425459EA0E9B7C1
:10A5E40023102501130745008147BD46122339EE88
:10A5F4003147B387E702130984003146CA859107BE
:10A604003E959760FB1FE780C0D43146CA85480851
:10A614009760FB1FE780E0D352242A2041478146FC
:10A62400DD45EFE0EFCD2ACE09E51E2445459EA089
:10A63400A5BF0C4852249760FB1FE78080D12A20D5
:10A644004C08EF905FCB2DD15945B9BF8507310731
:10A65400E39ED7F825459DB705458DB7797122D47A
:10A664002A840A2526D2AE849305E1014AD006D66F
:10A6740032899760FB1FE780E00D2DC91C2593F7F5
:10A68400070295EF18389307200511E35C20362460
:10A6940050440E242A200147EFF01FD2AA8729E153
:10A6A4001C3891E72A20EF901FC1D94711E1814757
:10A6B400B2502254925402593E85456182802AC682
:10A6C400A887EFF01F84AA8705C5B2452A2049460A
:10A6D4008297AA8745D91A249AA0183869FBC9BF5A
:10A6E4005947E31AE5FE23000900D1B78547E5B7CA
:10A6F400B947D5B7397122DC4AD84ED652D406DED2
:10A7040026DAAA892E8A32C636899760FB1FE7802B
:10A71400A00109440DC53C211307E00FAA845D4440
:10A72400638FE7001307F00F5944639AE70032463A
:10A7340005E2D2854E85EF907FC42A841DCD228503
:10A74400F2506254D2544259B259225A2161828041
:10A7540003550A009305E101231F01009760FB1FC5
:10A76400E78040FFA887EFF05F8CAA8505464E85F9
:10A77400EF2010722A8455DDD9B79307F00FE30058
:10A78400F9FC37A50400938624007946A6851305B1
:10A7940065BAEFE0EF82A381240155B73971B72779
:10A7A400002026DA83A4874052D45AD05ECE62CCED
:10A7B40006DE22DC4AD84ED656D266CA2A8BAE8B27
:10A7C400328C368A99E08149A9A0804483DC440014
:10A7D4000149835AA400631499018440E5B73E24D7
:10A7E400A28963F867010509420913590901410463
:10A7F400DDB7E3EAFBFE630B0A000C204840D28677
:10A8040062863AC6EF803FFD324771DD19C32310DB
:10A814005701F25062544E85D2544259B259225AC9
:10A82400925A025BF24B624CD24C216182809A2193
:10A83400B621854763E5E60439C34111D42126C214
:10A84400378506009384550022C426862E8413057A
:10A85400C530894506C6EF801FF8C14719C9542081
:10A864002E200A2001472686EFF05FF3814711E18D
:10A87400A947B240224492443E85410182803E85EC
:10A8840082802E860A22AE21854763E1A50219CD76
:10A89400542241110147150606C6EFF03FF08147E7
:10A8A40011E1A947B2403E85410182803E85828004
:10A8B4002E860A22AE21854763E1A50219CD5422D2
:10A8C40041110147150606C6EFF05FED814711E11E
:10A8D400A947B2403E85410182803E85828039711C
:10A8E4004ED6BE2183D9050006DE22DC26DA4AD8FC
:10A8F40052D456D25AD05ECE62CC66CA6AC863EAD3
:10A904003715854763880912416BAE8A2A8A231456
:10A91400010002C6014401497D1B894B054CC94C09
:10A92400054D83D52A000147814601464E852313F0
:10A934000100EFF0BFE6AA84630B050E09EC1307D0
:10A944002002930661005A8695455285EFE04F9B9D
:10A954002A846302051038849C2041CB1885630542
:10A96400A70741476385E7022C005285EF90AFE5C6
:10A9740009CD34001546D9455285EFD01FFE11C5C7
:10A9840032459750FB1FE780E076814765A0BE24DF
:10A994004146130524001CA0BE24A1831CB0CC4056
:10A9A4009760FB1FE780E09A49043C848507C2074F
:10A9B400C1837C8463FD2707BE24638A67078509F6
:10A9C400C20993D90901B1BFE39077FBBE240946BC
:10A9D400130524001CA0BE24A1831CB0CC409760A6
:10A9E400FB1FE78000971104C9B722C60359610011
:10A9F400B82413052400638F770133599903230581
:10AA0400710118A0BE244146A1831CB0CC40137927
:10AA1400F90F79B72305810118A0BE241359290021
:10AA24001379F90FA1831CB00946CC404DBF3C8477
:10AA340085FFA947F2506254D2544259B259225A5E
:10AA4400925A025BF24B624CD24C424D3E852161DC
:10AA540082808547C5B7C547F1BFB727002003C724
:10AA64002742854763F4E706011122CC26CA4AC867
:10AA740006CE2A843289AE849760FB1FE780C0CA61
:10AA840019C538219307E00F5D456308F700631C7F
:10AA94000900A6852285EF901F8BF2406244D244C0
:10AAA4004249056182808A209305E1002317010051
:10AAB4009760FB1FE78000CA2887EFF00FD7AA85AD
:10AAC40005462285EF20D03C69D5C1BF5945828017
:10AAD40013F7050201C7B2856FF08FD6411126C264
:10AAE4004AC006C622C413F98500AA846317090064
:10AAF400139785016187635B070232853684EFF023
:10AB0400CFD2AA8505466313090001462685EF20A6
:10AB1400303801E90145B2402244924402494101DE
:10AB240082801C34EDDB1C24F5F7F5B793F7250080
:10AB3400F5F30D45CDB77971AE8622D42A848A22E5
:10AB44009305E10106D636C69760FB1FE78080C0F7
:10AB540019C90C25B246B0872285EFF07FF7B250B1
:10AB64002254456182800545DDBF13F7050201C704
:10AB7400B2856FF0EFCC411122C426C206C693F40D
:10AB840085002A8491E41397850161876350070245
:10AB94003285EFF08FC9AA85054691E001462285EA
:10ABA4002244B240924441016F20902E93F7250035
:10ABB400014591E30D45B240224492444101828013
:10ABC4007971AE8622D42A848A229305E10136C69D
:10ABD40006D69760FB1FE780E0B7B24611C90C2583
:10ABE400B0872285EFF07FF8B2502254456182800D
:10ABF4000545DDBF797126D2AA842A25C16722D4EE
:10AC04004AD04ECE06D623170100FD173284B689EA
:10AC14000149630CF50005059420D0404205130753
:10AC2400E1004181EFF09FB72A899420D040378515
:10AC3400060089451305C530EF80FFB915C5A22468
:10AC44002285EFF02FBD09C57D142A94420441806A
:10AC54006384090023908900B25022544A85925497
:10AC64000259F249456182809420D040378506001C
:10AC7400894513050531EF801FB671F19420D0404A
:10AC84003785060089451305052FEF80DFB411C908
:10AC9400E30809FA3C87E39587FA0354A9007D1475
:10ACA40075B7A22475B7397122DC26DA4AD84ED694
:10ACB40052D456D25AD062CC06DE5ECEBE899C25D2
:10ACC4002A8AAE84C18B328C36843A89C28A468BF6
:10ACD4009DE783CB04008947638BFB046285EFF017
:10ACE4008FA01DC183280500638008025A88D68777
:10ACF4004E87CA862286A6855285829839A03285D7
:10AD0400EFF02FA0AA8711ED3945F2506254D254C6
:10AD14004259B259225A925A025BF24B624C216157
:10AD240082802946A6855285829745D5F9BFD840A9
:10AD34001C331823A207D98FC2070D67C187930656
:10AD440007906383D71E63CCF60693062780638E31
:10AD5400D70A63C0F60213070780E3C1E7F82D455D
:10AD6400E39509FADC449023CC432310C9002285DF
:10AD7400B9A213073780E393E7F62D45E39709F863
:10AD840085472310F900DC4481459C231CA0AA2498
:10AD94000505420541819760FB1FE780A09B83570F
:10ADA40009006310051091072310F900114681452D
:10ADB400130514009750FB1FE780E05CF1A893068D
:10ADC40027906386D71463C1D71093063790638D99
:10ADD400D71413074790E393E7F02D45E39709F25F
:10ADE400DC441D472310E900982318A0983318B0B9
:10ADF400BA2338A0BA23218338B0D82358A0FA2321
:10AE040058B0FE23A1837CA041A82D45E39F09EE01
:10AE1400DC446C0083C917009823A209B3E9E90054
:10AE240011472310E9009C234E851CA0DC449C336D
:10AE34001CB09760FB1FE780E091AA8425C130868F
:10AE4400C1659306E100FD158329C500EFF09FDA83
:10AE540009ED9420D0403785060089451305053156
:10AE6400EF807F9719E1FD577C8703C70900894765
:10AE74006310F70283A5490009461305440097505F
:10AE8400FB1FE780004D8357090089072310F90051
:10AE94003C873CA0A1833CB0014585BD231731010B
:10AEA400C5BF18218907BA972310F9003E251CB0A5
:10AEB4003E25A1833CA010214C411305340097503A
:10AEC400FB1FE7800049C9BFC8449750FB1FE780B8
:10AED400A04C93170501C1832A871D45E3E737E397
:10AEE4006399F90023100900CC4403560900CE9558
:10AEF400BDBD4207B3863A01418363C7E600B38709
:10AF040037412310F900CDB723105901F1BF2D4566
:10AF1400E39D09DECC445285EFE09FDD23107901E7
:10AF240008A0218108B08DBF2D45E39009DEDC44E3
:10AF3400231079019C231CA0DC449C331CB0A9BFC2
:10AF44001D71CAC82A892A21A2CCCEC6D2C4D6C2AF
:10AF5400DAC05EDE62DC66DA6ED686CEA6CA6AD84F
:10AF6400AE8AEF807F9B130CF5FF93170C01B72B70
:10AF74000020C1832A8A814913840B4C3EC6372B97
:10AF84000020B72C0020C16D8357C90063F5F90078
:10AF94001E2063CC87010355290093850B4CEF9049
:10AFA4006FA62A8D15CD594D25A88327890013979F
:10AFB40019009305E101BA9784339C23A204DD8C24
:10AFC40026859750FB1FE780E078AA8515E9239032
:10AFD4009A004840054D09C59750FB1FE780801132
:10AFE400F64066446A85D6444649B649264A964A96
:10AFF400064BF25B625CD25C425DB25D256182808D
:10B0040032488348490083A64C40B0870355290041
:10B0140081471307AB3FEFF01FC92A8D13884C40BB
:10B0240009C523909A0048407DB75C4085E70355E5
:10B034002900514781461386FDFFBD45EFD05FAC23
:10B04400B727002048C01388474009E523909A0099
:10B05400454D79B71E200357AB3F9304AB3F3E9752
:10B064006346470113C7F7FF52979AA048409220BE
:10B07400832508003E9585099750FB1FE780602DC6
:10B084001E209A20C20993D90901BA971EA0EDBDCA
:10B09400397122DC2A842A2106DE26DA4AD84ED6E1
:10B0A40052D45AD05ECE62CC66CA2E8B56D26AC8AF
:10B0B400EF809F862A8A54242E240A2478001306BB
:10B0C400D400130CBAFF651AEFF04FED420A37298A
:10B0D4000020AA898144135A0A01B72B0020B72CF7
:10B0E40000201309094C6382090463D08405938A00
:10B0F4004C408348440083A60A0030862A205288A4
:10B1040081471387AB3FCE85138DAB3FEFF0BFB9BB
:10B114001DC1814A30862E244E859306E100EFF04E
:10B124007FADAA8963990A065DFDF1E41E242945D1
:10B134002310FB0035A883570D001228E31BF6FCEF
:10B1440083A50A0048489750FB1FE780202971D146
:10B154008327490095EF2A204166454781467D169D
:10B164009D45EFD0FF991DE11E2445452310FB00AA
:10B17400F2506254D2544259B259225A925A025B42
:10B18400F24B624CD24C424D216182802322A900B1
:10B1940083DAA90041B783274900A6972380570182
:10B1A400938714001397070183274900418393DA97
:10B1B4008A00BA9723805701138724008326490005
:10B1C40093873400420791044183C207C204C183B8
:10B1D400C180369711C9348714A303274900BA974D
:10B1E4003887218398A301B7FD5614A30327490088
:10B1F400BA9794A31DBF2A20B725002089802390E5
:10B20400954C9385054CEF809FE73DD159458DB70B
:10B21400411122C406C693F705012A84328585C3E9
:10B22400EFE0BFE0AA8505462285EF2060469547FA
:10B234006305F500BD47631DF502214515A893F785
:10B24400450099CBEFE07FDE0546AA85228522449E
:10B25400B24041016F20C04393F7050489C7EFE072
:10B26400DFDC0146DDB713F51500133515000605BF
:10B27400B24022444101828079714AD04ECE52CCF0
:10B2840006D622D426D22A8AAE89014983D7490018
:10B294006364F900014581A083A709001314190010
:10B2A40093041400338797001823A2978823220756
:10B2B4009305E100598D9750FB1FE780A04905E5F0
:10B2C40083A7090005453E94182098A383A7090085
:10B2D400BE94982098B3B250225492540259F24921
:10B2E400624A456182800C2530875285EFF05FF217
:10B2F40001CD83A709003E94182098A383A70900D1
:10B30400BE94982098B3C1BF050942091359090195
:10B31400B5BF011122CC2A848A219305E10006CE0F
:10B324009750FB1FE780004311C90C253087228505
:10B33400EFF01FEEF2406244056182800545DDBFF7
:10B344001D71CAC82A892A2186CEA2CCA6CAD2C413
:10B35400D6C2DAC05EDE62DC66DA2E8ACEC66AD86F
:10B364006ED6EF806FDB2AC68346C9008355A900D9
:10B374000355890078081306D900EFF02FC2B247AD
:10B38400B7240020416B938AA7FFC20AAA8B014409
:10B3940093DA0A01372C0020B72C00209384044C44
:10B3A4007D1B63820B18B08683C58B00035529006F
:10B3B400EFF01FE6AA8D631305168348490083A6A0
:10B3C4004C40B08603552900568881471307AC3F8B
:10B3D400DE85EFF05F8DAA8D9309AC3F138D4C4051
:10B3E400631E051215CC03D70900BE20110763970D
:10B3F400E7003247A2976D1763C7E706B725002019
:10B404009387054CBA23035529009385054C33547F
:10B41400E40282A3EF80DFE2AA8D15C1D94D05A015
:10B4240003552900494781465A86C545EFD04FED5B
:10B43400C8C015E583D7AB00C54D2310FA00F6400C
:10B4440066446E85D6444649B649264A964A064B12
:10B45400F25B625CD25C425DB25D2561828083D71F
:10B4640009009107BEA0DC4003D7AB009306E101BD
:10B47400A29798A39307140013970701DC40418314
:10B484005E85BA9703D7AB00218398A3B086835512
:10B49400A900EFF02FF613072400D44093073400DB
:10B4A400420711044183C2074204AA8BC18341802D
:10B4B400369715EDFD5614A3D84083250D00BA9791
:10B4C40094A3C84003D6090022959750FB1FE78038
:10B4D40040E883D709003E944204418005F0835735
:10B4E40089002310FA00E39C0DF4A94D89BFB487A9
:10B4F40083250D0014A3D840BA97B887218398A355
:10B50400C84003D6090022959750FB1FE78060E4EA
:10B5140083D709003E944204418061B583D7AB00D0
:10B524002310FA0065BF814D55BF5D71A6C2CAC024
:10B53400AA84035985002A21A2C44EDE52DC5AD8BB
:10B544005ED662D466D286C656DA6AD06ECE2E8BAA
:10B55400EF808FBC930BD5FF7115131A0501B72922
:10B5640000200144135A0A01372C0020B72C002074
:10B574009389094C635B7413D424AE241307E1004C
:10B584001386D4004A85EFF06FA12A8D630F05104E
:10B594000359A5000C253087AA20EFF07FC7631B51
:10B5A400051083C8440083A64C403087AA205288E3
:10B5B40081471307AC3FEA85EFF0EFEE930DAC3F04
:10B5C40013884C4065E905C883D70D0003D72900CB
:10B5D40089076308F706B72500201387054C3E2327
:10B5E400AA209385054C3354F40202A3EF80FFB1E3
:10B5F4000DC559451DA0AA2041664D4781467D16BB
:10B60400A545EFD0EFCFB727002023A2A9001388C8
:10B6140047401DE123102B014545B640264496447E
:10B624000649F259625AD25A425BB25B225C925C7E
:10B63400025DF24D6161828083D70D0089072391F9
:10B64400F90083D70D00A29763D1770783A7490038
:10B654000357AD00930A2400A29798A305049317F7
:10B66400040103A44900C183C20A3E948357AD0078
:10B674008325080093DA0A01A1831CA003A54900CD
:10B6840003D60D0056959750FB1FE78080CC03D45A
:10B694000D00C167FD17569442044180E30CF9EC98
:10B6A4000509420913590901F1B529450DF423107F
:10B6B4002B01A5B76DDC05B71E2199E309458280EE
:10B6C400411126C2444122C406C64AC09420D04037
:10B6D4002A843785060089451305C530EF80AF8F6E
:10B6E40041C53C2025476145E51793F7F70F63688B
:10B6F400F708372900200357893705451309893787
:10B704003DCF1E20BA974167634BF7069165938539
:10B71400257031459750FB1FE7808092AA844D45E0
:10B72400B9CC1E208355090001460147B386E500C4
:10B73400C206C182636BF704AE97C207C18319C204
:10B744002310F90023A004002146A2851385440098
:10B754009750FB1FE780E0BFB727002093878740FF
:10B7640098430DEF84C335A89420D0403785060054
:10B77400894513050531EF800F8625F50945B2404B
:10B7840022449244024941018280504013154700EB
:10B7940005072A9636A6054651BF3E871C43F5FF8A
:10B7A40004C30145E9BF011106CE22CC26CA4AC80A
:10B7B40009E98944F240624426854249D24405613C
:10B7C40082802AC62A84280036896C845085EFF04A
:10B7D400BFEEAA8465F1E30F09FC3E24F9DB916511
:10B7E4009385557031459750FB1FE780608505C5EB
:10B7F4003E2423200500232425015EA1B727002031
:10B8040093874741984301E788C36DB73E871C433C
:10B81400F5FF08C345B7CD4471BFB7270020938710
:10B82400C73F98230DE3054798A3058909CDB7269B
:10B8340000203725002093860633414691451305A1
:10B84400052F6FF05FF601458280B7270020A3869D
:10B85400A7368280C167FD176315F5002E856FE05A
:10B864008FB7411106C6EFE08FB109C5FD571EA180
:10B8740023010500B2404101828001114AC806CE6D
:10B8840022CC26CA85472A896392F5044A85EFE0CB
:10B894006FE231E9C164378606009385F4FF13072C
:10B8A400E10089461306462F0545EFE03FEF2A8461
:10B8B400FD1405C44C444A85EFF0DFF93087228536
:10B8C4008146A685EFF00FB32A84E5B789476396CE
:10B8D400F5008545EF10D07B55D9F2406244D2443F
:10B8E400424905618280EFE02FD86DB7011126CA65
:10B8F400B72400209384046F22CC9834372400208A
:10B904001304C440B7270020B726002006CE4AC837
:10B914004EC62320040023A8074023A006403DC7A9
:10B924001305200C3305A70291659385157093893F
:10B934000640138907419740FB1FE78060709034ED
:10B944009307200C81453306F60208C09750FB1F6D
:10B95400E78060A31C40983481459386870B7D550E
:10B9640063E0E5069306800BB306D7020146FD5556
:10B97400B6972320F900BE866363E606F95696A3BC
:10B9840099463307D702BA9723A0F90037A50400D4
:10B994001305E51DEFD08F9037A504001305453935
:10B9A400EF707FEA37A5040013050514EF10506506
:10B9B400F2406244D2444249B24901450561828061
:10B9C4002394A6F41386C6F4231006002324060049
:10B9D4003106E31BD6FE85059386860B51B78EA2EE
:10B9E400ACB2ACA2238206000506990671B74111D8
:10B9F40006C622C42A84EFC06FF4EFE0EF9FB72796
:10BA0400002023868736B727002003A50740EFE0F0
:10BA14008F9CB7270020238D87362244B24037C538
:10BA240004001305E58741016F10905D93970501AC
:10BA3400C18763D10730B727002003C5C7367971A2
:10BA440022D45AC806D626D24AD04ECE52CC56CA92
:10BA54002E8B9740FB1FE780C07A2A8429C51821C2
:10BA64009307000B631EF702B724002085479384D5
:10BA74004440DC849C4023150100B9E3EF00807549
:10BA84009165938535709740FB1FE780605B88C0A4
:10BA940005E99C8491C74C2013058400EFD08FDC0A
:10BAA4002285EF60BFADB250225421653345AB000F
:10BAB40092540259F249624AD24A424B4561828009
:10BAC400372A00206146814513050A4C9750FB1F15
:10BAD400E780608B03494400894793040A4CD28968
:10BAE400930A0A4C631AF904F5258AA02A209305BF
:10BAF4000A4CEF80AFC93A209E20162401ED63E37F
:10BB0400F6001EA40E243A85EFC0FFF92285EFC08B
:10BB1400DFCE41B763E3F6001EA41E24D945938605
:10BB2400094C0D463A852390FA00EFC01FE38D457A
:10BB340071DD1385094C65A899476319F9029305CA
:10BB4400A1002285EFF0CFD4AA8469D1D947639E9E
:10BB5400F40C05092A201379F90FD9459386094C69
:10BB64004A86EFC09FDFCA8555D1E1B7A147631864
:10BB7400F9009305A1002285EFF03F9BF1B7A94797
:10BB8400631AF9060A246C009750FB1FE78080BCF7
:10BB94002A89630905122A2041669306E100554764
:10BBA4007D16AD45EFC0DFF5C8C0AA8625CD834814
:10BBB40044000358E10030862A20814713070A4CC9
:10BBC400CA85EFF04F8EAA84631F050C2A209305C3
:10BBD4000A4CEF802FD91DD92A2093060A4C2D46F2
:10BBE400D945EFC09FD71DD1AD4513050A4CEFD001
:10BBF4006FC729BFB147631BF90C0A246C00975027
:10BC0400FB1FE78020B5AA8455CD2A204166930600
:10BC1400E10059477D16B545EFC09FEE23A2AA0067
:10BC2400AA8631E11E24C5447C851830D147E30F30
:10BC3400F7EC5C202A209385094C2380FA003C858C
:10BC440023829A002391FA00EF707FE3E30005EC6E
:10BC54002A209386094C0546D945EFC01FD0E30737
:10BC640005EA8545F9B5834844000358E1003E24BC
:10BC740030862A20A68513070A4CEFF0CF82AA84C7
:10BC84001DE12A2093050A4CEF800FD3E30005E859
:10BC94002A20D94593060A4C3546EFC01FCCB5453A
:10BCA400E30605E679B5D9476393F400814403A517
:10BCB4004A009740FB1FE780E043E38904E41E2425
:10BCC4007C85A5B71E2485447C8585B7B947631850
:10BCD400F9009305A1002285EFF08FA6B5B5C14701
:10BCE4006318F9009305A1002285EFF06FE5A9BD63
:10BCF400C947631AF900130691009305A100228530
:10BD0400EFE0DF9591B5D947631DF9009305A100D4
:10BD14002285EFE0DF85AA84E31A05E2A30401008B
:10BD2400F5B3E147E314F9DE9305A1002285EFE0C2
:10BD3400EFF219BD01458280F9CE011152C42E8A59
:10BD4400854522CC4EC656C206CE26CA4AC8AA8A01
:10BD5400B6893284EF10D033D1471DC5B7270020F0
:10BD64003727002083C7074283461742814419E0DE
:10BD7400B684BE8637270020032787419397440063
:10BD8400BA9763EDD400D547F2406244D2444249A5
:10BD9400B249224A924A3E85056182803E89C107A2
:10BDA40003D727FF09C7850493F4F40FD9BF31CC17
:10BDB4009565938525C0130500029740FB1FE78016
:10BDC40020282326A90061D113060002814593840B
:10BDD40004049740FB1FE780005B231199002300B4
:10BDE4000900231359010DC4372700201C340326EE
:10BDF40007682304F900118C8327C900118411807A
:10BE0400C0AF23A02901814741B723260900C1BF40
:10BE140023044901FDB785473E858280B72700206A
:10BE240083C50742B727002003A78741814763954D
:10BE3400F5008146368582803223BA8619C2E30B27
:10BE4400A6FE850793F7F70F4107D5B7B72700205C
:10BE540003C60742B727002003A78741814763151C
:10BE6400F6008146368582802E23BA8681C54C230E
:10BE7400E38AA5FE850793F7F70F4107CDB7B727E8
:10BE8400002083C53742B727002003A707688147EE
:10BE94006395F5008146368582801223BA8619C2DD
:10BEA400E30BA6FE850793F7F70F4107D5B7B7272E
:10BEB400002003C81742B727002083A78741014702
:10BEC4006315E800814636858280B223BE8609CA9E
:10BED400F2236317A600D04701C63222E305B6FE5B
:10BEE40005071377F70FC107E1BF411122C440458D
:10BEF40026C206C6AA8415C0484409C59740FB1F3C
:10BF0400E780401F484809C59740FB1FE780801E13
:10BF140022859740FB1FE780E01D26854146814529
:10BF24009740FB1FE7802046B2402244FD579CB453
:10BF3400924441018280011122CC2A842A2106CE16
:10BF44002EC6EF104062324622858145EF00305202
:10BF540022856244F24005616FF03FF905C53A213C
:10BF6400411122C406C62A8411CBDD45EF003053AB
:10BF740022852244B24041016FF03FF7B24022448F
:10BF8400410182808280411126C2B1469304C5FFDB
:10BF9400B386D402B72700201387876806C622C455
:10BFA400369736276397B602484305C513848768D6
:10BFB4009307F00F6305F6001C21639CC7009740AC
:10BFC400FB1FE7802013B147B387F402A29723A293
:10BFD4000700B2402244924441018280411122C4AC
:10BFE4002E8426C24946AA848145228506C69740E6
:10BFF400FB1FE780403995CCDC2C13974700B7270B
:10C00400002083A70768BA979A231AA0BA23FE23AD
:10C014003AA0372700200357E7415AA09A207AA074
:10C02400BA201AA4DA203AA4FA205AA49A241EA800
:10C034007AA4B2402244924441018280B72700206E
:10C0440083C50742B727002003A80768B727002045
:10C0540003A68741014781476394E5003E858280BA
:10C06400142299CA544689CAD42E9206C2966315DC
:10C07400D500850793F7F70F05071377F70F4106E8
:10C08400E1BF130600643386C50293069500AA85B2
:10C0940037C50400130505F66F605FA2411122C481
:10C0A40006C62A840835EF605FB5FD571CB4B2405C
:10C0B400224441018280011122CC4AC84EC652C496
:10C0C40056C25AC006CE26CA2A89AE890144372AE6
:10C0D4000020B72A00201D4B83471A426365F404ED
:10C0E40063990902B7290020372A0020930AF00F28
:10C0F40083C709426364F4061144A14422850504FC
:10C1040042041306F00FCA854180EFF0DFE7E3171E
:10C1140094FEF2406244D2444249B249224A924ACD
:10C12400024B0561828083A78A4193144400BE9424
:10C134009C208DC3FE20639F270163956901AA207B
:10C14400EF10604226854E868145EF0050322685E9
:10C15400EFF0BFD905041374F40FBDBF83278A41E0
:10C1640093144400BE949C208DC39C34638F570168
:10C17400FE20639C27012685EFF05FF22685D145DA
:10C18400EF00F0312685EFF05FD605041374F40F49
:10C1940085B741677917630BE502411122C406C6CE
:10C1A40085472A846399F50022852244B24081455B
:10C1B40041016FF05FF089476396F5008545EF1004
:10C1C400206D7DD1B24022444101828082809D4510
:10C1D4006FF07FEEB727002003D5E7418280B727B1
:10C1E400002003C7C741011106CE68876C868547C6
:10C1F4006318F70070009305E1000545EF40D03E59
:10C20400F24005618280A947631DF6029C319821A2
:10C21400A207D98F1EA1BC31B821A207D98F3EA194
:10C22400DC31D821A207D98F5EA1FC31F821A20705
:10C23400D98F7EA19C359825A207D98F1EA50145CB
:10C244008280054582809147631EF6009C319821C7
:10C25400A207D98F1EA1BC31B821A207D98F3EA154
:10C2640001458280054582809387C5FF9396070127
:10C27400C1820D47636ED7003147B387E702372782
:10C28400002013078768BA97A8A38EA3014582806C
:10C29400094582809306402037270020AA8763F44B
:10C2A400A60093074020F117231FF740B72700206B
:10C2B4002381B742B72700202382B7428280190521
:10C2C400956542054111938535C0418106C6974065
:10C2D400FB1FE780E0D601C9B240E955410117438D
:10C2E400FB1F6700E3ECB24041018280B7270020C6
:10C2F40023810742B7270020238E0740B727002059
:10C30400A38E0740B7270020A3820742B727002047
:10C314000111239F0740B72700202382A7684EC638
:10C3240037250020B72900201305856822CC26CAAA
:10C334004AC837240020B7240020372900201306D8
:10C34400000381459389394206CE52C42300044236
:10C35400A3800442232C094023800900372A0020AB
:10C364009740FB1FE7802002EF10802803458A6B6B
:10C3740013040442938414421309894105CD95653D
:10C38400938545C012059740FB1FE78060CB372794
:10C3940000202320A76819CD03468A6B93078A6B74
:10C3A4009C332380C900814512069CA09740FB1F43
:10C3B400E78060FDB727002003C5876F9C20956543
:10C3C400938555C03E951375F50F08A01205974047
:10C3D400FB1FE780E0C62320A90039C11020814556
:10C3E40012069740FB1FE78000FA03270900142078
:10C3F400814725077D56639FF6006244F240D2448C
:10C404004249B249224A37C504001305651905613A
:10C414006F10003F850710A393F7F70F4107E1BFA3
:10C424002300040023800400C9BF41119397050130
:10C4340026C206C622C44AC0C187AE8463DE07088A
:10C4440037290020034549689740FB1FE78060DBDC
:10C454002A8429C91821930700096312F7041831A3
:10C46400CD476319F706B72600200348250003C506
:10C47400B6583727002083472742130664008145B6
:10C48400814613072742AA886316D80291C11CA3C8
:10C494001C2391C7034549688545EF60AFC22285D7
:10C4A400EF60CF8D2165258DB2402244924402492C
:10C4B400410182800C22AE9793F5F70F93F7F80FA2
:10C4C40063F4A50093F7F50F850693F6F60F0906B6
:10C4D40085455DBF092BE1B793F715000145E9D701
:10C4E400EF00705109CDB727002083C7274281CBC5
:10C4F400B727002003C547688545EF60AFBC13C567
:10C5040014005DB785462A8763FFC6029C319021DB
:10C51400A207D18F1EA16399D700BC31B421A20711
:10C52400D58F3EA10145828089460145639ED7008F
:10C53400BC31B421A207D58F3EA3DC31D421A2079C
:10C54400D58F5EA38280054582809147631EF600E5
:10C554009C319821A207D98F1EA1BC31B821A20712
:10C56400D98F3EA101458280054582809147631E93
:10C57400F6009C319821A207D98F1EA1BC31B821A5
:10C58400A207D98F3EA10145828005458280A1473B
:10C594006318F6029C319821A207D98F1EA1BC31E1
:10C5A400B821A207D98F3EA1DC31D821A207D98FA7
:10C5B4005EA1FC31F821A207D98F7EA101458280BA
:10C5C4000545828089476319F6009C319821A207AA
:10C5D400D98F1EA101458280054582803E22797152
:10C5E4004ECE06D622D426D24AD01307F007AE89FF
:10C5F4006371F70209473AC47C86300093F5F50F5E
:10C60400EF005075B250225492540259F2494561D8
:10C6140082805A22D9462A89328463F7E6007E2230
:10C6240063F4F6006379F70023140100300093F5F6
:10C63400F90F4A85F1B70A2202C4EFF05F84AA8495
:10C6440035C5EFF0BF9F9C246369F5001146A246EF
:10C65400CE854A85EF00D06675B7340026869305EB
:10C66400F00F4A85EFF04FED75F1A2471A24DC472D
:10C674009AA33A20BAA35A20DAA37A20FAA3DA209A
:10C684009AA7DC4495C793F4F90F2286A6854A85B8
:10C694008297C167FD172A86E31BF5FA224599475D
:10C6A400F9451CA144A1EFF0DF9DA9BF094645B798
:10C6B400014671BFA947631DF6029C319821A20768
:10C6C400D98F1EA1BC31B821A207D98F3EA1DC317C
:10C6D400D821A207D98F5EA1FC31F821A207D98FF6
:10C6E4007EA19C359825A207D98F1EA5014582807D
:10C6F400054582809C211CA19C311CB1BC31B82110
:10C70400A207D98F3EA1828023220500D821894720
:10C714006304F70005458280F6210D47E37CD7FECC
:10C724009C45011106CE22CC26CA4AC84EC6843383
:10C734009023A204D18C138644006311D604A03341
:10C74400BC23AE8922045D8C9307C4FFC207C18356
:10C754002A896361F70203A5890023119900231034
:10C764008900F1559740FB1FE78080A42322A9008C
:10C77400014531A02285EFF06FEA71FD0545F240D5
:10C784006244D2444249B24905618280397122DC53
:10C794002E841C204AD806DE26DA4ED619472A896A
:10C7A400B2856392E70630202800EFF01FDAAA84EE
:10C7B40005E92884EFF08FE6AA890C3015C937D72C
:10C7C40004002E861307C74A34009D454A85EF00AE
:10C7D400B02E4E850946814559294E85EFF0EFF07C
:10C7E400F250625426854259D254B2592161828052
:10C7F40089477C803C840A867C813C857C824A858E
:10C80400EF005055F1BF49476398E70232202800F2
:10C81400EFF0FFD7AA8469F5372500201305856852
:10C824005E2599E381446DBF1830142068253C00CF
:10C834000146CA85FD246DB75147639EE700322047
:10C844002800EFF05F9CAA8441FD0C3030004A853B
:10C85400EFF0DFD871B75947639BE7043220280013
:10C86400EFF07F9EAA842DFD2C844A85EFF02FE4FF
:10C8740005C9584534851E23B697C207C1831EA334
:10C88400D5D35C47C5D3B727002083C72742D9DB5C
:10C89400B727002003C547688545EF60AF8289B795
:10C8A40089473EC03C840A860C307C8289BF0C30A8
:10C8B4000A8623100100EF00F049ADB75D71A6C2EE
:10C8C40056DA86C6A2C4CAC04EDE52DCAA8A8831B1
:10C8D400AE8432C6EFF08FD7B24501ED8144B64045
:10C8E4002644268506499644F259625AD25A616111
:10C8F4008280230205002311050083C904008547B3
:10C904002A846399F900B0202808EFF0BFBFAA84F5
:10C9140005491DA09D476391F90418218D47E31F24
:10C92400F7FAB02028080549EFF05FC4AA8409E5A6
:10C93400054681452285252E2285EFF02FF6082411
:10C944003C080147CE862686D685E12AE30909F804
:10C954002285EFF08FD961B7CD47639BF900182189
:10C964009147E31DF7F6B0202808EFF0BFC545B79F
:10C97400D547E395F9F6034A05008947E310FAF62B
:10C98400B02028080549EFF0FFD2AA8455F5835753
:10C994000102A1EBB8841306F0035C44930607FC80
:10C9A400C206C182636AD600B085D94663F6C60062
:10C9B400B486D94563EDD5002A20BAA30549EF0012
:10C9C400903A03560102D2852285892CB5B7AC87EB
:10C9D400BAA3D2A38EA3F6A385471CA0014A01499A
:10C9E400CDB7014AF9BF7971AA8522D426D2222172
:10C9F400AA84280806D6EFF03FD1F24599E53DE137
:10CA040085452285EFF0AFFD75A0BC84154763957D
:10CA1400E706B8858D4763F7E7046800EFF09FCD1C
:10CA24003887DD4763FBE7008C86B7071700850767
:10CA3400100822853EC8EF00F0313C87B885910785
:10CA44006305F7002285EFF08FF81C8672466C00B0
:10CA5400858B1106228591CFEFF05FE601C5228513
:10CA6400EFF0EFF6884449DD9730FB1FE7808068DC
:10CA740041BFEFF0BFD1DDB711476389E7001387EA
:10CA8400A7FF42074183854663EBE6023147F1176E
:10CA9400B387E7023727002013078768BA979A23DA
:10CAA40071D3A8233008A28505204DFDB884914791
:10CAB400E318F7F4B25022549254456182802C0852
:10CAC4002285DD2445F1FDB701114AC82A89314583
:10CAD40026CA06CE22CC2EC6B284EF50FFAC21C1AA
:10CAE400B2459307000A1EA12EA12A8421461105EE
:10CAF4008DC0A6859740FB1FE780A085A2854A8547
:10CB0400EF50BFAE0145F2406244D2444249056150
:10CB1400828081459740FB1FE780E086C5B70545C5
:10CB2400DDB7797126D2AA841305000206D622D471
:10CB34002ECE32CC36CA3AC83EC6EF50FFA629C51F
:10CB44006246F2454247D246B2472A84130520FA88
:10CB540008A010B02EA058A054B01305840061465C
:10CB640091CFBE859730FB1FE780A07EA28522541B
:10CB7400B2502685925445616F503FA78145974036
:10CB8400FB1FE7804080DDB7B250225492544561C8
:10CB940082805845797122D406D62A84AE862DC760
:10CBA4003E23FC85930720066397F504B7270020EE
:10CBB40003D6E7417E236373F600B28713F6F70FBB
:10CBC4002E2B1C2B8D8F93F7F70F81E5890793F795
:10CBD400F70FB297FD17B3C7C702FC863E206E203D
:10CBE4000824FC8401473C080146EFF09FF3B2504F
:10CBF400225445618280582FB727002083A70768F5
:10CC04001207BA97FE23D1BF2EC6194681452808BC
:10CC14009730FB1FE7802077B246C9B7797122D4D9
:10CC240006D626D22A8499CD814701479306000669
:10CC34002E866E200824EFF0DFEEB2502254925478
:10CC440045618280B284280059469730FB1FE780F3
:10CC54008073648499E43E2048446C007C85EFF042
:10CC6400EFB73C000147930600060146D9B7797136
:10CC740006D6814791E93E21584570867C843C0064
:10CC840001C73E237C853C002E866E210825014782
:10CC940093060006EFF0FFE8B2504561828041112F
:10CCA40022C406C61C2111472A846392E7022E86F9
:10CCB4006E21082581470147CD46EFF09FE649469E
:10CCC4006E202244B240154541016FF0CFAB13F7FB
:10CCD400B70F89466317D7000146EFF03FF451467A
:10CCE400C5B70D476398E7002244B24001464101AD
:10CCF4006FF0FFF7B2402244410182809A21B1468D
:10CD0400B727002071173307D70293878768BA972C
:10CD1400D84301EBD841AAA70145D8C3BA219AA7A1
:10CD2400828059458280797122D4404526D24AD0E6
:10CD340006D6AA842E8931C4484419C59730FB1FEE
:10CD4400E780403B232604001E20EE2088247C85B7
:10CD54003E200147930640067C861E244A867C8733
:10CD64001C483EC8BE207C843C00EFF09FDBA30E31
:10CD7400240123280400B2502254925402594561DC
:10CD840082802800314681459730FB1FE780A05FF1
:10CD9400BE20EE2088247C8401473C009306400694
:10CDA4004A86EFF01FD8C1BF797152CC2A8A8A21F2
:10CDB40026D206D622D44AD04ECE56CAAE84EFF03E
:10CDC400EF8519E1854795A84045AA8965DC7E2150
:10CDD400E39A47FF1E2463890710542CB72A0020C6
:10CDE40003A70A689206FD173697C2077A23C18300
:10CDF4001EA46316F70093053006EFF09FD95C4834
:10CE0400A5EFC840034915001C2122093369F90024
:10CE1400BE2013072900631CF702F9559730FB1F46
:10CE2400E7800039C8C02391240103C58900268600
:10CE3400D285EFF07FC9814721E1B2502254925448
:10CE44000259F249624AD24A3E854561828095651B
:10CE5400938515C04A859730FB1FE780601E48C83C
:10CE6400C840231C2401F9559730FB1FE780403448
:10CE7400BE20C8C0F917BEA0484825CDB220362C24
:10CE84001E2C3308D60063C80707582C83A70A68EA
:10CE940095451207BA97BE2363C90705CC4036955A
:10CEA4009730FB1FE780E04A3A2CBE20BA97C207AE
:10CEB4001A2CC1833EACE397E7F003D7290003C5DE
:10CEC4008900300078845848D2857C853AC6EFF0D2
:10CED400BFBF11C548489730FB1FE780A021232A14
:10CEE4000400232C0400F9BD99454E85EFF0AF846E
:10CEF400D1BDA545DDBF9145CDBFBA2161CBB727D3
:10CF0400002083D6E741ED4763E3E60C011122CC10
:10CF14002E8426CAAA844840914506CE9730FB1F2A
:10CF2400E78000293E20AA861CA13E20A1831CB1D3
:10CF34001E203CA11E20A1833CB13220C167F917F9
:10CF44001106420641826392F4042AC4314532C672
:10CF5400EF508FE5AA85CD471DC1930700F91CA1A9
:10CF64003246F957A2463EA189475CA1B727002063
:10CF740072A114C503C54768EF502FE78147F240FB
:10CF84006244D2443E850561828081452685EF3026
:10CF94001076AA8711E9B726002003C7264265D375
:10CFA4007D172381E642E1BF09476304E5021D477B
:10CFB4006303E50249476302E5027D47E311E5FCAB
:10CFC400B726002003C726428147D1BFED473E85DF
:10CFD4008280D1476DB791475DB789474DB701113D
:10CFE4004AC831471309C5FF3307E902B7270020B0
:10CFF40026CA9384876806CE22CCBA94D84029C71F
:10D0040013848768B727002083C62742854795C6BF
:10D0140068849E24AA242C003AC67C85EFF0FFED98
:10D0240011C5C8409730FB1FE780C00CB147B30758
:10D03400F902A29723A207008547F2406244D24432
:10D0440042493E85056182808147C5BF797126D2F8
:10D054004445372700204AD0FE200359E74152CCEB
:10D0640006D622D44ECE56CA2A8A63F327013E89B5
:10D07400BA284209135909019E2835CF998F4A8449
:10D0840063D5270113940701418089452285EFF078
:10D094000FA3AA89CD4A31C5BE202AC660857C84E7
:10D0A400BE2899EB9E28930925001CA19E28A183E4
:10D0B4001CB1637424058228BE28CC4422864E8584
:10D0C400BE959730FB1FE780C02803556A002C00EB
:10D0D400EFF0BFE2AA8A15C54E859730FB1FE780A3
:10D0E4006001B2502254568592540259F249624A60
:10D0F400D24A45618280890759B779144204418034
:10D1040065BFBA289E203A94FD17C20742049A28A4
:10D11400C18341809EA0A2A86376E400F9F3FD5781
:10D12400DCBCC1B781455285EFF0FFBF5DBF7971AB
:10D134004AD03729002052CC034A594222D456CA35
:10D144005AC85EC662C406D626D24ECE5284B72AC8
:10D154000020054B930BF00F372C002083A78A4146
:10D1640093144400BE9483C90400639B6907DC44A0
:10D17400A5CBD84735C79A2329CBB727002083C727
:10D18400274299CF2685EFF07FECAA8515E9B727CA
:10D19400002083C7174205046351F402A3028942A5
:10D1A400B25022544E8592540259F249624AD24AEC
:10D1B400424BB24B224C45618280A3020942CDB757
:10D1C4002685EFF05FB68149E1BFDC3F639A7701C2
:10D1D400930520062685EFF0DF9BDC44A38E070031
:10D1E40083471C4205041374F40F6363F400014481
:10D1F400E31644F7C9BF4111154506C6EFF03FDEFB
:10D2040009C50545B240410182801945EFF03FDD73
:10D214006DF91145EFF0BFDC6DF51D45EFF03FDC16
:10D224006DF1B727002003C5174269DDB240410103
:10D234006FF0FFEF9E210D47F117C207C1836363AF
:10D24400F706DC41A5C3411122C42E84854526C2BC
:10D2540006C6AA84352D29C92685812BC167F917ED
:10D26400638FF40009ED3E2099CB16201947639390
:10D27400E604372700200357E74163FDE702B72799
:10D28400002083C72742A285268599C72244B2403D
:10D29400924441016FF07FC62244B240924441015E
:10D2A4006FF0DFA5094582805145B2402244924483
:10D2B400410182806D45D5BF397126DA4ED6AA84E4
:10D2C400AE895D4589454AD806DE22DC328936C6F8
:10D2D4003AC4EFE0DFFE35C122472A84014511C775
:10D2E400B24613054400B685029793578500230080
:10D2F4003401A30024013CB09547FC84B7270020E7
:10D3040083C7274228A01105E88522CE2C0826854C
:10D3140095C3EFF09FBEAA8411C522859730FB1FE9
:10D32400E78040DDF250625426854259D254B25906
:10D3340021618280EFF09F9CF9BFCD44E5B77971FC
:10D3440026D24AD052CC56CA06D6BA8A22D44ECE57
:10D3540019472E89B284368A639EE5042A22094439
:10D36400EFE0DFAB2AC639CD5C4583596500BE23A7
:10D374009EA0B247B726002015472380570103C655
:10D38400D641BAA393051600A38EB640D0A3D146C6
:10D394006316D900BAA0DC479A249AA75287A686B6
:10D3A400CA854E85EFF05FF12A84324515C4EFE05B
:10D3B400DFB309A842867400BE85AA89EFE0DF972F
:10D3C4002A8445D92285B250225492540259F249F2
:10D3D400624AD24A45618280F945EFE09FCADDB7CF
:10D3E4009E211CA19E21A1831CB1BE213CA1BE2172
:10D3F400A1833CB1114582809E211CA19E21A18361
:10D404001CB1BE213CA1BE21A1833CB1DE215CA1A3
:10D41400DE21A1835CB1FE217CA1FE21A1837CB12C
:10D42400214582809E211CA19E21A1831CB1094516
:10D4340082809E211CA19E21A1831CB1BE213CA1FE
:10D44400BE21A1833CB1DE215CA1DE21A1835CB1BC
:10D45400FE217CA1FE21A1837CB19E251CA59E25D5
:10D46400A1831CB5294582809A218546AA8718A1E3
:10D474009A21218318B19A216319D700BA2138A1BE
:10D48400BA21218338B1114582800945631DA70063
:10D49400BA211945B8A3BA212183B8B3DA21D8A394
:10D4A400DA212183D8B382809E211CA19E21A183ED
:10D4B4001CB1BE213CA1BE21A1833CB11145828097
:10D4C400797126D24AD04ECEB2842A89AE892946B1
:10D4D4008145480022D406D636849730FB1FE78066
:10D4E40080EA64868DE43E207C82B727002083D7BF
:10D4F400E7417C845C4481CFD42F37270020032765
:10D50400076892069E2736973A237C85788337D717
:10D5140004004A8513076743540013F6F90FD545F1
:10D52400EFF09FD92A8911C195E085471CA02302F9
:10D534000400014681452285EFF04FEEB25022549B
:10D544004A8592540259F249456182802285EFE06E
:10D55400DF99EDB737D70400B2861307C7462E8686
:10D5640085456FF07FD501116887B7D60400416502
:10D57400700001489307F00F0D479386463E994586
:10D584007D1506CEEFF0BFDBF24005618280B7D691
:10D594000400B28701482E8611479386C63FC945C9
:10D5A4006FF0FFD937D70400B286130787422E865F
:10D5B400CD456FF07FD0011122CC37240020130415
:10D5C400046C26CA4AC84EC606CE2A89AE8993047C
:10D5D40004031C4081C7CE854A8582971104E31A4F
:10D5E40094FEF2406244D2444249B24905618280C9
:10D5F400B727002003C51759411122C4372400203E
:10D60400937735001304046F09811CB4AA9706C6E6
:10D6140026C21CA4ADCB1305C0033385A702A565A0
:10D624008505B72400209730FB1FE78060A11024F4
:10D634009307C00381453306F60223AEA46A9730EC
:10D64400FB1FE78040D483A7C46B142401478907D8
:10D654007D566341D7022244B240924437250020CC
:10D664001306000381451305056C41011733FB1FA5
:10D67400670063D192A32381070023A5070205074E
:10D684009387C703F9B7B240224492444101828090
:10D69400011122CC2EC632C406CE2A849730FB1F39
:10D6A400E78000102246B24511E9C167F917630308
:10D6B400F4005145F24062440561828054555C2176
:10D6C4008DC213F7270141456314A70015457DF268
:10D6D400C18B3D45E5D3BC2E0145E3FDB7FC314587
:10D6E400D1BFC18B0145F9F71545E9B7797126D248
:10D6F4004AD0B7240020416922D44ECE52CC56CA17
:10D704005AC806D6AA8901449384046F372A002094
:10D71400930AC0037D19054B9C246364F4000145FE
:10D7240025A8B30754030327CA6BBA97BA23631611
:10D73400270105041374F40FC5B7C833300093856B
:10D744006700EF80C1311946CE8528009730FB1F52
:10D75400E780C0C8E31F65FDB250225492540259B9
:10D76400F249624AD24A424B45618280B72700207F
:10D7740083C5876FC166B727002003A7C76BFD1653
:10D7840081476395F500014632858280035827005E
:10D794003A866306D80003480700E307A8FE850716
:10D7A40093F7F70F1307C703E9BF411106C6973074
:10D7B400FB1FE780E0FE09C54A29B240410182808F
:10D7C4000145E5BFB727002083C6876FB727002030
:10D7D40003A7C76B0145814711076393F600828055
:10D7E400102301C605051375F50F850793F7F70F89
:10D7F4001307C703DDB7B727002003C5876F8280EF
:10D80400372700209306076C81471307076C3146BE
:10D814008C4291E58A07BA9788C3014582808507BF
:10D824009106E397C7FE4D458280411106C622C486
:10D834009730FB1FE780C0F60DCD2A842A21854549
:10D84400EFF07FD7485409C59730FB1FE780808AE3
:10D8540022851306C00381459730FB1FE780A0B2E1
:10D86400FD573EA0230204000145B2402244410179
:10D8740082800945DDBF411106C69730FB1FE78052
:10D8840020F209C54825B240410182800145E5BF27
:10D89400C167F9176305F502411122C406C62E8437
:10D8A4009730FB1FE780C0EFAA87014589C7C823CB
:10D8B400698C33358000B2402244410182800545A1
:10D8C4008280011106CE2EC69730FB1FE78040ED03
:10D8D400854701C95A29B24585476304B7004EA953
:10D8E4008147F2403E850561828029CD01114AC8F5
:10D8F4004EC637290020C16922CC26CA52C456C25A
:10D9040006CE0144AA841309096F372A0020930A1A
:10D91400C003FD1983478900634BF400F24062445D
:10D92400D2444249B249224A924A0561828033056F
:10D9340054038327CA6B3E953E2163833701829447
:10D944000504C9BF8280B727002003C6876FB727A5
:10D95400002083A7C76BC166014589070147FD16EF
:10D9640091456313E600828003D807006309D80059
:10D9740003C8A7006315B80005051375F50F05075F
:10D984001377F70F9387C703E9BFB727002003C6B0
:10D99400876FB727002083A6C76B0147814791068D
:10D9A4006310E602858393C7F7FFC207C183054569
:10D9B4006362E50285473395A70042054181828071
:10D9C4008C2299C1CE36CD8F05071377F70F938636
:10D9D400C603F9B793F61700F1FE050585831375A1
:10D9E400F50FF9B7797156CAAA8A2E8526D24AD07C
:10D9F4004ECE52CC5AC85EC662C406D622D4AE8479
:10DA0400328B368CBA8B3E8AC28946899730FB1F8B
:10DA1400E78000D93DED41657D159730FB1FE78018
:10DA240020D82A84554531C81946DE85130564007B
:10DA3400A30284019730FB1FE780A0918357010361
:10DA440026A0230264013EA8835741032300540106
:10DA5400232604025EA82306440123173401231855
:10DA64002401EFF09FF20AB8232A04022685232C0E
:10DA740004028145EFF03FB40145B2502254925460
:10DA84000259F249624AD24A424BB24B224C456196
:10DA940082804545DDB7B727002083C6876FB72747
:10DAA400002003A7C76B81476395F60041657D1588
:10DAB40082803A861307C703835547FF6394A50002
:10DAC4002A228280850793F7F70FF9BFB727002032
:10DAD40003C8876F4166B727002003A7C76B7D166D
:10DAE400814785482D43314E6314F80001458280F7
:10DAF40036233A85638FC600545B81CE8C226396AD
:10DB0400150194326377DE00828081E59432E370FC
:10DB1400D3FE850793F7F70F1307C703F1B7B727AA
:10DB2400002083C5876F4166B727002003A7C76B12
:10DB34007D16814725486394F5000145828036238C
:10DB44003A85638AC600545B99C69432E51693F607
:10DB5400F60FE375D8FE850793F7F70F1307C7038E
:10DB6400D9BF894799C511C595479CA11C219CB172
:10DB740081473E85828039714ED652D4AE892A8A35
:10DB840093053005414526DA4AD856D206DE22DC12
:10DB940032C63689BA8A9720FB1FE780604ACD4493
:10DBA40029C92A8489446381090432468145F08263
:10DBB40041469720FB1FE780007D5686CE8522854F
:10DBC4009720FB1FE780E0782146630E0902CA858F
:10DBD40028089720FB1FE780C077A28650082C08EE
:10DBE4005285EF302024AA8422859720FB1FE780EA
:10DBF4006050F250625426854259D254B259225A86
:10DC0400925A21618280814528089720FB1FE78072
:10DC14008077E1B7894785C51DC1411106C6AE8726
:10DC24001947AA8598A31385170041469720FB1F1F
:10DC3400E7802072B24081473E85410182803E8563
:10DC4400828089479DC515C5411106C6254798A1FF
:10DC54001821AE87194698B193051500138527003E
:10DC64009720FB1FE780E06EB24081473E8541016B
:10DC740082803E858280894785C51DC1411106C6C3
:10DC8400AE872147AA8598A313851700414697209C
:10DC9400FB1FE780006CB24081473E8541018280D2
:10DCA4003E858280894795C90DC9411106C61D4725
:10DCB40098A11A21AE87214698B11A212183B8A1CF
:10DCC40093052500138537009720FB1FE7806068C4
:10DCD400B24081473E85410182803E8582808947EA
:10DCE40085C51DC1411106C6AE870D47AA8598A3F7
:10DCF4001385170041469720FB1FE7808065B240DB
:10DD040081473E85410182803E858280894785C561
:10DD14001DC1411106C6AE871147AA8598A3138574
:10DD2400170041469720FB1FE780A062B24081475D
:10DD34003E85410182803E858280894785C51DC11B
:10DD4400411106C6AE872947AA8598A313851700F3
:10DD540041469720FB1FE780C05FB24081473E8564
:10DD6400410182803E858280B727002023A4074298
:10DD7400B727002023A60742B727002023A807427D
:10DD840037F70400B72700209387C7331307C72743
:10DD940098C337E704001307671BD8C337E70400A9
:10DDA4001307A7B798C7B72700203707050093873D
:10DDB40087341307879298C337E70400130787351E
:10DDC400D8C337F704001307A7B498C78280C147A4
:10DDD40019C9144DC14781CA784D11C7BC32BD461B
:10DDE40063F3F6001C2F3E858280411122C4372440
:10DDF400002026C2930484424AC02A89884006C669
:10DE040051C113048442631D09001C212146A1CB86
:10DE140029059720FB1FE780C0531C400545A9CF67
:10DE24004945EF406FF8AA841DC1930710FC1CA15B
:10DE3400A30025010C400905414689059720FB1FD5
:10DE4400E78020511C40A6858833EF400FFA084034
:10DE54009720FB1FE780002A2320040029A8090536
:10DE64009720FB1FE780E04EEF20907B054955F596
:10DE74009C40238027010545B24022449244024934
:10DE8400410182800145CDBF1C4D639507144111AA
:10DE940022C426C22A84AE8441459305300506C6B1
:10DEA4009720FB1FE780C01908CCCD4779CDA68504
:10DEB40041469720FB1FE780C0490C20DDED7C4CD8
:10DEC400184CD04B5443058A858A6305D600D62B5B
:10DED400F99AD6ABD04B544305828582058A858A4C
:10DEE4006305D600D62BF59AD6ABD04B54430982A2
:10DEF4008982058A858A6305D600D62BED9AD6AB2E
:10DF0400D04B54430D828D82058A858A6305D600E1
:10DF1400D62BDD9AD6ABD04B54432182A182058AFD
:10DF2400858A6306D600D62B93F6F6EFD6ABD04B94
:10DF340054432582A582058A858A6306D600D62B9A
:10DF440093F6F6DFD6ABD04B54432982A982058AD7
:10DF5400858A6306D600D62B93F6F6BFD6ABD44B90
:10DF64005843AD822D83858A058B6388E600DA2BBE
:10DF7400FD769386F67F758FDAAB98307C4C01CFB3
:10DF8400983311CB95473CB08147B2402244924428
:10DF94003E8541018280B820118B11E7B82B118B8B
:10DFA40019E38547CDB79823942081C5B687BA86EF
:10DFB4003E871146E147E36AE6FCE368D6FC9547F1
:10DFC4003307F702B7870600938747DDBA97B697FA
:10DFD4009C2355BFC5473E858280AE8711CD784DC1
:10DFE40001CF142394A1143394B1342BB4A1142F6E
:10DFF400584BB4B1D8C18280414681453E85172330
:10E00400FB1F67004338B727002083A7C74291C787
:10E0140003A387006303030002830945828001117F
:10E0240022CC2A84494506CEEF702F881DC12AC60A
:10E0340022859720FB1FE780A07601CD6244B72795
:10E04400002032460E39F24003C5376F05616F4038
:10E05400DF96F240624405618280797126D2994745
:10E06400EC85AA842E858D4522D406D632C636C4C4
:10E07400FC84EFE0CFA42ACE4D441DC13246A24613
:10E08400AA85328582962A8419E52C082685EFF024
:10E094006F9A2A8411C572459720FB1FE78080057B
:10E0A4002685EFF0DFF72285B25022549254456161
:10E0B4008280011122CC9305C5012A8441460A8538
:10E0C40006CE9720FB1FE780C0284A20B7E604004D
:10E0D4000A86938626CEC545EFF03FF8F2406244A7
:10E0E40005618280011122CC9305C5022A84414630
:10E0F4000A8506CE9720FB1FE780A0254A20B7E6B5
:10E1040004000A86938606D1C545EFF01FF5F24058
:10E11400624405618280B7E604002E86938686C138
:10E12400C5456FF09FF30111B28722CC4C802A843D
:10E13400BE8513051100194606CE9720FB1FE78004
:10E144004021B7E604000A862285938666C4A14569
:10E15400EFF0BFF0F240624405618280B7E604004C
:10E164002E869386A6C7C5456FF03FEF0111B2878F
:10E1740022CC6C802A84BE8513052100214606CE5C
:10E184009720FB1FE780E01CB7E604000A8622857F
:10E19400938686CAAD45EFF05FECF24062440561B8
:10E1A4008280B7E604002E869386E6D3C5456FF0D9
:10E1B400DFEA011106CE22CC26CA042185476395E5
:10E1C400F4041C3119472A846395E7041C4DDE23AB
:10E1D40013F7071011C7784D5A2B137707100DEF5B
:10E1E40013F7072019C7784C5A2B13770720631F9E
:10E1F400070E93F7074099C77C4CDE2B93F7074033
:10E2040063930714C9471CB0F2406244D2440561C9
:10E21400828031476392E70A3C5085E393053005D9
:10E2240071459720FB1FE780A0E128D019C57146EE
:10E2340081459720FB1FE78000152450B1C4BC2CF6
:10E2440089E72285EFF0BFB8A8AC81452685414611
:10E254009720FB1FE780201328503D472C2D9387E0
:10E26400F5FF93F7F70F6364F700EF602FB2EF4009
:10E274000FCF3C50A1458AAB13852701EF600FB146
:10E284002C504A20EFF03FE9B5474A201CB09720B4
:10E29400FB1FE780E050414609C57E2513D61700D1
:10E2A4003E966244B7270020F240D24403C5376F3C
:10E2B400854505616F406FF035476396E7023C5131
:10E2C40099C78E2B4A2113862701EFF03FEA1C4C95
:10E2D400DE2313F7072039C7784C5A2B137707200E
:10E2E40031C3B9475DB73947639AE700EF602FD967
:10E2F400AA854A20EFF09FE6BD4741BF3D476391A1
:10E30400E704EF602FD7AA85630A95028145268525
:10E314002EC6EF602FD42A86B2454A20EFF0BFE024
:10E324001C4CDE2393F70740E38E07EC7C4CDE2B7A
:10E3340093F70740E38807ECC14781BF8144C1BF1D
:10E344004147E391E7ECEF602FD4AA854A20EFF030
:10E354005FE54DBD797106D622D426D20421A1EC05
:10E364001C3119472A84639DE7047C4DDE2B13F787
:10E37400170009C7184D5A23058B31E713F72700F7
:10E3840011C7184C5A23098B63180712918B91C734
:10E394001C4CDE23918B639C07167C4CDE2B13F7FD
:10E3A4000710630D0716184C5A23137707106307D9
:10E3B4000716B1471CB0B250225492544561828072
:10E3C4001D476392E70C3C5089EB9305300571457A
:10E3D4009720FB1FE780C0C628D02450ADCC2285EF
:10E3E400EFF0FF9EA8AC8145268541469720FB1F90
:10E3F400E78060F928503D472C2D9387F5FF93F76C
:10E40400F70F636DF702B737002083C7F78AADCBE8
:10E414004146814508089720FB1FE780C0F6B725D1
:10E42400002019469385055E08089720FB1FE780A6
:10E4340040F230500C082E85EF00E115EF402FB26A
:10E444003C50A1458AAB13852701EF602F942C50D3
:10E454004A20EFF05FCCA1474A201CB09720FB1F55
:10E46400E7800034414609C57E2513D617003E9641
:10E47400B727002003C5376F8545EF400FD425BF6C
:10E48400EF60CF9065BF21476395E7023C5199C780
:10E494008E2B4A2113862701EFF05FCD7C4CDE2BB7
:10E4A40013F7270021CB184C5A23098B21C7A54702
:10E4B40065B72547639AE700EF606FBCAA854A20D9
:10E4C400EFF0DFC9A94749BF2947639FE702EF601F
:10E4D4006FBA8547AA856304F5008145854426857E
:10E4E4002EC6EF602FB72A86B2454A20EFF0BFC38D
:10E4F4007C4CDE2B918BE38207EA1C4CDE23918B50
:10E50400E38D07E8AD4789BF2D47E398E7E8EF605F
:10E51400AFB7AA854A20EFF0DFC841B513F707204B
:10E5240001CB184C5A231377072019C3B94759B59F
:10E5340093F7074081CB1C4CDE2393F7074099C324
:10E54400C1478DBDC947BDB505CD01118A8522CC12
:10E5540006CE2A84EFF07FA81C204A2089CFB7F684
:10E5640004009386460A0A869D45EFF01FAFF240E9
:10E57400624405618280B7F604009386E60AE5B733
:10E5840005458280B7270020AA8503C5376F6F40F1
:10E59400CFE1411122C4405926C206C6AA8431C41F
:10E5A400084C09C59720FB1FE780C0B4285009C553
:10E5B4009720FB1FE78000B4685009C59720FB1F14
:10E5C400E78040B3285409C59720FB1FE78080B239
:10E5D400685409C59720FB1FE780C0B122859720A6
:10E5E400FB1FE78020B123AA040222448A38B240E8
:10E5F400924441016FF01FF9411126C206C622C49C
:10E60400AE849720FB1FE780A01929C14C592A84A6
:10E6140095CD83A8C50603A88506FC51B851F421FD
:10E62400D2218C212685EF605FB02285EFF07FF642
:10E63400EFF0EFCE01CD2244B7270020B240924440
:10E6440003C5376F854541016F40CFA7B2402244CF
:10E65400924441018280411122C4405926C206C617
:10E664007C4CAA84DE2B13F7071011C7184C5A23CD
:10E67400137707100DE313F7072011C7184C5A231B
:10E684001377072009EB93F707409DC71C4CDE2343
:10E6940093F7074095C399471CB02285EFF07FB1EB
:10E6A4001830C947631DF7002244AA20B24092449F
:10E6B400814541016FF05FF4C9471CB0F5B7B24022
:10E6C4002244924441018280411106C622C426C2DA
:10E6D400EFF0CFBF21C14059AA840DCC1C2095C7AF
:10E6E400B727002083A7C74289C7DC4399C3228583
:10E6F40082971830C947631FF7002244AA20B2400A
:10E704009244814541016FF03FEFB727002083A772
:10E714000743D9BFB240224492444101828041114F
:10E7240026C24AC006C622C4AA842E899720FB1F8B
:10E73400E78000071DC5405949CC5E20639B9708BC
:10E744001C301947639EE7061C20B5C77C4CDE2BA2
:10E7540013F7170011CF184C5A23058B11CB9D4783
:10E764001CB0B240224492440249054541018280D2
:10E7740013F7270019C7184C5A23098B19C3A54747
:10E78400C5B7918B99C71C4CDE23918B99C3AD47B8
:10E79400C1BFB727002083A7C742E1D7DC43F1D329
:10E7A400228582971830C9478145E31CF7FA2685EC
:10E7B400EFF09FE47DB7B727002083A70743F1BF9D
:10E7C40045476398E7006304090013092003CA85D9
:10E7D400F9BF631C090026859720FB1FE78040FCD6
:10E7E40009C55C2193E707015CA1A6854A85EF6012
:10E7F400CFAD85BF4111B7E6040022C42E862E8416
:10E80400938666B6894506C626C24AC02A89EFF0B1
:10E81400DF840C20AA844A85EFF01FDEB240224434
:10E8240026850249924441018280B727002083A7AC
:10E83400074385CB9C4395C7797122D406D698416A
:10E8440010082A843AC8D84185453ACA829711C526
:10E8540048862A206C00EFF0FFF9B250225445613B
:10E8640082808280011122CC06CE2A842EC6972073
:10E87400FB1FE780E0F25C5989CFDE23B245639A3F
:10E88400870085476397F5006244F24005616FF0A5
:10E894005FD0F240624405618280411106C6EFF008
:10E8A4008F9FC167FD176307F500B240DD45410145
:10E8B4006FF09FD4B240410182800CA1828001118B
:10E8C40026CA4EC6AE84AA899305300513050003F3
:10E8D4004AC806CE22CC32899710FB1FE7804076C7
:10E8E4002DC51306000381452A849720FB1FE7806A
:10E8F40080A94146CE8522859720FB1FE780A0B0E2
:10E90400A6850D461305D4019720FB1FE780A0AF11
:10E9140013060402930504012285EFF0D047AA846C
:10E924000D469305D4024A859720FB1FE780A0ADCE
:10E9340022859710FB1FE780E07BF2406244268526
:10E944004249D244B24905618280CD44FDB7814732
:10E954004146B306F5003387F500182303C80600C3
:10E9640085073347070198A2E395C7FE82805D714E
:10E974004EDE62D4AE892A8C93053005130500035C
:10E98400A6C2CAC052DC56DA5AD85ED686C6A2C41B
:10E99400B28B368BBA84BE8A4289468A9710FB1F93
:10E9A400E780006A630405101306000381452A8486
:10E9B4009720FB1FE780209D4146E2852285972012
:10E9C400FB1FE78040A4414681450A859720FB1F31
:10E9D400E780609B1D46DE850A859720FB1FE78044
:10E9E40080A21D46DA85130571009720FB1FE7807E
:10E9F40080A133392001B334900041468145080891
:10EA040023072101C4879720FB1FE780C09719467D
:10EA1400D68548089720FB1FE780E09E1946D285DB
:10EA24001305A1019720FB1FE780E09D93040401D7
:10EA34004146CE8526859720FB1FE780C09C8A85AA
:10EA44002685EFF0DFF0930904024E86A685228521
:10EA5400EFF070342A890DE94146CE85268597204A
:10EA6400FB1FE780008F0C082685EFF05FEE4E86D3
:10EA7400A6852285EFF030322A8946454146CE8567
:10EA84009720FB1FE780209822859710FB1FE780C3
:10EA94006066B64026444A8596440649F259625A4D
:10EAA400D25A425BB25B225C616182804D49D5B728
:10EAB400011126CA52C4AA842E8A130500039305A1
:10EAC40030054AC84EC606CE22CC3289B689971084
:10EAD400FB1FE780E05635C52A84A685414697206A
:10EAE400FB1FE7804092930404012146D2852685CA
:10EAF4009720FB1FE7802091CA85214613058401D6
:10EB04009720FB1FE780209013090402A6854A86FC
:10EB14002285EFF05028AA844146CA854E85972065
:10EB2400FB1FE780408E22859710FB1FE780805CE7
:10EB3400F240624426854249D244B249224A0561E0
:10EB44008280CD44F5B75D71A2C4A6C24EDE52DC0C
:10EB540086C6CAC0AE89328AAA849720FB1FE78082
:10EB640020C44059414681450A859720FB1FE78010
:10EB7400808149C803594400631699081C20D9E3CD
:10EB8400183099476313F70414081306C404930553
:10EB9400C40213057400EFF0BFF12DE52285EFF0F8
:10EBA4000FA32A860C080A859710FB1FE780607A5A
:10EBB4008A854A85EF20C0270545B64026449644F9
:10EBC4000649F259625A616182802C5085CDC5464E
:10EBD4009E29631FD7086312FA022146C9054E8590
:10EBE4009710FB1FE780807F85476318F500228517
:10EBF400EFF0EF9D2A862C507DB7930520032685E0
:10EC0400EFF09F9F26859720FB1FE78060B92A8439
:10EC14003DCD4C55ADCD9E29639B47072146C90583
:10EC24004E859710FB1FE780607B85472A89631018
:10EC3400F5064C540A85B02D9710FB1FE7806071D0
:10EC4400B727002083C7D73889C75C54BC3F639873
:10EC5400270FBD452685EF202018B727002083A75E
:10EC6400075B0145B9DB1D45894582970145B1B76D
:10EC7400E31AFAF82146C9054E859710FB1FE78071
:10EC8400E0758547E310F5F82C50B02D29BFB73750
:10EC9400002003C7078BB72900209389C957058B28
:10ECA4003E8929C3B7370020583083C7878A631B3E
:10ECB400F702B735002019469385958A1305640039
:10ECC4009710FB1FE78080718547631DF50083A7BC
:10ECD400490381C791451D458297BD452685EF208F
:10ECE400A00FD9BD373700200347F78A83A749030C
:10ECF40031CB0347098B098B09CB81C795451D454A
:10ED040082972685EF20001345BD81C78D451D459B
:10ED140082974146814508109710FB1FE780A06643
:10ED2400B725002019469385055E08109710FB1F30
:10ED3400E78020620C100A862E85EFF0D0058A85C4
:10ED440026858DBD8545C5FF6DBF8147C146330707
:10ED5400F500B388F500182383C808003308F600CB
:10ED64008507334717012300E800E392D7FE82802A
:10ED74000147BD471308F00F3306F5001422B3888A
:10ED8400F500FD178606558F2380E800182293F7B7
:10ED9400F70F1D83E39207FF82808147930800F8F1
:10EDA400414893F6F70F3387F50063FAC600B306BC
:10EDB400F500942214A38507E39507FF82806395E9
:10EDC400C60023001701C5BF23000700EDB70111DA
:10EDD4004AC856C22E89AA8A93053005414506CEF3
:10EDE40022CC26CA4EC652C4328A9710FB1FE78033
:10EDF4002025AA849305300541459710FB1FE78021
:10EE040020242A84CD49A5C431CD4146814597109B
:10EE1400FB1FE78040572686A2855685EFF0A07732
:10EE2400AA8929E18387040063D30706A28526857E
:10EE3400EFF01FF4B78506004A86938505DF228527
:10EE4400EFF0BFF08307090063D80704A2854A8561
:10EE5400EFF01FF2B78506005286938505DF228501
:10EE6400EFF0BFEE26859710FB1FE780A02811C4A2
:10EE740022859710FB1FE780E027F24062444E850D
:10EE8400D2444249B249224A924A05618280CA85E3
:10EE94002685EFF0FFED7DB7D2854A85EFF05FED73
:10EEA400D1B739715AD05ECE2A8BAE8B41459305CA
:10EEB400300506DE26DA52D456D262CC66CA6AC857
:10EEC400368C328DBA8C22DC4AD84ED69710FB1F72
:10EED400E7800017AA8A9305300541459710FB1F68
:10EEE400E78000162A8ACD44638E0A0859C52A860B
:10EEF400D6855A85EFF0BFEDAA8441E1930530052C
:10EF040041459710FB1FE780A0132A89930530051C
:10EF140041459710FB1FE780A012AA89630A090ED6
:10EF24006306050E1304FD0011841376FD0049C029
:10EF34007D144204418035EE131544004E86D68577
:10EF44005E95EFF09FE0414681454A859710FB1F8F
:10EF5400E7806043014D93170D01C18363F4870873
:10EF6400BDC04A859710FB1FE780C018638709005E
:10EF74004E859710FB1FE780E01756859710FB1FFF
:10EF8400E780401763070A0052859710FB1FE7804C
:10EF94006016F250625426854259D254B259225A0C
:10EFA400925A025BF24B624CD24C424D21618280F8
:10EFB4000144131544008A855E95EFF01FDE4E86EA
:10EFC400D2850A85BDBF93154D000A86DE954A8514
:10EFD400EFF0BFD74A868A855A85EFF0C05BAA84D2
:10EFE400050D95BFBDFC0A86CE854A85EFF0FFD599
:10EFF4004A868A855A85EFF0005AAA846686CA85AD
:10F0040062859710FB1FE780C034A1BFCD4491BF38
:10F01400CD44A9BF894759C2D1C108A29C211CB2C1
:10F024009C313CA2BC213CB2BC31A30206005CA2D0
:10F03400DE21A183858B5CB2DA211377072001C717
:10F0440093E727005CB2DE2193F7074089C75C325F
:10F0540093E747005CB2DE2113974701635607002C
:10F064005C3293E787005CB223030600DC21858BC6
:10F074007CA2DA21098B01C793E727007CA2DE2159
:10F08400918B89C77C2293E747007CA2DA218147D0
:10F09400218B09C778221367870078A23E85828076
:10F0A4002E86AA8505456FF0FFF62E86AA850945AA
:10F0B4006FF05FF64DC95971A2D42A844A21A6D2B1
:10F0C400CAD0CECED6CA86D6D2CCDAC8DEC6B68AE6
:10F0D400B2892E899710FB1FE780806CAA8431C502
:10F0E4000C182285EFE07FEF1C20138A6400A9CB63
:10F0F400EF504FF82A8B014583CB5400EF508FF526
:10F10400AA840C100818EFF0BFF9084C2C10EFF08B
:10F11400DFF9D288268A56C05E88D2875A871410AF
:10F124003010CE854A85EFF09F84B650265496540D
:10F134000659F649664AD64A464BB64B6561828003
:10F14400EF504FF3AA8B014503CB5400EF508FF0DF
:10F154002ACE084C0C10EFF0BFF42C100818EFF076
:10F16400DFF4F2484DBF8280894799C511C5AD4788
:10F174009CA11C219CB181473E858280011122CC37
:10F184004AC806CE26CA2A84EFE01FD02A8901CDB8
:10F19400E1476301F50E2149F24062444A85D244B5
:10F1A4004249056182807C4CBC2B858B99CB1C4CDD
:10F1B4000547BC238D8B6396E7007C2093E71700FB
:10F1C4007CA024308947639DF4004A208545EF6084
:10F1D400AF8E7C2093E747007CA08D471CB06DBFA9
:10F1E4000D47639CE4004A208945EF60EF8C7C2046
:10F1F40004B093E747007CA045B71147E387E4FCDC
:10F204000547639FE402930474001CB041468145A2
:10F2140026859710FB1FE78000171306C40232856A
:10F22400C14532C6EF508FB6324622859306C401DB
:10F23400A685EFF03FE82285EFE0BFE731DDA1BF0F
:10F244001547E39BE4F4930474001CB041468145E4
:10F2540026859710FB1FE78000136C4C41462685DA
:10F2640089059710FB1FE780C00E7C2093E74700B9
:10F274007CA065B70D490DB7397122DC405926DAF7
:10F284004AD84ED606DEAA89AE8432896306041EA5
:10F294002A215E20638BA700A144F2506254268584
:10F2A4004259D254B259216182801C2099E39D4471
:10F2B400EDB7AD47E3EDB7FE9387E5FF93F7F70F9F
:10F2C4002547E366F7FE378706008A07130787D5C5
:10F2D400BA979C438287B2852285EFF03FEAAA84DD
:10F2E4006DBF4146CA851305C4039710FB1FE78011
:10F2F40040062285EFE01FDFAA8411C1A14495478F
:10F304001CB061BF9309C404CA8541464E85971059
:10F31400FB1FE78000041309740014084E86CA8595
:10F324002285EFF03FD941469305C403080897109E
:10F33400FB1FE780A00A8547E311F5F68A861306CA
:10F34400C402CE854A85EFF0AFF609ED2285EFE0E1
:10F354001FA82A874A20814601468A85EFE0BF819B
:10F36400AA8411C1A144994761BF18309D47E31095
:10F37400F7F47C5089EB9305300571459710FB1F1A
:10F38400E78000CC68D068501DD14146CA859710EB
:10F39400FB1FE78000FC2285EFE07FA37C50A8AF31
:10F3A400A1471CB08144D5BD6850E30205F0183074
:10F3B400A147E31EF7EE1E229305290021461EA94C
:10F3C40049059710FB1FE780C0F87C4CDE2B13F730
:10F3D400270029CF184C5A23098B29CBA547D1B72D
:10F3E4001830A547E315F7EC3C5481EB85455945A6
:10F3F4009710FB1FE780C0C428D4285419C5414680
:10F40400CA859710FB1FE780C0F4A94759BF18307D
:10F41400A947E31EF7E82854194693051900410546
:10F424009710FB1FE780E0F27C4CDE2B918B8DCF95
:10F434001C4CDE23918B8DCBAD47A5B77C5489EB57
:10F444009305300551459710FB1FE78060BF68D4D2
:10F454006854E30305E44146CA859710FB1FE7801F
:10F4640040EF7C547D5798CB4E85EFF0CF9E1DBF67
:10F474000C22EFF06F983DB7AD47E395F5F21422F7
:10F484002E21130665000821EF508FF421BF15C10A
:10F49400AA8709458DC141112E85414693851700E0
:10F4A40006C69710FB1FE780C0EAB2400145410140
:10F4B400828009458280828089470DC585C54111B6
:10F4C40006C61831AE87194698A193052500138501
:10F4D40017009710FB1FE780C0E7B24081473E85C5
:10F4E400410182803E85828015C1AA8709458DC16C
:10F4F40041112E8541469385170006C69710FB1FC0
:10F50400E78020E5B24001454101828009458280BF
:10F514008280894705C99DC5411106C63821143129
:10F52400AE872207558F9AA121469305350013858E
:10F5340027009710FB1FE780C0E1B24081473E855A
:10F54400410182803E85828015C1AA8709458DC10B
:10F5540041112E8541469385170006C69710FB1F5F
:10F56400E78020DFB2400145410182800945828065
:10F574008280094701CD99C91C31A14601479CA14C
:10F58400FD1793F7F70F63F3F60061473A8582801E
:10F5940015C1AA8709458DC141112E854146938520
:10F5A400170006C69710FB1FE780A0DAB24001459A
:10F5B40041018280094582808280894779C9F1C9E5
:10F5C400411106C622C426C21C312E849CA13C21B2
:10F5D4009CB13C31BCA15C21BCB15C31858B939660
:10F5E4008700DE2193F7F7EFD58FDEA1543193F72F
:10F5F400F7DFA20693F60620DD8ED6A1583193F6E6
:10F60400F6BF220713770740558FDAA15C31FD76E8
:10F614009386F67F8D83858B758FAE07D98FDEA198
:10F624007421F99B858ADD8ED6A1782193772700F2
:10F6340013F7D6FF5D8FDAA17C2193F64700937709
:10F64400B7FFD58FDEA17821DD9B4D45218BD98F66
:10F65400DEA1EF509FA5AA845145EF501FA5383075
:10F6640093F4F40F1375F50FC947636E9700636C39
:10F67400E50014201147E1476367D70014300547BC
:10F684006363D7008147B240224492443E854101DE
:10F6940082803E85828015C1AA8709458DC14111AA
:10F6A4002E8541469385170006C69710FB1FE780F9
:10F6B40040CAB2400145410182800945828082806E
:10F6C400797122D42A84084506D626D2230601005D
:10F6D400042129479387F4FF93F7F70F636CF70A24
:10F6E400378706008A07130707D8BA979C4382878F
:10F6F4000C08EFF09FECC9476310F50299475C864C
:10F704002A206C00EFF00F8FB250225492544561BE
:10F7140082800C08EFF05FE331C51C86F5F32A20E4
:10F72400EFE0FF8FD5B70C08EFF09FE6F5B70C08B4
:10F73400EFF03FE4D5B70C08EFF07FD5F1BF0C082C
:10F74400EFF03FDDD1BF0C08EFF01FDAF1B70C0882
:10F75400EFF09FD6D1B70C08EFF0FFF375BF1C3163
:10F764002308F1002A209710FB1FE7806003A147BC
:10F7740005C158256312F702B727002003A7C74223
:10F784009D4719C7184309C71008A6850297AA8779
:10F794005C8661B79D47A5B7B727002003A7074339
:10F7A400C5B7411122C406C61821930720092A842B
:10F7B400631AF7081C3139476391E7025621096738
:10F7C40061078147639BE6061C452244B2408823B7
:10F7D4009385170041016FE04FE11307E003639144
:10F7E400E70838219547631BF7024A21EFE0AF8809
:10F7F40091476304F500854789A0B727002083A7B4
:10F804000743F5DB03A38700E30703FE72244A20C2
:10F81400930564002244B24041010283A147631965
:10F82400F7006C204A202244B24041016FE03FEFD0
:10F83400930600038147E306D7FEB24022443E8587
:10F84400410182809306000A8147E318D7FEEFF056
:10F854003FE708444DD19710FB1FE780A08961BFA3
:10F864008147E1BF411122C426C206C62A84EFE0C3
:10F87400AFE1AA8419C9E1476304F50AA144B2407F
:10F88400224426859244410182802285EFE0DFCB29
:10F894006C4CBC29858B99CB1C4C0547BC238D8BA8
:10F8A4006396E7007C2093E717007CA03C3009476F
:10F8B400639DE70089454A20EF501FA07C2093E711
:10F8C40047007CA091471CB05DBF9386D7FF93F699
:10F8D400F60F05466364D6008545F1BF6391C70200
:10F8E40018B041468145130574009710FB1FE7804B
:10F8F40080A9C1451305C402EF405FC949B79546C5
:10F90400E39FD7F618B04146890513057400971094
:10F91400FB1FE78000A47C2093E747007CA0D1BFB5
:10F924008D44B1BF797122D4405926D24AD04ECEEB
:10F9340006D6AA89AE8432896308041E2A215E2071
:10F94400638BA700A144B2502254268502599254D5
:10F95400F24945618280182085476314F7009D446D
:10F96400DDB79387F5FF93F7F70F2547E369F7FEB4
:10F97400378706008A071307C7DABA979C4382873A
:10F98400B2852285EFF01FEEAA8475BF4146CA8571
:10F994001305C4039710FB1FE780A09B1830914701
:10F9A4006304F7029306C4011306C40293057400AA
:10F9B4002285EFF02FF02285EFE0AFEFAA8411C18A
:10F9C400A14495471CB041B78D471CB08144A5BFE5
:10F9D4009307C4043E85CA8541463E899710FB1FA0
:10F9E400E78020978A864A86930574002285EFF083
:10F9F4006FEC41469305C4030A859710FB1FE7800B
:10FA0400E09D8547E311F5F42285EFE0AFEDAA848C
:10FA140015F9994745BF1830B147E312F7F47C5004
:10FA240089EB9305300571459700FB1FE780406122
:10FA340068D068500DD54146CA859710FB1FE780F2
:10FA440040912285EFE0AFB87C50A8AFB547B5BF71
:10FA54006850E30605F01830B547E312F7F01E22AC
:10FA64009305290021461EA949059710FB1FE7802D
:10FA7400408E7C4CDE2B13F7072039CF184C5A23C9
:10FA84001377072031CBB94789B71830B947E31842
:10FA9400F7EC3C5489EB9305300559459700FB1F5F
:10FAA400E780005A28D4285419C54146CA859710BE
:10FAB400FB1FE780008ABD4709BF1830BD47E3102C
:10FAC400F7EA285419469305190041059710FB1FBE
:10FAD400E78020887C4CDE2B93F7074095CF1C4CA5
:10FAE400DE2393F707408DCBC147C5B57C5489EB22
:10FAF4009305300551459700FB1FE780605468D497
:10FB04006854E30105E44146CA859710FB1FE7806A
:10FB140040847C547D5798CB03D529008145EFE080
:10FB2400BFAD6DB50C22E5BF8547E391F5EA032827
:10FB340046003C32382214322E2110220145EF4077
:10FB4400FFFF69B5011126CA06CE22CC89440DCD2A
:10FB540085CDAA842E8468008D45EF403FA31C8781
:10FB64002685228693F7F70393E707046C005C87E6
:10FB7400EFE0FFD4AA8409E90D466C0013053400B4
:10FB84009700FB1FE780E07CF24062442685D24464
:10FB9400056182805D714EDE86C6A2C4A6C2CAC05B
:10FBA40052DC56DA5AD85ED6894945CD5DCA138BE4
:10FBB4004500420B135B0B01AE8A2A8A930530057C
:10FBC4005A85B2849700FB1FE78080472A84CD4979
:10FBD40049C9EF401FCC2A895686D285935A890099
:10FBE400135A0901937BF90F1305440093FAFA0F92
:10FBF400137AFA0F135989019710FB1FE780A0802D
:10FC0400A301740123015401A3004401230024012E
:10FC1400EF409FC7AA85414608089700FB1FE7806D
:10FC2400807E214734005A86A2850808EFF06FA72A
:10FC3400AA891DE121462C0023807401A38054016C
:10FC440023814401A3812401138544009700FB1FF1
:10FC5400E780607BEF40BFC422859700FB1FE780ED
:10FC64006049B64026444E8596440649F259625A84
:10FC7400D25A425BB25B61618280011106CE2AC610
:10FC8400EFE08F8E3245B72700209945A389A76EF0
:10FC9400EFC08FDDF24037F504001305858605615A
:10FCA4006FD01FB6B727002083C7476FA18B89C7C2
:10FCB400B72700209387C733372700202326F7422E
:10FCC40001458280797152CC2A8A2E8506D622D4A7
:10FCD40026D24AD04ECE2EC69710FB1FE78040ACEA
:10FCE40051CD405951CC3C308949F91793F7F70F5E
:10FCF40063E8F9085E20B24589446391B7061309A5
:10FD040074004146D2854A859700FB1FE7806064F2
:10FD14001306C4023285C14532C6EF403F873246DE
:10FD24009306C401CA852285EFF0CFB818201C3091
:10FD34000DC30D4781446393E702A3003401228578
:10FD44002254B25092540259F249624A45616FE01A
:10FD54004FB61147639DE70004B08144B25022546A
:10FD6400268502599254F249624A456182800D47C0
:10FD74008144E395E7FE95471CB0D1B78944F9BFA8
:10FD8400C944E9BF79719397050122D406D626D2D6
:10FD94004AD04ECEC1872E8463D50704B7240020F1
:10FDA4009384046FA8309700FB1FE78080452AC620
:10FDB40009CDEFF01F9FB24511E5A8209307F00F7E
:10FDC400631EF5002E85EF206FFB2165218DB25057
:10FDD400225492540259F24945618280EF20FF80F7
:10FDE400EDB793F7150091C7EFE01F8E134514008C
:10FDF400F9BF8DE90145E1BF850493F4F40FEFD019
:10FE04009F9FE3F9A4FE3395990013190501135933
:10FE14000901B3772401EDD34A85EFE01FA83345E8
:10FE2400240175B785448549D9BF39C9011126CA4A
:10FE340006CE22CCAA8409459DCD0D4628002E84E9
:10FE44008D059700FB1FE780C0501C8570002C00B7
:10FE540093F7F70393E7070426855C85EFE03FA655
:10FE640019E90D46A28568009700FB1FE78000573B
:10FE74007D153335A000F2406244D244056182808E
:10FE840009458280B727002083C7476F918B89C7B4
:10FE9400B727002093878734372700202328F74289
:10FEA40001458280011152C42A8A32854EC656C247
:10FEB4005AC006CE22CC26CA4AC82E8BB28AB6892C
:10FEC4009710FB1FE780C08D09ED8944F24062441E
:10FED40026854249D244B249224A924A024B0561DC
:10FEE40082805C592A89C544F5F34D45EF50EF9B58
:10FEF4001374F50F5145EF504F9BE38809FC83C7FA
:10FF04008901E3E487FC1375F50FE360F5FC9305C1
:10FF14003005130500079700FB1FE7806012232AB2
:10FF2400A9022A84CD445DD11306000781459700B8
:10FF3400FB1FE7804045A300040023004401230184
:10FF4400640123125401232E3405232C0400A3013D
:10FF5400040063160A0085471CB0814485BF2285CE
:10FF6400EFE08FDE85471CB0AA842DD14A85EFE0EF
:10FF74004FE2A9BF397122DC06DE26DA4AD84ED612
:10FF840052D456D25AD05ECE62CC66CA0944630DAE
:10FF94000610630B0710AA8B3A89368BB28A2E8C13
:10FFA4009700FB1FE780C07F2A8A5144630E050E29
:10FFB4009305300541459700FB1FE7806008AA8937
:10FFC4004D447DC18344190083472900A204C2071C
:10FFD400BE9483470900BE9483473900E207BE9468
:10FFE40083278A0263E697007D5709446399E70AE9
:0CFFF40063070C0083474A000544898B1A
:020000025000AC
:10000000CDC3930C4B00214681450A85C20C970055
:10001000FB1FE780803793DC0C0193053005668574
:100020009700FB1FE78000022A8C4D443DC95A8689
:10003000D68511059700FB1FE780203D1146CA8534
:1000400062859700FB1FE780403C414693058A018B
:100050004E859700FB1FE780403B21478A866686D6
:10006000E2854E85EFE03FE42A841DE521468A853E
:1000700028009700FB1FE78040392146930549007F
:1000800028009700FB1FE780A0358547631EF50217
:10009000A6855E85EF508FAD62859700FB1FE780D8
:1000A000A0054E859700FB1FE78000052285F250D2
:1000B0006254D2544259B259225A925A025BF24BBC
:1000C000624CD24C216182800544F9B7397162CC0F
:1000D0002A8C594526DA4AD84ED652D456D25AD00E
:1000E0005ECE06DE22DCAE8B328BB68A3AC63E8A04
:1000F000C289468983440104EF204FCB2DCD9167FF
:10010000938717E91EA185473CA12A843247210520
:10011000630A0C04930710033CB01946814597000D
:10012000FB1FE780802623036401A303540144A836
:1001300023127401231744012318340123192401C5
:10014000A285B72700206254F250D2544259B259C6
:10015000225A925A025BF24B624C03C5076F21612F
:100160006F20EFC8A30104001946BA859700FB1F52
:10017000E780601E4DBFF2506254D2544259B259CA
:10018000225A925A025BF24B624C21618280797151
:1001900056CAAA8A1305100326D24AD04ECE52CC94
:1001A00006D622D42EC6328AB684BA893E89EF207A
:1001B000EFBF39CDB24537460201930785001306DC
:1001C00016E92A845CC110C1230455010CB51946F7
:1001D000D28529059700FB1FE780E017CE8504A88C
:1001E0001305140126869700FB1FE780C01623081D
:1001F0002403A285B72700202254B25092540259FA
:10020000F249624AD24A03C5076F45616F202FBE8B
:10021000B250225492540259F249624AD24A45617C
:100220008280011122CC2A84314506CE2EC632C4EA
:1002300036C23AC0EF208FB715C99167938717E987
:100240001EA1B2452246924602478D473CA120B1ED
:100250006244B72700204EA172A116A53AA5F2402C
:10026000AA8503C5076F05616F206FB8F24062442D
:100270000561828001114AC82A89394526CA06CEFD
:1002800022CC2EC6B284EF206FB21DCDB24591674D
:10029000938727E91EA191473CA1A30125014EA107
:1002A0002A84A685190521469700FB1FE780A00A2E
:1002B000A285B72700206244F240D244424903C5D8
:1002C000076F05616F20AFB2F2406244D2444249E9
:1002D0000561828001114AC82A89414526CA06CE95
:1002E00022CC2EC6B284EF206FAC15CD9167B245FB
:1002F000938727E91EA195472A843CA12312250153
:10030000214619059700FB1FE780E004A28566A43B
:10031000B72700206244F240D244424903C5376FF8
:1003200005616F20CFACF2406244D244424905617E
:100330008280011122CC2A84394506CE2EC632C4D1
:1003400036C23AC0EF208FA615C99167938717E987
:100350001EA1B24522469246024799473CA142A1BE
:10036000B727002062446EA112A536A55AA5F24017
:10037000AA8503C5076F05616F206FA7F24062442D
:1003800005618280797122D406D62A842EC632C4B1
:1003900036C23AC09700FB1FE780C04019CDB24576
:1003A000224692460247EC84F0852C081306F00F93
:1003B0002285F486F887EFD0CF9DB2502254456154
:1003C0008280011122CC2A84394506CE2EC632C441
:1003D00036C23AC0EF208F9D15C99167938717E900
:1003E0001EA1B2452246924602479D473CA142A12A
:1003F000B727002062446EA112A536A55AA5F24087
:10040000AA8503C5076F05616F206F9EF2406244A5
:10041000056182805D712AC613052002CAC04EDEC6
:1004200052DC56DA5AD85ED662D466D26AD086C614
:10043000A2C4A6C26ECE2E8CB28B368B3AC43E8D31
:10044000C28CC68A035A01058359410503498105B7
:10045000EF20CF9571C191663243938616E9A94783
:100460002A8416A13CA1930DE400210593044401C4
:100470002247630C0306930710033CB019468145DD
:100480009700FB1FE78060F0194681456E85970055
:10049000FB1FE78080EF1946814526859700FB1FEB
:1004A000E780A0EE23037401A30364012300240367
:1004B00023128401231D5401231E4401231F3401F0
:1004C000A285B72700202644B64096440649F25933
:1004D000625AD25A425BB25B225C925C025DF24D80
:1004E00003C5076F61616F208F90BA85A301040077
:1004F00019469700FB1FE78000E6EA856E851946DE
:100500009700FB1FE78020E51946E68526859700C2
:10051000FB1FE78040E479B7B6402644964406497D
:10052000F259625AD25A425BB25B225C925C025D23
:10053000F24D6161828079715EC6AA8B61454ECEB3
:1005400052CC56CA5AC862C406D622D426D24AD041
:100550002E8BB28A368ABA893E8CEF202F8525CD24
:1005600037470B01130717E913048500AA8418C144
:1005700040C101491305240023007401A300640154
:100580001946D6859700FB1FE780E0DC1305940031
:10059000230444011946CE859700FB1FE780A0DBAA
:1005A000A3078401B83005091379F90F4104E36307
:1005B000E9FC2254B7270020B2500259F249624A9E
:1005C000D24A424BB24B224CA68503C5076F9254C8
:1005D00045616F20CF81B250225492540259F249A2
:1005E000624AD24A424BB24B224C45618280011191
:1005F00022CC2A84214506CE2EC632C436C2EF1044
:10060000FFFA05C9224692469167938717E91EA112
:10061000B245B1473CA120B170A174B16244B72783
:1006200000204EA1F240AA8503C5076F05616F1037
:100630001FFCF2406244056182805D71A6C2834462
:10064000C1052AC6CAC0138544024EDE52DC56DA02
:100650005AD85ED662D466D26AD06ECE86C6A2C49E
:100660002EC4B28D368DBA8C3E8CC28B468B835A8B
:100670000105034A4105E6490659EF103FF359C900
:100680003243A24537460D0193078500130616E94C
:100690002A845CC12304650010C10CB51946EE859F
:1006A00029059700FB1FE78000CBCE852308A40116
:1006B000A308940123098401A3097401230A640196
:1006C000231B5401230C4401130594011946970080
:1006D000FB1FE78040C81305440264BC08D0CA85EC
:1006E00026869700FB1FE78000C7A285B72700205A
:1006F0002644B64096440649F259625AD25A425BA1
:10070000B25B225C925C025DF24D03C5076F6161D2
:100710006F10FFEDB640264496440649F259625ADE
:10072000D25A425BB25B225C925C025DF24D616127
:100730008280411126C2AA84514506C622C4EF1008
:10074000FFE635C19167938717E91EA1B9473CA120
:100750009C302A84938564003CB1BC30B8202105CC
:10076000A207D98F231EF5FEDC201946230FF5FEC4
:10077000DC30A30FF5FE9700FB1FE780C0BDDC2433
:10078000A2857CA4FC24D834A207D98F1EA8FC34EF
:100790003CA82244B7270020B240924403C5076F0B
:1007A00041016F10DFE4B240224492444101828053
:1007B00079714AD0372900209308096F06D622D4D0
:1007C00026D24ECE52CC56CA5AC85EC662C403C3A5
:1007D00078009308F00F630D13072A8C1385070127
:1007E000C289BE843A8AB68A328BAE8BEF101FDC88
:1007F0002A8439CD9307000D1EA1D9473CA12312AD
:10080000850123037501A303650123045501A30496
:10081000450124A51309096F8DC8410548C42686E2
:10082000CE859700FB1FE78000B3A28522540345C5
:100830007900B25092540259F249624AD24A424B6C
:10084000B24B224C45616F109FDA23260500F1BFA1
:10085000B250225492540259F249624AD24A424B4F
:10086000B24B224C45618280411122C42A84194531
:1008700006C6EF10BFD315C19167938717E91EA174
:10088000C1473CA142A1B72700202244B240AA851B
:1008900003C5076F41016F109FD5B240224441014B
:1008A000828041110D4506C6EF105FD015C1930738
:1008B00010F91CA19307E0031CB1C5473CA1B72761
:1008C0000020B240AA8503C5076F41016F103FD2D7
:1008D000B24041018280011122CC2A84294506CEF2
:1008E0002EC632C436C2EF107FCC05C9B24592463F
:1008F0009167938717E91EA12246C9473CA14CA1E5
:1009000020B114A56244B727002072A1F240AA8545
:1009100003C5076F05616F109FCDF240624405610A
:10092000828001114AC82A892D4526CA06CE22CCCA
:100930002EC6B284EF109FC729C1B245930710F9A4
:100940001CA19307E0031CB1CD473CA1A3012501E5
:100950004CA12A84A685150519469700FB1FE78040
:10096000809FA285B72700206244F240D2444249CA
:1009700003C5076F05616F109FC7F2406244D24400
:10098000424905618280011122CC2A84214506CE8C
:100990002EC6EF10BFC105C5B2459167938717E911
:1009A0001EA1D1473CA16CA142A1B72700206244FF
:1009B000F240AA8503C5076F05616F105FC3F2405F
:1009C000624405618280011122CC2A84214506CE31
:1009D0002EC632C4EF109FBD1DC12246B2459307FB
:1009E00010591EA120A170A16244B72700204EA17A
:1009F000F240AA8503C5076F05616F105FBFF24023
:100A0000624405618280011122CC2A84214506CEF0
:100A10002EC632C4EF109FB915C522469167938741
:100A200027E91EA1B245A1473CA160A170B1624473
:100A3000B72700204EA1F240AA8503C5376F056194
:100A40006F10FFBAF240624405618280011122CC2E
:100A50002A84314506CE2EC632C436C23AC0EF10C3
:100A6000FFB405C922468567B2459246024793877F
:100A700017C91EA120A170A16244B72700204EA172
:100A800016A53AA5F240AA8503C5076F05616F1048
:100A90001FB6F240624405618280011126CAAE840D
:100AA0004AC82A891385C40006CE22CC32C6EF106C
:100AB000FFAF0DCD8567938717E9B2451EA124A12D
:100AC000231225012A84310508C426869700FB1FBE
:100AD000E7806088A285B72700206244F240D244B4
:100AE000424903C5076F05616F107FB0F240624451
:100AF000D244424905618280011122CC2A841945E1
:100B000006CE2EC6EF109FAA05C58567938717F9F5
:100B10001EA1B24585473CB120A16244B727002001
:100B20004EA1F240AA8503C5076F05616F103FAC67
:100B3000F240624405618280411122C42A840D453D
:100B400006C6EF10BFA60DC1930710F91CA1E94717
:100B50001CB120A12244B7270020B240AA8503C5BA
:100B6000076F41016F10BFA8B2402244410182804B
:100B7000011122CC2A84214506CE2EC6EF101FA3D8
:100B80000DC59167938727E91EA1B245930700031E
:100B90003CA160A16244B72700204EA1F240AA8583
:100BA00003C5376F05616F109FA4F2406244056171
:100BB00082800111214506CE2EC632C4EF101F9F40
:100BC00005C58567B2452246938707391EA185472B
:100BD0003CA1B72700204EA172A1F240AA8503C50F
:100BE000476805616F10BFA0F240056182803971CE
:100BF00022DC4ED652D45AD006DE26DA4AD856D255
:100C00005ECE094B2A8A3284B689639465133729EC
:100C1000002083474942CA8A8944C1C39C32982232
:100C20009306C6FFA207D98F372700202310F7703D
:100C3000BA84639BD70831452EC6EF103F97AA842C
:100C400035CDB245420441804CA162A1930700F921
:100C50001504A1651EA1231145018505228597F084
:100C6000FA1FE780203E88C429C5834749429385FF
:100C7000E9FF13562400FD172302F94297F0FA1FEB
:100C8000E780206F9C44A68589079CC4B727002075
:100C900003C54768EF10BF958144F2506254268522
:100CA0004259D254B259225A925A025BF24B2161F4
:100CB0008280268597F0FA1FE7800044B72700203E
:100CC000239107708544D1BF1307D6FFE3C8E7FE21
:100CD000B727002003C74743138A4743372900201B
:100CE00001CB0325C96F09C597F0FA1FE780C04003
:100CF00003D50470A165850511054205418197F072
:100D0000FA1FE7802034232EA96E4DDD83C74A42A7
:100D10002286CE85FD172382FA4297F0FA1FE780DC
:100D20008063B72700202391877085472300FA004E
:100D3000A5B73729002083572970CA8BC1D7B7249C
:100D4000002003D70470B72A0020B386C70011071C
:100D500003A5CA6F6346D7063E95CE8597F0FA1F66
:100D6000E780605F0356297083D704708144329412
:100D700042044180231189709107E310F4F2314558
:100D8000EF10DF82AA851DC9930700F91EA18357C2
:100D9000297023114501230265017EA183A7CA6F33
:100DA0001CC5B727002003C54768EF105F84B7272D
:100DB000002023110970238A0742C5B503A5CA6F15
:100DC00009C597F0FA1FE7802033B7270020239149
:100DD0000B70238A0742FDB56F00F1186F00311ABE
:100DE0006F0091666F10C10E6F00911C411106C615
:100DF000EF003119B2400145410182806F00D11DE1
:100E00006F00B11F6F0071226F0051246F00112617
:100E10006F00D1276F0091296F00512B6F00112DAA
:100E20006F00B12E6F0071301C321022A2075D8E50
:100E30006F00D1316F0011336F0071356F00515B5E
:100E40006F00D15D6F0011636F00F1646F00D166B8
:100E50006F00B1686F00916A6F00716C034301000D
:100E6000030E4100834E8100034FC100834F0101F7
:100E700083424101834381017EC816CA1ECC7AC6D3
:100E800076C472C21AC06F00916B6F0091706F00D0
:100E900071726F0051746F0031766F0011786F00BE
:100EA000F1796F00D17B6F00B17D6F00917F6F3062
:100EB000811A6F30A12A6F30212D6F300135411119
:100EC00022C406C62A847E215821543130212C3177
:100ED0000A21EF30E13901E90C240A202244B24012
:100EE00041016F30E144B2402244410182806F30C1
:100EF000A13E6F30014A1307A5FF420785672A8884
:100F000041831385A7C7636CE502138707C80145B2
:100F10006368B70263E605031307301F6362C70205
:100F2000138766FF42074183938767C763EAE70039
:100F300005063306B6028E063325D60082800145AB
:100F40008280B78606008147938606E01308F00F7B
:100F50003387F60010231317060141836364E5000D
:100F600063130601828092216364C7009AA1828084
:100F7000850793F7F70FE9BF41119397050122C445
:100F800006C626C2C1872E8463D6070297F0FA1FD1
:100F9000E7806027AA8401CD1C21054793C7070875
:100FA0006364F700EF90C03C2685EF106FDD21658C
:100FB000218D21A893F7150091CFB727002083A793
:100FC000077791C3829713451400B240224492449C
:100FD0004101828093F7250091CBB727002083A79A
:100FE000477791C3829713452400C5B793F78500CF
:100FF00099CBB727002083A7C777BC5B91C38297A3
:1010000013458400D9B793F7450099CBB727002043
:1010100083A7C777FC5791C382971345440075B7E0
:1010200093F7050281CFB727002083A7C77883A74E
:10103000070991C382971345040241BF93F7050145
:1010400081CFB727002083A7C77883A7C70891C39C
:1010500082971345040195BF939725010145E3D677
:1010600007F6B727002093878770F433F023CC333B
:10107000C823EF003175096525BF411126C2B72489
:101080000020B737002013068011814522C42A842E
:101090001385847006C623A207824AC097F0FA1F00
:1010A000E780A02E0145EF20303F0145EF2010469C
:1010B000B7270020A3858752B707D707138484700A
:1010C000B1075CC8B7B70C0C938707111CCCB7B736
:1010D000D707938707115CCCED77938707117D477E
:1010E0001EB02328E40C81470327040C232AF40CA8
:1010F000B78701049387F79F5D8F8327440C3729B7
:1011000000201309C95793E7E7092322F40C23268B
:10111000F40C8347E9002320E40C2324E40CA30609
:10112000F40AA30AF40AF977FD17231BF40E231C13
:10113000F40EFD47230DF40E85679387F7F03EBC50
:101140005EBCA30C0402EF10FFE69307C01C23193A
:10115000F4068547A30FF4028357490028B02322E1
:101160000404A983A30EF4068D472311F4048357C6
:1011700009019306B00F1387847063F4F600930798
:10118000B00F139607013EB77EB78347C70341826E
:10119000918BD1C7931766009387073D8346D7038A
:1011A000C207C1835EB7918ABDCE9316660093864F
:1011B000063DC206C18216BB6D4593858470B2861A
:1011C0006373A600ED46B6B113068014BE8663F4C1
:1011D000C70093068014139606018567418256B3B3
:1011E000938787849384847063F3C700BE869307D4
:1011F000C01C2310F704B707160093870790F6B0BA
:1012000012B75CDBEFD03050EF40D001EFD0001FC1
:101210002244B2409244024941016F900063930717
:10122000E6008E07A5BF9306E6008E0659B7397112
:1012300022DC3704400026DA4ED6AE84AA89930514
:10124000E4FF054506DE4AD8EF10BFDF498C1317CF
:101250000401418321839317840013590401D98F1A
:10126000231601001379F90F10088A854E857C87B3
:10127000A306210102C002C202C402C802CA02CCF3
:1012800002CEEFD080318347E1010347D101A0B006
:10129000A2074207BA970347F1012180C0A0BA977D
:1012A000F25062549CA013D78700C183A38224010B
:1012B00098B0BCA04259D254B25921618280B7255E
:1012C0000020372500200111194693854559130543
:1012D000057E06CE22CC26CA4AC891644EC697F037
:1012E000FA1FE78040079385F4FF0145EF103FD3D5
:1012F0002A84FD550145EF10DFD4A287FD147D59E6
:1013000033F79700B366E500D5CA63142501630778
:10131000970A37240020130784702304F70EA18353
:1013200093E707FC9169C1642322A70EA304F70E7B
:1013300013048470FD19FD14CE850145EF103FCED6
:101340002A89FD550145EF10DFCFB3672501EDD7A1
:10135000FD576314F500E30139FF93570501230698
:10136000F40E93578501A306F40E8317840D2315FD
:10137000A40E2307240F4205135989001379F9039A
:101380004185A307240F658DE58F6312F5020317CE
:10139000C40E8317A40D658FE58F631AF70003173A
:1013A000E40E8317C40D658FE58FE307F7F8F2406D
:1013B0006244D2444249B24905618280A685014512
:1013C000EF10FFC52A84FD550145EF109FC7A28786
:1013D00005BF411126C2B724002006C622C44AC058
:1013E0009387847003C7E70383C7F703636AF70033
:1013F00001442285B2402244924402494101828044
:101400002A89930510201305800A97F0FA1FE780B8
:1014100060C32A8471DD1306800A81459384847039
:1014200097F0FA1FE78060F663140900C1571CA407
:10143000FC48A1E7A0C8E0C8A0CC23200400854751
:10144000238FF40285471CB4930700F93CB4B737E7
:10145000002093878783D84B9C4F38C47CC4FD57AA
:101460007CA8A30EF406B727002003C50759230262
:10147000A406EFD0202148B8ADBFBC4C80C3A0CC9F
:101480002320040083C7E40385075DBF011152C414
:10149000373A002083274A8522CC1307000A06CE5C
:1014A00026CA4AC84EC6F8D398432A840D8B05C372
:1014B000B84B619BB8CB98431367870098C39C4394
:1014C0008D83858B89C70100010001000100B739B8
:1014D000002083A709833706330093053002D857CD
:1014E0000545719B13671700D8D798431377F7E723
:1014F00098C398431377F7E71367071098C33737F4
:1015000000200327078A1447D18E14C783264A85F3
:101510001306A005B0CA5457F59A54D70347E407F9
:101520009376F7079843137707F8558F98C3EF1012
:10153000DFAC24449D471CA8230FA4069CA085472C
:10154000A3810400BCA03C4893F7074095C7A1477E
:10155000BCB03C440357A408D8A3BC2038448346FD
:10156000F4073E978357A4089206A183BD8BD58FBD
:101570005CA3BC208907BCA0AC2083564408930719
:10158000D00F372700208D8F1307877063D0D722A5
:101590008346040889476387F620054693078042FF
:1015A0006385C600856793878784F9469387771B91
:1015B000B3C7D70203460707136606012308C70609
:1015C00003274A85056610C7B386D702860634D33B
:1015D000B43093E60601B4B038448346E4072E974E
:1015E00034B3B420384436975CA3B8203444A18780
:1015F000BA96034704081607D98FDCB2BC208D07C2
:10160000BCA08347C40593F7070489CFB8303C4496
:10161000B42013670704B8B05838B697B8B3BC20E5
:101620008507BCA08347C4070547C11793F7F70F89
:101630006364F70603C92400B72500201546930705
:101640003900032984049385E57F3E99A14723004F
:10165000F90093078002A300F9001305290097F011
:10166000FA1FE78040CF0347C407C1476317F71449
:1016700083578408A1072311F408C547230EF406F5
:1016800083472408A303F90083572408A183230474
:10169000F900BC20A507BCA003564408014921C29B
:1016A000B82028448325040A930737003E95BC30B0
:1016B000C18B638E071079593309E9401379F90F0B
:1016C0004A8697F0FA1FE78000C98327040ACA9761
:1016D0003CDC83574408B38727412318F406B8201D
:1016E000B7060082FD169377F70385073E991379B5
:1016F000F90FA3082401B8A03C44A38027010327C5
:101700004A85930770F93CB45C43F99B5CC38347FB
:10171000440603A6098393F7F703139797015C56D2
:10172000F58FD98F5CD637170040930770052300DB
:10173000F704930780FA2300F70483064406A547BD
:1017400063DED7083E3393E707013EB30327C4089F
:1017500083A7098398C703270409D8C383274A8529
:101760003844B8DBEFD0402D3735050081451305EF
:10177000455EEF106FD5B737002093878783A3812D
:101780000700238207001038834504086244F240B2
:10179000D2444249B249224A014505611703FB1F61
:1017A0006700A34891679387072901B58347070717
:1017B00093F7F70E2308F706A9B503578408835754
:1017C0002408998F0947E34DF7EAC94745BD97F0CB
:1017D000FA1FE78040B80349440811B73E33C207F7
:1017E000C183BD9BC207C1838DB7B736002083A5D7
:1017F0004685411122C426C206C64AC09307000A84
:10180000FCD1B737002083A707832A84370533002C
:10181000D857719B13671700D8D798431377F7E70A
:1018200098C398431377F7E71367071098C33737C0
:1018300000200327078A1047498E10C71306A0050A
:10184000B0C95057759A50D70347E4071376F70786
:101850009843137707F8518F98C324449D471CA8D9
:101860009CA08547A3810400BCA03C4893F7074097
:1018700095C7A147BCB03C440357A408D8A3BC20DB
:1018800038440346F4073E978357A4081206A18301
:10189000BD8BD18F5CA3BC208907BCA0A8200357B7
:1018A00004079307E00F898F63DFE7060347040807
:1018B0008947630FF70E0546930780426305C7000B
:1018C00085679387878479479387771BB3C7E70238
:1018D00037260020130686708345060783A64685B3
:1018E00093E505012308B606056690C63387E7022F
:1018F0000607B8D2B43093E60601B4B03844834644
:10190000E4072A9734B3B420384436975CA3B82050
:101910003444A187BA96034704081607D98FDCB26E
:10192000BC208D07BCA00356040701490DCEB8208A
:1019300028442C5C930737003E95BC30C18BADCF5B
:1019400079593309E9401379F90F4A8697F0FA1F5C
:10195000E78060A03C5CCA973CDC83570407B387F0
:1019600027412318F406B82001459377F70385072C
:101970003E991379F90FA3082401B8A03C44A38031
:101980002701930770F93CB4B7370020938787830A
:10199000A3810700238207001038834504082244EE
:1019A000B2409244024941011703FB1F6700E3273D
:1019B00091679387072901BF97F0FA1FE780A099E5
:1019C000034904072318040679BF011122CC06CE6F
:1019D0002A8426CA4AC84EC697F0FA1FE780407D7F
:1019E000835784080347C40785072314F4088947ED
:1019F0006316F70A8D47230EF4063C4893E78700E9
:101A00003CC8B72700209387877003C71707098B47
:101A10006DDF03C717071377C70FA388E706B7273C
:101A2000002083A7475C8297B72700209387C7577A
:101A3000F62F03576408F03BA2853307D7029306BD
:101A40000032130707193357D7029306D4073A9584
:101A5000232AA4083306C540372505001305E5B73A
:101A6000EF001FD52285B7240020EFF03FA293841A
:101A70008470EFD0200783C70407C18BA5CF83C72D
:101A8000040793F70702E5DF83C70407228593F76E
:101A9000F70C2388F406EFF05FD5F1BF372900205B
:101AA0008327495C8297AA848327495C8297E38DC8
:101AB000A4FE8327495C832444098297B72700202A
:101AC0009386C757F03A3385A4401387C75763639B
:101AD000A60005E97A2F83576408B387E702130746
:101AE000003293870719B3D7E70203274409BA974F
:101AF000232AF408F2406244D2444249B2490561C3
:101B00008280B7240020138784708347170703D986
:101B1000E601814693E71700A308F706B7370020D0
:101B200083A94785A1674A8623A4F900B7470F0018
:101B300093870724B335F5023305F502EF50F14FD3
:101B4000060523A6A9069387847003C71707098B88
:101B50006DDF0356640803C71707330626031377A0
:101B6000C70FA388E70693070032130606193356FA
:101B7000F602832744093E96232AC408E5B5834725
:101B8000C507B1CB411122C406C626C249472A84E3
:101B9000639CE70203572508835785086316F702FD
:101BA00093048509B725002015469385E57F268592
:101BB00097E0FA1FE780207A2685EF30F0678D479F
:101BC000A300A408230EF40622852244B2409244C6
:101BD00041016FF09FDF82803C2D411122C406C677
:101BE00099071CB93C45114718A998A33C451839D9
:101BF0002A8498B383471503858B91E70347050330
